{
  "_format": "hh-sol-artifact-1",
  "contractName": "BridgeIN",
  "sourceName": "contracts/BridgeIN.sol",
  "abi": [
    {
      "inputs": [],
      "stateMutability": "nonpayable",
      "type": "constructor"
    },
    {
      "anonymous": false,
      "inputs": [
        {
          "indexed": false,
          "internalType": "address",
          "name": "tokenAddress",
          "type": "address"
        },
        {
          "indexed": false,
          "internalType": "address",
          "name": "depositor",
          "type": "address"
        },
        {
          "indexed": false,
          "internalType": "uint256",
          "name": "amount",
          "type": "uint256"
        },
        {
          "indexed": false,
          "internalType": "uint256",
          "name": "nonce",
          "type": "uint256"
        }
      ],
      "name": "Deposit",
      "type": "event"
    },
    {
      "inputs": [
        {
          "internalType": "address",
          "name": "tokenAddress",
          "type": "address"
        },
        {
          "internalType": "address",
          "name": "depositor",
          "type": "address"
        },
        {
          "internalType": "uint256",
          "name": "amount",
          "type": "uint256"
        }
      ],
      "name": "deposit",
      "outputs": [],
      "stateMutability": "nonpayable",
      "type": "function"
    },
    {
      "inputs": [],
      "name": "depositNonce",
      "outputs": [
        {
          "internalType": "uint256",
          "name": "",
          "type": "uint256"
        }
      ],
      "stateMutability": "view",
      "type": "function"
    },
    {
      "inputs": [],
      "name": "erc20Handler",
      "outputs": [
        {
          "internalType": "address",
          "name": "",
          "type": "address"
        }
      ],
      "stateMutability": "view",
      "type": "function"
    },
    {
      "inputs": [
        {
          "internalType": "address",
          "name": "token",
          "type": "address"
        },
        {
          "internalType": "uint256",
          "name": "amount",
          "type": "uint256"
        },
        {
          "internalType": "uint64",
          "name": "withdrawNonce",
          "type": "uint64"
        },
        {
          "internalType": "address",
          "name": "user",
          "type": "address"
        }
      ],
      "name": "handleWithdraw",
      "outputs": [
        {
          "internalType": "address",
          "name": "_user",
          "type": "address"
        }
      ],
      "stateMutability": "nonpayable",
      "type": "function"
    },
    {
      "inputs": [
        {
          "internalType": "address",
          "name": "_handler",
          "type": "address"
        }
      ],
      "name": "setHandler",
      "outputs": [],
      "stateMutability": "nonpayable",
      "type": "function"
    },
    {
      "inputs": [
        {
          "internalType": "address",
          "name": "_token",
          "type": "address"
        },
        {
          "internalType": "bool",
          "name": "_isBurnable",
          "type": "bool"
        },
        {
          "internalType": "bool",
          "name": "_isWhitelisted",
          "type": "bool"
        }
      ],
      "name": "setToken",
      "outputs": [],
      "stateMutability": "nonpayable",
      "type": "function"
    }
  ],
  "bytecode": "0x608060405234801561001057600080fd5b50600080546001600160a01b03191633179055610730806100326000396000f3fe608060405234801561001057600080fd5b50600436106100625760003560e01c8063019b9e2f146100675780631cb9e2621461009757806349141db7146100aa5780638340f549146100bf578063bac426d0146100d2578063de35f5cb146100e5575b600080fd5b61007a610075366004610494565b6100fc565b6040516001600160a01b0390911681526020015b60405180910390f35b60025461007a906001600160a01b031681565b6100bd6100b8366004610509565b610128565b005b6100bd6100cd36600461054e565b6101a7565b6100bd6100e036600461058f565b610347565b6100ee60015481565b60405190815260200161008e565b60006101206040518060600160405280602881526020016106b06028913983610371565b509392505050565b6101306103ba565b600254604051630243897960e01b81526001600160a01b03858116600483015284151560248301528315156044830152909116908190630243897990606401600060405180830381600087803b15801561018957600080fd5b505af115801561019d573d6000803e3d6000fd5b5050505050505050565b600180549060006101b7836105b3565b9091555050600254604051638340f54960e01b81526001600160a01b03858116600483015284811660248301526044820184905290911690600090819081908490638340f549906064016060604051808303816000875af1158015610220573d6000803e3d6000fd5b505050506040513d601f19601f8201168201806040525081019061024491906105da565b92509250925061026c6040518060600160405280602381526020016106d86023913984610371565b6102ab6040518060400160405280602081526020017f3d3d3d3d3d3d3d3d3d3d3d3d7c2072657475726e65644465706f7369746f723a81525083610371565b6102ea6040518060400160405280601d81526020017f3d3d3d3d3d3d3d3d3d3d3d3d7c2072657475726e6564416d6f756e743a00000081525082610411565b600154604080516001600160a01b038681168252851660208201528082018490526060810192909252517fdcbc1c05240f31ff3ad067ef1ee35ce4997762752e3a095284754544f4c709d79181900360800190a150505050505050565b61034f6103ba565b600280546001600160a01b0319166001600160a01b0392909216919091179055565b6103b68282604051602401610387929190610663565b60408051601f198184030181529190526020810180516001600160e01b031663319af33360e01b179052610452565b5050565b6000546001600160a01b0316331461040f5760405162461bcd60e51b815260206004820152601460248201527339b2b73232b91036bab9ba1031329037bbb732b960611b604482015260640160405180910390fd5b565b6103b6828260405160240161042792919061068d565b60408051601f198184030181529190526020810180516001600160e01b0316632d839cb360e21b1790525b61045b8161045e565b50565b60006a636f6e736f6c652e6c6f679050600080835160208501845afa505050565b6001600160a01b038116811461045b57600080fd5b600080600080608085870312156104aa57600080fd5b84356104b58161047f565b935060208501359250604085013567ffffffffffffffff811681146104d957600080fd5b915060608501356104e98161047f565b939692955090935050565b8035801515811461050457600080fd5b919050565b60008060006060848603121561051e57600080fd5b83356105298161047f565b9250610537602085016104f4565b9150610545604085016104f4565b90509250925092565b60008060006060848603121561056357600080fd5b833561056e8161047f565b9250602084013561057e8161047f565b929592945050506040919091013590565b6000602082840312156105a157600080fd5b81356105ac8161047f565b9392505050565b6000600182016105d357634e487b7160e01b600052601160045260246000fd5b5060010190565b6000806000606084860312156105ef57600080fd5b83516105fa8161047f565b602085015190935061060b8161047f565b80925050604084015190509250925092565b6000815180845260005b8181101561064357602081850181015186830182015201610627565b506000602082860101526020601f19601f83011685010191505092915050565b604081526000610676604083018561061d565b905060018060a01b03831660208301529392505050565b6040815260006106a0604083018561061d565b9050826020830152939250505056fe3d3d3d3d3d3d3d3d3d3d3d3d3d3d3d3d20476f74206e65772057697468647261777c20557365723a3d3d3d3d3d3d3d3d3d3d3d3d7c2072657475726e6564546f6b656e416464726573733aa2646970667358221220dc688a86c8cd2510cd8b599e55322c7ebeda4e3f90ccaecf27712836cea368ed64736f6c63430008140033",
  "linkReferences": {},
  "deployedLinkReferences": {}
}