{
  "_format": "hh-sol-artifact-1",
  "contractName": "BridgeIN",
  "sourceName": "contracts/BridgeIN.sol",
  "abi": [
    {
      "inputs": [],
      "stateMutability": "nonpayable",
      "type": "constructor"
    },
    {
      "anonymous": false,
      "inputs": [
        {
          "indexed": false,
          "internalType": "address",
          "name": "tokenAddress",
          "type": "address"
        },
        {
          "indexed": false,
          "internalType": "address",
          "name": "depositor",
          "type": "address"
        },
        {
          "indexed": false,
          "internalType": "uint256",
          "name": "amount",
          "type": "uint256"
        },
        {
          "indexed": false,
          "internalType": "uint256",
          "name": "nonce",
          "type": "uint256"
        }
      ],
      "name": "Deposit",
      "type": "event"
    },
    {
      "anonymous": false,
      "inputs": [
        {
          "indexed": false,
          "internalType": "address",
          "name": "tokenAddress",
          "type": "address"
        },
        {
          "indexed": false,
          "internalType": "address",
          "name": "recipient",
          "type": "address"
        },
        {
          "indexed": false,
          "internalType": "uint256",
          "name": "amount",
          "type": "uint256"
        }
      ],
      "name": "Withdraw",
      "type": "event"
    },
    {
      "inputs": [
        {
          "internalType": "address",
          "name": "tokenAddress",
          "type": "address"
        },
        {
          "internalType": "address",
          "name": "depositor",
          "type": "address"
        },
        {
          "internalType": "uint256",
          "name": "amount",
          "type": "uint256"
        }
      ],
      "name": "deposit",
      "outputs": [],
      "stateMutability": "nonpayable",
      "type": "function"
    },
    {
      "inputs": [],
      "name": "depositNonce",
      "outputs": [
        {
          "internalType": "uint256",
          "name": "",
          "type": "uint256"
        }
      ],
      "stateMutability": "view",
      "type": "function"
    },
    {
      "inputs": [],
      "name": "erc20Handler",
      "outputs": [
        {
          "internalType": "address",
          "name": "",
          "type": "address"
        }
      ],
      "stateMutability": "view",
      "type": "function"
    },
    {
      "inputs": [
        {
          "internalType": "address",
          "name": "_handler",
          "type": "address"
        }
      ],
      "name": "setHandler",
      "outputs": [],
      "stateMutability": "nonpayable",
      "type": "function"
    },
    {
      "inputs": [
        {
          "internalType": "address",
          "name": "_token",
          "type": "address"
        },
        {
          "internalType": "bool",
          "name": "_isBurnable",
          "type": "bool"
        },
        {
          "internalType": "bool",
          "name": "_isWhitelisted",
          "type": "bool"
        }
      ],
      "name": "setToken",
      "outputs": [],
      "stateMutability": "nonpayable",
      "type": "function"
    },
    {
      "inputs": [
        {
          "internalType": "address",
          "name": "_validator",
          "type": "address"
        }
      ],
      "name": "setValidator",
      "outputs": [],
      "stateMutability": "nonpayable",
      "type": "function"
    },
    {
      "inputs": [],
      "name": "validatorstNonce",
      "outputs": [
        {
          "internalType": "uint256",
          "name": "",
          "type": "uint256"
        }
      ],
      "stateMutability": "view",
      "type": "function"
    },
    {
      "inputs": [
        {
          "internalType": "address",
          "name": "token",
          "type": "address"
        },
        {
          "internalType": "uint256",
          "name": "amount",
          "type": "uint256"
        },
        {
          "internalType": "uint64",
          "name": "withdrawNonce",
          "type": "uint64"
        },
        {
          "internalType": "address",
          "name": "user",
          "type": "address"
        }
      ],
      "name": "withdraw",
      "outputs": [],
      "stateMutability": "nonpayable",
      "type": "function"
    }
  ],
  "bytecode": "0x608060405234801561001057600080fd5b50600080546001600160a01b0319163317905561098a806100326000396000f3fe608060405234801561001057600080fd5b50600436106100885760003560e01c8063bac426d01161005b578063bac426d0146100f8578063de35f5cb1461010b578063f9a721c714610122578063fee0467a1461012b57600080fd5b80631327d3d81461008d5780631cb9e262146100a257806349141db7146100d25780638340f549146100e5575b600080fd5b6100a061009b366004610721565b61013e565b005b6003546100b5906001600160a01b031681565b6040516001600160a01b0390911681526020015b60405180910390f35b6100a06100e036600461075a565b61017f565b6100a06100f336600461079f565b6101fe565b6100a0610106366004610721565b610302565b61011460015481565b6040519081526020016100c9565b61011460025481565b6100a06101393660046107e0565b61032c565b6101466105e4565b6002805490600061015683610840565b90915550506001600160a01b03166000908152600460205260409020805460ff19166001179055565b6101876105e4565b600354604051630243897960e01b81526001600160a01b03858116600483015284151560248301528315156044830152909116908190630243897990606401600060405180830381600087803b1580156101e057600080fd5b505af11580156101f4573d6000803e3d6000fd5b5050505050505050565b6001805490600061020e83610840565b9091555050600354604051638340f54960e01b81526001600160a01b03858116600483015284811660248301526044820184905290911690600090819081908490638340f549906064016060604051808303816000875af1158015610277573d6000803e3d6000fd5b505050506040513d601f19601f8201168201806040525081019061029b9190610867565b600154604080516001600160a01b03808716825285166020820152908101839052606081019190915292955090935091507fdcbc1c05240f31ff3ad067ef1ee35ce4997762752e3a095284754544f4c709d79060800160405180910390a150505050505050565b61030a6105e4565b600380546001600160a01b0319166001600160a01b0392909216919091179055565b610334610637565b67ffffffffffffffff821660009081526005602052604090205460ff161561039a5760405162461bcd60e51b8152602060048201526014602482015273141c9bdc1bdcd85b081a5cc8195e1958dd5d195960621b60448201526064015b60405180910390fd5b67ffffffffffffffff821660009081526005602052604081206001015490036104285767ffffffffffffffff821660008181526005602052604090206002810180546001600160a01b0319166001600160a01b038881169190911790915560038201869055600490910180546001600160e01b03191690921768010000000000000000918416919091021790555b67ffffffffffffffff8216600090815260056020526040812060010180549161045083610840565b91905055506104796040518060600160405280602a815260200161092b602a9139600254610696565b6104b76040518060600160405280602b8152602001610900602b913967ffffffffffffffff8416600090815260056020526040902060010154610696565b60025467ffffffffffffffff8316600090815260056020526040902060010154106105de5767ffffffffffffffff8216600090815260056020526040808220805460ff1916600117905560035490516324d6d89560e11b8152600481018690526001600160a01b038781166024830152848116604483015290911691908190819084906349adb12a906064016060604051808303816000875af1158015610562573d6000803e3d6000fd5b505050506040513d601f19601f820116820180604052508101906105869190610867565b604080516001600160a01b0380861682528416602082015290810182905292955090935091507f9b1bfa7fa9ee420a16e124f794c35ac9f90472acc99140eb2f6447c714cad8eb9060600160405180910390a1505050505b50505050565b6000546001600160a01b031633146106355760405162461bcd60e51b815260206004820152601460248201527339b2b73232b91036bab9ba1031329037bbb732b960611b6044820152606401610391565b565b3360009081526004602052604090205460ff166106355760405162461bcd60e51b815260206004820152601a60248201527f73656e646572206d75737420626520612076616c696461746f720000000000006044820152606401610391565b6106db82826040516024016106ac9291906108aa565b60408051601f198184030181529190526020810180516001600160e01b0316632d839cb360e21b1790526106df565b5050565b6106e8816106eb565b50565b60006a636f6e736f6c652e6c6f679050600080835160208501845afa505050565b6001600160a01b03811681146106e857600080fd5b60006020828403121561073357600080fd5b813561073e8161070c565b9392505050565b8035801515811461075557600080fd5b919050565b60008060006060848603121561076f57600080fd5b833561077a8161070c565b925061078860208501610745565b915061079660408501610745565b90509250925092565b6000806000606084860312156107b457600080fd5b83356107bf8161070c565b925060208401356107cf8161070c565b929592945050506040919091013590565b600080600080608085870312156107f657600080fd5b84356108018161070c565b935060208501359250604085013567ffffffffffffffff8116811461082557600080fd5b915060608501356108358161070c565b939692955090935050565b60006001820161086057634e487b7160e01b600052601160045260246000fd5b5060010190565b60008060006060848603121561087c57600080fd5b83516108878161070c565b60208501519093506108988161070c565b80925050604084015190509250925092565b604081526000835180604084015260005b818110156108d857602081870181015160608684010152016108bb565b506000606082850101526060601f19601f830116840101915050826020830152939250505056fe3d3d3d3d3d3d3d3d3d3d3d3d3d3d3d3d2050726f706f73616c2076616c69646174696f6e734e6f6e63653a3d3d3d3d3d3d3d3d3d3d3d3d3d3d3d3d2043757272656e742076616c69646174696f6e734e6f6e63653aa264697066735822122038a07503bae4ae54e39e285963e4928be21442d22ec9589e53b10f2e861eb4f864736f6c63430008140033",
  "linkReferences": {},
  "deployedLinkReferences": {}
}