{
  "_format": "hh-sol-artifact-1",
  "contractName": "BridgeIN",
  "sourceName": "contracts/BridgeIN.sol",
  "abi": [
    {
      "inputs": [],
      "stateMutability": "nonpayable",
      "type": "constructor"
    },
    {
      "inputs": [
        {
          "internalType": "address",
          "name": "owner",
          "type": "address"
        }
      ],
      "name": "OwnableInvalidOwner",
      "type": "error"
    },
    {
      "inputs": [
        {
          "internalType": "address",
          "name": "account",
          "type": "address"
        }
      ],
      "name": "OwnableUnauthorizedAccount",
      "type": "error"
    },
    {
      "anonymous": false,
      "inputs": [
        {
          "indexed": false,
          "internalType": "address",
          "name": "tokenAddress",
          "type": "address"
        },
        {
          "indexed": false,
          "internalType": "address",
          "name": "depositor",
          "type": "address"
        },
        {
          "indexed": false,
          "internalType": "uint256",
          "name": "amount",
          "type": "uint256"
        },
        {
          "indexed": false,
          "internalType": "uint256",
          "name": "nonce",
          "type": "uint256"
        }
      ],
      "name": "Deposit",
      "type": "event"
    },
    {
      "anonymous": false,
      "inputs": [
        {
          "indexed": true,
          "internalType": "address",
          "name": "previousOwner",
          "type": "address"
        },
        {
          "indexed": true,
          "internalType": "address",
          "name": "newOwner",
          "type": "address"
        }
      ],
      "name": "OwnershipTransferred",
      "type": "event"
    },
    {
      "anonymous": false,
      "inputs": [
        {
          "indexed": false,
          "internalType": "address",
          "name": "tokenAddress",
          "type": "address"
        },
        {
          "indexed": false,
          "internalType": "address",
          "name": "recipient",
          "type": "address"
        },
        {
          "indexed": false,
          "internalType": "uint256",
          "name": "amount",
          "type": "uint256"
        }
      ],
      "name": "Withdraw",
      "type": "event"
    },
    {
      "inputs": [
        {
          "internalType": "address",
          "name": "tokenAddress",
          "type": "address"
        },
        {
          "internalType": "address",
          "name": "depositor",
          "type": "address"
        },
        {
          "internalType": "uint256",
          "name": "amount",
          "type": "uint256"
        }
      ],
      "name": "deposit",
      "outputs": [],
      "stateMutability": "payable",
      "type": "function"
    },
    {
      "inputs": [],
      "name": "depositNonce",
      "outputs": [
        {
          "internalType": "uint256",
          "name": "",
          "type": "uint256"
        }
      ],
      "stateMutability": "view",
      "type": "function"
    },
    {
      "inputs": [],
      "name": "erc20Handler",
      "outputs": [
        {
          "internalType": "address",
          "name": "",
          "type": "address"
        }
      ],
      "stateMutability": "view",
      "type": "function"
    },
    {
      "inputs": [],
      "name": "mainValidator",
      "outputs": [
        {
          "internalType": "address",
          "name": "",
          "type": "address"
        }
      ],
      "stateMutability": "view",
      "type": "function"
    },
    {
      "inputs": [],
      "name": "owner",
      "outputs": [
        {
          "internalType": "address",
          "name": "",
          "type": "address"
        }
      ],
      "stateMutability": "view",
      "type": "function"
    },
    {
      "inputs": [],
      "name": "renounceOwnership",
      "outputs": [],
      "stateMutability": "nonpayable",
      "type": "function"
    },
    {
      "inputs": [
        {
          "internalType": "address",
          "name": "_handler",
          "type": "address"
        }
      ],
      "name": "setHandler",
      "outputs": [],
      "stateMutability": "nonpayable",
      "type": "function"
    },
    {
      "inputs": [
        {
          "internalType": "address",
          "name": "_token",
          "type": "address"
        },
        {
          "internalType": "bool",
          "name": "_isBurnable",
          "type": "bool"
        },
        {
          "internalType": "bool",
          "name": "_isWhitelisted",
          "type": "bool"
        }
      ],
      "name": "setToken",
      "outputs": [],
      "stateMutability": "nonpayable",
      "type": "function"
    },
    {
      "inputs": [
        {
          "internalType": "address",
          "name": "_validator",
          "type": "address"
        }
      ],
      "name": "setValidator",
      "outputs": [],
      "stateMutability": "nonpayable",
      "type": "function"
    },
    {
      "inputs": [
        {
          "internalType": "address",
          "name": "newOwner",
          "type": "address"
        }
      ],
      "name": "transferOwnership",
      "outputs": [],
      "stateMutability": "nonpayable",
      "type": "function"
    },
    {
      "inputs": [],
      "name": "validatorstNonce",
      "outputs": [
        {
          "internalType": "uint256",
          "name": "",
          "type": "uint256"
        }
      ],
      "stateMutability": "view",
      "type": "function"
    },
    {
      "inputs": [
        {
          "internalType": "address",
          "name": "token",
          "type": "address"
        },
        {
          "internalType": "uint256",
          "name": "amount",
          "type": "uint256"
        },
        {
          "internalType": "uint256",
          "name": "withdrawNonce",
          "type": "uint256"
        },
        {
          "internalType": "address",
          "name": "user",
          "type": "address"
        },
        {
          "internalType": "uint256",
          "name": "validatorReward",
          "type": "uint256"
        }
      ],
      "name": "withdraw",
      "outputs": [],
      "stateMutability": "nonpayable",
      "type": "function"
    }
  ],
  "bytecode": "0x608060405234801561001057600080fd5b50338061003757604051631e4fbdf760e01b81526000600482015260240160405180910390fd5b61004081610046565b50610096565b600080546001600160a01b038381166001600160a01b0319831681178455604051919092169283917f8be0079c531659141344cd1fd0a4f28419497f9722a3daafe3b4186f6b6457e09190a35050565b610a13806100a56000396000f3fe6080604052600436106100a75760003560e01c80638340f549116100645780638340f549146101805780638da5cb5b14610193578063bac426d0146101b1578063de35f5cb146101d1578063f2fde38b146101f5578063f9a721c71461021557600080fd5b806309a5fca3146100ac5780631327d3d8146100ce5780631cb9e262146100ee57806349141db71461012b5780635dbc2f831461014b578063715018a61461016b575b600080fd5b3480156100b857600080fd5b506100cc6100c7366004610862565b61022b565b005b3480156100da57600080fd5b506100cc6100e93660046108b4565b6104d1565b3480156100fa57600080fd5b5060045461010e906001600160a01b031681565b6040516001600160a01b0390911681526020015b60405180910390f35b34801561013757600080fd5b506100cc6101463660046108ed565b610512565b34801561015757600080fd5b5060015461010e906001600160a01b031681565b34801561017757600080fd5b506100cc610593565b6100cc61018e366004610932565b6105a7565b34801561019f57600080fd5b506000546001600160a01b031661010e565b3480156101bd57600080fd5b506100cc6101cc3660046108b4565b610709565b3480156101dd57600080fd5b506101e760025481565b604051908152602001610122565b34801561020157600080fd5b506100cc6102103660046108b4565b610733565b34801561022157600080fd5b506101e760035481565b610233610771565b60008381526006602052604090205460ff161561028e5760405162461bcd60e51b8152602060048201526014602482015273141c9bdc1bdcd85b081a5cc8195e1958dd5d195960621b60448201526064015b60405180910390fd5b60008381526006602052604081206001015490036102f55760008381526006602052604090206002810180546001600160a01b038089166001600160a01b031992831617909255600383018790556004830186905560059092018054918516919092161790555b600083815260066020526040812060010180549161031283610973565b9091555050600354600084815260066020526040902060010154106104ca57600083815260066020526040808220805460ff19166001179055600480549151632d182be560e21b81529081018790526001600160a01b0388811660248301528581166044830152909116919081908190849063b460af94906064016060604051808303816000875af11580156103ac573d6000803e3d6000fd5b505050506040513d601f19601f820116820180604052508101906103d0919061099a565b9250925092506000336001600160a01b03168660405160006040518083038185875af1925050503d8060008114610423576040519150601f19603f3d011682016040523d82523d6000602084013e610428565b606091505b50509050806104795760405162461bcd60e51b815260206004820152601760248201527f52657761726473207472616e73666572206661696c65640000000000000000006044820152606401610285565b604080516001600160a01b038087168252851660208201529081018390527f9b1bfa7fa9ee420a16e124f794c35ac9f90472acc99140eb2f6447c714cad8eb9060600160405180910390a150505050505b5050505050565b6104d96107d0565b600380549060006104e983610973565b90915550506001600160a01b03166000908152600560205260409020805460ff19166001179055565b61051a6107d0565b60048054604051630243897960e01b81526001600160a01b0386811693820193909352841515602482015283151560448201529116908190630243897990606401600060405180830381600087803b15801561057557600080fd5b505af1158015610589573d6000803e3d6000fd5b5050505050505050565b61059b6107d0565b6105a560006107fd565b565b600034116106035760405162461bcd60e51b8152602060048201526024808201527f76616c7565206f662076616c696461746f722072657761726420697320746f6f604482015263206c6f7760e01b6064820152608401610285565b6002805490600061061383610973565b909155505060048054604051638340f54960e01b81526001600160a01b0386811693820193909352848316602482015260448101849052911690600090819081908490638340f549906064016060604051808303816000875af115801561067e573d6000803e3d6000fd5b505050506040513d601f19601f820116820180604052508101906106a2919061099a565b600254604080516001600160a01b03808716825285166020820152908101839052606081019190915292955090935091507fdcbc1c05240f31ff3ad067ef1ee35ce4997762752e3a095284754544f4c709d79060800160405180910390a150505050505050565b6107116107d0565b600480546001600160a01b0319166001600160a01b0392909216919091179055565b61073b6107d0565b6001600160a01b03811661076557604051631e4fbdf760e01b815260006004820152602401610285565b61076e816107fd565b50565b3360009081526005602052604090205460ff166105a55760405162461bcd60e51b815260206004820152601a60248201527f73656e646572206d75737420626520612076616c696461746f720000000000006044820152606401610285565b6000546001600160a01b031633146105a55760405163118cdaa760e01b8152336004820152602401610285565b600080546001600160a01b038381166001600160a01b0319831681178455604051919092169283917f8be0079c531659141344cd1fd0a4f28419497f9722a3daafe3b4186f6b6457e09190a35050565b6001600160a01b038116811461076e57600080fd5b600080600080600060a0868803121561087a57600080fd5b85356108858161084d565b9450602086013593506040860135925060608601356108a38161084d565b949793965091946080013592915050565b6000602082840312156108c657600080fd5b81356108d18161084d565b9392505050565b803580151581146108e857600080fd5b919050565b60008060006060848603121561090257600080fd5b833561090d8161084d565b925061091b602085016108d8565b9150610929604085016108d8565b90509250925092565b60008060006060848603121561094757600080fd5b83356109528161084d565b925060208401356109628161084d565b929592945050506040919091013590565b60006001820161099357634e487b7160e01b600052601160045260246000fd5b5060010190565b6000806000606084860312156109af57600080fd5b83516109ba8161084d565b60208501519093506109cb8161084d565b8092505060408401519050925092509256fea26469706673582212203701bf97aeff15bb01dad80e6dd1e7563e4dcb816febf4710d840599cc24fd8664736f6c63430008140033",
  "linkReferences": {},
  "deployedLinkReferences": {}
}