{"contracts/Bridge.sol":{"Bridge":{"abi":[{"inputs":[{"internalType":"address","name":"_oracleDepositStorage","type":"address"}],"stateMutability":"nonpayable","type":"constructor"},{"inputs":[{"internalType":"address","name":"owner","type":"address"}],"name":"OwnableInvalidOwner","type":"error"},{"inputs":[{"internalType":"address","name":"account","type":"address"}],"name":"OwnableUnauthorizedAccount","type":"error"},{"anonymous":false,"inputs":[{"indexed":false,"internalType":"address","name":"tokenAddress","type":"address"},{"indexed":false,"internalType":"address","name":"depositor","type":"address"},{"indexed":false,"internalType":"uint256","name":"amount","type":"uint256"}],"name":"Deposit","type":"event"},{"anonymous":false,"inputs":[{"indexed":true,"internalType":"address","name":"previousOwner","type":"address"},{"indexed":true,"internalType":"address","name":"newOwner","type":"address"}],"name":"OwnershipTransferred","type":"event"},{"anonymous":false,"inputs":[{"indexed":false,"internalType":"address","name":"tokenAddress","type":"address"},{"indexed":false,"internalType":"address","name":"depositor","type":"address"},{"indexed":false,"internalType":"uint256","name":"amount","type":"uint256"}],"name":"Received","type":"event"},{"inputs":[{"internalType":"address","name":"tokenAddress","type":"address"},{"internalType":"address","name":"depositor","type":"address"},{"internalType":"uint256","name":"amount","type":"uint256"}],"name":"depositTokens","outputs":[],"stateMutability":"payable","type":"function"},{"inputs":[],"name":"erc20Handler","outputs":[{"internalType":"address","name":"","type":"address"}],"stateMutability":"view","type":"function"},{"inputs":[],"name":"owner","outputs":[{"internalType":"address","name":"","type":"address"}],"stateMutability":"view","type":"function"},{"inputs":[{"internalType":"bytes32","name":"","type":"bytes32"}],"name":"receiveSubmissions","outputs":[{"internalType":"uint256","name":"","type":"uint256"}],"stateMutability":"view","type":"function"},{"inputs":[{"internalType":"bytes32","name":"_txHash","type":"bytes32"},{"internalType":"address","name":"_recipient","type":"address"},{"internalType":"address","name":"_token","type":"address"},{"internalType":"uint256","name":"_amount","type":"uint256"},{"internalType":"bytes32","name":"_leaf","type":"bytes32"},{"internalType":"bytes32[]","name":"_proof","type":"bytes32[]"}],"name":"receiveTokens","outputs":[],"stateMutability":"nonpayable","type":"function"},{"inputs":[],"name":"renounceOwnership","outputs":[],"stateMutability":"nonpayable","type":"function"},{"inputs":[{"internalType":"address","name":"_handler","type":"address"}],"name":"setHandler","outputs":[],"stateMutability":"nonpayable","type":"function"},{"inputs":[{"internalType":"address","name":"_token","type":"address"},{"internalType":"bool","name":"_isBurnable","type":"bool"},{"internalType":"bool","name":"_isWhitelisted","type":"bool"},{"internalType":"address","name":"_pair","type":"address"}],"name":"setToken","outputs":[],"stateMutability":"nonpayable","type":"function"},{"inputs":[{"internalType":"address","name":"_validator","type":"address"}],"name":"setValidator","outputs":[],"stateMutability":"nonpayable","type":"function"},{"inputs":[{"internalType":"address","name":"","type":"address"}],"name":"tokenToReceive","outputs":[{"internalType":"address","name":"","type":"address"}],"stateMutability":"view","type":"function"},{"inputs":[{"internalType":"address","name":"newOwner","type":"address"}],"name":"transferOwnership","outputs":[],"stateMutability":"nonpayable","type":"function"},{"inputs":[],"name":"validatorsAmount","outputs":[{"internalType":"uint256","name":"","type":"uint256"}],"stateMutability":"view","type":"function"},{"stateMutability":"payable","type":"receive"}],"evm":{"bytecode":{"linkReferences":{},"object":"608060405234801561001057600080fd5b50604051610d32380380610d3283398101604081905261002f916100d4565b338061005557604051631e4fbdf760e01b81526000600482015260240160405180910390fd5b61005e81610084565b50600580546001600160a01b0319166001600160a01b0392909216919091179055610104565b600080546001600160a01b038381166001600160a01b0319831681178455604051919092169283917f8be0079c531659141344cd1fd0a4f28419497f9722a3daafe3b4186f6b6457e09190a35050565b6000602082840312156100e657600080fd5b81516001600160a01b03811681146100fd57600080fd5b9392505050565b610c1f806101136000396000f3fe6080604052600436106100ab5760003560e01c80638da5cb5b116100645780638da5cb5b14610182578063aa86475d146101a0578063bac426d0146101c0578063e19fa744146101e0578063f2fde38b1461020d578063f7717c8e1461022d57600080fd5b80631327d3d8146100b75780631cb9e262146100d957806339dc5ef214610116578063658a544714610129578063715018a61461014957806371b118fe1461015e57600080fd5b366100b257005b600080fd5b3480156100c357600080fd5b506100d76100d2366004610911565b610263565b005b3480156100e557600080fd5b506002546100f9906001600160a01b031681565b6040516001600160a01b0390911681526020015b60405180910390f35b6100d7610124366004610935565b6102a4565b34801561013557600080fd5b506100d7610144366004610976565b6103c2565b34801561015557600080fd5b506100d761062c565b34801561016a57600080fd5b5061017460015481565b60405190815260200161010d565b34801561018e57600080fd5b506000546001600160a01b03166100f9565b3480156101ac57600080fd5b506100d76101bb366004610a3c565b610640565b3480156101cc57600080fd5b506100d76101db366004610911565b6106e6565b3480156101ec57600080fd5b506101746101fb366004610a98565b60066020526000908152604090205481565b34801561021957600080fd5b506100d7610228366004610911565b610710565b34801561023957600080fd5b506100f9610248366004610911565b6007602052600090815260409020546001600160a01b031681565b61026b61074e565b6001805490600061027b83610ac7565b90915550506001600160a01b03166000908152600360205260409020805460ff19166001179055565b600034116103055760405162461bcd60e51b8152602060048201526024808201527f76616c7565206f662076616c696461746f722072657761726420697320746f6f604482015263206c6f7760e01b60648201526084015b60405180910390fd5b600254604051638340f54960e01b81526001600160a01b03909116908190638340f5499061033b90879033908790600401610ae0565b6060604051808303816000875af115801561035a573d6000803e3d6000fd5b505050506040513d601f19601f8201168201806040525081019061037e9190610b04565b5050507f5548c837ab068cf56a2c2479df0882a4922fd203edb7517321831d95078c5f628484846040516103b493929190610ae0565b60405180910390a150505050565b6103ca61077b565b60008781526004602052604090205460ff16156104295760405162461bcd60e51b815260206004820152601860248201527f5472616e73616374696f6e2069732070726f636573736564000000000000000060448201526064016102fc565b6005546040516315b49f4360e31b81526001600160a01b039091169063ada4fa189061045f90859085908c908990600401610b47565b602060405180830381865afa15801561047c573d6000803e3d6000fd5b505050506040513d601f19601f820116820180604052508101906104a09190610b8d565b6104dc5760405162461bcd60e51b815260206004820152600d60248201526c24b73b30b634b210383937b7b360991b60448201526064016102fc565b60008587866040516020016104f393929190610ae0565b6040516020818303038152906040528051906020012090508381146105505760405162461bcd60e51b8152602060048201526013602482015272098cac2cc40c8decae640dcdee840dac2e8c6d606b1b60448201526064016102fc565b6001600160a01b0380871660009081526007602052604090205416806105a85760405162461bcd60e51b815260206004820152600d60248201526c2ab735b737bbb7102a37b5b2b760991b60448201526064016102fc565b60008981526006602052604081208054916105c283610ac7565b919050555060006064600154604d6105da9190610baa565b6105e49190610bc7565b60008b81526006602052604090205490915081116106205760008a8152600460205260409020805460ff19166001179055610620828a896107da565b50505050505050505050565b61063461074e565b61063e60006108ac565b565b61064861074e565b6002546001600160a01b038281166000908152600760205260409081902080546001600160a01b0319168884169081179091559051630243897960e01b81526004810191909152851515602482015284151560448201529116908190630243897990606401600060405180830381600087803b1580156106c757600080fd5b505af11580156106db573d6000803e3d6000fd5b505050505050505050565b6106ee61074e565b600280546001600160a01b0319166001600160a01b0392909216919091179055565b61071861074e565b6001600160a01b03811661074257604051631e4fbdf760e01b8152600060048201526024016102fc565b61074b816108ac565b50565b6000546001600160a01b0316331461063e5760405163118cdaa760e01b81523360048201526024016102fc565b3360009081526003602052604090205460ff1661063e5760405162461bcd60e51b815260206004820152601a60248201527f73656e646572206d75737420626520612076616c696461746f7200000000000060448201526064016102fc565b600254604051632d182be560e21b8152600481018390526001600160a01b03858116602483015284811660448301529091169060009081908190849063b460af94906064016060604051808303816000875af115801561083e573d6000803e3d6000fd5b505050506040513d601f19601f820116820180604052508101906108629190610b04565b9250925092507f8cabf31d2b1b11ba52dbb302817a3c9c83e4b2a5194d35121ab1354d69f6a4cb83838360405161089b93929190610ae0565b60405180910390a150505050505050565b600080546001600160a01b038381166001600160a01b0319831681178455604051919092169283917f8be0079c531659141344cd1fd0a4f28419497f9722a3daafe3b4186f6b6457e09190a35050565b6001600160a01b038116811461074b57600080fd5b60006020828403121561092357600080fd5b813561092e816108fc565b9392505050565b60008060006060848603121561094a57600080fd5b8335610955816108fc565b92506020840135610965816108fc565b929592945050506040919091013590565b600080600080600080600060c0888a03121561099157600080fd5b8735965060208801356109a3816108fc565b955060408801356109b3816108fc565b9450606088013593506080880135925060a088013567ffffffffffffffff808211156109de57600080fd5b818a0191508a601f8301126109f257600080fd5b813581811115610a0157600080fd5b8b60208260051b8501011115610a1657600080fd5b60208301945080935050505092959891949750929550565b801515811461074b57600080fd5b60008060008060808587031215610a5257600080fd5b8435610a5d816108fc565b93506020850135610a6d81610a2e565b92506040850135610a7d81610a2e565b91506060850135610a8d816108fc565b939692955090935050565b600060208284031215610aaa57600080fd5b5035919050565b634e487b7160e01b600052601160045260246000fd5b600060018201610ad957610ad9610ab1565b5060010190565b6001600160a01b039384168152919092166020820152604081019190915260600190565b600080600060608486031215610b1957600080fd5b8351610b24816108fc565b6020850151909350610b35816108fc565b80925050604084015190509250925092565b6060808252810184905260006001600160fb1b03851115610b6757600080fd5b8460051b8087608085013760208301949094525060408101919091520160800192915050565b600060208284031215610b9f57600080fd5b815161092e81610a2e565b8082028115828204841417610bc157610bc1610ab1565b92915050565b600082610be457634e487b7160e01b600052601260045260246000fd5b50049056fea264697066735822122032c9a38532842ab7d064fefd14772ae1ec630305a3e7b26f73e072f0b92e7ee264736f6c63430008140033","opcodes":"PUSH1 0x80 PUSH1 0x40 MSTORE CALLVALUE DUP1 ISZERO PUSH2 0x10 JUMPI PUSH1 0x0 DUP1 REVERT JUMPDEST POP PUSH1 0x40 MLOAD PUSH2 0xD32 CODESIZE SUB DUP1 PUSH2 0xD32 DUP4 CODECOPY DUP2 ADD PUSH1 0x40 DUP2 SWAP1 MSTORE PUSH2 0x2F SWAP2 PUSH2 0xD4 JUMP JUMPDEST CALLER DUP1 PUSH2 0x55 JUMPI PUSH1 0x40 MLOAD PUSH4 0x1E4FBDF7 PUSH1 0xE0 SHL DUP2 MSTORE PUSH1 0x0 PUSH1 0x4 DUP3 ADD MSTORE PUSH1 0x24 ADD PUSH1 0x40 MLOAD DUP1 SWAP2 SUB SWAP1 REVERT JUMPDEST PUSH2 0x5E DUP2 PUSH2 0x84 JUMP JUMPDEST POP PUSH1 0x5 DUP1 SLOAD PUSH1 0x1 PUSH1 0x1 PUSH1 0xA0 SHL SUB NOT AND PUSH1 0x1 PUSH1 0x1 PUSH1 0xA0 SHL SUB SWAP3 SWAP1 SWAP3 AND SWAP2 SWAP1 SWAP2 OR SWAP1 SSTORE PUSH2 0x104 JUMP JUMPDEST PUSH1 0x0 DUP1 SLOAD PUSH1 0x1 PUSH1 0x1 PUSH1 0xA0 SHL SUB DUP4 DUP2 AND PUSH1 0x1 PUSH1 0x1 PUSH1 0xA0 SHL SUB NOT DUP4 AND DUP2 OR DUP5 SSTORE PUSH1 0x40 MLOAD SWAP2 SWAP1 SWAP3 AND SWAP3 DUP4 SWAP2 PUSH32 0x8BE0079C531659141344CD1FD0A4F28419497F9722A3DAAFE3B4186F6B6457E0 SWAP2 SWAP1 LOG3 POP POP JUMP JUMPDEST PUSH1 0x0 PUSH1 0x20 DUP3 DUP5 SUB SLT ISZERO PUSH2 0xE6 JUMPI PUSH1 0x0 DUP1 REVERT JUMPDEST DUP2 MLOAD PUSH1 0x1 PUSH1 0x1 PUSH1 0xA0 SHL SUB DUP2 AND DUP2 EQ PUSH2 0xFD JUMPI PUSH1 0x0 DUP1 REVERT JUMPDEST SWAP4 SWAP3 POP POP POP JUMP JUMPDEST PUSH2 0xC1F DUP1 PUSH2 0x113 PUSH1 0x0 CODECOPY PUSH1 0x0 RETURN INVALID PUSH1 0x80 PUSH1 0x40 MSTORE PUSH1 0x4 CALLDATASIZE LT PUSH2 0xAB JUMPI PUSH1 0x0 CALLDATALOAD PUSH1 0xE0 SHR DUP1 PUSH4 0x8DA5CB5B GT PUSH2 0x64 JUMPI DUP1 PUSH4 0x8DA5CB5B EQ PUSH2 0x182 JUMPI DUP1 PUSH4 0xAA86475D EQ PUSH2 0x1A0 JUMPI DUP1 PUSH4 0xBAC426D0 EQ PUSH2 0x1C0 JUMPI DUP1 PUSH4 0xE19FA744 EQ PUSH2 0x1E0 JUMPI DUP1 PUSH4 0xF2FDE38B EQ PUSH2 0x20D JUMPI DUP1 PUSH4 0xF7717C8E EQ PUSH2 0x22D JUMPI PUSH1 0x0 DUP1 REVERT JUMPDEST DUP1 PUSH4 0x1327D3D8 EQ PUSH2 0xB7 JUMPI DUP1 PUSH4 0x1CB9E262 EQ PUSH2 0xD9 JUMPI DUP1 PUSH4 0x39DC5EF2 EQ PUSH2 0x116 JUMPI DUP1 PUSH4 0x658A5447 EQ PUSH2 0x129 JUMPI DUP1 PUSH4 0x715018A6 EQ PUSH2 0x149 JUMPI DUP1 PUSH4 0x71B118FE EQ PUSH2 0x15E JUMPI PUSH1 0x0 DUP1 REVERT JUMPDEST CALLDATASIZE PUSH2 0xB2 JUMPI STOP JUMPDEST PUSH1 0x0 DUP1 REVERT JUMPDEST CALLVALUE DUP1 ISZERO PUSH2 0xC3 JUMPI PUSH1 0x0 DUP1 REVERT JUMPDEST POP PUSH2 0xD7 PUSH2 0xD2 CALLDATASIZE PUSH1 0x4 PUSH2 0x911 JUMP JUMPDEST PUSH2 0x263 JUMP JUMPDEST STOP JUMPDEST CALLVALUE DUP1 ISZERO PUSH2 0xE5 JUMPI PUSH1 0x0 DUP1 REVERT JUMPDEST POP PUSH1 0x2 SLOAD PUSH2 0xF9 SWAP1 PUSH1 0x1 PUSH1 0x1 PUSH1 0xA0 SHL SUB AND DUP2 JUMP JUMPDEST PUSH1 0x40 MLOAD PUSH1 0x1 PUSH1 0x1 PUSH1 0xA0 SHL SUB SWAP1 SWAP2 AND DUP2 MSTORE PUSH1 0x20 ADD JUMPDEST PUSH1 0x40 MLOAD DUP1 SWAP2 SUB SWAP1 RETURN JUMPDEST PUSH2 0xD7 PUSH2 0x124 CALLDATASIZE PUSH1 0x4 PUSH2 0x935 JUMP JUMPDEST PUSH2 0x2A4 JUMP JUMPDEST CALLVALUE DUP1 ISZERO PUSH2 0x135 JUMPI PUSH1 0x0 DUP1 REVERT JUMPDEST POP PUSH2 0xD7 PUSH2 0x144 CALLDATASIZE PUSH1 0x4 PUSH2 0x976 JUMP JUMPDEST PUSH2 0x3C2 JUMP JUMPDEST CALLVALUE DUP1 ISZERO PUSH2 0x155 JUMPI PUSH1 0x0 DUP1 REVERT JUMPDEST POP PUSH2 0xD7 PUSH2 0x62C JUMP JUMPDEST CALLVALUE DUP1 ISZERO PUSH2 0x16A JUMPI PUSH1 0x0 DUP1 REVERT JUMPDEST POP PUSH2 0x174 PUSH1 0x1 SLOAD DUP2 JUMP JUMPDEST PUSH1 0x40 MLOAD SWAP1 DUP2 MSTORE PUSH1 0x20 ADD PUSH2 0x10D JUMP JUMPDEST CALLVALUE DUP1 ISZERO PUSH2 0x18E JUMPI PUSH1 0x0 DUP1 REVERT JUMPDEST POP PUSH1 0x0 SLOAD PUSH1 0x1 PUSH1 0x1 PUSH1 0xA0 SHL SUB AND PUSH2 0xF9 JUMP JUMPDEST CALLVALUE DUP1 ISZERO PUSH2 0x1AC JUMPI PUSH1 0x0 DUP1 REVERT JUMPDEST POP PUSH2 0xD7 PUSH2 0x1BB CALLDATASIZE PUSH1 0x4 PUSH2 0xA3C JUMP JUMPDEST PUSH2 0x640 JUMP JUMPDEST CALLVALUE DUP1 ISZERO PUSH2 0x1CC JUMPI PUSH1 0x0 DUP1 REVERT JUMPDEST POP PUSH2 0xD7 PUSH2 0x1DB CALLDATASIZE PUSH1 0x4 PUSH2 0x911 JUMP JUMPDEST PUSH2 0x6E6 JUMP JUMPDEST CALLVALUE DUP1 ISZERO PUSH2 0x1EC JUMPI PUSH1 0x0 DUP1 REVERT JUMPDEST POP PUSH2 0x174 PUSH2 0x1FB CALLDATASIZE PUSH1 0x4 PUSH2 0xA98 JUMP JUMPDEST PUSH1 0x6 PUSH1 0x20 MSTORE PUSH1 0x0 SWAP1 DUP2 MSTORE PUSH1 0x40 SWAP1 KECCAK256 SLOAD DUP2 JUMP JUMPDEST CALLVALUE DUP1 ISZERO PUSH2 0x219 JUMPI PUSH1 0x0 DUP1 REVERT JUMPDEST POP PUSH2 0xD7 PUSH2 0x228 CALLDATASIZE PUSH1 0x4 PUSH2 0x911 JUMP JUMPDEST PUSH2 0x710 JUMP JUMPDEST CALLVALUE DUP1 ISZERO PUSH2 0x239 JUMPI PUSH1 0x0 DUP1 REVERT JUMPDEST POP PUSH2 0xF9 PUSH2 0x248 CALLDATASIZE PUSH1 0x4 PUSH2 0x911 JUMP JUMPDEST PUSH1 0x7 PUSH1 0x20 MSTORE PUSH1 0x0 SWAP1 DUP2 MSTORE PUSH1 0x40 SWAP1 KECCAK256 SLOAD PUSH1 0x1 PUSH1 0x1 PUSH1 0xA0 SHL SUB AND DUP2 JUMP JUMPDEST PUSH2 0x26B PUSH2 0x74E JUMP JUMPDEST PUSH1 0x1 DUP1 SLOAD SWAP1 PUSH1 0x0 PUSH2 0x27B DUP4 PUSH2 0xAC7 JUMP JUMPDEST SWAP1 SWAP2 SSTORE POP POP PUSH1 0x1 PUSH1 0x1 PUSH1 0xA0 SHL SUB AND PUSH1 0x0 SWAP1 DUP2 MSTORE PUSH1 0x3 PUSH1 0x20 MSTORE PUSH1 0x40 SWAP1 KECCAK256 DUP1 SLOAD PUSH1 0xFF NOT AND PUSH1 0x1 OR SWAP1 SSTORE JUMP JUMPDEST PUSH1 0x0 CALLVALUE GT PUSH2 0x305 JUMPI PUSH1 0x40 MLOAD PUSH3 0x461BCD PUSH1 0xE5 SHL DUP2 MSTORE PUSH1 0x20 PUSH1 0x4 DUP3 ADD MSTORE PUSH1 0x24 DUP1 DUP3 ADD MSTORE PUSH32 0x76616C7565206F662076616C696461746F722072657761726420697320746F6F PUSH1 0x44 DUP3 ADD MSTORE PUSH4 0x206C6F77 PUSH1 0xE0 SHL PUSH1 0x64 DUP3 ADD MSTORE PUSH1 0x84 ADD JUMPDEST PUSH1 0x40 MLOAD DUP1 SWAP2 SUB SWAP1 REVERT JUMPDEST PUSH1 0x2 SLOAD PUSH1 0x40 MLOAD PUSH4 0x8340F549 PUSH1 0xE0 SHL DUP2 MSTORE PUSH1 0x1 PUSH1 0x1 PUSH1 0xA0 SHL SUB SWAP1 SWAP2 AND SWAP1 DUP2 SWAP1 PUSH4 0x8340F549 SWAP1 PUSH2 0x33B SWAP1 DUP8 SWAP1 CALLER SWAP1 DUP8 SWAP1 PUSH1 0x4 ADD PUSH2 0xAE0 JUMP JUMPDEST PUSH1 0x60 PUSH1 0x40 MLOAD DUP1 DUP4 SUB DUP2 PUSH1 0x0 DUP8 GAS CALL ISZERO DUP1 ISZERO PUSH2 0x35A JUMPI RETURNDATASIZE PUSH1 0x0 DUP1 RETURNDATACOPY RETURNDATASIZE PUSH1 0x0 REVERT JUMPDEST POP POP POP POP PUSH1 0x40 MLOAD RETURNDATASIZE PUSH1 0x1F NOT PUSH1 0x1F DUP3 ADD AND DUP3 ADD DUP1 PUSH1 0x40 MSTORE POP DUP2 ADD SWAP1 PUSH2 0x37E SWAP2 SWAP1 PUSH2 0xB04 JUMP JUMPDEST POP POP POP PUSH32 0x5548C837AB068CF56A2C2479DF0882A4922FD203EDB7517321831D95078C5F62 DUP5 DUP5 DUP5 PUSH1 0x40 MLOAD PUSH2 0x3B4 SWAP4 SWAP3 SWAP2 SWAP1 PUSH2 0xAE0 JUMP JUMPDEST PUSH1 0x40 MLOAD DUP1 SWAP2 SUB SWAP1 LOG1 POP POP POP POP JUMP JUMPDEST PUSH2 0x3CA PUSH2 0x77B JUMP JUMPDEST PUSH1 0x0 DUP8 DUP2 MSTORE PUSH1 0x4 PUSH1 0x20 MSTORE PUSH1 0x40 SWAP1 KECCAK256 SLOAD PUSH1 0xFF AND ISZERO PUSH2 0x429 JUMPI PUSH1 0x40 MLOAD PUSH3 0x461BCD PUSH1 0xE5 SHL DUP2 MSTORE PUSH1 0x20 PUSH1 0x4 DUP3 ADD MSTORE PUSH1 0x18 PUSH1 0x24 DUP3 ADD MSTORE PUSH32 0x5472616E73616374696F6E2069732070726F6365737365640000000000000000 PUSH1 0x44 DUP3 ADD MSTORE PUSH1 0x64 ADD PUSH2 0x2FC JUMP JUMPDEST PUSH1 0x5 SLOAD PUSH1 0x40 MLOAD PUSH4 0x15B49F43 PUSH1 0xE3 SHL DUP2 MSTORE PUSH1 0x1 PUSH1 0x1 PUSH1 0xA0 SHL SUB SWAP1 SWAP2 AND SWAP1 PUSH4 0xADA4FA18 SWAP1 PUSH2 0x45F SWAP1 DUP6 SWAP1 DUP6 SWAP1 DUP13 SWAP1 DUP10 SWAP1 PUSH1 0x4 ADD PUSH2 0xB47 JUMP JUMPDEST PUSH1 0x20 PUSH1 0x40 MLOAD DUP1 DUP4 SUB DUP2 DUP7 GAS STATICCALL ISZERO DUP1 ISZERO PUSH2 0x47C JUMPI RETURNDATASIZE PUSH1 0x0 DUP1 RETURNDATACOPY RETURNDATASIZE PUSH1 0x0 REVERT JUMPDEST POP POP POP POP PUSH1 0x40 MLOAD RETURNDATASIZE PUSH1 0x1F NOT PUSH1 0x1F DUP3 ADD AND DUP3 ADD DUP1 PUSH1 0x40 MSTORE POP DUP2 ADD SWAP1 PUSH2 0x4A0 SWAP2 SWAP1 PUSH2 0xB8D JUMP JUMPDEST PUSH2 0x4DC JUMPI PUSH1 0x40 MLOAD PUSH3 0x461BCD PUSH1 0xE5 SHL DUP2 MSTORE PUSH1 0x20 PUSH1 0x4 DUP3 ADD MSTORE PUSH1 0xD PUSH1 0x24 DUP3 ADD MSTORE PUSH13 0x24B73B30B634B210383937B7B3 PUSH1 0x99 SHL PUSH1 0x44 DUP3 ADD MSTORE PUSH1 0x64 ADD PUSH2 0x2FC JUMP JUMPDEST PUSH1 0x0 DUP6 DUP8 DUP7 PUSH1 0x40 MLOAD PUSH1 0x20 ADD PUSH2 0x4F3 SWAP4 SWAP3 SWAP2 SWAP1 PUSH2 0xAE0 JUMP JUMPDEST PUSH1 0x40 MLOAD PUSH1 0x20 DUP2 DUP4 SUB SUB DUP2 MSTORE SWAP1 PUSH1 0x40 MSTORE DUP1 MLOAD SWAP1 PUSH1 0x20 ADD KECCAK256 SWAP1 POP DUP4 DUP2 EQ PUSH2 0x550 JUMPI PUSH1 0x40 MLOAD PUSH3 0x461BCD PUSH1 0xE5 SHL DUP2 MSTORE PUSH1 0x20 PUSH1 0x4 DUP3 ADD MSTORE PUSH1 0x13 PUSH1 0x24 DUP3 ADD MSTORE PUSH19 0x98CAC2CC40C8DECAE640DCDEE840DAC2E8C6D PUSH1 0x6B SHL PUSH1 0x44 DUP3 ADD MSTORE PUSH1 0x64 ADD PUSH2 0x2FC JUMP JUMPDEST PUSH1 0x1 PUSH1 0x1 PUSH1 0xA0 SHL SUB DUP1 DUP8 AND PUSH1 0x0 SWAP1 DUP2 MSTORE PUSH1 0x7 PUSH1 0x20 MSTORE PUSH1 0x40 SWAP1 KECCAK256 SLOAD AND DUP1 PUSH2 0x5A8 JUMPI PUSH1 0x40 MLOAD PUSH3 0x461BCD PUSH1 0xE5 SHL DUP2 MSTORE PUSH1 0x20 PUSH1 0x4 DUP3 ADD MSTORE PUSH1 0xD PUSH1 0x24 DUP3 ADD MSTORE PUSH13 0x2AB735B737BBB7102A37B5B2B7 PUSH1 0x99 SHL PUSH1 0x44 DUP3 ADD MSTORE PUSH1 0x64 ADD PUSH2 0x2FC JUMP JUMPDEST PUSH1 0x0 DUP10 DUP2 MSTORE PUSH1 0x6 PUSH1 0x20 MSTORE PUSH1 0x40 DUP2 KECCAK256 DUP1 SLOAD SWAP2 PUSH2 0x5C2 DUP4 PUSH2 0xAC7 JUMP JUMPDEST SWAP2 SWAP1 POP SSTORE POP PUSH1 0x0 PUSH1 0x64 PUSH1 0x1 SLOAD PUSH1 0x4D PUSH2 0x5DA SWAP2 SWAP1 PUSH2 0xBAA JUMP JUMPDEST PUSH2 0x5E4 SWAP2 SWAP1 PUSH2 0xBC7 JUMP JUMPDEST PUSH1 0x0 DUP12 DUP2 MSTORE PUSH1 0x6 PUSH1 0x20 MSTORE PUSH1 0x40 SWAP1 KECCAK256 SLOAD SWAP1 SWAP2 POP DUP2 GT PUSH2 0x620 JUMPI PUSH1 0x0 DUP11 DUP2 MSTORE PUSH1 0x4 PUSH1 0x20 MSTORE PUSH1 0x40 SWAP1 KECCAK256 DUP1 SLOAD PUSH1 0xFF NOT AND PUSH1 0x1 OR SWAP1 SSTORE PUSH2 0x620 DUP3 DUP11 DUP10 PUSH2 0x7DA JUMP JUMPDEST POP POP POP POP POP POP POP POP POP POP JUMP JUMPDEST PUSH2 0x634 PUSH2 0x74E JUMP JUMPDEST PUSH2 0x63E PUSH1 0x0 PUSH2 0x8AC JUMP JUMPDEST JUMP JUMPDEST PUSH2 0x648 PUSH2 0x74E JUMP JUMPDEST PUSH1 0x2 SLOAD PUSH1 0x1 PUSH1 0x1 PUSH1 0xA0 SHL SUB DUP3 DUP2 AND PUSH1 0x0 SWAP1 DUP2 MSTORE PUSH1 0x7 PUSH1 0x20 MSTORE PUSH1 0x40 SWAP1 DUP2 SWAP1 KECCAK256 DUP1 SLOAD PUSH1 0x1 PUSH1 0x1 PUSH1 0xA0 SHL SUB NOT AND DUP9 DUP5 AND SWAP1 DUP2 OR SWAP1 SWAP2 SSTORE SWAP1 MLOAD PUSH4 0x2438979 PUSH1 0xE0 SHL DUP2 MSTORE PUSH1 0x4 DUP2 ADD SWAP2 SWAP1 SWAP2 MSTORE DUP6 ISZERO ISZERO PUSH1 0x24 DUP3 ADD MSTORE DUP5 ISZERO ISZERO PUSH1 0x44 DUP3 ADD MSTORE SWAP2 AND SWAP1 DUP2 SWAP1 PUSH4 0x2438979 SWAP1 PUSH1 0x64 ADD PUSH1 0x0 PUSH1 0x40 MLOAD DUP1 DUP4 SUB DUP2 PUSH1 0x0 DUP8 DUP1 EXTCODESIZE ISZERO DUP1 ISZERO PUSH2 0x6C7 JUMPI PUSH1 0x0 DUP1 REVERT JUMPDEST POP GAS CALL ISZERO DUP1 ISZERO PUSH2 0x6DB JUMPI RETURNDATASIZE PUSH1 0x0 DUP1 RETURNDATACOPY RETURNDATASIZE PUSH1 0x0 REVERT JUMPDEST POP POP POP POP POP POP POP POP POP JUMP JUMPDEST PUSH2 0x6EE PUSH2 0x74E JUMP JUMPDEST PUSH1 0x2 DUP1 SLOAD PUSH1 0x1 PUSH1 0x1 PUSH1 0xA0 SHL SUB NOT AND PUSH1 0x1 PUSH1 0x1 PUSH1 0xA0 SHL SUB SWAP3 SWAP1 SWAP3 AND SWAP2 SWAP1 SWAP2 OR SWAP1 SSTORE JUMP JUMPDEST PUSH2 0x718 PUSH2 0x74E JUMP JUMPDEST PUSH1 0x1 PUSH1 0x1 PUSH1 0xA0 SHL SUB DUP2 AND PUSH2 0x742 JUMPI PUSH1 0x40 MLOAD PUSH4 0x1E4FBDF7 PUSH1 0xE0 SHL DUP2 MSTORE PUSH1 0x0 PUSH1 0x4 DUP3 ADD MSTORE PUSH1 0x24 ADD PUSH2 0x2FC JUMP JUMPDEST PUSH2 0x74B DUP2 PUSH2 0x8AC JUMP JUMPDEST POP JUMP JUMPDEST PUSH1 0x0 SLOAD PUSH1 0x1 PUSH1 0x1 PUSH1 0xA0 SHL SUB AND CALLER EQ PUSH2 0x63E JUMPI PUSH1 0x40 MLOAD PUSH4 0x118CDAA7 PUSH1 0xE0 SHL DUP2 MSTORE CALLER PUSH1 0x4 DUP3 ADD MSTORE PUSH1 0x24 ADD PUSH2 0x2FC JUMP JUMPDEST CALLER PUSH1 0x0 SWAP1 DUP2 MSTORE PUSH1 0x3 PUSH1 0x20 MSTORE PUSH1 0x40 SWAP1 KECCAK256 SLOAD PUSH1 0xFF AND PUSH2 0x63E JUMPI PUSH1 0x40 MLOAD PUSH3 0x461BCD PUSH1 0xE5 SHL DUP2 MSTORE PUSH1 0x20 PUSH1 0x4 DUP3 ADD MSTORE PUSH1 0x1A PUSH1 0x24 DUP3 ADD MSTORE PUSH32 0x73656E646572206D75737420626520612076616C696461746F72000000000000 PUSH1 0x44 DUP3 ADD MSTORE PUSH1 0x64 ADD PUSH2 0x2FC JUMP JUMPDEST PUSH1 0x2 SLOAD PUSH1 0x40 MLOAD PUSH4 0x2D182BE5 PUSH1 0xE2 SHL DUP2 MSTORE PUSH1 0x4 DUP2 ADD DUP4 SWAP1 MSTORE PUSH1 0x1 PUSH1 0x1 PUSH1 0xA0 SHL SUB DUP6 DUP2 AND PUSH1 0x24 DUP4 ADD MSTORE DUP5 DUP2 AND PUSH1 0x44 DUP4 ADD MSTORE SWAP1 SWAP2 AND SWAP1 PUSH1 0x0 SWAP1 DUP2 SWAP1 DUP2 SWAP1 DUP5 SWAP1 PUSH4 0xB460AF94 SWAP1 PUSH1 0x64 ADD PUSH1 0x60 PUSH1 0x40 MLOAD DUP1 DUP4 SUB DUP2 PUSH1 0x0 DUP8 GAS CALL ISZERO DUP1 ISZERO PUSH2 0x83E JUMPI RETURNDATASIZE PUSH1 0x0 DUP1 RETURNDATACOPY RETURNDATASIZE PUSH1 0x0 REVERT JUMPDEST POP POP POP POP PUSH1 0x40 MLOAD RETURNDATASIZE PUSH1 0x1F NOT PUSH1 0x1F DUP3 ADD AND DUP3 ADD DUP1 PUSH1 0x40 MSTORE POP DUP2 ADD SWAP1 PUSH2 0x862 SWAP2 SWAP1 PUSH2 0xB04 JUMP JUMPDEST SWAP3 POP SWAP3 POP SWAP3 POP PUSH32 0x8CABF31D2B1B11BA52DBB302817A3C9C83E4B2A5194D35121AB1354D69F6A4CB DUP4 DUP4 DUP4 PUSH1 0x40 MLOAD PUSH2 0x89B SWAP4 SWAP3 SWAP2 SWAP1 PUSH2 0xAE0 JUMP JUMPDEST PUSH1 0x40 MLOAD DUP1 SWAP2 SUB SWAP1 LOG1 POP POP POP POP POP POP POP JUMP JUMPDEST PUSH1 0x0 DUP1 SLOAD PUSH1 0x1 PUSH1 0x1 PUSH1 0xA0 SHL SUB DUP4 DUP2 AND PUSH1 0x1 PUSH1 0x1 PUSH1 0xA0 SHL SUB NOT DUP4 AND DUP2 OR DUP5 SSTORE PUSH1 0x40 MLOAD SWAP2 SWAP1 SWAP3 AND SWAP3 DUP4 SWAP2 PUSH32 0x8BE0079C531659141344CD1FD0A4F28419497F9722A3DAAFE3B4186F6B6457E0 SWAP2 SWAP1 LOG3 POP POP JUMP JUMPDEST PUSH1 0x1 PUSH1 0x1 PUSH1 0xA0 SHL SUB DUP2 AND DUP2 EQ PUSH2 0x74B JUMPI PUSH1 0x0 DUP1 REVERT JUMPDEST PUSH1 0x0 PUSH1 0x20 DUP3 DUP5 SUB SLT ISZERO PUSH2 0x923 JUMPI PUSH1 0x0 DUP1 REVERT JUMPDEST DUP2 CALLDATALOAD PUSH2 0x92E DUP2 PUSH2 0x8FC JUMP JUMPDEST SWAP4 SWAP3 POP POP POP JUMP JUMPDEST PUSH1 0x0 DUP1 PUSH1 0x0 PUSH1 0x60 DUP5 DUP7 SUB SLT ISZERO PUSH2 0x94A JUMPI PUSH1 0x0 DUP1 REVERT JUMPDEST DUP4 CALLDATALOAD PUSH2 0x955 DUP2 PUSH2 0x8FC JUMP JUMPDEST SWAP3 POP PUSH1 0x20 DUP5 ADD CALLDATALOAD PUSH2 0x965 DUP2 PUSH2 0x8FC JUMP JUMPDEST SWAP3 SWAP6 SWAP3 SWAP5 POP POP POP PUSH1 0x40 SWAP2 SWAP1 SWAP2 ADD CALLDATALOAD SWAP1 JUMP JUMPDEST PUSH1 0x0 DUP1 PUSH1 0x0 DUP1 PUSH1 0x0 DUP1 PUSH1 0x0 PUSH1 0xC0 DUP9 DUP11 SUB SLT ISZERO PUSH2 0x991 JUMPI PUSH1 0x0 DUP1 REVERT JUMPDEST DUP8 CALLDATALOAD SWAP7 POP PUSH1 0x20 DUP9 ADD CALLDATALOAD PUSH2 0x9A3 DUP2 PUSH2 0x8FC JUMP JUMPDEST SWAP6 POP PUSH1 0x40 DUP9 ADD CALLDATALOAD PUSH2 0x9B3 DUP2 PUSH2 0x8FC JUMP JUMPDEST SWAP5 POP PUSH1 0x60 DUP9 ADD CALLDATALOAD SWAP4 POP PUSH1 0x80 DUP9 ADD CALLDATALOAD SWAP3 POP PUSH1 0xA0 DUP9 ADD CALLDATALOAD PUSH8 0xFFFFFFFFFFFFFFFF DUP1 DUP3 GT ISZERO PUSH2 0x9DE JUMPI PUSH1 0x0 DUP1 REVERT JUMPDEST DUP2 DUP11 ADD SWAP2 POP DUP11 PUSH1 0x1F DUP4 ADD SLT PUSH2 0x9F2 JUMPI PUSH1 0x0 DUP1 REVERT JUMPDEST DUP2 CALLDATALOAD DUP2 DUP2 GT ISZERO PUSH2 0xA01 JUMPI PUSH1 0x0 DUP1 REVERT JUMPDEST DUP12 PUSH1 0x20 DUP3 PUSH1 0x5 SHL DUP6 ADD ADD GT ISZERO PUSH2 0xA16 JUMPI PUSH1 0x0 DUP1 REVERT JUMPDEST PUSH1 0x20 DUP4 ADD SWAP5 POP DUP1 SWAP4 POP POP POP POP SWAP3 SWAP6 SWAP9 SWAP2 SWAP5 SWAP8 POP SWAP3 SWAP6 POP JUMP JUMPDEST DUP1 ISZERO ISZERO DUP2 EQ PUSH2 0x74B JUMPI PUSH1 0x0 DUP1 REVERT JUMPDEST PUSH1 0x0 DUP1 PUSH1 0x0 DUP1 PUSH1 0x80 DUP6 DUP8 SUB SLT ISZERO PUSH2 0xA52 JUMPI PUSH1 0x0 DUP1 REVERT JUMPDEST DUP5 CALLDATALOAD PUSH2 0xA5D DUP2 PUSH2 0x8FC JUMP JUMPDEST SWAP4 POP PUSH1 0x20 DUP6 ADD CALLDATALOAD PUSH2 0xA6D DUP2 PUSH2 0xA2E JUMP JUMPDEST SWAP3 POP PUSH1 0x40 DUP6 ADD CALLDATALOAD PUSH2 0xA7D DUP2 PUSH2 0xA2E JUMP JUMPDEST SWAP2 POP PUSH1 0x60 DUP6 ADD CALLDATALOAD PUSH2 0xA8D DUP2 PUSH2 0x8FC JUMP JUMPDEST SWAP4 SWAP7 SWAP3 SWAP6 POP SWAP1 SWAP4 POP POP JUMP JUMPDEST PUSH1 0x0 PUSH1 0x20 DUP3 DUP5 SUB SLT ISZERO PUSH2 0xAAA JUMPI PUSH1 0x0 DUP1 REVERT JUMPDEST POP CALLDATALOAD SWAP2 SWAP1 POP JUMP JUMPDEST PUSH4 0x4E487B71 PUSH1 0xE0 SHL PUSH1 0x0 MSTORE PUSH1 0x11 PUSH1 0x4 MSTORE PUSH1 0x24 PUSH1 0x0 REVERT JUMPDEST PUSH1 0x0 PUSH1 0x1 DUP3 ADD PUSH2 0xAD9 JUMPI PUSH2 0xAD9 PUSH2 0xAB1 JUMP JUMPDEST POP PUSH1 0x1 ADD SWAP1 JUMP JUMPDEST PUSH1 0x1 PUSH1 0x1 PUSH1 0xA0 SHL SUB SWAP4 DUP5 AND DUP2 MSTORE SWAP2 SWAP1 SWAP3 AND PUSH1 0x20 DUP3 ADD MSTORE PUSH1 0x40 DUP2 ADD SWAP2 SWAP1 SWAP2 MSTORE PUSH1 0x60 ADD SWAP1 JUMP JUMPDEST PUSH1 0x0 DUP1 PUSH1 0x0 PUSH1 0x60 DUP5 DUP7 SUB SLT ISZERO PUSH2 0xB19 JUMPI PUSH1 0x0 DUP1 REVERT JUMPDEST DUP4 MLOAD PUSH2 0xB24 DUP2 PUSH2 0x8FC JUMP JUMPDEST PUSH1 0x20 DUP6 ADD MLOAD SWAP1 SWAP4 POP PUSH2 0xB35 DUP2 PUSH2 0x8FC JUMP JUMPDEST DUP1 SWAP3 POP POP PUSH1 0x40 DUP5 ADD MLOAD SWAP1 POP SWAP3 POP SWAP3 POP SWAP3 JUMP JUMPDEST PUSH1 0x60 DUP1 DUP3 MSTORE DUP2 ADD DUP5 SWAP1 MSTORE PUSH1 0x0 PUSH1 0x1 PUSH1 0x1 PUSH1 0xFB SHL SUB DUP6 GT ISZERO PUSH2 0xB67 JUMPI PUSH1 0x0 DUP1 REVERT JUMPDEST DUP5 PUSH1 0x5 SHL DUP1 DUP8 PUSH1 0x80 DUP6 ADD CALLDATACOPY PUSH1 0x20 DUP4 ADD SWAP5 SWAP1 SWAP5 MSTORE POP PUSH1 0x40 DUP2 ADD SWAP2 SWAP1 SWAP2 MSTORE ADD PUSH1 0x80 ADD SWAP3 SWAP2 POP POP JUMP JUMPDEST PUSH1 0x0 PUSH1 0x20 DUP3 DUP5 SUB SLT ISZERO PUSH2 0xB9F JUMPI PUSH1 0x0 DUP1 REVERT JUMPDEST DUP2 MLOAD PUSH2 0x92E DUP2 PUSH2 0xA2E JUMP JUMPDEST DUP1 DUP3 MUL DUP2 ISZERO DUP3 DUP3 DIV DUP5 EQ OR PUSH2 0xBC1 JUMPI PUSH2 0xBC1 PUSH2 0xAB1 JUMP JUMPDEST SWAP3 SWAP2 POP POP JUMP JUMPDEST PUSH1 0x0 DUP3 PUSH2 0xBE4 JUMPI PUSH4 0x4E487B71 PUSH1 0xE0 SHL PUSH1 0x0 MSTORE PUSH1 0x12 PUSH1 0x4 MSTORE PUSH1 0x24 PUSH1 0x0 REVERT JUMPDEST POP DIV SWAP1 JUMP INVALID LOG2 PUSH5 0x6970667358 0x22 SLT KECCAK256 ORIGIN 0xC9 LOG3 DUP6 ORIGIN DUP5 0x2A 0xB7 0xD0 PUSH5 0xFEFD14772A 0xE1 0xEC PUSH4 0x305A3E7 0xB2 PUSH16 0x73E072F0B92E7EE264736F6C63430008 EQ STOP CALLER "},"methodIdentifiers":{"depositTokens(address,address,uint256)":"39dc5ef2","erc20Handler()":"1cb9e262","owner()":"8da5cb5b","receiveSubmissions(bytes32)":"e19fa744","receiveTokens(bytes32,address,address,uint256,bytes32,bytes32[])":"658a5447","renounceOwnership()":"715018a6","setHandler(address)":"bac426d0","setToken(address,bool,bool,address)":"aa86475d","setValidator(address)":"1327d3d8","tokenToReceive(address)":"f7717c8e","transferOwnership(address)":"f2fde38b","validatorsAmount()":"71b118fe"}},"storageLayout":{"storage":[{"astId":8,"contract":"contracts/Bridge.sol:Bridge","label":"_owner","offset":0,"slot":"0","type":"t_address"},{"astId":189,"contract":"contracts/Bridge.sol:Bridge","label":"validatorsAmount","offset":0,"slot":"1","type":"t_uint256"},{"astId":191,"contract":"contracts/Bridge.sol:Bridge","label":"erc20Handler","offset":0,"slot":"2","type":"t_address"},{"astId":195,"contract":"contracts/Bridge.sol:Bridge","label":"validators","offset":0,"slot":"3","type":"t_mapping(t_address,t_bool)"},{"astId":199,"contract":"contracts/Bridge.sol:Bridge","label":"processedTransactions","offset":0,"slot":"4","type":"t_mapping(t_bytes32,t_bool)"},{"astId":202,"contract":"contracts/Bridge.sol:Bridge","label":"oracleDepositStorage","offset":0,"slot":"5","type":"t_contract(OracleDepositStorage)911"},{"astId":206,"contract":"contracts/Bridge.sol:Bridge","label":"receiveSubmissions","offset":0,"slot":"6","type":"t_mapping(t_bytes32,t_uint256)"},{"astId":210,"contract":"contracts/Bridge.sol:Bridge","label":"tokenToReceive","offset":0,"slot":"7","type":"t_mapping(t_address,t_address)"}],"types":{"t_address":{"encoding":"inplace","label":"address","numberOfBytes":"20"},"t_bool":{"encoding":"inplace","label":"bool","numberOfBytes":"1"},"t_bytes32":{"encoding":"inplace","label":"bytes32","numberOfBytes":"32"},"t_contract(OracleDepositStorage)911":{"encoding":"inplace","label":"contract OracleDepositStorage","numberOfBytes":"20"},"t_mapping(t_address,t_address)":{"encoding":"mapping","key":"t_address","label":"mapping(address => address)","numberOfBytes":"32","value":"t_address"},"t_mapping(t_address,t_bool)":{"encoding":"mapping","key":"t_address","label":"mapping(address => bool)","numberOfBytes":"32","value":"t_bool"},"t_mapping(t_bytes32,t_bool)":{"encoding":"mapping","key":"t_bytes32","label":"mapping(bytes32 => bool)","numberOfBytes":"32","value":"t_bool"},"t_mapping(t_bytes32,t_uint256)":{"encoding":"mapping","key":"t_bytes32","label":"mapping(bytes32 => uint256)","numberOfBytes":"32","value":"t_uint256"},"t_uint256":{"encoding":"inplace","label":"uint256","numberOfBytes":"32"}}}}}}