{"contracts/BridgeIN.sol":{"BridgeIN":{"abi":[{"inputs":[],"stateMutability":"nonpayable","type":"constructor"},{"inputs":[{"internalType":"address","name":"owner","type":"address"}],"name":"OwnableInvalidOwner","type":"error"},{"inputs":[{"internalType":"address","name":"account","type":"address"}],"name":"OwnableUnauthorizedAccount","type":"error"},{"anonymous":false,"inputs":[{"indexed":false,"internalType":"address","name":"tokenAddress","type":"address"},{"indexed":false,"internalType":"address","name":"depositor","type":"address"},{"indexed":false,"internalType":"uint256","name":"amount","type":"uint256"},{"indexed":false,"internalType":"uint256","name":"nonce","type":"uint256"}],"name":"Deposit","type":"event"},{"anonymous":false,"inputs":[{"indexed":true,"internalType":"address","name":"previousOwner","type":"address"},{"indexed":true,"internalType":"address","name":"newOwner","type":"address"}],"name":"OwnershipTransferred","type":"event"},{"anonymous":false,"inputs":[{"indexed":false,"internalType":"address","name":"tokenAddress","type":"address"},{"indexed":false,"internalType":"address","name":"recipient","type":"address"},{"indexed":false,"internalType":"uint256","name":"amount","type":"uint256"}],"name":"Withdraw","type":"event"},{"inputs":[{"internalType":"address","name":"tokenAddress","type":"address"},{"internalType":"address","name":"depositor","type":"address"},{"internalType":"uint256","name":"amount","type":"uint256"}],"name":"deposit","outputs":[],"stateMutability":"payable","type":"function"},{"inputs":[],"name":"depositNonce","outputs":[{"internalType":"uint256","name":"","type":"uint256"}],"stateMutability":"view","type":"function"},{"inputs":[],"name":"erc20Handler","outputs":[{"internalType":"address","name":"","type":"address"}],"stateMutability":"view","type":"function"},{"inputs":[],"name":"mainValidator","outputs":[{"internalType":"address","name":"","type":"address"}],"stateMutability":"view","type":"function"},{"inputs":[],"name":"owner","outputs":[{"internalType":"address","name":"","type":"address"}],"stateMutability":"view","type":"function"},{"inputs":[],"name":"renounceOwnership","outputs":[],"stateMutability":"nonpayable","type":"function"},{"inputs":[{"internalType":"address","name":"_handler","type":"address"}],"name":"setHandler","outputs":[],"stateMutability":"nonpayable","type":"function"},{"inputs":[{"internalType":"address","name":"_token","type":"address"},{"internalType":"bool","name":"_isBurnable","type":"bool"},{"internalType":"bool","name":"_isWhitelisted","type":"bool"}],"name":"setToken","outputs":[],"stateMutability":"nonpayable","type":"function"},{"inputs":[{"internalType":"address","name":"_validator","type":"address"}],"name":"setValidator","outputs":[],"stateMutability":"nonpayable","type":"function"},{"inputs":[{"internalType":"address","name":"newOwner","type":"address"}],"name":"transferOwnership","outputs":[],"stateMutability":"nonpayable","type":"function"},{"inputs":[],"name":"validatorstNonce","outputs":[{"internalType":"uint256","name":"","type":"uint256"}],"stateMutability":"view","type":"function"},{"inputs":[{"internalType":"address","name":"token","type":"address"},{"internalType":"uint256","name":"amount","type":"uint256"},{"internalType":"uint256","name":"withdrawNonce","type":"uint256"},{"internalType":"address","name":"user","type":"address"},{"internalType":"uint256","name":"validatorReward","type":"uint256"}],"name":"withdraw","outputs":[],"stateMutability":"nonpayable","type":"function"}],"evm":{"bytecode":{"linkReferences":{},"object":"608060405234801561001057600080fd5b50338061003757604051631e4fbdf760e01b81526000600482015260240160405180910390fd5b61004081610046565b50610096565b600080546001600160a01b038381166001600160a01b0319831681178455604051919092169283917f8be0079c531659141344cd1fd0a4f28419497f9722a3daafe3b4186f6b6457e09190a35050565b610a02806100a56000396000f3fe6080604052600436106100a75760003560e01c80638340f549116100645780638340f549146101805780638da5cb5b14610193578063bac426d0146101b1578063de35f5cb146101d1578063f2fde38b146101f5578063f9a721c71461021557600080fd5b806309a5fca3146100ac5780631327d3d8146100ce5780631cb9e262146100ee57806349141db71461012b5780635dbc2f831461014b578063715018a61461016b575b600080fd5b3480156100b857600080fd5b506100cc6100c7366004610851565b61022b565b005b3480156100da57600080fd5b506100cc6100e93660046108a3565b6104d1565b3480156100fa57600080fd5b5060045461010e906001600160a01b031681565b6040516001600160a01b0390911681526020015b60405180910390f35b34801561013757600080fd5b506100cc6101463660046108dc565b610512565b34801561015757600080fd5b5060015461010e906001600160a01b031681565b34801561017757600080fd5b506100cc610593565b6100cc61018e366004610921565b6105a7565b34801561019f57600080fd5b506000546001600160a01b031661010e565b3480156101bd57600080fd5b506100cc6101cc3660046108a3565b6106f8565b3480156101dd57600080fd5b506101e760025481565b604051908152602001610122565b34801561020157600080fd5b506100cc6102103660046108a3565b610722565b34801561022157600080fd5b506101e760035481565b610233610760565b60008381526006602052604090205460ff161561028e5760405162461bcd60e51b8152602060048201526014602482015273141c9bdc1bdcd85b081a5cc8195e1958dd5d195960621b60448201526064015b60405180910390fd5b60008381526006602052604081206001015490036102f55760008381526006602052604090206002810180546001600160a01b038089166001600160a01b031992831617909255600383018790556004830186905560059092018054918516919092161790555b600083815260066020526040812060010180549161031283610962565b9091555050600354600084815260066020526040902060010154106104ca57600083815260066020526040808220805460ff19166001179055600480549151632d182be560e21b81529081018790526001600160a01b0388811660248301528581166044830152909116919081908190849063b460af94906064016060604051808303816000875af11580156103ac573d6000803e3d6000fd5b505050506040513d601f19601f820116820180604052508101906103d09190610989565b9250925092506000336001600160a01b03168660405160006040518083038185875af1925050503d8060008114610423576040519150601f19603f3d011682016040523d82523d6000602084013e610428565b606091505b50509050806104795760405162461bcd60e51b815260206004820152601760248201527f52657761726473207472616e73666572206661696c65640000000000000000006044820152606401610285565b604080516001600160a01b038087168252851660208201529081018390527f9b1bfa7fa9ee420a16e124f794c35ac9f90472acc99140eb2f6447c714cad8eb9060600160405180910390a150505050505b5050505050565b6104d96107bf565b600380549060006104e983610962565b90915550506001600160a01b03166000908152600560205260409020805460ff19166001179055565b61051a6107bf565b60048054604051630243897960e01b81526001600160a01b0386811693820193909352841515602482015283151560448201529116908190630243897990606401600060405180830381600087803b15801561057557600080fd5b505af1158015610589573d6000803e3d6000fd5b5050505050505050565b61059b6107bf565b6105a560006107ec565b565b600034116106035760405162461bcd60e51b8152602060048201526024808201527f76616c7565206f662076616c696461746f722072657761726420697320746f6f604482015263206c6f7760e01b6064820152608401610285565b6002805490600061061383610962565b909155505060048054604051638340f54960e01b81526001600160a01b0386811693820193909352336024820152604481018490529116908190638340f549906064016060604051808303816000875af1158015610675573d6000803e3d6000fd5b505050506040513d601f19601f820116820180604052508101906106999190610989565b5050600254604080516001600160a01b0380891682528716602082015290810185905260608101919091527fdcbc1c05240f31ff3ad067ef1ee35ce4997762752e3a095284754544f4c709d7915060800160405180910390a150505050565b6107006107bf565b600480546001600160a01b0319166001600160a01b0392909216919091179055565b61072a6107bf565b6001600160a01b03811661075457604051631e4fbdf760e01b815260006004820152602401610285565b61075d816107ec565b50565b3360009081526005602052604090205460ff166105a55760405162461bcd60e51b815260206004820152601a60248201527f73656e646572206d75737420626520612076616c696461746f720000000000006044820152606401610285565b6000546001600160a01b031633146105a55760405163118cdaa760e01b8152336004820152602401610285565b600080546001600160a01b038381166001600160a01b0319831681178455604051919092169283917f8be0079c531659141344cd1fd0a4f28419497f9722a3daafe3b4186f6b6457e09190a35050565b6001600160a01b038116811461075d57600080fd5b600080600080600060a0868803121561086957600080fd5b85356108748161083c565b9450602086013593506040860135925060608601356108928161083c565b949793965091946080013592915050565b6000602082840312156108b557600080fd5b81356108c08161083c565b9392505050565b803580151581146108d757600080fd5b919050565b6000806000606084860312156108f157600080fd5b83356108fc8161083c565b925061090a602085016108c7565b9150610918604085016108c7565b90509250925092565b60008060006060848603121561093657600080fd5b83356109418161083c565b925060208401356109518161083c565b929592945050506040919091013590565b60006001820161098257634e487b7160e01b600052601160045260246000fd5b5060010190565b60008060006060848603121561099e57600080fd5b83516109a98161083c565b60208501519093506109ba8161083c565b8092505060408401519050925092509256fea2646970667358221220badb5696678f84f2ddb26580e2288da9603ad8eeaa9585037e139e7e990f036364736f6c63430008140033","opcodes":"PUSH1 0x80 PUSH1 0x40 MSTORE CALLVALUE DUP1 ISZERO PUSH2 0x10 JUMPI PUSH1 0x0 DUP1 REVERT JUMPDEST POP CALLER DUP1 PUSH2 0x37 JUMPI PUSH1 0x40 MLOAD PUSH4 0x1E4FBDF7 PUSH1 0xE0 SHL DUP2 MSTORE PUSH1 0x0 PUSH1 0x4 DUP3 ADD MSTORE PUSH1 0x24 ADD PUSH1 0x40 MLOAD DUP1 SWAP2 SUB SWAP1 REVERT JUMPDEST PUSH2 0x40 DUP2 PUSH2 0x46 JUMP JUMPDEST POP PUSH2 0x96 JUMP JUMPDEST PUSH1 0x0 DUP1 SLOAD PUSH1 0x1 PUSH1 0x1 PUSH1 0xA0 SHL SUB DUP4 DUP2 AND PUSH1 0x1 PUSH1 0x1 PUSH1 0xA0 SHL SUB NOT DUP4 AND DUP2 OR DUP5 SSTORE PUSH1 0x40 MLOAD SWAP2 SWAP1 SWAP3 AND SWAP3 DUP4 SWAP2 PUSH32 0x8BE0079C531659141344CD1FD0A4F28419497F9722A3DAAFE3B4186F6B6457E0 SWAP2 SWAP1 LOG3 POP POP JUMP JUMPDEST PUSH2 0xA02 DUP1 PUSH2 0xA5 PUSH1 0x0 CODECOPY PUSH1 0x0 RETURN INVALID PUSH1 0x80 PUSH1 0x40 MSTORE PUSH1 0x4 CALLDATASIZE LT PUSH2 0xA7 JUMPI PUSH1 0x0 CALLDATALOAD PUSH1 0xE0 SHR DUP1 PUSH4 0x8340F549 GT PUSH2 0x64 JUMPI DUP1 PUSH4 0x8340F549 EQ PUSH2 0x180 JUMPI DUP1 PUSH4 0x8DA5CB5B EQ PUSH2 0x193 JUMPI DUP1 PUSH4 0xBAC426D0 EQ PUSH2 0x1B1 JUMPI DUP1 PUSH4 0xDE35F5CB EQ PUSH2 0x1D1 JUMPI DUP1 PUSH4 0xF2FDE38B EQ PUSH2 0x1F5 JUMPI DUP1 PUSH4 0xF9A721C7 EQ PUSH2 0x215 JUMPI PUSH1 0x0 DUP1 REVERT JUMPDEST DUP1 PUSH4 0x9A5FCA3 EQ PUSH2 0xAC JUMPI DUP1 PUSH4 0x1327D3D8 EQ PUSH2 0xCE JUMPI DUP1 PUSH4 0x1CB9E262 EQ PUSH2 0xEE JUMPI DUP1 PUSH4 0x49141DB7 EQ PUSH2 0x12B JUMPI DUP1 PUSH4 0x5DBC2F83 EQ PUSH2 0x14B JUMPI DUP1 PUSH4 0x715018A6 EQ PUSH2 0x16B JUMPI JUMPDEST PUSH1 0x0 DUP1 REVERT JUMPDEST CALLVALUE DUP1 ISZERO PUSH2 0xB8 JUMPI PUSH1 0x0 DUP1 REVERT JUMPDEST POP PUSH2 0xCC PUSH2 0xC7 CALLDATASIZE PUSH1 0x4 PUSH2 0x851 JUMP JUMPDEST PUSH2 0x22B JUMP JUMPDEST STOP JUMPDEST CALLVALUE DUP1 ISZERO PUSH2 0xDA JUMPI PUSH1 0x0 DUP1 REVERT JUMPDEST POP PUSH2 0xCC PUSH2 0xE9 CALLDATASIZE PUSH1 0x4 PUSH2 0x8A3 JUMP JUMPDEST PUSH2 0x4D1 JUMP JUMPDEST CALLVALUE DUP1 ISZERO PUSH2 0xFA JUMPI PUSH1 0x0 DUP1 REVERT JUMPDEST POP PUSH1 0x4 SLOAD PUSH2 0x10E SWAP1 PUSH1 0x1 PUSH1 0x1 PUSH1 0xA0 SHL SUB AND DUP2 JUMP JUMPDEST PUSH1 0x40 MLOAD PUSH1 0x1 PUSH1 0x1 PUSH1 0xA0 SHL SUB SWAP1 SWAP2 AND DUP2 MSTORE PUSH1 0x20 ADD JUMPDEST PUSH1 0x40 MLOAD DUP1 SWAP2 SUB SWAP1 RETURN JUMPDEST CALLVALUE DUP1 ISZERO PUSH2 0x137 JUMPI PUSH1 0x0 DUP1 REVERT JUMPDEST POP PUSH2 0xCC PUSH2 0x146 CALLDATASIZE PUSH1 0x4 PUSH2 0x8DC JUMP JUMPDEST PUSH2 0x512 JUMP JUMPDEST CALLVALUE DUP1 ISZERO PUSH2 0x157 JUMPI PUSH1 0x0 DUP1 REVERT JUMPDEST POP PUSH1 0x1 SLOAD PUSH2 0x10E SWAP1 PUSH1 0x1 PUSH1 0x1 PUSH1 0xA0 SHL SUB AND DUP2 JUMP JUMPDEST CALLVALUE DUP1 ISZERO PUSH2 0x177 JUMPI PUSH1 0x0 DUP1 REVERT JUMPDEST POP PUSH2 0xCC PUSH2 0x593 JUMP JUMPDEST PUSH2 0xCC PUSH2 0x18E CALLDATASIZE PUSH1 0x4 PUSH2 0x921 JUMP JUMPDEST PUSH2 0x5A7 JUMP JUMPDEST CALLVALUE DUP1 ISZERO PUSH2 0x19F JUMPI PUSH1 0x0 DUP1 REVERT JUMPDEST POP PUSH1 0x0 SLOAD PUSH1 0x1 PUSH1 0x1 PUSH1 0xA0 SHL SUB AND PUSH2 0x10E JUMP JUMPDEST CALLVALUE DUP1 ISZERO PUSH2 0x1BD JUMPI PUSH1 0x0 DUP1 REVERT JUMPDEST POP PUSH2 0xCC PUSH2 0x1CC CALLDATASIZE PUSH1 0x4 PUSH2 0x8A3 JUMP JUMPDEST PUSH2 0x6F8 JUMP JUMPDEST CALLVALUE DUP1 ISZERO PUSH2 0x1DD JUMPI PUSH1 0x0 DUP1 REVERT JUMPDEST POP PUSH2 0x1E7 PUSH1 0x2 SLOAD DUP2 JUMP JUMPDEST PUSH1 0x40 MLOAD SWAP1 DUP2 MSTORE PUSH1 0x20 ADD PUSH2 0x122 JUMP JUMPDEST CALLVALUE DUP1 ISZERO PUSH2 0x201 JUMPI PUSH1 0x0 DUP1 REVERT JUMPDEST POP PUSH2 0xCC PUSH2 0x210 CALLDATASIZE PUSH1 0x4 PUSH2 0x8A3 JUMP JUMPDEST PUSH2 0x722 JUMP JUMPDEST CALLVALUE DUP1 ISZERO PUSH2 0x221 JUMPI PUSH1 0x0 DUP1 REVERT JUMPDEST POP PUSH2 0x1E7 PUSH1 0x3 SLOAD DUP2 JUMP JUMPDEST PUSH2 0x233 PUSH2 0x760 JUMP JUMPDEST PUSH1 0x0 DUP4 DUP2 MSTORE PUSH1 0x6 PUSH1 0x20 MSTORE PUSH1 0x40 SWAP1 KECCAK256 SLOAD PUSH1 0xFF AND ISZERO PUSH2 0x28E JUMPI PUSH1 0x40 MLOAD PUSH3 0x461BCD PUSH1 0xE5 SHL DUP2 MSTORE PUSH1 0x20 PUSH1 0x4 DUP3 ADD MSTORE PUSH1 0x14 PUSH1 0x24 DUP3 ADD MSTORE PUSH20 0x141C9BDC1BDCD85B081A5CC8195E1958DD5D1959 PUSH1 0x62 SHL PUSH1 0x44 DUP3 ADD MSTORE PUSH1 0x64 ADD JUMPDEST PUSH1 0x40 MLOAD DUP1 SWAP2 SUB SWAP1 REVERT JUMPDEST PUSH1 0x0 DUP4 DUP2 MSTORE PUSH1 0x6 PUSH1 0x20 MSTORE PUSH1 0x40 DUP2 KECCAK256 PUSH1 0x1 ADD SLOAD SWAP1 SUB PUSH2 0x2F5 JUMPI PUSH1 0x0 DUP4 DUP2 MSTORE PUSH1 0x6 PUSH1 0x20 MSTORE PUSH1 0x40 SWAP1 KECCAK256 PUSH1 0x2 DUP2 ADD DUP1 SLOAD PUSH1 0x1 PUSH1 0x1 PUSH1 0xA0 SHL SUB DUP1 DUP10 AND PUSH1 0x1 PUSH1 0x1 PUSH1 0xA0 SHL SUB NOT SWAP3 DUP4 AND OR SWAP1 SWAP3 SSTORE PUSH1 0x3 DUP4 ADD DUP8 SWAP1 SSTORE PUSH1 0x4 DUP4 ADD DUP7 SWAP1 SSTORE PUSH1 0x5 SWAP1 SWAP3 ADD DUP1 SLOAD SWAP2 DUP6 AND SWAP2 SWAP1 SWAP3 AND OR SWAP1 SSTORE JUMPDEST PUSH1 0x0 DUP4 DUP2 MSTORE PUSH1 0x6 PUSH1 0x20 MSTORE PUSH1 0x40 DUP2 KECCAK256 PUSH1 0x1 ADD DUP1 SLOAD SWAP2 PUSH2 0x312 DUP4 PUSH2 0x962 JUMP JUMPDEST SWAP1 SWAP2 SSTORE POP POP PUSH1 0x3 SLOAD PUSH1 0x0 DUP5 DUP2 MSTORE PUSH1 0x6 PUSH1 0x20 MSTORE PUSH1 0x40 SWAP1 KECCAK256 PUSH1 0x1 ADD SLOAD LT PUSH2 0x4CA JUMPI PUSH1 0x0 DUP4 DUP2 MSTORE PUSH1 0x6 PUSH1 0x20 MSTORE PUSH1 0x40 DUP1 DUP3 KECCAK256 DUP1 SLOAD PUSH1 0xFF NOT AND PUSH1 0x1 OR SWAP1 SSTORE PUSH1 0x4 DUP1 SLOAD SWAP2 MLOAD PUSH4 0x2D182BE5 PUSH1 0xE2 SHL DUP2 MSTORE SWAP1 DUP2 ADD DUP8 SWAP1 MSTORE PUSH1 0x1 PUSH1 0x1 PUSH1 0xA0 SHL SUB DUP9 DUP2 AND PUSH1 0x24 DUP4 ADD MSTORE DUP6 DUP2 AND PUSH1 0x44 DUP4 ADD MSTORE SWAP1 SWAP2 AND SWAP2 SWAP1 DUP2 SWAP1 DUP2 SWAP1 DUP5 SWAP1 PUSH4 0xB460AF94 SWAP1 PUSH1 0x64 ADD PUSH1 0x60 PUSH1 0x40 MLOAD DUP1 DUP4 SUB DUP2 PUSH1 0x0 DUP8 GAS CALL ISZERO DUP1 ISZERO PUSH2 0x3AC JUMPI RETURNDATASIZE PUSH1 0x0 DUP1 RETURNDATACOPY RETURNDATASIZE PUSH1 0x0 REVERT JUMPDEST POP POP POP POP PUSH1 0x40 MLOAD RETURNDATASIZE PUSH1 0x1F NOT PUSH1 0x1F DUP3 ADD AND DUP3 ADD DUP1 PUSH1 0x40 MSTORE POP DUP2 ADD SWAP1 PUSH2 0x3D0 SWAP2 SWAP1 PUSH2 0x989 JUMP JUMPDEST SWAP3 POP SWAP3 POP SWAP3 POP PUSH1 0x0 CALLER PUSH1 0x1 PUSH1 0x1 PUSH1 0xA0 SHL SUB AND DUP7 PUSH1 0x40 MLOAD PUSH1 0x0 PUSH1 0x40 MLOAD DUP1 DUP4 SUB DUP2 DUP6 DUP8 GAS CALL SWAP3 POP POP POP RETURNDATASIZE DUP1 PUSH1 0x0 DUP2 EQ PUSH2 0x423 JUMPI PUSH1 0x40 MLOAD SWAP2 POP PUSH1 0x1F NOT PUSH1 0x3F RETURNDATASIZE ADD AND DUP3 ADD PUSH1 0x40 MSTORE RETURNDATASIZE DUP3 MSTORE RETURNDATASIZE PUSH1 0x0 PUSH1 0x20 DUP5 ADD RETURNDATACOPY PUSH2 0x428 JUMP JUMPDEST PUSH1 0x60 SWAP2 POP JUMPDEST POP POP SWAP1 POP DUP1 PUSH2 0x479 JUMPI PUSH1 0x40 MLOAD PUSH3 0x461BCD PUSH1 0xE5 SHL DUP2 MSTORE PUSH1 0x20 PUSH1 0x4 DUP3 ADD MSTORE PUSH1 0x17 PUSH1 0x24 DUP3 ADD MSTORE PUSH32 0x52657761726473207472616E73666572206661696C6564000000000000000000 PUSH1 0x44 DUP3 ADD MSTORE PUSH1 0x64 ADD PUSH2 0x285 JUMP JUMPDEST PUSH1 0x40 DUP1 MLOAD PUSH1 0x1 PUSH1 0x1 PUSH1 0xA0 SHL SUB DUP1 DUP8 AND DUP3 MSTORE DUP6 AND PUSH1 0x20 DUP3 ADD MSTORE SWAP1 DUP2 ADD DUP4 SWAP1 MSTORE PUSH32 0x9B1BFA7FA9EE420A16E124F794C35AC9F90472ACC99140EB2F6447C714CAD8EB SWAP1 PUSH1 0x60 ADD PUSH1 0x40 MLOAD DUP1 SWAP2 SUB SWAP1 LOG1 POP POP POP POP POP JUMPDEST POP POP POP POP POP JUMP JUMPDEST PUSH2 0x4D9 PUSH2 0x7BF JUMP JUMPDEST PUSH1 0x3 DUP1 SLOAD SWAP1 PUSH1 0x0 PUSH2 0x4E9 DUP4 PUSH2 0x962 JUMP JUMPDEST SWAP1 SWAP2 SSTORE POP POP PUSH1 0x1 PUSH1 0x1 PUSH1 0xA0 SHL SUB AND PUSH1 0x0 SWAP1 DUP2 MSTORE PUSH1 0x5 PUSH1 0x20 MSTORE PUSH1 0x40 SWAP1 KECCAK256 DUP1 SLOAD PUSH1 0xFF NOT AND PUSH1 0x1 OR SWAP1 SSTORE JUMP JUMPDEST PUSH2 0x51A PUSH2 0x7BF JUMP JUMPDEST PUSH1 0x4 DUP1 SLOAD PUSH1 0x40 MLOAD PUSH4 0x2438979 PUSH1 0xE0 SHL DUP2 MSTORE PUSH1 0x1 PUSH1 0x1 PUSH1 0xA0 SHL SUB DUP7 DUP2 AND SWAP4 DUP3 ADD SWAP4 SWAP1 SWAP4 MSTORE DUP5 ISZERO ISZERO PUSH1 0x24 DUP3 ADD MSTORE DUP4 ISZERO ISZERO PUSH1 0x44 DUP3 ADD MSTORE SWAP2 AND SWAP1 DUP2 SWAP1 PUSH4 0x2438979 SWAP1 PUSH1 0x64 ADD PUSH1 0x0 PUSH1 0x40 MLOAD DUP1 DUP4 SUB DUP2 PUSH1 0x0 DUP8 DUP1 EXTCODESIZE ISZERO DUP1 ISZERO PUSH2 0x575 JUMPI PUSH1 0x0 DUP1 REVERT JUMPDEST POP GAS CALL ISZERO DUP1 ISZERO PUSH2 0x589 JUMPI RETURNDATASIZE PUSH1 0x0 DUP1 RETURNDATACOPY RETURNDATASIZE PUSH1 0x0 REVERT JUMPDEST POP POP POP POP POP POP POP POP JUMP JUMPDEST PUSH2 0x59B PUSH2 0x7BF JUMP JUMPDEST PUSH2 0x5A5 PUSH1 0x0 PUSH2 0x7EC JUMP JUMPDEST JUMP JUMPDEST PUSH1 0x0 CALLVALUE GT PUSH2 0x603 JUMPI PUSH1 0x40 MLOAD PUSH3 0x461BCD PUSH1 0xE5 SHL DUP2 MSTORE PUSH1 0x20 PUSH1 0x4 DUP3 ADD MSTORE PUSH1 0x24 DUP1 DUP3 ADD MSTORE PUSH32 0x76616C7565206F662076616C696461746F722072657761726420697320746F6F PUSH1 0x44 DUP3 ADD MSTORE PUSH4 0x206C6F77 PUSH1 0xE0 SHL PUSH1 0x64 DUP3 ADD MSTORE PUSH1 0x84 ADD PUSH2 0x285 JUMP JUMPDEST PUSH1 0x2 DUP1 SLOAD SWAP1 PUSH1 0x0 PUSH2 0x613 DUP4 PUSH2 0x962 JUMP JUMPDEST SWAP1 SWAP2 SSTORE POP POP PUSH1 0x4 DUP1 SLOAD PUSH1 0x40 MLOAD PUSH4 0x8340F549 PUSH1 0xE0 SHL DUP2 MSTORE PUSH1 0x1 PUSH1 0x1 PUSH1 0xA0 SHL SUB DUP7 DUP2 AND SWAP4 DUP3 ADD SWAP4 SWAP1 SWAP4 MSTORE CALLER PUSH1 0x24 DUP3 ADD MSTORE PUSH1 0x44 DUP2 ADD DUP5 SWAP1 MSTORE SWAP2 AND SWAP1 DUP2 SWAP1 PUSH4 0x8340F549 SWAP1 PUSH1 0x64 ADD PUSH1 0x60 PUSH1 0x40 MLOAD DUP1 DUP4 SUB DUP2 PUSH1 0x0 DUP8 GAS CALL ISZERO DUP1 ISZERO PUSH2 0x675 JUMPI RETURNDATASIZE PUSH1 0x0 DUP1 RETURNDATACOPY RETURNDATASIZE PUSH1 0x0 REVERT JUMPDEST POP POP POP POP PUSH1 0x40 MLOAD RETURNDATASIZE PUSH1 0x1F NOT PUSH1 0x1F DUP3 ADD AND DUP3 ADD DUP1 PUSH1 0x40 MSTORE POP DUP2 ADD SWAP1 PUSH2 0x699 SWAP2 SWAP1 PUSH2 0x989 JUMP JUMPDEST POP POP PUSH1 0x2 SLOAD PUSH1 0x40 DUP1 MLOAD PUSH1 0x1 PUSH1 0x1 PUSH1 0xA0 SHL SUB DUP1 DUP10 AND DUP3 MSTORE DUP8 AND PUSH1 0x20 DUP3 ADD MSTORE SWAP1 DUP2 ADD DUP6 SWAP1 MSTORE PUSH1 0x60 DUP2 ADD SWAP2 SWAP1 SWAP2 MSTORE PUSH32 0xDCBC1C05240F31FF3AD067EF1EE35CE4997762752E3A095284754544F4C709D7 SWAP2 POP PUSH1 0x80 ADD PUSH1 0x40 MLOAD DUP1 SWAP2 SUB SWAP1 LOG1 POP POP POP POP JUMP JUMPDEST PUSH2 0x700 PUSH2 0x7BF JUMP JUMPDEST PUSH1 0x4 DUP1 SLOAD PUSH1 0x1 PUSH1 0x1 PUSH1 0xA0 SHL SUB NOT AND PUSH1 0x1 PUSH1 0x1 PUSH1 0xA0 SHL SUB SWAP3 SWAP1 SWAP3 AND SWAP2 SWAP1 SWAP2 OR SWAP1 SSTORE JUMP JUMPDEST PUSH2 0x72A PUSH2 0x7BF JUMP JUMPDEST PUSH1 0x1 PUSH1 0x1 PUSH1 0xA0 SHL SUB DUP2 AND PUSH2 0x754 JUMPI PUSH1 0x40 MLOAD PUSH4 0x1E4FBDF7 PUSH1 0xE0 SHL DUP2 MSTORE PUSH1 0x0 PUSH1 0x4 DUP3 ADD MSTORE PUSH1 0x24 ADD PUSH2 0x285 JUMP JUMPDEST PUSH2 0x75D DUP2 PUSH2 0x7EC JUMP JUMPDEST POP JUMP JUMPDEST CALLER PUSH1 0x0 SWAP1 DUP2 MSTORE PUSH1 0x5 PUSH1 0x20 MSTORE PUSH1 0x40 SWAP1 KECCAK256 SLOAD PUSH1 0xFF AND PUSH2 0x5A5 JUMPI PUSH1 0x40 MLOAD PUSH3 0x461BCD PUSH1 0xE5 SHL DUP2 MSTORE PUSH1 0x20 PUSH1 0x4 DUP3 ADD MSTORE PUSH1 0x1A PUSH1 0x24 DUP3 ADD MSTORE PUSH32 0x73656E646572206D75737420626520612076616C696461746F72000000000000 PUSH1 0x44 DUP3 ADD MSTORE PUSH1 0x64 ADD PUSH2 0x285 JUMP JUMPDEST PUSH1 0x0 SLOAD PUSH1 0x1 PUSH1 0x1 PUSH1 0xA0 SHL SUB AND CALLER EQ PUSH2 0x5A5 JUMPI PUSH1 0x40 MLOAD PUSH4 0x118CDAA7 PUSH1 0xE0 SHL DUP2 MSTORE CALLER PUSH1 0x4 DUP3 ADD MSTORE PUSH1 0x24 ADD PUSH2 0x285 JUMP JUMPDEST PUSH1 0x0 DUP1 SLOAD PUSH1 0x1 PUSH1 0x1 PUSH1 0xA0 SHL SUB DUP4 DUP2 AND PUSH1 0x1 PUSH1 0x1 PUSH1 0xA0 SHL SUB NOT DUP4 AND DUP2 OR DUP5 SSTORE PUSH1 0x40 MLOAD SWAP2 SWAP1 SWAP3 AND SWAP3 DUP4 SWAP2 PUSH32 0x8BE0079C531659141344CD1FD0A4F28419497F9722A3DAAFE3B4186F6B6457E0 SWAP2 SWAP1 LOG3 POP POP JUMP JUMPDEST PUSH1 0x1 PUSH1 0x1 PUSH1 0xA0 SHL SUB DUP2 AND DUP2 EQ PUSH2 0x75D JUMPI PUSH1 0x0 DUP1 REVERT JUMPDEST PUSH1 0x0 DUP1 PUSH1 0x0 DUP1 PUSH1 0x0 PUSH1 0xA0 DUP7 DUP9 SUB SLT ISZERO PUSH2 0x869 JUMPI PUSH1 0x0 DUP1 REVERT JUMPDEST DUP6 CALLDATALOAD PUSH2 0x874 DUP2 PUSH2 0x83C JUMP JUMPDEST SWAP5 POP PUSH1 0x20 DUP7 ADD CALLDATALOAD SWAP4 POP PUSH1 0x40 DUP7 ADD CALLDATALOAD SWAP3 POP PUSH1 0x60 DUP7 ADD CALLDATALOAD PUSH2 0x892 DUP2 PUSH2 0x83C JUMP JUMPDEST SWAP5 SWAP8 SWAP4 SWAP7 POP SWAP2 SWAP5 PUSH1 0x80 ADD CALLDATALOAD SWAP3 SWAP2 POP POP JUMP JUMPDEST PUSH1 0x0 PUSH1 0x20 DUP3 DUP5 SUB SLT ISZERO PUSH2 0x8B5 JUMPI PUSH1 0x0 DUP1 REVERT JUMPDEST DUP2 CALLDATALOAD PUSH2 0x8C0 DUP2 PUSH2 0x83C JUMP JUMPDEST SWAP4 SWAP3 POP POP POP JUMP JUMPDEST DUP1 CALLDATALOAD DUP1 ISZERO ISZERO DUP2 EQ PUSH2 0x8D7 JUMPI PUSH1 0x0 DUP1 REVERT JUMPDEST SWAP2 SWAP1 POP JUMP JUMPDEST PUSH1 0x0 DUP1 PUSH1 0x0 PUSH1 0x60 DUP5 DUP7 SUB SLT ISZERO PUSH2 0x8F1 JUMPI PUSH1 0x0 DUP1 REVERT JUMPDEST DUP4 CALLDATALOAD PUSH2 0x8FC DUP2 PUSH2 0x83C JUMP JUMPDEST SWAP3 POP PUSH2 0x90A PUSH1 0x20 DUP6 ADD PUSH2 0x8C7 JUMP JUMPDEST SWAP2 POP PUSH2 0x918 PUSH1 0x40 DUP6 ADD PUSH2 0x8C7 JUMP JUMPDEST SWAP1 POP SWAP3 POP SWAP3 POP SWAP3 JUMP JUMPDEST PUSH1 0x0 DUP1 PUSH1 0x0 PUSH1 0x60 DUP5 DUP7 SUB SLT ISZERO PUSH2 0x936 JUMPI PUSH1 0x0 DUP1 REVERT JUMPDEST DUP4 CALLDATALOAD PUSH2 0x941 DUP2 PUSH2 0x83C JUMP JUMPDEST SWAP3 POP PUSH1 0x20 DUP5 ADD CALLDATALOAD PUSH2 0x951 DUP2 PUSH2 0x83C JUMP JUMPDEST SWAP3 SWAP6 SWAP3 SWAP5 POP POP POP PUSH1 0x40 SWAP2 SWAP1 SWAP2 ADD CALLDATALOAD SWAP1 JUMP JUMPDEST PUSH1 0x0 PUSH1 0x1 DUP3 ADD PUSH2 0x982 JUMPI PUSH4 0x4E487B71 PUSH1 0xE0 SHL PUSH1 0x0 MSTORE PUSH1 0x11 PUSH1 0x4 MSTORE PUSH1 0x24 PUSH1 0x0 REVERT JUMPDEST POP PUSH1 0x1 ADD SWAP1 JUMP JUMPDEST PUSH1 0x0 DUP1 PUSH1 0x0 PUSH1 0x60 DUP5 DUP7 SUB SLT ISZERO PUSH2 0x99E JUMPI PUSH1 0x0 DUP1 REVERT JUMPDEST DUP4 MLOAD PUSH2 0x9A9 DUP2 PUSH2 0x83C JUMP JUMPDEST PUSH1 0x20 DUP6 ADD MLOAD SWAP1 SWAP4 POP PUSH2 0x9BA DUP2 PUSH2 0x83C JUMP JUMPDEST DUP1 SWAP3 POP POP PUSH1 0x40 DUP5 ADD MLOAD SWAP1 POP SWAP3 POP SWAP3 POP SWAP3 JUMP INVALID LOG2 PUSH5 0x6970667358 0x22 SLT KECCAK256 0xBA 0xDB JUMP SWAP7 PUSH8 0x8F84F2DDB26580E2 0x28 DUP14 0xA9 PUSH1 0x3A 0xD8 0xEE 0xAA SWAP6 DUP6 SUB PUSH31 0x139E7E990F036364736F6C6343000814003300000000000000000000000000 "},"methodIdentifiers":{"deposit(address,address,uint256)":"8340f549","depositNonce()":"de35f5cb","erc20Handler()":"1cb9e262","mainValidator()":"5dbc2f83","owner()":"8da5cb5b","renounceOwnership()":"715018a6","setHandler(address)":"bac426d0","setToken(address,bool,bool)":"49141db7","setValidator(address)":"1327d3d8","transferOwnership(address)":"f2fde38b","validatorstNonce()":"f9a721c7","withdraw(address,uint256,uint256,address,uint256)":"09a5fca3"}},"storageLayout":{"storage":[{"astId":8,"contract":"contracts/BridgeIN.sol:BridgeIN","label":"_owner","offset":0,"slot":"0","type":"t_address"},{"astId":1002,"contract":"contracts/BridgeIN.sol:BridgeIN","label":"mainValidator","offset":0,"slot":"1","type":"t_address"},{"astId":1004,"contract":"contracts/BridgeIN.sol:BridgeIN","label":"depositNonce","offset":0,"slot":"2","type":"t_uint256"},{"astId":1006,"contract":"contracts/BridgeIN.sol:BridgeIN","label":"validatorstNonce","offset":0,"slot":"3","type":"t_uint256"},{"astId":1008,"contract":"contracts/BridgeIN.sol:BridgeIN","label":"erc20Handler","offset":0,"slot":"4","type":"t_address"},{"astId":1012,"contract":"contracts/BridgeIN.sol:BridgeIN","label":"validators","offset":0,"slot":"5","type":"t_mapping(t_address,t_bool)"},{"astId":1017,"contract":"contracts/BridgeIN.sol:BridgeIN","label":"proposals","offset":0,"slot":"6","type":"t_mapping(t_uint256,t_struct(Proposal)1000_storage)"}],"types":{"t_address":{"encoding":"inplace","label":"address","numberOfBytes":"20"},"t_bool":{"encoding":"inplace","label":"bool","numberOfBytes":"1"},"t_mapping(t_address,t_bool)":{"encoding":"mapping","key":"t_address","label":"mapping(address => bool)","numberOfBytes":"32","value":"t_bool"},"t_mapping(t_uint256,t_struct(Proposal)1000_storage)":{"encoding":"mapping","key":"t_uint256","label":"mapping(uint256 => struct BridgeIN.Proposal)","numberOfBytes":"32","value":"t_struct(Proposal)1000_storage"},"t_struct(Proposal)1000_storage":{"encoding":"inplace","label":"struct BridgeIN.Proposal","members":[{"astId":989,"contract":"contracts/BridgeIN.sol:BridgeIN","label":"executed","offset":0,"slot":"0","type":"t_bool"},{"astId":991,"contract":"contracts/BridgeIN.sol:BridgeIN","label":"validationsNonce","offset":0,"slot":"1","type":"t_uint256"},{"astId":993,"contract":"contracts/BridgeIN.sol:BridgeIN","label":"token","offset":0,"slot":"2","type":"t_address"},{"astId":995,"contract":"contracts/BridgeIN.sol:BridgeIN","label":"amount","offset":0,"slot":"3","type":"t_uint256"},{"astId":997,"contract":"contracts/BridgeIN.sol:BridgeIN","label":"withdrawNonce","offset":0,"slot":"4","type":"t_uint256"},{"astId":999,"contract":"contracts/BridgeIN.sol:BridgeIN","label":"user","offset":0,"slot":"5","type":"t_address"}],"numberOfBytes":"192"},"t_uint256":{"encoding":"inplace","label":"uint256","numberOfBytes":"32"}}}}}}