{"contracts/OracleBlockStorage.sol":{"OracleBlockStorage":{"abi":[{"inputs":[],"stateMutability":"nonpayable","type":"constructor"},{"inputs":[{"internalType":"address","name":"owner","type":"address"}],"name":"OwnableInvalidOwner","type":"error"},{"inputs":[{"internalType":"address","name":"account","type":"address"}],"name":"OwnableUnauthorizedAccount","type":"error"},{"anonymous":false,"inputs":[{"indexed":true,"internalType":"address","name":"previousOwner","type":"address"},{"indexed":true,"internalType":"address","name":"newOwner","type":"address"}],"name":"OwnershipTransferred","type":"event"},{"inputs":[{"internalType":"address","name":"_oracle","type":"address"}],"name":"addTrustedOracle","outputs":[],"stateMutability":"nonpayable","type":"function"},{"inputs":[{"internalType":"uint256","name":"","type":"uint256"}],"name":"blockHeaders","outputs":[{"internalType":"uint256","name":"blockNumber","type":"uint256"},{"internalType":"bytes32","name":"blockHash","type":"bytes32"},{"internalType":"bytes32","name":"parentHash","type":"bytes32"},{"internalType":"bytes32","name":"stateRoot","type":"bytes32"},{"internalType":"bytes32","name":"transactionsRoot","type":"bytes32"},{"internalType":"bytes32","name":"receiptsRoot","type":"bytes32"},{"internalType":"uint256","name":"timestamp","type":"uint256"}],"stateMutability":"view","type":"function"},{"inputs":[{"internalType":"uint256","name":"blockNumber","type":"uint256"}],"name":"getBlockHeader","outputs":[{"components":[{"internalType":"uint256","name":"blockNumber","type":"uint256"},{"internalType":"bytes32","name":"blockHash","type":"bytes32"},{"internalType":"bytes32","name":"parentHash","type":"bytes32"},{"internalType":"bytes32","name":"stateRoot","type":"bytes32"},{"internalType":"bytes32","name":"transactionsRoot","type":"bytes32"},{"internalType":"bytes32","name":"receiptsRoot","type":"bytes32"},{"internalType":"uint256","name":"timestamp","type":"uint256"}],"internalType":"struct OracleBlockStorage.BlockHeader","name":"","type":"tuple"}],"stateMutability":"view","type":"function"},{"inputs":[],"name":"owner","outputs":[{"internalType":"address","name":"","type":"address"}],"stateMutability":"view","type":"function"},{"inputs":[{"internalType":"address","name":"_oracle","type":"address"}],"name":"removeTrustedOracle","outputs":[],"stateMutability":"nonpayable","type":"function"},{"inputs":[],"name":"renounceOwnership","outputs":[],"stateMutability":"nonpayable","type":"function"},{"inputs":[{"internalType":"uint256","name":"blockNumber","type":"uint256"},{"internalType":"bytes32","name":"blockHash","type":"bytes32"},{"internalType":"bytes32","name":"parentHash","type":"bytes32"},{"internalType":"bytes32","name":"stateRoot","type":"bytes32"},{"internalType":"bytes32","name":"transactionsRoot","type":"bytes32"},{"internalType":"bytes32","name":"receiptsRoot","type":"bytes32"},{"internalType":"uint256","name":"timestamp","type":"uint256"}],"name":"submitBlockHeader","outputs":[],"stateMutability":"nonpayable","type":"function"},{"inputs":[{"internalType":"address","name":"newOwner","type":"address"}],"name":"transferOwnership","outputs":[],"stateMutability":"nonpayable","type":"function"},{"inputs":[{"internalType":"address","name":"","type":"address"}],"name":"trustedOracles","outputs":[{"internalType":"bool","name":"","type":"bool"}],"stateMutability":"view","type":"function"}],"evm":{"bytecode":{"linkReferences":{},"object":"608060405234801561001057600080fd5b50338061003757604051631e4fbdf760e01b81526000600482015260240160405180910390fd5b61004081610046565b50610096565b600080546001600160a01b038381166001600160a01b0319831681178455604051919092169283917f8be0079c531659141344cd1fd0a4f28419497f9722a3daafe3b4186f6b6457e09190a35050565b610583806100a56000396000f3fe608060405234801561001057600080fd5b50600436106100935760003560e01c8063715018a611610066578063715018a6146102475780638da5cb5b1461024f578063d54062831461026a578063db2966021461027d578063f2fde38b146102b057600080fd5b806317f85f851461009857806322d6a5df146100ad5780632d142a99146100c057806344cfa8ab146101c8575b600080fd5b6100ab6100a63660046104b8565b6102c3565b005b6100ab6100bb3660046104b8565b6102ef565b6101696100ce3660046104e8565b6040805160e081018252600080825260208201819052918101829052606081018290526080810182905260a0810182905260c081019190915250600090815260016020818152604092839020835160e0810185528154815292810154918301919091526002810154928201929092526003820154606082015260048201546080820152600582015460a082015260069091015460c082015290565b6040516101bf9190600060e082019050825182526020830151602083015260408301516040830152606083015160608301526080830151608083015260a083015160a083015260c083015160c083015292915050565b60405180910390f35b6102126101d63660046104e8565b60016020819052600091825260409091208054918101546002820154600383015460048401546005850154600690950154939492939192909187565b604080519788526020880196909652948601939093526060850191909152608084015260a083015260c082015260e0016101bf565b6100ab610318565b6000546040516001600160a01b0390911681526020016101bf565b6100ab610278366004610501565b61032c565b6102a061028b3660046104b8565b60026020526000908152604090205460ff1681565b60405190151581526020016101bf565b6100ab6102be3660046104b8565b6103fd565b6102cb61043b565b6001600160a01b03166000908152600260205260409020805460ff19166001179055565b6102f761043b565b6001600160a01b03166000908152600260205260409020805460ff19169055565b61032061043b565b61032a6000610468565b565b3360009081526002602052604090205460ff166103875760405162461bcd60e51b81526020600482015260146024820152734e6f7420612074727573746564206f7261636c6560601b60448201526064015b60405180910390fd5b6040805160e0810182528881526020808201988952818301978852606082019687526080820195865260a0820194855260c082019384526000998a526001908190529190982097518855955195870195909555925160028601559051600385015551600484015551600583015551600690910155565b61040561043b565b6001600160a01b03811661042f57604051631e4fbdf760e01b81526000600482015260240161037e565b61043881610468565b50565b6000546001600160a01b0316331461032a5760405163118cdaa760e01b815233600482015260240161037e565b600080546001600160a01b038381166001600160a01b0319831681178455604051919092169283917f8be0079c531659141344cd1fd0a4f28419497f9722a3daafe3b4186f6b6457e09190a35050565b6000602082840312156104ca57600080fd5b81356001600160a01b03811681146104e157600080fd5b9392505050565b6000602082840312156104fa57600080fd5b5035919050565b600080600080600080600060e0888a03121561051c57600080fd5b505085359760208701359750604087013596606081013596506080810135955060a0810135945060c001359250905056fea2646970667358221220a4dc7261185d9f742c9f384d0eeb5658c6e45f93005109cc1ba6b9fb1e5a0ec664736f6c63430008140033","opcodes":"PUSH1 0x80 PUSH1 0x40 MSTORE CALLVALUE DUP1 ISZERO PUSH2 0x10 JUMPI PUSH1 0x0 DUP1 REVERT JUMPDEST POP CALLER DUP1 PUSH2 0x37 JUMPI PUSH1 0x40 MLOAD PUSH4 0x1E4FBDF7 PUSH1 0xE0 SHL DUP2 MSTORE PUSH1 0x0 PUSH1 0x4 DUP3 ADD MSTORE PUSH1 0x24 ADD PUSH1 0x40 MLOAD DUP1 SWAP2 SUB SWAP1 REVERT JUMPDEST PUSH2 0x40 DUP2 PUSH2 0x46 JUMP JUMPDEST POP PUSH2 0x96 JUMP JUMPDEST PUSH1 0x0 DUP1 SLOAD PUSH1 0x1 PUSH1 0x1 PUSH1 0xA0 SHL SUB DUP4 DUP2 AND PUSH1 0x1 PUSH1 0x1 PUSH1 0xA0 SHL SUB NOT DUP4 AND DUP2 OR DUP5 SSTORE PUSH1 0x40 MLOAD SWAP2 SWAP1 SWAP3 AND SWAP3 DUP4 SWAP2 PUSH32 0x8BE0079C531659141344CD1FD0A4F28419497F9722A3DAAFE3B4186F6B6457E0 SWAP2 SWAP1 LOG3 POP POP JUMP JUMPDEST PUSH2 0x583 DUP1 PUSH2 0xA5 PUSH1 0x0 CODECOPY PUSH1 0x0 RETURN INVALID PUSH1 0x80 PUSH1 0x40 MSTORE CALLVALUE DUP1 ISZERO PUSH2 0x10 JUMPI PUSH1 0x0 DUP1 REVERT JUMPDEST POP PUSH1 0x4 CALLDATASIZE LT PUSH2 0x93 JUMPI PUSH1 0x0 CALLDATALOAD PUSH1 0xE0 SHR DUP1 PUSH4 0x715018A6 GT PUSH2 0x66 JUMPI DUP1 PUSH4 0x715018A6 EQ PUSH2 0x247 JUMPI DUP1 PUSH4 0x8DA5CB5B EQ PUSH2 0x24F JUMPI DUP1 PUSH4 0xD5406283 EQ PUSH2 0x26A JUMPI DUP1 PUSH4 0xDB296602 EQ PUSH2 0x27D JUMPI DUP1 PUSH4 0xF2FDE38B EQ PUSH2 0x2B0 JUMPI PUSH1 0x0 DUP1 REVERT JUMPDEST DUP1 PUSH4 0x17F85F85 EQ PUSH2 0x98 JUMPI DUP1 PUSH4 0x22D6A5DF EQ PUSH2 0xAD JUMPI DUP1 PUSH4 0x2D142A99 EQ PUSH2 0xC0 JUMPI DUP1 PUSH4 0x44CFA8AB EQ PUSH2 0x1C8 JUMPI JUMPDEST PUSH1 0x0 DUP1 REVERT JUMPDEST PUSH2 0xAB PUSH2 0xA6 CALLDATASIZE PUSH1 0x4 PUSH2 0x4B8 JUMP JUMPDEST PUSH2 0x2C3 JUMP JUMPDEST STOP JUMPDEST PUSH2 0xAB PUSH2 0xBB CALLDATASIZE PUSH1 0x4 PUSH2 0x4B8 JUMP JUMPDEST PUSH2 0x2EF JUMP JUMPDEST PUSH2 0x169 PUSH2 0xCE CALLDATASIZE PUSH1 0x4 PUSH2 0x4E8 JUMP JUMPDEST PUSH1 0x40 DUP1 MLOAD PUSH1 0xE0 DUP2 ADD DUP3 MSTORE PUSH1 0x0 DUP1 DUP3 MSTORE PUSH1 0x20 DUP3 ADD DUP2 SWAP1 MSTORE SWAP2 DUP2 ADD DUP3 SWAP1 MSTORE PUSH1 0x60 DUP2 ADD DUP3 SWAP1 MSTORE PUSH1 0x80 DUP2 ADD DUP3 SWAP1 MSTORE PUSH1 0xA0 DUP2 ADD DUP3 SWAP1 MSTORE PUSH1 0xC0 DUP2 ADD SWAP2 SWAP1 SWAP2 MSTORE POP PUSH1 0x0 SWAP1 DUP2 MSTORE PUSH1 0x1 PUSH1 0x20 DUP2 DUP2 MSTORE PUSH1 0x40 SWAP3 DUP4 SWAP1 KECCAK256 DUP4 MLOAD PUSH1 0xE0 DUP2 ADD DUP6 MSTORE DUP2 SLOAD DUP2 MSTORE SWAP3 DUP2 ADD SLOAD SWAP2 DUP4 ADD SWAP2 SWAP1 SWAP2 MSTORE PUSH1 0x2 DUP2 ADD SLOAD SWAP3 DUP3 ADD SWAP3 SWAP1 SWAP3 MSTORE PUSH1 0x3 DUP3 ADD SLOAD PUSH1 0x60 DUP3 ADD MSTORE PUSH1 0x4 DUP3 ADD SLOAD PUSH1 0x80 DUP3 ADD MSTORE PUSH1 0x5 DUP3 ADD SLOAD PUSH1 0xA0 DUP3 ADD MSTORE PUSH1 0x6 SWAP1 SWAP2 ADD SLOAD PUSH1 0xC0 DUP3 ADD MSTORE SWAP1 JUMP JUMPDEST PUSH1 0x40 MLOAD PUSH2 0x1BF SWAP2 SWAP1 PUSH1 0x0 PUSH1 0xE0 DUP3 ADD SWAP1 POP DUP3 MLOAD DUP3 MSTORE PUSH1 0x20 DUP4 ADD MLOAD PUSH1 0x20 DUP4 ADD MSTORE PUSH1 0x40 DUP4 ADD MLOAD PUSH1 0x40 DUP4 ADD MSTORE PUSH1 0x60 DUP4 ADD MLOAD PUSH1 0x60 DUP4 ADD MSTORE PUSH1 0x80 DUP4 ADD MLOAD PUSH1 0x80 DUP4 ADD MSTORE PUSH1 0xA0 DUP4 ADD MLOAD PUSH1 0xA0 DUP4 ADD MSTORE PUSH1 0xC0 DUP4 ADD MLOAD PUSH1 0xC0 DUP4 ADD MSTORE SWAP3 SWAP2 POP POP JUMP JUMPDEST PUSH1 0x40 MLOAD DUP1 SWAP2 SUB SWAP1 RETURN JUMPDEST PUSH2 0x212 PUSH2 0x1D6 CALLDATASIZE PUSH1 0x4 PUSH2 0x4E8 JUMP JUMPDEST PUSH1 0x1 PUSH1 0x20 DUP2 SWAP1 MSTORE PUSH1 0x0 SWAP2 DUP3 MSTORE PUSH1 0x40 SWAP1 SWAP2 KECCAK256 DUP1 SLOAD SWAP2 DUP2 ADD SLOAD PUSH1 0x2 DUP3 ADD SLOAD PUSH1 0x3 DUP4 ADD SLOAD PUSH1 0x4 DUP5 ADD SLOAD PUSH1 0x5 DUP6 ADD SLOAD PUSH1 0x6 SWAP1 SWAP6 ADD SLOAD SWAP4 SWAP5 SWAP3 SWAP4 SWAP2 SWAP3 SWAP1 SWAP2 DUP8 JUMP JUMPDEST PUSH1 0x40 DUP1 MLOAD SWAP8 DUP9 MSTORE PUSH1 0x20 DUP9 ADD SWAP7 SWAP1 SWAP7 MSTORE SWAP5 DUP7 ADD SWAP4 SWAP1 SWAP4 MSTORE PUSH1 0x60 DUP6 ADD SWAP2 SWAP1 SWAP2 MSTORE PUSH1 0x80 DUP5 ADD MSTORE PUSH1 0xA0 DUP4 ADD MSTORE PUSH1 0xC0 DUP3 ADD MSTORE PUSH1 0xE0 ADD PUSH2 0x1BF JUMP JUMPDEST PUSH2 0xAB PUSH2 0x318 JUMP JUMPDEST PUSH1 0x0 SLOAD PUSH1 0x40 MLOAD PUSH1 0x1 PUSH1 0x1 PUSH1 0xA0 SHL SUB SWAP1 SWAP2 AND DUP2 MSTORE PUSH1 0x20 ADD PUSH2 0x1BF JUMP JUMPDEST PUSH2 0xAB PUSH2 0x278 CALLDATASIZE PUSH1 0x4 PUSH2 0x501 JUMP JUMPDEST PUSH2 0x32C JUMP JUMPDEST PUSH2 0x2A0 PUSH2 0x28B CALLDATASIZE PUSH1 0x4 PUSH2 0x4B8 JUMP JUMPDEST PUSH1 0x2 PUSH1 0x20 MSTORE PUSH1 0x0 SWAP1 DUP2 MSTORE PUSH1 0x40 SWAP1 KECCAK256 SLOAD PUSH1 0xFF AND DUP2 JUMP JUMPDEST PUSH1 0x40 MLOAD SWAP1 ISZERO ISZERO DUP2 MSTORE PUSH1 0x20 ADD PUSH2 0x1BF JUMP JUMPDEST PUSH2 0xAB PUSH2 0x2BE CALLDATASIZE PUSH1 0x4 PUSH2 0x4B8 JUMP JUMPDEST PUSH2 0x3FD JUMP JUMPDEST PUSH2 0x2CB PUSH2 0x43B JUMP JUMPDEST PUSH1 0x1 PUSH1 0x1 PUSH1 0xA0 SHL SUB AND PUSH1 0x0 SWAP1 DUP2 MSTORE PUSH1 0x2 PUSH1 0x20 MSTORE PUSH1 0x40 SWAP1 KECCAK256 DUP1 SLOAD PUSH1 0xFF NOT AND PUSH1 0x1 OR SWAP1 SSTORE JUMP JUMPDEST PUSH2 0x2F7 PUSH2 0x43B JUMP JUMPDEST PUSH1 0x1 PUSH1 0x1 PUSH1 0xA0 SHL SUB AND PUSH1 0x0 SWAP1 DUP2 MSTORE PUSH1 0x2 PUSH1 0x20 MSTORE PUSH1 0x40 SWAP1 KECCAK256 DUP1 SLOAD PUSH1 0xFF NOT AND SWAP1 SSTORE JUMP JUMPDEST PUSH2 0x320 PUSH2 0x43B JUMP JUMPDEST PUSH2 0x32A PUSH1 0x0 PUSH2 0x468 JUMP JUMPDEST JUMP JUMPDEST CALLER PUSH1 0x0 SWAP1 DUP2 MSTORE PUSH1 0x2 PUSH1 0x20 MSTORE PUSH1 0x40 SWAP1 KECCAK256 SLOAD PUSH1 0xFF AND PUSH2 0x387 JUMPI PUSH1 0x40 MLOAD PUSH3 0x461BCD PUSH1 0xE5 SHL DUP2 MSTORE PUSH1 0x20 PUSH1 0x4 DUP3 ADD MSTORE PUSH1 0x14 PUSH1 0x24 DUP3 ADD MSTORE PUSH20 0x4E6F7420612074727573746564206F7261636C65 PUSH1 0x60 SHL PUSH1 0x44 DUP3 ADD MSTORE PUSH1 0x64 ADD JUMPDEST PUSH1 0x40 MLOAD DUP1 SWAP2 SUB SWAP1 REVERT JUMPDEST PUSH1 0x40 DUP1 MLOAD PUSH1 0xE0 DUP2 ADD DUP3 MSTORE DUP9 DUP2 MSTORE PUSH1 0x20 DUP1 DUP3 ADD SWAP9 DUP10 MSTORE DUP2 DUP4 ADD SWAP8 DUP9 MSTORE PUSH1 0x60 DUP3 ADD SWAP7 DUP8 MSTORE PUSH1 0x80 DUP3 ADD SWAP6 DUP7 MSTORE PUSH1 0xA0 DUP3 ADD SWAP5 DUP6 MSTORE PUSH1 0xC0 DUP3 ADD SWAP4 DUP5 MSTORE PUSH1 0x0 SWAP10 DUP11 MSTORE PUSH1 0x1 SWAP1 DUP2 SWAP1 MSTORE SWAP2 SWAP1 SWAP9 KECCAK256 SWAP8 MLOAD DUP9 SSTORE SWAP6 MLOAD SWAP6 DUP8 ADD SWAP6 SWAP1 SWAP6 SSTORE SWAP3 MLOAD PUSH1 0x2 DUP7 ADD SSTORE SWAP1 MLOAD PUSH1 0x3 DUP6 ADD SSTORE MLOAD PUSH1 0x4 DUP5 ADD SSTORE MLOAD PUSH1 0x5 DUP4 ADD SSTORE MLOAD PUSH1 0x6 SWAP1 SWAP2 ADD SSTORE JUMP JUMPDEST PUSH2 0x405 PUSH2 0x43B JUMP JUMPDEST PUSH1 0x1 PUSH1 0x1 PUSH1 0xA0 SHL SUB DUP2 AND PUSH2 0x42F JUMPI PUSH1 0x40 MLOAD PUSH4 0x1E4FBDF7 PUSH1 0xE0 SHL DUP2 MSTORE PUSH1 0x0 PUSH1 0x4 DUP3 ADD MSTORE PUSH1 0x24 ADD PUSH2 0x37E JUMP JUMPDEST PUSH2 0x438 DUP2 PUSH2 0x468 JUMP JUMPDEST POP JUMP JUMPDEST PUSH1 0x0 SLOAD PUSH1 0x1 PUSH1 0x1 PUSH1 0xA0 SHL SUB AND CALLER EQ PUSH2 0x32A JUMPI PUSH1 0x40 MLOAD PUSH4 0x118CDAA7 PUSH1 0xE0 SHL DUP2 MSTORE CALLER PUSH1 0x4 DUP3 ADD MSTORE PUSH1 0x24 ADD PUSH2 0x37E JUMP JUMPDEST PUSH1 0x0 DUP1 SLOAD PUSH1 0x1 PUSH1 0x1 PUSH1 0xA0 SHL SUB DUP4 DUP2 AND PUSH1 0x1 PUSH1 0x1 PUSH1 0xA0 SHL SUB NOT DUP4 AND DUP2 OR DUP5 SSTORE PUSH1 0x40 MLOAD SWAP2 SWAP1 SWAP3 AND SWAP3 DUP4 SWAP2 PUSH32 0x8BE0079C531659141344CD1FD0A4F28419497F9722A3DAAFE3B4186F6B6457E0 SWAP2 SWAP1 LOG3 POP POP JUMP JUMPDEST PUSH1 0x0 PUSH1 0x20 DUP3 DUP5 SUB SLT ISZERO PUSH2 0x4CA JUMPI PUSH1 0x0 DUP1 REVERT JUMPDEST DUP2 CALLDATALOAD PUSH1 0x1 PUSH1 0x1 PUSH1 0xA0 SHL SUB DUP2 AND DUP2 EQ PUSH2 0x4E1 JUMPI PUSH1 0x0 DUP1 REVERT JUMPDEST SWAP4 SWAP3 POP POP POP JUMP JUMPDEST PUSH1 0x0 PUSH1 0x20 DUP3 DUP5 SUB SLT ISZERO PUSH2 0x4FA JUMPI PUSH1 0x0 DUP1 REVERT JUMPDEST POP CALLDATALOAD SWAP2 SWAP1 POP JUMP JUMPDEST PUSH1 0x0 DUP1 PUSH1 0x0 DUP1 PUSH1 0x0 DUP1 PUSH1 0x0 PUSH1 0xE0 DUP9 DUP11 SUB SLT ISZERO PUSH2 0x51C JUMPI PUSH1 0x0 DUP1 REVERT JUMPDEST POP POP DUP6 CALLDATALOAD SWAP8 PUSH1 0x20 DUP8 ADD CALLDATALOAD SWAP8 POP PUSH1 0x40 DUP8 ADD CALLDATALOAD SWAP7 PUSH1 0x60 DUP2 ADD CALLDATALOAD SWAP7 POP PUSH1 0x80 DUP2 ADD CALLDATALOAD SWAP6 POP PUSH1 0xA0 DUP2 ADD CALLDATALOAD SWAP5 POP PUSH1 0xC0 ADD CALLDATALOAD SWAP3 POP SWAP1 POP JUMP INVALID LOG2 PUSH5 0x6970667358 0x22 SLT KECCAK256 LOG4 0xDC PUSH19 0x61185D9F742C9F384D0EEB5658C6E45F930051 MULMOD 0xCC SHL 0xA6 0xB9 0xFB 0x1E GAS 0xE 0xC6 PUSH5 0x736F6C6343 STOP ADDMOD EQ STOP CALLER "},"methodIdentifiers":{"addTrustedOracle(address)":"17f85f85","blockHeaders(uint256)":"44cfa8ab","getBlockHeader(uint256)":"2d142a99","owner()":"8da5cb5b","removeTrustedOracle(address)":"22d6a5df","renounceOwnership()":"715018a6","submitBlockHeader(uint256,bytes32,bytes32,bytes32,bytes32,bytes32,uint256)":"d5406283","transferOwnership(address)":"f2fde38b","trustedOracles(address)":"db296602"}},"storageLayout":{"storage":[{"astId":8,"contract":"contracts/OracleBlockStorage.sol:OracleBlockStorage","label":"_owner","offset":0,"slot":"0","type":"t_address"},{"astId":202,"contract":"contracts/OracleBlockStorage.sol:OracleBlockStorage","label":"blockHeaders","offset":0,"slot":"1","type":"t_mapping(t_uint256,t_struct(BlockHeader)197_storage)"},{"astId":206,"contract":"contracts/OracleBlockStorage.sol:OracleBlockStorage","label":"trustedOracles","offset":0,"slot":"2","type":"t_mapping(t_address,t_bool)"}],"types":{"t_address":{"encoding":"inplace","label":"address","numberOfBytes":"20"},"t_bool":{"encoding":"inplace","label":"bool","numberOfBytes":"1"},"t_bytes32":{"encoding":"inplace","label":"bytes32","numberOfBytes":"32"},"t_mapping(t_address,t_bool)":{"encoding":"mapping","key":"t_address","label":"mapping(address => bool)","numberOfBytes":"32","value":"t_bool"},"t_mapping(t_uint256,t_struct(BlockHeader)197_storage)":{"encoding":"mapping","key":"t_uint256","label":"mapping(uint256 => struct OracleBlockStorage.BlockHeader)","numberOfBytes":"32","value":"t_struct(BlockHeader)197_storage"},"t_struct(BlockHeader)197_storage":{"encoding":"inplace","label":"struct OracleBlockStorage.BlockHeader","members":[{"astId":184,"contract":"contracts/OracleBlockStorage.sol:OracleBlockStorage","label":"blockNumber","offset":0,"slot":"0","type":"t_uint256"},{"astId":186,"contract":"contracts/OracleBlockStorage.sol:OracleBlockStorage","label":"blockHash","offset":0,"slot":"1","type":"t_bytes32"},{"astId":188,"contract":"contracts/OracleBlockStorage.sol:OracleBlockStorage","label":"parentHash","offset":0,"slot":"2","type":"t_bytes32"},{"astId":190,"contract":"contracts/OracleBlockStorage.sol:OracleBlockStorage","label":"stateRoot","offset":0,"slot":"3","type":"t_bytes32"},{"astId":192,"contract":"contracts/OracleBlockStorage.sol:OracleBlockStorage","label":"transactionsRoot","offset":0,"slot":"4","type":"t_bytes32"},{"astId":194,"contract":"contracts/OracleBlockStorage.sol:OracleBlockStorage","label":"receiptsRoot","offset":0,"slot":"5","type":"t_bytes32"},{"astId":196,"contract":"contracts/OracleBlockStorage.sol:OracleBlockStorage","label":"timestamp","offset":0,"slot":"6","type":"t_uint256"}],"numberOfBytes":"224"},"t_uint256":{"encoding":"inplace","label":"uint256","numberOfBytes":"32"}}}}}}