{"contracts/Bridge.sol":{"Bridge":{"abi":[{"inputs":[{"internalType":"uint8","name":"domainID","type":"uint8"},{"internalType":"address","name":"accessControl","type":"address"}],"stateMutability":"nonpayable","type":"constructor"},{"inputs":[{"internalType":"address","name":"sender","type":"address"},{"internalType":"bytes4","name":"funcSig","type":"bytes4"}],"name":"AccessNotAllowed","type":"error"},{"inputs":[],"name":"DepositToCurrentDomain","type":"error"},{"inputs":[],"name":"ECDSAInvalidSignature","type":"error"},{"inputs":[{"internalType":"uint256","name":"length","type":"uint256"}],"name":"ECDSAInvalidSignatureLength","type":"error"},{"inputs":[{"internalType":"bytes32","name":"s","type":"bytes32"}],"name":"ECDSAInvalidSignatureS","type":"error"},{"inputs":[],"name":"EmptyProposalsArray","type":"error"},{"inputs":[],"name":"InvalidProposalSigner","type":"error"},{"inputs":[],"name":"InvalidShortString","type":"error"},{"inputs":[],"name":"MPCAddressAlreadySet","type":"error"},{"inputs":[],"name":"MPCAddressIsNotUpdatable","type":"error"},{"inputs":[],"name":"MPCAddressNotSet","type":"error"},{"inputs":[],"name":"MPCAddressZeroAddress","type":"error"},{"inputs":[],"name":"NonceDecrementsNotAllowed","type":"error"},{"inputs":[],"name":"ResourceIDNotMappedToHandler","type":"error"},{"inputs":[{"internalType":"string","name":"str","type":"string"}],"name":"StringTooLong","type":"error"},{"anonymous":false,"inputs":[{"indexed":false,"internalType":"address","name":"newAccessControl","type":"address"}],"name":"AccessControlChanged","type":"event"},{"anonymous":false,"inputs":[{"indexed":false,"internalType":"uint8","name":"destinationDomainID","type":"uint8"},{"indexed":false,"internalType":"bytes32","name":"resourceID","type":"bytes32"},{"indexed":false,"internalType":"uint64","name":"depositNonce","type":"uint64"},{"indexed":true,"internalType":"address","name":"user","type":"address"},{"indexed":false,"internalType":"bytes","name":"data","type":"bytes"},{"indexed":false,"internalType":"bytes","name":"handlerResponse","type":"bytes"}],"name":"Deposit","type":"event"},{"anonymous":false,"inputs":[],"name":"EIP712DomainChanged","type":"event"},{"anonymous":false,"inputs":[],"name":"EndKeygen","type":"event"},{"anonymous":false,"inputs":[{"indexed":false,"internalType":"bytes","name":"lowLevelData","type":"bytes"},{"indexed":false,"internalType":"uint8","name":"originDomainID","type":"uint8"},{"indexed":false,"internalType":"uint64","name":"depositNonce","type":"uint64"}],"name":"FailedHandlerExecution","type":"event"},{"anonymous":false,"inputs":[{"indexed":false,"internalType":"address","name":"newFeeHandler","type":"address"}],"name":"FeeHandlerChanged","type":"event"},{"anonymous":false,"inputs":[{"indexed":false,"internalType":"string","name":"hash","type":"string"}],"name":"KeyRefresh","type":"event"},{"anonymous":false,"inputs":[{"indexed":false,"internalType":"address","name":"account","type":"address"}],"name":"Paused","type":"event"},{"anonymous":false,"inputs":[{"indexed":false,"internalType":"uint8","name":"originDomainID","type":"uint8"},{"indexed":false,"internalType":"uint64","name":"depositNonce","type":"uint64"},{"indexed":false,"internalType":"bytes32","name":"dataHash","type":"bytes32"},{"indexed":false,"internalType":"bytes","name":"handlerResponse","type":"bytes"}],"name":"ProposalExecution","type":"event"},{"anonymous":false,"inputs":[{"indexed":false,"internalType":"string","name":"txHash","type":"string"}],"name":"Retry","type":"event"},{"anonymous":false,"inputs":[],"name":"StartKeygen","type":"event"},{"anonymous":false,"inputs":[{"indexed":false,"internalType":"address","name":"account","type":"address"}],"name":"Unpaused","type":"event"},{"inputs":[],"name":"_MPCAddress","outputs":[{"internalType":"address","name":"","type":"address"}],"stateMutability":"view","type":"function"},{"inputs":[{"internalType":"uint8","name":"","type":"uint8"}],"name":"_depositCounts","outputs":[{"internalType":"uint64","name":"","type":"uint64"}],"stateMutability":"view","type":"function"},{"inputs":[],"name":"_domainID","outputs":[{"internalType":"uint8","name":"","type":"uint8"}],"stateMutability":"view","type":"function"},{"inputs":[],"name":"_feeHandler","outputs":[{"internalType":"contract IFeeHandler","name":"","type":"address"}],"stateMutability":"view","type":"function"},{"inputs":[{"internalType":"bytes32","name":"","type":"bytes32"}],"name":"_resourceIDToHandlerAddress","outputs":[{"internalType":"address","name":"","type":"address"}],"stateMutability":"view","type":"function"},{"inputs":[{"internalType":"address","name":"newAccessControl","type":"address"}],"name":"adminChangeAccessControl","outputs":[],"stateMutability":"nonpayable","type":"function"},{"inputs":[{"internalType":"address","name":"newFeeHandler","type":"address"}],"name":"adminChangeFeeHandler","outputs":[],"stateMutability":"nonpayable","type":"function"},{"inputs":[],"name":"adminPauseTransfers","outputs":[],"stateMutability":"nonpayable","type":"function"},{"inputs":[{"internalType":"address","name":"handlerAddress","type":"address"},{"internalType":"address","name":"tokenAddress","type":"address"}],"name":"adminSetBurnable","outputs":[],"stateMutability":"nonpayable","type":"function"},{"inputs":[{"internalType":"uint8","name":"domainID","type":"uint8"},{"internalType":"uint64","name":"nonce","type":"uint64"}],"name":"adminSetDepositNonce","outputs":[],"stateMutability":"nonpayable","type":"function"},{"inputs":[{"internalType":"address","name":"forwarder","type":"address"},{"internalType":"bool","name":"valid","type":"bool"}],"name":"adminSetForwarder","outputs":[],"stateMutability":"nonpayable","type":"function"},{"inputs":[{"internalType":"address","name":"handlerAddress","type":"address"},{"internalType":"bytes32","name":"resourceID","type":"bytes32"},{"internalType":"address","name":"contractAddress","type":"address"},{"internalType":"bytes","name":"args","type":"bytes"}],"name":"adminSetResource","outputs":[],"stateMutability":"nonpayable","type":"function"},{"inputs":[],"name":"adminUnpauseTransfers","outputs":[],"stateMutability":"nonpayable","type":"function"},{"inputs":[{"internalType":"address","name":"handlerAddress","type":"address"},{"internalType":"bytes","name":"data","type":"bytes"}],"name":"adminWithdraw","outputs":[],"stateMutability":"nonpayable","type":"function"},{"inputs":[{"internalType":"uint8","name":"destinationDomainID","type":"uint8"},{"internalType":"bytes32","name":"resourceID","type":"bytes32"},{"internalType":"bytes","name":"depositData","type":"bytes"},{"internalType":"bytes","name":"feeData","type":"bytes"}],"name":"deposit","outputs":[{"internalType":"uint64","name":"depositNonce","type":"uint64"},{"internalType":"bytes","name":"handlerResponse","type":"bytes"}],"stateMutability":"payable","type":"function"},{"inputs":[],"name":"eip712Domain","outputs":[{"internalType":"bytes1","name":"fields","type":"bytes1"},{"internalType":"string","name":"name","type":"string"},{"internalType":"string","name":"version","type":"string"},{"internalType":"uint256","name":"chainId","type":"uint256"},{"internalType":"address","name":"verifyingContract","type":"address"},{"internalType":"bytes32","name":"salt","type":"bytes32"},{"internalType":"uint256[]","name":"extensions","type":"uint256[]"}],"stateMutability":"view","type":"function"},{"inputs":[{"internalType":"address","name":"MPCAddress","type":"address"}],"name":"endKeygen","outputs":[],"stateMutability":"nonpayable","type":"function"},{"inputs":[{"components":[{"internalType":"uint8","name":"originDomainID","type":"uint8"},{"internalType":"uint64","name":"depositNonce","type":"uint64"},{"internalType":"bytes32","name":"resourceID","type":"bytes32"},{"internalType":"bytes","name":"data","type":"bytes"}],"internalType":"struct Bridge.Proposal","name":"proposal","type":"tuple"},{"internalType":"bytes","name":"signature","type":"bytes"}],"name":"withdraw","outputs":[],"stateMutability":"nonpayable","type":"function"},{"inputs":[{"components":[{"internalType":"uint8","name":"originDomainID","type":"uint8"},{"internalType":"uint64","name":"depositNonce","type":"uint64"},{"internalType":"bytes32","name":"resourceID","type":"bytes32"},{"internalType":"bytes","name":"data","type":"bytes"}],"internalType":"struct Bridge.Proposal[]","name":"proposals","type":"tuple[]"},{"internalType":"bytes","name":"signature","type":"bytes"}],"name":"withdraws","outputs":[],"stateMutability":"nonpayable","type":"function"},{"inputs":[{"internalType":"uint8","name":"domainID","type":"uint8"},{"internalType":"uint256","name":"depositNonce","type":"uint256"}],"name":"isProposalExecuted","outputs":[{"internalType":"bool","name":"","type":"bool"}],"stateMutability":"view","type":"function"},{"inputs":[{"internalType":"address","name":"","type":"address"}],"name":"isValidForwarder","outputs":[{"internalType":"bool","name":"","type":"bool"}],"stateMutability":"view","type":"function"},{"inputs":[],"name":"paused","outputs":[{"internalType":"bool","name":"","type":"bool"}],"stateMutability":"view","type":"function"},{"inputs":[{"internalType":"string","name":"hash","type":"string"}],"name":"refreshKey","outputs":[],"stateMutability":"nonpayable","type":"function"},{"inputs":[{"internalType":"string","name":"txHash","type":"string"}],"name":"retry","outputs":[],"stateMutability":"nonpayable","type":"function"},{"inputs":[],"name":"startKeygen","outputs":[],"stateMutability":"nonpayable","type":"function"},{"inputs":[{"internalType":"uint8","name":"","type":"uint8"},{"internalType":"uint256","name":"","type":"uint256"}],"name":"usedNonces","outputs":[{"internalType":"uint256","name":"","type":"uint256"}],"stateMutability":"view","type":"function"},{"inputs":[{"components":[{"internalType":"uint8","name":"originDomainID","type":"uint8"},{"internalType":"uint64","name":"depositNonce","type":"uint64"},{"internalType":"bytes32","name":"resourceID","type":"bytes32"},{"internalType":"bytes","name":"data","type":"bytes"}],"internalType":"struct Bridge.Proposal[]","name":"proposals","type":"tuple[]"},{"internalType":"bytes","name":"signature","type":"bytes"}],"name":"verify","outputs":[{"internalType":"bool","name":"","type":"bool"}],"stateMutability":"view","type":"function"}],"evm":{"bytecode":{"linkReferences":{},"object":"6101806040523480156200001257600080fd5b5060405162002cb838038062002cb88339810160408190526200003591620002e4565b604080518082018252600681526542726964676560d01b602080830191909152825180840190935260058352640332e312e360dc1b908301526000805460ff1916905590620000868260016200017c565b61012052620000978160026200017c565b61014052815160208084019190912060e052815190820120610100524660a0526200012560e05161010051604080517f8b73c3c69bb8fe3d512ecc4cf759cc79239f7b179b0ffacaa9a75d522b39400f60208201529081019290925260608201524660808201523060a082015260009060c00160405160208183030381529060405280519060200120905090565b60805250503060c05260ff82166101605262000140620001b5565b600380546001600160a01b0319166001600160a01b0392909216919091179055620001746200016e620001b5565b620001f8565b505062000519565b60006020835110156200019c5762000194836200024e565b9050620001af565b81620001a98482620003d8565b5060ff90505b92915050565b60003360143610801590620001e257506001600160a01b03811660009081526008602052604090205460ff165b15620001f3575060131936013560601c5b919050565b620002026200029a565b6000805460ff191660011790556040516001600160a01b03821681527f62e78cea01bee320cd4e420270b5ea74000d11b0c9f74754ebdbfc544b05a2589060200160405180910390a150565b600080829050601f8151111562000285578260405163305a27a960e01b81526004016200027c9190620004a4565b60405180910390fd5b80516200029282620004f4565b179392505050565b60005460ff1615620002e25760405162461bcd60e51b815260206004820152601060248201526f14185d5cd8589b194e881c185d5cd95960821b60448201526064016200027c565b565b60008060408385031215620002f857600080fd5b825160ff811681146200030a57600080fd5b60208401519092506001600160a01b03811681146200032857600080fd5b809150509250929050565b634e487b7160e01b600052604160045260246000fd5b600181811c908216806200035e57607f821691505b6020821081036200037f57634e487b7160e01b600052602260045260246000fd5b50919050565b601f821115620003d357600081815260208120601f850160051c81016020861015620003ae5750805b601f850160051c820191505b81811015620003cf57828155600101620003ba565b5050505b505050565b81516001600160401b03811115620003f457620003f462000333565b6200040c8162000405845462000349565b8462000385565b602080601f8311600181146200044457600084156200042b5750858301515b600019600386901b1c1916600185901b178555620003cf565b600085815260208120601f198616915b82811015620004755788860151825594840194600190910190840162000454565b5085821015620004945787850151600019600388901b60f8161c191681555b5050505050600190811b01905550565b600060208083528351808285015260005b81811015620004d357858101830151858201604001528201620004b5565b506000604082860101526040601f19601f8301168501019250505092915050565b805160208083015191908110156200037f5760001960209190910360031b1b16919050565b60805160a05160c05160e0516101005161012051610140516101605161272b6200058d6000396000818161043301528181610b2e0152610c130152600061173d0152600061170b0152600061198a01526000611962015260006118bd015260006118e701526000611911015261272b6000f3fe60806040526004361061019c5760003560e01c80638c0c2631116100ec578063d2e5fae91161008a578063f0ead51e11610064578063f0ead51e14610527578063f8c39e4414610547578063fe4648f414610577578063ffaac0eb1461059757600080fd5b8063d2e5fae9146104c7578063d8236744146104e7578063edc20c3c1461050757600080fd5b80639dd694f4116100c65780639dd694f414610421578063a546e8a114610467578063bd2a182014610487578063d15ef64e146104a757600080fd5b80638c0c2631146103c15780639ae0bf45146103e15780639d33b6d41461040157600080fd5b80636ba6db6b1161015957806384b0196e1161013357806384b0196e1461032357806384db809f1461034b5780638a3234c7146103815780638b63aebf146103a157600080fd5b80636ba6db6b146102d857806373c45c98146102ed57806380ae1c281461030e57600080fd5b8063059972d2146101a157806308a64104146101de5780631f5c64c114610224578063366b4885146102465780634b0b919d146102665780635c975abb146102b4575b600080fd5b3480156101ad57600080fd5b506004546101c1906001600160a01b031681565b6040516001600160a01b0390911681526020015b60405180910390f35b3480156101ea57600080fd5b506102166101f9366004611c71565b600960209081526000928352604080842090915290825290205481565b6040519081526020016101d5565b34801561023057600080fd5b5061024461023f366004611e5c565b6105ac565b005b34801561025257600080fd5b50610244610261366004611f46565b610a5c565b34801561027257600080fd5b5061029c610281366004611f96565b6006602052600090815260409020546001600160401b031681565b6040516001600160401b0390911681526020016101d5565b3480156102c057600080fd5b5060005460ff165b60405190151581526020016101d5565b3480156102e457600080fd5b50610244610ab3565b6103006102fb366004611fb1565b610b20565b6040516101d592919061208a565b34801561031a57600080fd5b50610244610dd7565b34801561032f57600080fd5b50610338610e01565b6040516101d597969594939291906120ac565b34801561035757600080fd5b506101c1610366366004612142565b6007602052600090815260409020546001600160a01b031681565b34801561038d57600080fd5b5061024461039c366004612172565b610e47565b3480156103ad57600080fd5b506102446103bc3660046121e0565b610eee565b3480156103cd57600080fd5b506102446103dc3660046121fb565b610f54565b3480156103ed57600080fd5b506102c86103fc366004611c71565b610fd0565b34801561040d57600080fd5b5061024461041c3660046121e0565b611020565b34801561042d57600080fd5b506104557f000000000000000000000000000000000000000000000000000000000000000081565b60405160ff90911681526020016101d5565b34801561047357600080fd5b506102c8610482366004611e5c565b611071565b34801561049357600080fd5b506102446104a236600461222e565b6112c7565b3480156104b357600080fd5b506102446104c236600461227b565b61130d565b3480156104d357600080fd5b506102446104e23660046121e0565b611350565b3480156104f357600080fd5b50610244610502366004611f46565b611410565b34801561051357600080fd5b506102446105223660046122b7565b611457565b34801561053357600080fd5b506102446105423660046122e1565b611520565b34801561055357600080fd5b506102c86105623660046121e0565b60086020526000908152604090205460ff1681565b34801561058357600080fd5b506005546101c1906001600160a01b031681565b3480156105a357600080fd5b50610244611596565b6105b46115e2565b82516000036105d6576040516363e60a4960e01b815260040160405180910390fd5b6105e1838383611071565b6105fe576040516337077ca360e01b815260040160405180910390fd5b60005b8351811015610a565761065784828151811061061f5761061f61232f565b60200260200101516000015185838151811061063d5761063d61232f565b6020026020010151602001516001600160401b0316610fd0565b610a44576000600760008684815181106106735761067361232f565b602002602001015160400151815260200190815260200160002060009054906101000a90046001600160a01b031690506000818684815181106106b8576106b861232f565b6020026020010151606001516040516020016106d5929190612345565b60405160208183030381529060405280519060200120905060008290506101008785815181106107075761070761232f565b60200260200101516020015161071d9190612393565b6001600160401b03166001901b600960008987815181106107405761074061232f565b60200260200101516000015160ff1660ff16815260200190815260200160002060006101008a88815181106107775761077761232f565b60200260200101516020015161078d91906123cf565b6001600160401b0316815260200190815260200160002060008282541792505081905550806001600160a01b031663e248cff28886815181106107d2576107d261232f565b6020026020010151604001518987815181106107f0576107f061232f565b6020026020010151606001516040518363ffffffff1660e01b81526004016108199291906123f5565b6000604051808303816000875af192505050801561085957506040513d6000823e601f3d908101601f19168201604052610856919081019061240e565b60015b6109c8573d808015610887576040519150601f19603f3d011682016040523d82523d6000602084013e61088c565b606091505b507f19f774a63ee465292252a9981ae52051acc13da671c698ac4b5bf25b38c5b6fc818987815181106108c1576108c161232f565b6020026020010151600001518a88815181106108df576108df61232f565b6020026020010151602001516040516108fa93929190612484565b60405180910390a16101008886815181106109175761091761232f565b60200260200101516020015161092d9190612393565b6001600160401b03166001901b19600960008a88815181106109515761095161232f565b60200260200101516000015160ff1660ff16815260200190815260200160002060006101008b89815181106109885761098861232f565b60200260200101516020015161099e91906123cf565b6001600160401b0316815260208101919091526040016000208054909116905550610a4492505050565b7fb83128682faafdf78efbb57c4c9acdc12ba648a50eca00b8b72818ea2d8e5cf98886815181106109fb576109fb61232f565b602002602001015160000151898781518110610a1957610a1961232f565b6020026020010151602001518584604051610a3794939291906124b9565b60405180910390a1505050505b80610a4e816124f4565b915050610601565b50505050565b610a796000356001600160e01b031916610a74611628565b611669565b7f9069464c059b9a90135a3fdf2c47855263346b912894ad7562d989532c3fad4c81604051610aa8919061250d565b60405180910390a150565b610acb6000356001600160e01b031916610a74611628565b6004546001600160a01b031615610af55760405163229924e160e01b815260040160405180910390fd5b6040517f24e723a5c27b62883404028b8dee9965934de6a46828cda2ff63bf9a5e65ce4390600090a1565b60006060610b2c6115e2565b7f000000000000000000000000000000000000000000000000000000000000000060ff168860ff1603610b7257604051630137058b60e61b815260040160405180910390fd5b6000610b7c611628565b6005549091506001600160a01b0316610be7573415610be25760405162461bcd60e51b815260206004820152601d60248201527f6e6f2046656548616e646c65722c206d73672e76616c756520213d203000000060448201526064015b60405180910390fd5b610c7a565b600554604051632530706560e01b81526001600160a01b03909116906325307065903490610c479085907f0000000000000000000000000000000000000000000000000000000000000000908f908f908f908f908f908f90600401612549565b6000604051808303818588803b158015610c6057600080fd5b505af1158015610c74573d6000803e3d6000fd5b50505050505b6000888152600760205260409020546001600160a01b031680610cb0576040516308c231dd60e31b815260040160405180910390fd5b60ff8a1660009081526006602052604081208054909190610cd9906001600160401b03166125a5565b91906101000a8154816001600160401b0302191690836001600160401b03160217905593506000819050806001600160a01b031663b07e54bb8b858c8c6040518563ffffffff1660e01b8152600401610d3594939291906125cb565b6000604051808303816000875af1158015610d54573d6000803e3d6000fd5b505050506040513d6000823e601f3d908101601f19168201604052610d7c919081019061240e565b9350826001600160a01b03167f17bc3181e17a9620a479c24e6c606e474ba84fc036877b768926872e8cd0e11f8c8c888d8d8a604051610dc1969594939291906125f6565b60405180910390a2505050965096945050505050565b610def6000356001600160e01b031916610a74611628565b610dff610dfa611628565b6116b6565b565b600060608060008060006060610e15611704565b610e1d611736565b60408051600080825260208201909252600f60f81b9b939a50919850469750309650945092509050565b610e5f6000356001600160e01b031916610a74611628565b6000848152600760205260409081902080546001600160a01b0319166001600160a01b0388169081179091559051630fa8675b60e41b815286919063fa8675b090610eb49088908890889088906004016125cb565b600060405180830381600087803b158015610ece57600080fd5b505af1158015610ee2573d6000803e3d6000fd5b50505050505050505050565b610f066000356001600160e01b031916610a74611628565b600580546001600160a01b0319166001600160a01b0383169081179091556040519081527f729170bd142e4965055b26a285faeedf03baf2b915bfc5a7c75d24b45815ff2c90602001610aa8565b610f6c6000356001600160e01b031916610a74611628565b6040516307b7ed9960e01b81526001600160a01b0382811660048301528391908216906307b7ed99906024015b600060405180830381600087803b158015610fb357600080fd5b505af1158015610fc7573d6000803e3d6000fd5b50505050505050565b6000610fde61010083612647565b60ff84166000908152600960205260408120600190921b91906110036101008661265b565b815260200190815260200160002054166000141590505b92915050565b6110386000356001600160e01b031916610a74611628565b6040516001600160a01b03821681527f497acaa34ac19c2a2a579ad43eca493b4fea820459e254e9383e7dda216b0f0490602001610aa8565b60008084516001600160401b0381111561108d5761108d611c9b565b6040519080825280602002602001820160405280156110b6578160200160208202803683370190505b50905060005b85518110156111e8577fcc13634e956dd3d4ec8d808ee8bf294e1cd05a38f63fe7f234b079a0a4c36a708682815181106110f8576110f861232f565b6020026020010151600001518783815181106111165761111661232f565b6020026020010151602001518884815181106111345761113461232f565b6020026020010151604001518985815181106111525761115261232f565b602002602001015160600151805190602001206040516020016111a395949392919094855260ff9390931660208501526001600160401b039190911660408401526060830152608082015260a00190565b604051602081830303815290604052805190602001208282815181106111cb576111cb61232f565b6020908102919091010152806111e0816124f4565b9150506110bc565b5060006112ac85858080601f016020809104026020016040519081016040528093929190818152602001838380828437600092019190915250506040516112a692507f989d14110ba109ccad392cc18511d1f6ae3a85165c5960e49d72c2c67682fde5915061125b90879060200161266f565b6040516020818303038152906040528051906020012060405160200161128b929190918252602082015260400190565b60405160208183030381529060405280519060200120611763565b90611790565b6004546001600160a01b039081169116149695505050505050565b6112df6000356001600160e01b031916610a74611628565b60405163025a3c9960e21b815282906001600160a01b03821690630968f26490610f9990859060040161250d565b6113256000356001600160e01b031916610a74611628565b6001600160a01b03919091166000908152600860205260409020805460ff1916911515919091179055565b6113686000356001600160e01b031916610a74611628565b6001600160a01b03811661138f57604051631449e68f60e01b815260040160405180910390fd5b6004546001600160a01b0316156113b957604051632748fb3360e21b815260040160405180910390fd5b600480546001600160a01b0319166001600160a01b0383161790556113e46113df611628565b6117ba565b6040517f4187686ceef7b541a1f224d48d4cded8f2c535e0e58ac0f0514071b1de3dad5790600090a150565b6114286000356001600160e01b031916610a74611628565b7fe78d813a9260522f81d6c761e311727b2e19008daadd2b9e174be86bc4f06a4b81604051610aa8919061250d565b61146f6000356001600160e01b031916610a74611628565b60ff82166000908152600660205260409020546001600160401b03908116908216116114ec5760405162461bcd60e51b815260206004820152602660248201527f446f6573206e6f7420616c6c6f772064656372656d656e7473206f6620746865604482015265206e6f6e636560d01b6064820152608401610bd9565b60ff919091166000908152600660205260409020805467ffffffffffffffff19166001600160401b03909216919091179055565b604080516001808252818301909252600091816020015b604080516080810182526000808252602080830182905292820152606080820152825260001990920191018161153757905050905083816000815181106115805761158061232f565b6020026020010181905250610a568184846105ac565b6115ae6000356001600160e01b031916610a74611628565b6004546001600160a01b03166115d75760405163cca785b960e01b815260040160405180910390fd5b610dff6113df611628565b60005460ff1615610dff5760405162461bcd60e51b815260206004820152601060248201526f14185d5cd8589b194e881c185d5cd95960821b6044820152606401610bd9565b6000336014361080159061165457506001600160a01b03811660009081526008602052604090205460ff165b15611664575060131936013560601c5b919050565b6003546001600160a01b038281169116146116b25760405163039d370b60e01b81526001600160a01b03821660048201526001600160e01b031983166024820152604401610bd9565b5050565b6116be6115e2565b6000805460ff191660011790556040516001600160a01b03821681527f62e78cea01bee320cd4e420270b5ea74000d11b0c9f74754ebdbfc544b05a25890602001610aa8565b60606117317f00000000000000000000000000000000000000000000000000000000000000006001611805565b905090565b60606117317f00000000000000000000000000000000000000000000000000000000000000006002611805565b600061101a6117706118b0565b8360405161190160f01b8152600281019290925260228201526042902090565b6000806000806117a086866119db565b9250925092506117b08282611a28565b5090949350505050565b6117c2611ae1565b6000805460ff191690556040516001600160a01b03821681527f5db9ee0a495bf2e6ff9c91a7834c1ba4fdd244a5e8aa4e537bd38aeae4b073aa90602001610aa8565b606060ff831461181f5761181883611b2a565b905061101a565b81805461182b906126a5565b80601f0160208091040260200160405190810160405280929190818152602001828054611857906126a5565b80156118a45780601f10611879576101008083540402835291602001916118a4565b820191906000526020600020905b81548152906001019060200180831161188757829003601f168201915b5050505050905061101a565b6000306001600160a01b037f00000000000000000000000000000000000000000000000000000000000000001614801561190957507f000000000000000000000000000000000000000000000000000000000000000046145b1561193357507f000000000000000000000000000000000000000000000000000000000000000090565b611731604080517f8b73c3c69bb8fe3d512ecc4cf759cc79239f7b179b0ffacaa9a75d522b39400f60208201527f0000000000000000000000000000000000000000000000000000000000000000918101919091527f000000000000000000000000000000000000000000000000000000000000000060608201524660808201523060a082015260009060c00160405160208183030381529060405280519060200120905090565b60008060008351604103611a155760208401516040850151606086015160001a611a0788828585611b69565b955095509550505050611a21565b50508151600091506002905b9250925092565b6000826003811115611a3c57611a3c6126df565b03611a45575050565b6001826003811115611a5957611a596126df565b03611a775760405163f645eedf60e01b815260040160405180910390fd5b6002826003811115611a8b57611a8b6126df565b03611aac5760405163fce698f760e01b815260048101829052602401610bd9565b6003826003811115611ac057611ac06126df565b036116b2576040516335e2f38360e21b815260048101829052602401610bd9565b60005460ff16610dff5760405162461bcd60e51b815260206004820152601460248201527314185d5cd8589b194e881b9bdd081c185d5cd95960621b6044820152606401610bd9565b60606000611b3783611c38565b604080516020808252818301909252919250600091906020820181803683375050509182525060208101929092525090565b600080807f7fffffffffffffffffffffffffffffff5d576e7357a4501ddfe92f46681b20a0841115611ba45750600091506003905082611c2e565b604080516000808252602082018084528a905260ff891692820192909252606081018790526080810186905260019060a0016020604051602081039080840390855afa158015611bf8573d6000803e3d6000fd5b5050604051601f1901519150506001600160a01b038116611c2457506000925060019150829050611c2e565b9250600091508190505b9450945094915050565b600060ff8216601f81111561101a57604051632cd44ac360e21b815260040160405180910390fd5b803560ff8116811461166457600080fd5b60008060408385031215611c8457600080fd5b611c8d83611c60565b946020939093013593505050565b634e487b7160e01b600052604160045260246000fd5b604051601f8201601f191681016001600160401b0381118282101715611cd957611cd9611c9b565b604052919050565b80356001600160401b038116811461166457600080fd5b60006001600160401b03821115611d1157611d11611c9b565b50601f01601f191660200190565b6000611d32611d2d84611cf8565b611cb1565b9050828152838383011115611d4657600080fd5b828260208301376000602084830101529392505050565b600082601f830112611d6e57600080fd5b611d7d83833560208501611d1f565b9392505050565b600060808284031215611d9657600080fd5b604051608081016001600160401b038282108183111715611db957611db9611c9b565b81604052829350611dc985611c60565b8352611dd760208601611ce1565b6020840152604085013560408401526060850135915080821115611dfa57600080fd5b50611e0785828601611d5d565b6060830152505092915050565b60008083601f840112611e2657600080fd5b5081356001600160401b03811115611e3d57600080fd5b602083019150836020828501011115611e5557600080fd5b9250929050565b600080600060408486031215611e7157600080fd5b83356001600160401b0380821115611e8857600080fd5b818601915086601f830112611e9c57600080fd5b8135602082821115611eb057611eb0611c9b565b8160051b611ebf828201611cb1565b928352848101820192828101908b851115611ed957600080fd5b83870192505b84831015611f1557823586811115611ef75760008081fd5b611f058d86838b0101611d84565b8352509183019190830190611edf565b9850505087013592505080821115611f2c57600080fd5b50611f3986828701611e14565b9497909650939450505050565b600060208284031215611f5857600080fd5b81356001600160401b03811115611f6e57600080fd5b8201601f81018413611f7f57600080fd5b611f8e84823560208401611d1f565b949350505050565b600060208284031215611fa857600080fd5b611d7d82611c60565b60008060008060008060808789031215611fca57600080fd5b611fd387611c60565b95506020870135945060408701356001600160401b0380821115611ff657600080fd5b6120028a838b01611e14565b9096509450606089013591508082111561201b57600080fd5b5061202889828a01611e14565b979a9699509497509295939492505050565b60005b8381101561205557818101518382015260200161203d565b50506000910152565b6000815180845261207681602086016020860161203a565b601f01601f19169290920160200192915050565b6001600160401b0383168152604060208201526000611f8e604083018461205e565b60ff60f81b881681526000602060e0818401526120cc60e084018a61205e565b83810360408501526120de818a61205e565b606085018990526001600160a01b038816608086015260a0850187905284810360c0860152855180825283870192509083019060005b8181101561213057835183529284019291840191600101612114565b50909c9b505050505050505050505050565b60006020828403121561215457600080fd5b5035919050565b80356001600160a01b038116811461166457600080fd5b60008060008060006080868803121561218a57600080fd5b6121938661215b565b9450602086013593506121a86040870161215b565b925060608601356001600160401b038111156121c357600080fd5b6121cf88828901611e14565b969995985093965092949392505050565b6000602082840312156121f257600080fd5b611d7d8261215b565b6000806040838503121561220e57600080fd5b6122178361215b565b91506122256020840161215b565b90509250929050565b6000806040838503121561224157600080fd5b61224a8361215b565b915060208301356001600160401b0381111561226557600080fd5b61227185828601611d5d565b9150509250929050565b6000806040838503121561228e57600080fd5b6122978361215b565b9150602083013580151581146122ac57600080fd5b809150509250929050565b600080604083850312156122ca57600080fd5b6122d383611c60565b915061222560208401611ce1565b6000806000604084860312156122f657600080fd5b83356001600160401b038082111561230d57600080fd5b61231987838801611d84565b94506020860135915080821115611f2c57600080fd5b634e487b7160e01b600052603260045260246000fd5b6bffffffffffffffffffffffff198360601b1681526000825161236f81601485016020870161203a565b919091016014019392505050565b634e487b7160e01b600052601260045260246000fd5b60006001600160401b03808416806123ad576123ad61237d565b92169190910692915050565b634e487b7160e01b600052601160045260246000fd5b60006001600160401b03808416806123e9576123e961237d565b92169190910492915050565b828152604060208201526000611f8e604083018461205e565b60006020828403121561242057600080fd5b81516001600160401b0381111561243657600080fd5b8201601f8101841361244757600080fd5b8051612455611d2d82611cf8565b81815285602083850101111561246a57600080fd5b61247b82602083016020860161203a565b95945050505050565b606081526000612497606083018661205e565b905060ff841660208301526001600160401b0383166040830152949350505050565b60ff851681526001600160401b03841660208201528260408201526080606082015260006124ea608083018461205e565b9695505050505050565b600060018201612506576125066123b9565b5060010190565b602081526000611d7d602083018461205e565b81835281816020850137506000828201602090810191909152601f909101601f19169091010190565b60018060a01b038916815260ff8816602082015260ff8716604082015285606082015260c06080820152600061258360c083018688612520565b82810360a0840152612596818587612520565b9b9a5050505050505050505050565b60006001600160401b038083168181036125c1576125c16123b9565b6001019392505050565b8481526001600160a01b03841660208201526060604082018190526000906124ea9083018486612520565b60ff871681528560208201526001600160401b038516604082015260a06060820152600061262860a083018587612520565b828103608084015261263a818561205e565b9998505050505050505050565b6000826126565761265661237d565b500690565b60008261266a5761266a61237d565b500490565b815160009082906020808601845b838110156126995781518552938201939082019060010161267d565b50929695505050505050565b600181811c908216806126b957607f821691505b6020821081036126d957634e487b7160e01b600052602260045260246000fd5b50919050565b634e487b7160e01b600052602160045260246000fdfea26469706673582212208051e3fc0345281a793c32b90e4049192d46881f33c6c230e0816876b296520464736f6c63430008140033","opcodes":"PUSH2 0x180 PUSH1 0x40 MSTORE CALLVALUE DUP1 ISZERO PUSH3 0x12 JUMPI PUSH1 0x0 DUP1 REVERT JUMPDEST POP PUSH1 0x40 MLOAD PUSH3 0x2CB8 CODESIZE SUB DUP1 PUSH3 0x2CB8 DUP4 CODECOPY DUP2 ADD PUSH1 0x40 DUP2 SWAP1 MSTORE PUSH3 0x35 SWAP2 PUSH3 0x2E4 JUMP JUMPDEST PUSH1 0x40 DUP1 MLOAD DUP1 DUP3 ADD DUP3 MSTORE PUSH1 0x6 DUP2 MSTORE PUSH6 0x427269646765 PUSH1 0xD0 SHL PUSH1 0x20 DUP1 DUP4 ADD SWAP2 SWAP1 SWAP2 MSTORE DUP3 MLOAD DUP1 DUP5 ADD SWAP1 SWAP4 MSTORE PUSH1 0x5 DUP4 MSTORE PUSH5 0x332E312E3 PUSH1 0xDC SHL SWAP1 DUP4 ADD MSTORE PUSH1 0x0 DUP1 SLOAD PUSH1 0xFF NOT AND SWAP1 SSTORE SWAP1 PUSH3 0x86 DUP3 PUSH1 0x1 PUSH3 0x17C JUMP JUMPDEST PUSH2 0x120 MSTORE PUSH3 0x97 DUP2 PUSH1 0x2 PUSH3 0x17C JUMP JUMPDEST PUSH2 0x140 MSTORE DUP2 MLOAD PUSH1 0x20 DUP1 DUP5 ADD SWAP2 SWAP1 SWAP2 KECCAK256 PUSH1 0xE0 MSTORE DUP2 MLOAD SWAP1 DUP3 ADD KECCAK256 PUSH2 0x100 MSTORE CHAINID PUSH1 0xA0 MSTORE PUSH3 0x125 PUSH1 0xE0 MLOAD PUSH2 0x100 MLOAD PUSH1 0x40 DUP1 MLOAD PUSH32 0x8B73C3C69BB8FE3D512ECC4CF759CC79239F7B179B0FFACAA9A75D522B39400F PUSH1 0x20 DUP3 ADD MSTORE SWAP1 DUP2 ADD SWAP3 SWAP1 SWAP3 MSTORE PUSH1 0x60 DUP3 ADD MSTORE CHAINID PUSH1 0x80 DUP3 ADD MSTORE ADDRESS PUSH1 0xA0 DUP3 ADD MSTORE PUSH1 0x0 SWAP1 PUSH1 0xC0 ADD PUSH1 0x40 MLOAD PUSH1 0x20 DUP2 DUP4 SUB SUB DUP2 MSTORE SWAP1 PUSH1 0x40 MSTORE DUP1 MLOAD SWAP1 PUSH1 0x20 ADD KECCAK256 SWAP1 POP SWAP1 JUMP JUMPDEST PUSH1 0x80 MSTORE POP POP ADDRESS PUSH1 0xC0 MSTORE PUSH1 0xFF DUP3 AND PUSH2 0x160 MSTORE PUSH3 0x140 PUSH3 0x1B5 JUMP JUMPDEST PUSH1 0x3 DUP1 SLOAD PUSH1 0x1 PUSH1 0x1 PUSH1 0xA0 SHL SUB NOT AND PUSH1 0x1 PUSH1 0x1 PUSH1 0xA0 SHL SUB SWAP3 SWAP1 SWAP3 AND SWAP2 SWAP1 SWAP2 OR SWAP1 SSTORE PUSH3 0x174 PUSH3 0x16E PUSH3 0x1B5 JUMP JUMPDEST PUSH3 0x1F8 JUMP JUMPDEST POP POP PUSH3 0x519 JUMP JUMPDEST PUSH1 0x0 PUSH1 0x20 DUP4 MLOAD LT ISZERO PUSH3 0x19C JUMPI PUSH3 0x194 DUP4 PUSH3 0x24E JUMP JUMPDEST SWAP1 POP PUSH3 0x1AF JUMP JUMPDEST DUP2 PUSH3 0x1A9 DUP5 DUP3 PUSH3 0x3D8 JUMP JUMPDEST POP PUSH1 0xFF SWAP1 POP JUMPDEST SWAP3 SWAP2 POP POP JUMP JUMPDEST PUSH1 0x0 CALLER PUSH1 0x14 CALLDATASIZE LT DUP1 ISZERO SWAP1 PUSH3 0x1E2 JUMPI POP PUSH1 0x1 PUSH1 0x1 PUSH1 0xA0 SHL SUB DUP2 AND PUSH1 0x0 SWAP1 DUP2 MSTORE PUSH1 0x8 PUSH1 0x20 MSTORE PUSH1 0x40 SWAP1 KECCAK256 SLOAD PUSH1 0xFF AND JUMPDEST ISZERO PUSH3 0x1F3 JUMPI POP PUSH1 0x13 NOT CALLDATASIZE ADD CALLDATALOAD PUSH1 0x60 SHR JUMPDEST SWAP2 SWAP1 POP JUMP JUMPDEST PUSH3 0x202 PUSH3 0x29A JUMP JUMPDEST PUSH1 0x0 DUP1 SLOAD PUSH1 0xFF NOT AND PUSH1 0x1 OR SWAP1 SSTORE PUSH1 0x40 MLOAD PUSH1 0x1 PUSH1 0x1 PUSH1 0xA0 SHL SUB DUP3 AND DUP2 MSTORE PUSH32 0x62E78CEA01BEE320CD4E420270B5EA74000D11B0C9F74754EBDBFC544B05A258 SWAP1 PUSH1 0x20 ADD PUSH1 0x40 MLOAD DUP1 SWAP2 SUB SWAP1 LOG1 POP JUMP JUMPDEST PUSH1 0x0 DUP1 DUP3 SWAP1 POP PUSH1 0x1F DUP2 MLOAD GT ISZERO PUSH3 0x285 JUMPI DUP3 PUSH1 0x40 MLOAD PUSH4 0x305A27A9 PUSH1 0xE0 SHL DUP2 MSTORE PUSH1 0x4 ADD PUSH3 0x27C SWAP2 SWAP1 PUSH3 0x4A4 JUMP JUMPDEST PUSH1 0x40 MLOAD DUP1 SWAP2 SUB SWAP1 REVERT JUMPDEST DUP1 MLOAD PUSH3 0x292 DUP3 PUSH3 0x4F4 JUMP JUMPDEST OR SWAP4 SWAP3 POP POP POP JUMP JUMPDEST PUSH1 0x0 SLOAD PUSH1 0xFF AND ISZERO PUSH3 0x2E2 JUMPI PUSH1 0x40 MLOAD PUSH3 0x461BCD PUSH1 0xE5 SHL DUP2 MSTORE PUSH1 0x20 PUSH1 0x4 DUP3 ADD MSTORE PUSH1 0x10 PUSH1 0x24 DUP3 ADD MSTORE PUSH16 0x14185D5CD8589B194E881C185D5CD959 PUSH1 0x82 SHL PUSH1 0x44 DUP3 ADD MSTORE PUSH1 0x64 ADD PUSH3 0x27C JUMP JUMPDEST JUMP JUMPDEST PUSH1 0x0 DUP1 PUSH1 0x40 DUP4 DUP6 SUB SLT ISZERO PUSH3 0x2F8 JUMPI PUSH1 0x0 DUP1 REVERT JUMPDEST DUP3 MLOAD PUSH1 0xFF DUP2 AND DUP2 EQ PUSH3 0x30A JUMPI PUSH1 0x0 DUP1 REVERT JUMPDEST PUSH1 0x20 DUP5 ADD MLOAD SWAP1 SWAP3 POP PUSH1 0x1 PUSH1 0x1 PUSH1 0xA0 SHL SUB DUP2 AND DUP2 EQ PUSH3 0x328 JUMPI PUSH1 0x0 DUP1 REVERT JUMPDEST DUP1 SWAP2 POP POP SWAP3 POP SWAP3 SWAP1 POP JUMP JUMPDEST PUSH4 0x4E487B71 PUSH1 0xE0 SHL PUSH1 0x0 MSTORE PUSH1 0x41 PUSH1 0x4 MSTORE PUSH1 0x24 PUSH1 0x0 REVERT JUMPDEST PUSH1 0x1 DUP2 DUP2 SHR SWAP1 DUP3 AND DUP1 PUSH3 0x35E JUMPI PUSH1 0x7F DUP3 AND SWAP2 POP JUMPDEST PUSH1 0x20 DUP3 LT DUP2 SUB PUSH3 0x37F JUMPI PUSH4 0x4E487B71 PUSH1 0xE0 SHL PUSH1 0x0 MSTORE PUSH1 0x22 PUSH1 0x4 MSTORE PUSH1 0x24 PUSH1 0x0 REVERT JUMPDEST POP SWAP2 SWAP1 POP JUMP JUMPDEST PUSH1 0x1F DUP3 GT ISZERO PUSH3 0x3D3 JUMPI PUSH1 0x0 DUP2 DUP2 MSTORE PUSH1 0x20 DUP2 KECCAK256 PUSH1 0x1F DUP6 ADD PUSH1 0x5 SHR DUP2 ADD PUSH1 0x20 DUP7 LT ISZERO PUSH3 0x3AE JUMPI POP DUP1 JUMPDEST PUSH1 0x1F DUP6 ADD PUSH1 0x5 SHR DUP3 ADD SWAP2 POP JUMPDEST DUP2 DUP2 LT ISZERO PUSH3 0x3CF JUMPI DUP3 DUP2 SSTORE PUSH1 0x1 ADD PUSH3 0x3BA JUMP JUMPDEST POP POP POP JUMPDEST POP POP POP JUMP JUMPDEST DUP2 MLOAD PUSH1 0x1 PUSH1 0x1 PUSH1 0x40 SHL SUB DUP2 GT ISZERO PUSH3 0x3F4 JUMPI PUSH3 0x3F4 PUSH3 0x333 JUMP JUMPDEST PUSH3 0x40C DUP2 PUSH3 0x405 DUP5 SLOAD PUSH3 0x349 JUMP JUMPDEST DUP5 PUSH3 0x385 JUMP JUMPDEST PUSH1 0x20 DUP1 PUSH1 0x1F DUP4 GT PUSH1 0x1 DUP2 EQ PUSH3 0x444 JUMPI PUSH1 0x0 DUP5 ISZERO PUSH3 0x42B JUMPI POP DUP6 DUP4 ADD MLOAD JUMPDEST PUSH1 0x0 NOT PUSH1 0x3 DUP7 SWAP1 SHL SHR NOT AND PUSH1 0x1 DUP6 SWAP1 SHL OR DUP6 SSTORE PUSH3 0x3CF JUMP JUMPDEST PUSH1 0x0 DUP6 DUP2 MSTORE PUSH1 0x20 DUP2 KECCAK256 PUSH1 0x1F NOT DUP7 AND SWAP2 JUMPDEST DUP3 DUP2 LT ISZERO PUSH3 0x475 JUMPI DUP9 DUP7 ADD MLOAD DUP3 SSTORE SWAP5 DUP5 ADD SWAP5 PUSH1 0x1 SWAP1 SWAP2 ADD SWAP1 DUP5 ADD PUSH3 0x454 JUMP JUMPDEST POP DUP6 DUP3 LT ISZERO PUSH3 0x494 JUMPI DUP8 DUP6 ADD MLOAD PUSH1 0x0 NOT PUSH1 0x3 DUP9 SWAP1 SHL PUSH1 0xF8 AND SHR NOT AND DUP2 SSTORE JUMPDEST POP POP POP POP POP PUSH1 0x1 SWAP1 DUP2 SHL ADD SWAP1 SSTORE POP JUMP JUMPDEST PUSH1 0x0 PUSH1 0x20 DUP1 DUP4 MSTORE DUP4 MLOAD DUP1 DUP3 DUP6 ADD MSTORE PUSH1 0x0 JUMPDEST DUP2 DUP2 LT ISZERO PUSH3 0x4D3 JUMPI DUP6 DUP2 ADD DUP4 ADD MLOAD DUP6 DUP3 ADD PUSH1 0x40 ADD MSTORE DUP3 ADD PUSH3 0x4B5 JUMP JUMPDEST POP PUSH1 0x0 PUSH1 0x40 DUP3 DUP7 ADD ADD MSTORE PUSH1 0x40 PUSH1 0x1F NOT PUSH1 0x1F DUP4 ADD AND DUP6 ADD ADD SWAP3 POP POP POP SWAP3 SWAP2 POP POP JUMP JUMPDEST DUP1 MLOAD PUSH1 0x20 DUP1 DUP4 ADD MLOAD SWAP2 SWAP1 DUP2 LT ISZERO PUSH3 0x37F JUMPI PUSH1 0x0 NOT PUSH1 0x20 SWAP2 SWAP1 SWAP2 SUB PUSH1 0x3 SHL SHL AND SWAP2 SWAP1 POP JUMP JUMPDEST PUSH1 0x80 MLOAD PUSH1 0xA0 MLOAD PUSH1 0xC0 MLOAD PUSH1 0xE0 MLOAD PUSH2 0x100 MLOAD PUSH2 0x120 MLOAD PUSH2 0x140 MLOAD PUSH2 0x160 MLOAD PUSH2 0x272B PUSH3 0x58D PUSH1 0x0 CODECOPY PUSH1 0x0 DUP2 DUP2 PUSH2 0x433 ADD MSTORE DUP2 DUP2 PUSH2 0xB2E ADD MSTORE PUSH2 0xC13 ADD MSTORE PUSH1 0x0 PUSH2 0x173D ADD MSTORE PUSH1 0x0 PUSH2 0x170B ADD MSTORE PUSH1 0x0 PUSH2 0x198A ADD MSTORE PUSH1 0x0 PUSH2 0x1962 ADD MSTORE PUSH1 0x0 PUSH2 0x18BD ADD MSTORE PUSH1 0x0 PUSH2 0x18E7 ADD MSTORE PUSH1 0x0 PUSH2 0x1911 ADD MSTORE PUSH2 0x272B PUSH1 0x0 RETURN INVALID PUSH1 0x80 PUSH1 0x40 MSTORE PUSH1 0x4 CALLDATASIZE LT PUSH2 0x19C JUMPI PUSH1 0x0 CALLDATALOAD PUSH1 0xE0 SHR DUP1 PUSH4 0x8C0C2631 GT PUSH2 0xEC JUMPI DUP1 PUSH4 0xD2E5FAE9 GT PUSH2 0x8A JUMPI DUP1 PUSH4 0xF0EAD51E GT PUSH2 0x64 JUMPI DUP1 PUSH4 0xF0EAD51E EQ PUSH2 0x527 JUMPI DUP1 PUSH4 0xF8C39E44 EQ PUSH2 0x547 JUMPI DUP1 PUSH4 0xFE4648F4 EQ PUSH2 0x577 JUMPI DUP1 PUSH4 0xFFAAC0EB EQ PUSH2 0x597 JUMPI PUSH1 0x0 DUP1 REVERT JUMPDEST DUP1 PUSH4 0xD2E5FAE9 EQ PUSH2 0x4C7 JUMPI DUP1 PUSH4 0xD8236744 EQ PUSH2 0x4E7 JUMPI DUP1 PUSH4 0xEDC20C3C EQ PUSH2 0x507 JUMPI PUSH1 0x0 DUP1 REVERT JUMPDEST DUP1 PUSH4 0x9DD694F4 GT PUSH2 0xC6 JUMPI DUP1 PUSH4 0x9DD694F4 EQ PUSH2 0x421 JUMPI DUP1 PUSH4 0xA546E8A1 EQ PUSH2 0x467 JUMPI DUP1 PUSH4 0xBD2A1820 EQ PUSH2 0x487 JUMPI DUP1 PUSH4 0xD15EF64E EQ PUSH2 0x4A7 JUMPI PUSH1 0x0 DUP1 REVERT JUMPDEST DUP1 PUSH4 0x8C0C2631 EQ PUSH2 0x3C1 JUMPI DUP1 PUSH4 0x9AE0BF45 EQ PUSH2 0x3E1 JUMPI DUP1 PUSH4 0x9D33B6D4 EQ PUSH2 0x401 JUMPI PUSH1 0x0 DUP1 REVERT JUMPDEST DUP1 PUSH4 0x6BA6DB6B GT PUSH2 0x159 JUMPI DUP1 PUSH4 0x84B0196E GT PUSH2 0x133 JUMPI DUP1 PUSH4 0x84B0196E EQ PUSH2 0x323 JUMPI DUP1 PUSH4 0x84DB809F EQ PUSH2 0x34B JUMPI DUP1 PUSH4 0x8A3234C7 EQ PUSH2 0x381 JUMPI DUP1 PUSH4 0x8B63AEBF EQ PUSH2 0x3A1 JUMPI PUSH1 0x0 DUP1 REVERT JUMPDEST DUP1 PUSH4 0x6BA6DB6B EQ PUSH2 0x2D8 JUMPI DUP1 PUSH4 0x73C45C98 EQ PUSH2 0x2ED JUMPI DUP1 PUSH4 0x80AE1C28 EQ PUSH2 0x30E JUMPI PUSH1 0x0 DUP1 REVERT JUMPDEST DUP1 PUSH4 0x59972D2 EQ PUSH2 0x1A1 JUMPI DUP1 PUSH4 0x8A64104 EQ PUSH2 0x1DE JUMPI DUP1 PUSH4 0x1F5C64C1 EQ PUSH2 0x224 JUMPI DUP1 PUSH4 0x366B4885 EQ PUSH2 0x246 JUMPI DUP1 PUSH4 0x4B0B919D EQ PUSH2 0x266 JUMPI DUP1 PUSH4 0x5C975ABB EQ PUSH2 0x2B4 JUMPI JUMPDEST PUSH1 0x0 DUP1 REVERT JUMPDEST CALLVALUE DUP1 ISZERO PUSH2 0x1AD JUMPI PUSH1 0x0 DUP1 REVERT JUMPDEST POP PUSH1 0x4 SLOAD PUSH2 0x1C1 SWAP1 PUSH1 0x1 PUSH1 0x1 PUSH1 0xA0 SHL SUB AND DUP2 JUMP JUMPDEST PUSH1 0x40 MLOAD PUSH1 0x1 PUSH1 0x1 PUSH1 0xA0 SHL SUB SWAP1 SWAP2 AND DUP2 MSTORE PUSH1 0x20 ADD JUMPDEST PUSH1 0x40 MLOAD DUP1 SWAP2 SUB SWAP1 RETURN JUMPDEST CALLVALUE DUP1 ISZERO PUSH2 0x1EA JUMPI PUSH1 0x0 DUP1 REVERT JUMPDEST POP PUSH2 0x216 PUSH2 0x1F9 CALLDATASIZE PUSH1 0x4 PUSH2 0x1C71 JUMP JUMPDEST PUSH1 0x9 PUSH1 0x20 SWAP1 DUP2 MSTORE PUSH1 0x0 SWAP3 DUP4 MSTORE PUSH1 0x40 DUP1 DUP5 KECCAK256 SWAP1 SWAP2 MSTORE SWAP1 DUP3 MSTORE SWAP1 KECCAK256 SLOAD DUP2 JUMP JUMPDEST PUSH1 0x40 MLOAD SWAP1 DUP2 MSTORE PUSH1 0x20 ADD PUSH2 0x1D5 JUMP JUMPDEST CALLVALUE DUP1 ISZERO PUSH2 0x230 JUMPI PUSH1 0x0 DUP1 REVERT JUMPDEST POP PUSH2 0x244 PUSH2 0x23F CALLDATASIZE PUSH1 0x4 PUSH2 0x1E5C JUMP JUMPDEST PUSH2 0x5AC JUMP JUMPDEST STOP JUMPDEST CALLVALUE DUP1 ISZERO PUSH2 0x252 JUMPI PUSH1 0x0 DUP1 REVERT JUMPDEST POP PUSH2 0x244 PUSH2 0x261 CALLDATASIZE PUSH1 0x4 PUSH2 0x1F46 JUMP JUMPDEST PUSH2 0xA5C JUMP JUMPDEST CALLVALUE DUP1 ISZERO PUSH2 0x272 JUMPI PUSH1 0x0 DUP1 REVERT JUMPDEST POP PUSH2 0x29C PUSH2 0x281 CALLDATASIZE PUSH1 0x4 PUSH2 0x1F96 JUMP JUMPDEST PUSH1 0x6 PUSH1 0x20 MSTORE PUSH1 0x0 SWAP1 DUP2 MSTORE PUSH1 0x40 SWAP1 KECCAK256 SLOAD PUSH1 0x1 PUSH1 0x1 PUSH1 0x40 SHL SUB AND DUP2 JUMP JUMPDEST PUSH1 0x40 MLOAD PUSH1 0x1 PUSH1 0x1 PUSH1 0x40 SHL SUB SWAP1 SWAP2 AND DUP2 MSTORE PUSH1 0x20 ADD PUSH2 0x1D5 JUMP JUMPDEST CALLVALUE DUP1 ISZERO PUSH2 0x2C0 JUMPI PUSH1 0x0 DUP1 REVERT JUMPDEST POP PUSH1 0x0 SLOAD PUSH1 0xFF AND JUMPDEST PUSH1 0x40 MLOAD SWAP1 ISZERO ISZERO DUP2 MSTORE PUSH1 0x20 ADD PUSH2 0x1D5 JUMP JUMPDEST CALLVALUE DUP1 ISZERO PUSH2 0x2E4 JUMPI PUSH1 0x0 DUP1 REVERT JUMPDEST POP PUSH2 0x244 PUSH2 0xAB3 JUMP JUMPDEST PUSH2 0x300 PUSH2 0x2FB CALLDATASIZE PUSH1 0x4 PUSH2 0x1FB1 JUMP JUMPDEST PUSH2 0xB20 JUMP JUMPDEST PUSH1 0x40 MLOAD PUSH2 0x1D5 SWAP3 SWAP2 SWAP1 PUSH2 0x208A JUMP JUMPDEST CALLVALUE DUP1 ISZERO PUSH2 0x31A JUMPI PUSH1 0x0 DUP1 REVERT JUMPDEST POP PUSH2 0x244 PUSH2 0xDD7 JUMP JUMPDEST CALLVALUE DUP1 ISZERO PUSH2 0x32F JUMPI PUSH1 0x0 DUP1 REVERT JUMPDEST POP PUSH2 0x338 PUSH2 0xE01 JUMP JUMPDEST PUSH1 0x40 MLOAD PUSH2 0x1D5 SWAP8 SWAP7 SWAP6 SWAP5 SWAP4 SWAP3 SWAP2 SWAP1 PUSH2 0x20AC JUMP JUMPDEST CALLVALUE DUP1 ISZERO PUSH2 0x357 JUMPI PUSH1 0x0 DUP1 REVERT JUMPDEST POP PUSH2 0x1C1 PUSH2 0x366 CALLDATASIZE PUSH1 0x4 PUSH2 0x2142 JUMP JUMPDEST PUSH1 0x7 PUSH1 0x20 MSTORE PUSH1 0x0 SWAP1 DUP2 MSTORE PUSH1 0x40 SWAP1 KECCAK256 SLOAD PUSH1 0x1 PUSH1 0x1 PUSH1 0xA0 SHL SUB AND DUP2 JUMP JUMPDEST CALLVALUE DUP1 ISZERO PUSH2 0x38D JUMPI PUSH1 0x0 DUP1 REVERT JUMPDEST POP PUSH2 0x244 PUSH2 0x39C CALLDATASIZE PUSH1 0x4 PUSH2 0x2172 JUMP JUMPDEST PUSH2 0xE47 JUMP JUMPDEST CALLVALUE DUP1 ISZERO PUSH2 0x3AD JUMPI PUSH1 0x0 DUP1 REVERT JUMPDEST POP PUSH2 0x244 PUSH2 0x3BC CALLDATASIZE PUSH1 0x4 PUSH2 0x21E0 JUMP JUMPDEST PUSH2 0xEEE JUMP JUMPDEST CALLVALUE DUP1 ISZERO PUSH2 0x3CD JUMPI PUSH1 0x0 DUP1 REVERT JUMPDEST POP PUSH2 0x244 PUSH2 0x3DC CALLDATASIZE PUSH1 0x4 PUSH2 0x21FB JUMP JUMPDEST PUSH2 0xF54 JUMP JUMPDEST CALLVALUE DUP1 ISZERO PUSH2 0x3ED JUMPI PUSH1 0x0 DUP1 REVERT JUMPDEST POP PUSH2 0x2C8 PUSH2 0x3FC CALLDATASIZE PUSH1 0x4 PUSH2 0x1C71 JUMP JUMPDEST PUSH2 0xFD0 JUMP JUMPDEST CALLVALUE DUP1 ISZERO PUSH2 0x40D JUMPI PUSH1 0x0 DUP1 REVERT JUMPDEST POP PUSH2 0x244 PUSH2 0x41C CALLDATASIZE PUSH1 0x4 PUSH2 0x21E0 JUMP JUMPDEST PUSH2 0x1020 JUMP JUMPDEST CALLVALUE DUP1 ISZERO PUSH2 0x42D JUMPI PUSH1 0x0 DUP1 REVERT JUMPDEST POP PUSH2 0x455 PUSH32 0x0 DUP2 JUMP JUMPDEST PUSH1 0x40 MLOAD PUSH1 0xFF SWAP1 SWAP2 AND DUP2 MSTORE PUSH1 0x20 ADD PUSH2 0x1D5 JUMP JUMPDEST CALLVALUE DUP1 ISZERO PUSH2 0x473 JUMPI PUSH1 0x0 DUP1 REVERT JUMPDEST POP PUSH2 0x2C8 PUSH2 0x482 CALLDATASIZE PUSH1 0x4 PUSH2 0x1E5C JUMP JUMPDEST PUSH2 0x1071 JUMP JUMPDEST CALLVALUE DUP1 ISZERO PUSH2 0x493 JUMPI PUSH1 0x0 DUP1 REVERT JUMPDEST POP PUSH2 0x244 PUSH2 0x4A2 CALLDATASIZE PUSH1 0x4 PUSH2 0x222E JUMP JUMPDEST PUSH2 0x12C7 JUMP JUMPDEST CALLVALUE DUP1 ISZERO PUSH2 0x4B3 JUMPI PUSH1 0x0 DUP1 REVERT JUMPDEST POP PUSH2 0x244 PUSH2 0x4C2 CALLDATASIZE PUSH1 0x4 PUSH2 0x227B JUMP JUMPDEST PUSH2 0x130D JUMP JUMPDEST CALLVALUE DUP1 ISZERO PUSH2 0x4D3 JUMPI PUSH1 0x0 DUP1 REVERT JUMPDEST POP PUSH2 0x244 PUSH2 0x4E2 CALLDATASIZE PUSH1 0x4 PUSH2 0x21E0 JUMP JUMPDEST PUSH2 0x1350 JUMP JUMPDEST CALLVALUE DUP1 ISZERO PUSH2 0x4F3 JUMPI PUSH1 0x0 DUP1 REVERT JUMPDEST POP PUSH2 0x244 PUSH2 0x502 CALLDATASIZE PUSH1 0x4 PUSH2 0x1F46 JUMP JUMPDEST PUSH2 0x1410 JUMP JUMPDEST CALLVALUE DUP1 ISZERO PUSH2 0x513 JUMPI PUSH1 0x0 DUP1 REVERT JUMPDEST POP PUSH2 0x244 PUSH2 0x522 CALLDATASIZE PUSH1 0x4 PUSH2 0x22B7 JUMP JUMPDEST PUSH2 0x1457 JUMP JUMPDEST CALLVALUE DUP1 ISZERO PUSH2 0x533 JUMPI PUSH1 0x0 DUP1 REVERT JUMPDEST POP PUSH2 0x244 PUSH2 0x542 CALLDATASIZE PUSH1 0x4 PUSH2 0x22E1 JUMP JUMPDEST PUSH2 0x1520 JUMP JUMPDEST CALLVALUE DUP1 ISZERO PUSH2 0x553 JUMPI PUSH1 0x0 DUP1 REVERT JUMPDEST POP PUSH2 0x2C8 PUSH2 0x562 CALLDATASIZE PUSH1 0x4 PUSH2 0x21E0 JUMP JUMPDEST PUSH1 0x8 PUSH1 0x20 MSTORE PUSH1 0x0 SWAP1 DUP2 MSTORE PUSH1 0x40 SWAP1 KECCAK256 SLOAD PUSH1 0xFF AND DUP2 JUMP JUMPDEST CALLVALUE DUP1 ISZERO PUSH2 0x583 JUMPI PUSH1 0x0 DUP1 REVERT JUMPDEST POP PUSH1 0x5 SLOAD PUSH2 0x1C1 SWAP1 PUSH1 0x1 PUSH1 0x1 PUSH1 0xA0 SHL SUB AND DUP2 JUMP JUMPDEST CALLVALUE DUP1 ISZERO PUSH2 0x5A3 JUMPI PUSH1 0x0 DUP1 REVERT JUMPDEST POP PUSH2 0x244 PUSH2 0x1596 JUMP JUMPDEST PUSH2 0x5B4 PUSH2 0x15E2 JUMP JUMPDEST DUP3 MLOAD PUSH1 0x0 SUB PUSH2 0x5D6 JUMPI PUSH1 0x40 MLOAD PUSH4 0x63E60A49 PUSH1 0xE0 SHL DUP2 MSTORE PUSH1 0x4 ADD PUSH1 0x40 MLOAD DUP1 SWAP2 SUB SWAP1 REVERT JUMPDEST PUSH2 0x5E1 DUP4 DUP4 DUP4 PUSH2 0x1071 JUMP JUMPDEST PUSH2 0x5FE JUMPI PUSH1 0x40 MLOAD PUSH4 0x37077CA3 PUSH1 0xE0 SHL DUP2 MSTORE PUSH1 0x4 ADD PUSH1 0x40 MLOAD DUP1 SWAP2 SUB SWAP1 REVERT JUMPDEST PUSH1 0x0 JUMPDEST DUP4 MLOAD DUP2 LT ISZERO PUSH2 0xA56 JUMPI PUSH2 0x657 DUP5 DUP3 DUP2 MLOAD DUP2 LT PUSH2 0x61F JUMPI PUSH2 0x61F PUSH2 0x232F JUMP JUMPDEST PUSH1 0x20 MUL PUSH1 0x20 ADD ADD MLOAD PUSH1 0x0 ADD MLOAD DUP6 DUP4 DUP2 MLOAD DUP2 LT PUSH2 0x63D JUMPI PUSH2 0x63D PUSH2 0x232F JUMP JUMPDEST PUSH1 0x20 MUL PUSH1 0x20 ADD ADD MLOAD PUSH1 0x20 ADD MLOAD PUSH1 0x1 PUSH1 0x1 PUSH1 0x40 SHL SUB AND PUSH2 0xFD0 JUMP JUMPDEST PUSH2 0xA44 JUMPI PUSH1 0x0 PUSH1 0x7 PUSH1 0x0 DUP7 DUP5 DUP2 MLOAD DUP2 LT PUSH2 0x673 JUMPI PUSH2 0x673 PUSH2 0x232F JUMP JUMPDEST PUSH1 0x20 MUL PUSH1 0x20 ADD ADD MLOAD PUSH1 0x40 ADD MLOAD DUP2 MSTORE PUSH1 0x20 ADD SWAP1 DUP2 MSTORE PUSH1 0x20 ADD PUSH1 0x0 KECCAK256 PUSH1 0x0 SWAP1 SLOAD SWAP1 PUSH2 0x100 EXP SWAP1 DIV PUSH1 0x1 PUSH1 0x1 PUSH1 0xA0 SHL SUB AND SWAP1 POP PUSH1 0x0 DUP2 DUP7 DUP5 DUP2 MLOAD DUP2 LT PUSH2 0x6B8 JUMPI PUSH2 0x6B8 PUSH2 0x232F JUMP JUMPDEST PUSH1 0x20 MUL PUSH1 0x20 ADD ADD MLOAD PUSH1 0x60 ADD MLOAD PUSH1 0x40 MLOAD PUSH1 0x20 ADD PUSH2 0x6D5 SWAP3 SWAP2 SWAP1 PUSH2 0x2345 JUMP JUMPDEST PUSH1 0x40 MLOAD PUSH1 0x20 DUP2 DUP4 SUB SUB DUP2 MSTORE SWAP1 PUSH1 0x40 MSTORE DUP1 MLOAD SWAP1 PUSH1 0x20 ADD KECCAK256 SWAP1 POP PUSH1 0x0 DUP3 SWAP1 POP PUSH2 0x100 DUP8 DUP6 DUP2 MLOAD DUP2 LT PUSH2 0x707 JUMPI PUSH2 0x707 PUSH2 0x232F JUMP JUMPDEST PUSH1 0x20 MUL PUSH1 0x20 ADD ADD MLOAD PUSH1 0x20 ADD MLOAD PUSH2 0x71D SWAP2 SWAP1 PUSH2 0x2393 JUMP JUMPDEST PUSH1 0x1 PUSH1 0x1 PUSH1 0x40 SHL SUB AND PUSH1 0x1 SWAP1 SHL PUSH1 0x9 PUSH1 0x0 DUP10 DUP8 DUP2 MLOAD DUP2 LT PUSH2 0x740 JUMPI PUSH2 0x740 PUSH2 0x232F JUMP JUMPDEST PUSH1 0x20 MUL PUSH1 0x20 ADD ADD MLOAD PUSH1 0x0 ADD MLOAD PUSH1 0xFF AND PUSH1 0xFF AND DUP2 MSTORE PUSH1 0x20 ADD SWAP1 DUP2 MSTORE PUSH1 0x20 ADD PUSH1 0x0 KECCAK256 PUSH1 0x0 PUSH2 0x100 DUP11 DUP9 DUP2 MLOAD DUP2 LT PUSH2 0x777 JUMPI PUSH2 0x777 PUSH2 0x232F JUMP JUMPDEST PUSH1 0x20 MUL PUSH1 0x20 ADD ADD MLOAD PUSH1 0x20 ADD MLOAD PUSH2 0x78D SWAP2 SWAP1 PUSH2 0x23CF JUMP JUMPDEST PUSH1 0x1 PUSH1 0x1 PUSH1 0x40 SHL SUB AND DUP2 MSTORE PUSH1 0x20 ADD SWAP1 DUP2 MSTORE PUSH1 0x20 ADD PUSH1 0x0 KECCAK256 PUSH1 0x0 DUP3 DUP3 SLOAD OR SWAP3 POP POP DUP2 SWAP1 SSTORE POP DUP1 PUSH1 0x1 PUSH1 0x1 PUSH1 0xA0 SHL SUB AND PUSH4 0xE248CFF2 DUP9 DUP7 DUP2 MLOAD DUP2 LT PUSH2 0x7D2 JUMPI PUSH2 0x7D2 PUSH2 0x232F JUMP JUMPDEST PUSH1 0x20 MUL PUSH1 0x20 ADD ADD MLOAD PUSH1 0x40 ADD MLOAD DUP10 DUP8 DUP2 MLOAD DUP2 LT PUSH2 0x7F0 JUMPI PUSH2 0x7F0 PUSH2 0x232F JUMP JUMPDEST PUSH1 0x20 MUL PUSH1 0x20 ADD ADD MLOAD PUSH1 0x60 ADD MLOAD PUSH1 0x40 MLOAD DUP4 PUSH4 0xFFFFFFFF AND PUSH1 0xE0 SHL DUP2 MSTORE PUSH1 0x4 ADD PUSH2 0x819 SWAP3 SWAP2 SWAP1 PUSH2 0x23F5 JUMP JUMPDEST PUSH1 0x0 PUSH1 0x40 MLOAD DUP1 DUP4 SUB DUP2 PUSH1 0x0 DUP8 GAS CALL SWAP3 POP POP POP DUP1 ISZERO PUSH2 0x859 JUMPI POP PUSH1 0x40 MLOAD RETURNDATASIZE PUSH1 0x0 DUP3 RETURNDATACOPY PUSH1 0x1F RETURNDATASIZE SWAP1 DUP2 ADD PUSH1 0x1F NOT AND DUP3 ADD PUSH1 0x40 MSTORE PUSH2 0x856 SWAP2 SWAP1 DUP2 ADD SWAP1 PUSH2 0x240E JUMP JUMPDEST PUSH1 0x1 JUMPDEST PUSH2 0x9C8 JUMPI RETURNDATASIZE DUP1 DUP1 ISZERO PUSH2 0x887 JUMPI PUSH1 0x40 MLOAD SWAP2 POP PUSH1 0x1F NOT PUSH1 0x3F RETURNDATASIZE ADD AND DUP3 ADD PUSH1 0x40 MSTORE RETURNDATASIZE DUP3 MSTORE RETURNDATASIZE PUSH1 0x0 PUSH1 0x20 DUP5 ADD RETURNDATACOPY PUSH2 0x88C JUMP JUMPDEST PUSH1 0x60 SWAP2 POP JUMPDEST POP PUSH32 0x19F774A63EE465292252A9981AE52051ACC13DA671C698AC4B5BF25B38C5B6FC DUP2 DUP10 DUP8 DUP2 MLOAD DUP2 LT PUSH2 0x8C1 JUMPI PUSH2 0x8C1 PUSH2 0x232F JUMP JUMPDEST PUSH1 0x20 MUL PUSH1 0x20 ADD ADD MLOAD PUSH1 0x0 ADD MLOAD DUP11 DUP9 DUP2 MLOAD DUP2 LT PUSH2 0x8DF JUMPI PUSH2 0x8DF PUSH2 0x232F JUMP JUMPDEST PUSH1 0x20 MUL PUSH1 0x20 ADD ADD MLOAD PUSH1 0x20 ADD MLOAD PUSH1 0x40 MLOAD PUSH2 0x8FA SWAP4 SWAP3 SWAP2 SWAP1 PUSH2 0x2484 JUMP JUMPDEST PUSH1 0x40 MLOAD DUP1 SWAP2 SUB SWAP1 LOG1 PUSH2 0x100 DUP9 DUP7 DUP2 MLOAD DUP2 LT PUSH2 0x917 JUMPI PUSH2 0x917 PUSH2 0x232F JUMP JUMPDEST PUSH1 0x20 MUL PUSH1 0x20 ADD ADD MLOAD PUSH1 0x20 ADD MLOAD PUSH2 0x92D SWAP2 SWAP1 PUSH2 0x2393 JUMP JUMPDEST PUSH1 0x1 PUSH1 0x1 PUSH1 0x40 SHL SUB AND PUSH1 0x1 SWAP1 SHL NOT PUSH1 0x9 PUSH1 0x0 DUP11 DUP9 DUP2 MLOAD DUP2 LT PUSH2 0x951 JUMPI PUSH2 0x951 PUSH2 0x232F JUMP JUMPDEST PUSH1 0x20 MUL PUSH1 0x20 ADD ADD MLOAD PUSH1 0x0 ADD MLOAD PUSH1 0xFF AND PUSH1 0xFF AND DUP2 MSTORE PUSH1 0x20 ADD SWAP1 DUP2 MSTORE PUSH1 0x20 ADD PUSH1 0x0 KECCAK256 PUSH1 0x0 PUSH2 0x100 DUP12 DUP10 DUP2 MLOAD DUP2 LT PUSH2 0x988 JUMPI PUSH2 0x988 PUSH2 0x232F JUMP JUMPDEST PUSH1 0x20 MUL PUSH1 0x20 ADD ADD MLOAD PUSH1 0x20 ADD MLOAD PUSH2 0x99E SWAP2 SWAP1 PUSH2 0x23CF JUMP JUMPDEST PUSH1 0x1 PUSH1 0x1 PUSH1 0x40 SHL SUB AND DUP2 MSTORE PUSH1 0x20 DUP2 ADD SWAP2 SWAP1 SWAP2 MSTORE PUSH1 0x40 ADD PUSH1 0x0 KECCAK256 DUP1 SLOAD SWAP1 SWAP2 AND SWAP1 SSTORE POP PUSH2 0xA44 SWAP3 POP POP POP JUMP JUMPDEST PUSH32 0xB83128682FAAFDF78EFBB57C4C9ACDC12BA648A50ECA00B8B72818EA2D8E5CF9 DUP9 DUP7 DUP2 MLOAD DUP2 LT PUSH2 0x9FB JUMPI PUSH2 0x9FB PUSH2 0x232F JUMP JUMPDEST PUSH1 0x20 MUL PUSH1 0x20 ADD ADD MLOAD PUSH1 0x0 ADD MLOAD DUP10 DUP8 DUP2 MLOAD DUP2 LT PUSH2 0xA19 JUMPI PUSH2 0xA19 PUSH2 0x232F JUMP JUMPDEST PUSH1 0x20 MUL PUSH1 0x20 ADD ADD MLOAD PUSH1 0x20 ADD MLOAD DUP6 DUP5 PUSH1 0x40 MLOAD PUSH2 0xA37 SWAP5 SWAP4 SWAP3 SWAP2 SWAP1 PUSH2 0x24B9 JUMP JUMPDEST PUSH1 0x40 MLOAD DUP1 SWAP2 SUB SWAP1 LOG1 POP POP POP POP JUMPDEST DUP1 PUSH2 0xA4E DUP2 PUSH2 0x24F4 JUMP JUMPDEST SWAP2 POP POP PUSH2 0x601 JUMP JUMPDEST POP POP POP POP JUMP JUMPDEST PUSH2 0xA79 PUSH1 0x0 CALLDATALOAD PUSH1 0x1 PUSH1 0x1 PUSH1 0xE0 SHL SUB NOT AND PUSH2 0xA74 PUSH2 0x1628 JUMP JUMPDEST PUSH2 0x1669 JUMP JUMPDEST PUSH32 0x9069464C059B9A90135A3FDF2C47855263346B912894AD7562D989532C3FAD4C DUP2 PUSH1 0x40 MLOAD PUSH2 0xAA8 SWAP2 SWAP1 PUSH2 0x250D JUMP JUMPDEST PUSH1 0x40 MLOAD DUP1 SWAP2 SUB SWAP1 LOG1 POP JUMP JUMPDEST PUSH2 0xACB PUSH1 0x0 CALLDATALOAD PUSH1 0x1 PUSH1 0x1 PUSH1 0xE0 SHL SUB NOT AND PUSH2 0xA74 PUSH2 0x1628 JUMP JUMPDEST PUSH1 0x4 SLOAD PUSH1 0x1 PUSH1 0x1 PUSH1 0xA0 SHL SUB AND ISZERO PUSH2 0xAF5 JUMPI PUSH1 0x40 MLOAD PUSH4 0x229924E1 PUSH1 0xE0 SHL DUP2 MSTORE PUSH1 0x4 ADD PUSH1 0x40 MLOAD DUP1 SWAP2 SUB SWAP1 REVERT JUMPDEST PUSH1 0x40 MLOAD PUSH32 0x24E723A5C27B62883404028B8DEE9965934DE6A46828CDA2FF63BF9A5E65CE43 SWAP1 PUSH1 0x0 SWAP1 LOG1 JUMP JUMPDEST PUSH1 0x0 PUSH1 0x60 PUSH2 0xB2C PUSH2 0x15E2 JUMP JUMPDEST PUSH32 0x0 PUSH1 0xFF AND DUP9 PUSH1 0xFF AND SUB PUSH2 0xB72 JUMPI PUSH1 0x40 MLOAD PUSH4 0x137058B PUSH1 0xE6 SHL DUP2 MSTORE PUSH1 0x4 ADD PUSH1 0x40 MLOAD DUP1 SWAP2 SUB SWAP1 REVERT JUMPDEST PUSH1 0x0 PUSH2 0xB7C PUSH2 0x1628 JUMP JUMPDEST PUSH1 0x5 SLOAD SWAP1 SWAP2 POP PUSH1 0x1 PUSH1 0x1 PUSH1 0xA0 SHL SUB AND PUSH2 0xBE7 JUMPI CALLVALUE ISZERO PUSH2 0xBE2 JUMPI PUSH1 0x40 MLOAD PUSH3 0x461BCD PUSH1 0xE5 SHL DUP2 MSTORE PUSH1 0x20 PUSH1 0x4 DUP3 ADD MSTORE PUSH1 0x1D PUSH1 0x24 DUP3 ADD MSTORE PUSH32 0x6E6F2046656548616E646C65722C206D73672E76616C756520213D2030000000 PUSH1 0x44 DUP3 ADD MSTORE PUSH1 0x64 ADD JUMPDEST PUSH1 0x40 MLOAD DUP1 SWAP2 SUB SWAP1 REVERT JUMPDEST PUSH2 0xC7A JUMP JUMPDEST PUSH1 0x5 SLOAD PUSH1 0x40 MLOAD PUSH4 0x25307065 PUSH1 0xE0 SHL DUP2 MSTORE PUSH1 0x1 PUSH1 0x1 PUSH1 0xA0 SHL SUB SWAP1 SWAP2 AND SWAP1 PUSH4 0x25307065 SWAP1 CALLVALUE SWAP1 PUSH2 0xC47 SWAP1 DUP6 SWAP1 PUSH32 0x0 SWAP1 DUP16 SWAP1 DUP16 SWAP1 DUP16 SWAP1 DUP16 SWAP1 DUP16 SWAP1 DUP16 SWAP1 PUSH1 0x4 ADD PUSH2 0x2549 JUMP JUMPDEST PUSH1 0x0 PUSH1 0x40 MLOAD DUP1 DUP4 SUB DUP2 DUP6 DUP9 DUP1 EXTCODESIZE ISZERO DUP1 ISZERO PUSH2 0xC60 JUMPI PUSH1 0x0 DUP1 REVERT JUMPDEST POP GAS CALL ISZERO DUP1 ISZERO PUSH2 0xC74 JUMPI RETURNDATASIZE PUSH1 0x0 DUP1 RETURNDATACOPY RETURNDATASIZE PUSH1 0x0 REVERT JUMPDEST POP POP POP POP POP JUMPDEST PUSH1 0x0 DUP9 DUP2 MSTORE PUSH1 0x7 PUSH1 0x20 MSTORE PUSH1 0x40 SWAP1 KECCAK256 SLOAD PUSH1 0x1 PUSH1 0x1 PUSH1 0xA0 SHL SUB AND DUP1 PUSH2 0xCB0 JUMPI PUSH1 0x40 MLOAD PUSH4 0x8C231DD PUSH1 0xE3 SHL DUP2 MSTORE PUSH1 0x4 ADD PUSH1 0x40 MLOAD DUP1 SWAP2 SUB SWAP1 REVERT JUMPDEST PUSH1 0xFF DUP11 AND PUSH1 0x0 SWAP1 DUP2 MSTORE PUSH1 0x6 PUSH1 0x20 MSTORE PUSH1 0x40 DUP2 KECCAK256 DUP1 SLOAD SWAP1 SWAP2 SWAP1 PUSH2 0xCD9 SWAP1 PUSH1 0x1 PUSH1 0x1 PUSH1 0x40 SHL SUB AND PUSH2 0x25A5 JUMP JUMPDEST SWAP2 SWAP1 PUSH2 0x100 EXP DUP2 SLOAD DUP2 PUSH1 0x1 PUSH1 0x1 PUSH1 0x40 SHL SUB MUL NOT AND SWAP1 DUP4 PUSH1 0x1 PUSH1 0x1 PUSH1 0x40 SHL SUB AND MUL OR SWAP1 SSTORE SWAP4 POP PUSH1 0x0 DUP2 SWAP1 POP DUP1 PUSH1 0x1 PUSH1 0x1 PUSH1 0xA0 SHL SUB AND PUSH4 0xB07E54BB DUP12 DUP6 DUP13 DUP13 PUSH1 0x40 MLOAD DUP6 PUSH4 0xFFFFFFFF AND PUSH1 0xE0 SHL DUP2 MSTORE PUSH1 0x4 ADD PUSH2 0xD35 SWAP5 SWAP4 SWAP3 SWAP2 SWAP1 PUSH2 0x25CB JUMP JUMPDEST PUSH1 0x0 PUSH1 0x40 MLOAD DUP1 DUP4 SUB DUP2 PUSH1 0x0 DUP8 GAS CALL ISZERO DUP1 ISZERO PUSH2 0xD54 JUMPI RETURNDATASIZE PUSH1 0x0 DUP1 RETURNDATACOPY RETURNDATASIZE PUSH1 0x0 REVERT JUMPDEST POP POP POP POP PUSH1 0x40 MLOAD RETURNDATASIZE PUSH1 0x0 DUP3 RETURNDATACOPY PUSH1 0x1F RETURNDATASIZE SWAP1 DUP2 ADD PUSH1 0x1F NOT AND DUP3 ADD PUSH1 0x40 MSTORE PUSH2 0xD7C SWAP2 SWAP1 DUP2 ADD SWAP1 PUSH2 0x240E JUMP JUMPDEST SWAP4 POP DUP3 PUSH1 0x1 PUSH1 0x1 PUSH1 0xA0 SHL SUB AND PUSH32 0x17BC3181E17A9620A479C24E6C606E474BA84FC036877B768926872E8CD0E11F DUP13 DUP13 DUP9 DUP14 DUP14 DUP11 PUSH1 0x40 MLOAD PUSH2 0xDC1 SWAP7 SWAP6 SWAP5 SWAP4 SWAP3 SWAP2 SWAP1 PUSH2 0x25F6 JUMP JUMPDEST PUSH1 0x40 MLOAD DUP1 SWAP2 SUB SWAP1 LOG2 POP POP POP SWAP7 POP SWAP7 SWAP5 POP POP POP POP POP JUMP JUMPDEST PUSH2 0xDEF PUSH1 0x0 CALLDATALOAD PUSH1 0x1 PUSH1 0x1 PUSH1 0xE0 SHL SUB NOT AND PUSH2 0xA74 PUSH2 0x1628 JUMP JUMPDEST PUSH2 0xDFF PUSH2 0xDFA PUSH2 0x1628 JUMP JUMPDEST PUSH2 0x16B6 JUMP JUMPDEST JUMP JUMPDEST PUSH1 0x0 PUSH1 0x60 DUP1 PUSH1 0x0 DUP1 PUSH1 0x0 PUSH1 0x60 PUSH2 0xE15 PUSH2 0x1704 JUMP JUMPDEST PUSH2 0xE1D PUSH2 0x1736 JUMP JUMPDEST PUSH1 0x40 DUP1 MLOAD PUSH1 0x0 DUP1 DUP3 MSTORE PUSH1 0x20 DUP3 ADD SWAP1 SWAP3 MSTORE PUSH1 0xF PUSH1 0xF8 SHL SWAP12 SWAP4 SWAP11 POP SWAP2 SWAP9 POP CHAINID SWAP8 POP ADDRESS SWAP7 POP SWAP5 POP SWAP3 POP SWAP1 POP JUMP JUMPDEST PUSH2 0xE5F PUSH1 0x0 CALLDATALOAD PUSH1 0x1 PUSH1 0x1 PUSH1 0xE0 SHL SUB NOT AND PUSH2 0xA74 PUSH2 0x1628 JUMP JUMPDEST PUSH1 0x0 DUP5 DUP2 MSTORE PUSH1 0x7 PUSH1 0x20 MSTORE PUSH1 0x40 SWAP1 DUP2 SWAP1 KECCAK256 DUP1 SLOAD PUSH1 0x1 PUSH1 0x1 PUSH1 0xA0 SHL SUB NOT AND PUSH1 0x1 PUSH1 0x1 PUSH1 0xA0 SHL SUB DUP9 AND SWAP1 DUP2 OR SWAP1 SWAP2 SSTORE SWAP1 MLOAD PUSH4 0xFA8675B PUSH1 0xE4 SHL DUP2 MSTORE DUP7 SWAP2 SWAP1 PUSH4 0xFA8675B0 SWAP1 PUSH2 0xEB4 SWAP1 DUP9 SWAP1 DUP9 SWAP1 DUP9 SWAP1 DUP9 SWAP1 PUSH1 0x4 ADD PUSH2 0x25CB JUMP JUMPDEST PUSH1 0x0 PUSH1 0x40 MLOAD DUP1 DUP4 SUB DUP2 PUSH1 0x0 DUP8 DUP1 EXTCODESIZE ISZERO DUP1 ISZERO PUSH2 0xECE JUMPI PUSH1 0x0 DUP1 REVERT JUMPDEST POP GAS CALL ISZERO DUP1 ISZERO PUSH2 0xEE2 JUMPI RETURNDATASIZE PUSH1 0x0 DUP1 RETURNDATACOPY RETURNDATASIZE PUSH1 0x0 REVERT JUMPDEST POP POP POP POP POP POP POP POP POP POP JUMP JUMPDEST PUSH2 0xF06 PUSH1 0x0 CALLDATALOAD PUSH1 0x1 PUSH1 0x1 PUSH1 0xE0 SHL SUB NOT AND PUSH2 0xA74 PUSH2 0x1628 JUMP JUMPDEST PUSH1 0x5 DUP1 SLOAD PUSH1 0x1 PUSH1 0x1 PUSH1 0xA0 SHL SUB NOT AND PUSH1 0x1 PUSH1 0x1 PUSH1 0xA0 SHL SUB DUP4 AND SWAP1 DUP2 OR SWAP1 SWAP2 SSTORE PUSH1 0x40 MLOAD SWAP1 DUP2 MSTORE PUSH32 0x729170BD142E4965055B26A285FAEEDF03BAF2B915BFC5A7C75D24B45815FF2C SWAP1 PUSH1 0x20 ADD PUSH2 0xAA8 JUMP JUMPDEST PUSH2 0xF6C PUSH1 0x0 CALLDATALOAD PUSH1 0x1 PUSH1 0x1 PUSH1 0xE0 SHL SUB NOT AND PUSH2 0xA74 PUSH2 0x1628 JUMP JUMPDEST PUSH1 0x40 MLOAD PUSH4 0x7B7ED99 PUSH1 0xE0 SHL DUP2 MSTORE PUSH1 0x1 PUSH1 0x1 PUSH1 0xA0 SHL SUB DUP3 DUP2 AND PUSH1 0x4 DUP4 ADD MSTORE DUP4 SWAP2 SWAP1 DUP3 AND SWAP1 PUSH4 0x7B7ED99 SWAP1 PUSH1 0x24 ADD JUMPDEST PUSH1 0x0 PUSH1 0x40 MLOAD DUP1 DUP4 SUB DUP2 PUSH1 0x0 DUP8 DUP1 EXTCODESIZE ISZERO DUP1 ISZERO PUSH2 0xFB3 JUMPI PUSH1 0x0 DUP1 REVERT JUMPDEST POP GAS CALL ISZERO DUP1 ISZERO PUSH2 0xFC7 JUMPI RETURNDATASIZE PUSH1 0x0 DUP1 RETURNDATACOPY RETURNDATASIZE PUSH1 0x0 REVERT JUMPDEST POP POP POP POP POP POP POP JUMP JUMPDEST PUSH1 0x0 PUSH2 0xFDE PUSH2 0x100 DUP4 PUSH2 0x2647 JUMP JUMPDEST PUSH1 0xFF DUP5 AND PUSH1 0x0 SWAP1 DUP2 MSTORE PUSH1 0x9 PUSH1 0x20 MSTORE PUSH1 0x40 DUP2 KECCAK256 PUSH1 0x1 SWAP1 SWAP3 SHL SWAP2 SWAP1 PUSH2 0x1003 PUSH2 0x100 DUP7 PUSH2 0x265B JUMP JUMPDEST DUP2 MSTORE PUSH1 0x20 ADD SWAP1 DUP2 MSTORE PUSH1 0x20 ADD PUSH1 0x0 KECCAK256 SLOAD AND PUSH1 0x0 EQ ISZERO SWAP1 POP JUMPDEST SWAP3 SWAP2 POP POP JUMP JUMPDEST PUSH2 0x1038 PUSH1 0x0 CALLDATALOAD PUSH1 0x1 PUSH1 0x1 PUSH1 0xE0 SHL SUB NOT AND PUSH2 0xA74 PUSH2 0x1628 JUMP JUMPDEST PUSH1 0x40 MLOAD PUSH1 0x1 PUSH1 0x1 PUSH1 0xA0 SHL SUB DUP3 AND DUP2 MSTORE PUSH32 0x497ACAA34AC19C2A2A579AD43ECA493B4FEA820459E254E9383E7DDA216B0F04 SWAP1 PUSH1 0x20 ADD PUSH2 0xAA8 JUMP JUMPDEST PUSH1 0x0 DUP1 DUP5 MLOAD PUSH1 0x1 PUSH1 0x1 PUSH1 0x40 SHL SUB DUP2 GT ISZERO PUSH2 0x108D JUMPI PUSH2 0x108D PUSH2 0x1C9B JUMP JUMPDEST PUSH1 0x40 MLOAD SWAP1 DUP1 DUP3 MSTORE DUP1 PUSH1 0x20 MUL PUSH1 0x20 ADD DUP3 ADD PUSH1 0x40 MSTORE DUP1 ISZERO PUSH2 0x10B6 JUMPI DUP2 PUSH1 0x20 ADD PUSH1 0x20 DUP3 MUL DUP1 CALLDATASIZE DUP4 CALLDATACOPY ADD SWAP1 POP JUMPDEST POP SWAP1 POP PUSH1 0x0 JUMPDEST DUP6 MLOAD DUP2 LT ISZERO PUSH2 0x11E8 JUMPI PUSH32 0xCC13634E956DD3D4EC8D808EE8BF294E1CD05A38F63FE7F234B079A0A4C36A70 DUP7 DUP3 DUP2 MLOAD DUP2 LT PUSH2 0x10F8 JUMPI PUSH2 0x10F8 PUSH2 0x232F JUMP JUMPDEST PUSH1 0x20 MUL PUSH1 0x20 ADD ADD MLOAD PUSH1 0x0 ADD MLOAD DUP8 DUP4 DUP2 MLOAD DUP2 LT PUSH2 0x1116 JUMPI PUSH2 0x1116 PUSH2 0x232F JUMP JUMPDEST PUSH1 0x20 MUL PUSH1 0x20 ADD ADD MLOAD PUSH1 0x20 ADD MLOAD DUP9 DUP5 DUP2 MLOAD DUP2 LT PUSH2 0x1134 JUMPI PUSH2 0x1134 PUSH2 0x232F JUMP JUMPDEST PUSH1 0x20 MUL PUSH1 0x20 ADD ADD MLOAD PUSH1 0x40 ADD MLOAD DUP10 DUP6 DUP2 MLOAD DUP2 LT PUSH2 0x1152 JUMPI PUSH2 0x1152 PUSH2 0x232F JUMP JUMPDEST PUSH1 0x20 MUL PUSH1 0x20 ADD ADD MLOAD PUSH1 0x60 ADD MLOAD DUP1 MLOAD SWAP1 PUSH1 0x20 ADD KECCAK256 PUSH1 0x40 MLOAD PUSH1 0x20 ADD PUSH2 0x11A3 SWAP6 SWAP5 SWAP4 SWAP3 SWAP2 SWAP1 SWAP5 DUP6 MSTORE PUSH1 0xFF SWAP4 SWAP1 SWAP4 AND PUSH1 0x20 DUP6 ADD MSTORE PUSH1 0x1 PUSH1 0x1 PUSH1 0x40 SHL SUB SWAP2 SWAP1 SWAP2 AND PUSH1 0x40 DUP5 ADD MSTORE PUSH1 0x60 DUP4 ADD MSTORE PUSH1 0x80 DUP3 ADD MSTORE PUSH1 0xA0 ADD SWAP1 JUMP JUMPDEST PUSH1 0x40 MLOAD PUSH1 0x20 DUP2 DUP4 SUB SUB DUP2 MSTORE SWAP1 PUSH1 0x40 MSTORE DUP1 MLOAD SWAP1 PUSH1 0x20 ADD KECCAK256 DUP3 DUP3 DUP2 MLOAD DUP2 LT PUSH2 0x11CB JUMPI PUSH2 0x11CB PUSH2 0x232F JUMP JUMPDEST PUSH1 0x20 SWAP1 DUP2 MUL SWAP2 SWAP1 SWAP2 ADD ADD MSTORE DUP1 PUSH2 0x11E0 DUP2 PUSH2 0x24F4 JUMP JUMPDEST SWAP2 POP POP PUSH2 0x10BC JUMP JUMPDEST POP PUSH1 0x0 PUSH2 0x12AC DUP6 DUP6 DUP1 DUP1 PUSH1 0x1F ADD PUSH1 0x20 DUP1 SWAP2 DIV MUL PUSH1 0x20 ADD PUSH1 0x40 MLOAD SWAP1 DUP2 ADD PUSH1 0x40 MSTORE DUP1 SWAP4 SWAP3 SWAP2 SWAP1 DUP2 DUP2 MSTORE PUSH1 0x20 ADD DUP4 DUP4 DUP1 DUP3 DUP5 CALLDATACOPY PUSH1 0x0 SWAP3 ADD SWAP2 SWAP1 SWAP2 MSTORE POP POP PUSH1 0x40 MLOAD PUSH2 0x12A6 SWAP3 POP PUSH32 0x989D14110BA109CCAD392CC18511D1F6AE3A85165C5960E49D72C2C67682FDE5 SWAP2 POP PUSH2 0x125B SWAP1 DUP8 SWAP1 PUSH1 0x20 ADD PUSH2 0x266F JUMP JUMPDEST PUSH1 0x40 MLOAD PUSH1 0x20 DUP2 DUP4 SUB SUB DUP2 MSTORE SWAP1 PUSH1 0x40 MSTORE DUP1 MLOAD SWAP1 PUSH1 0x20 ADD KECCAK256 PUSH1 0x40 MLOAD PUSH1 0x20 ADD PUSH2 0x128B SWAP3 SWAP2 SWAP1 SWAP2 DUP3 MSTORE PUSH1 0x20 DUP3 ADD MSTORE PUSH1 0x40 ADD SWAP1 JUMP JUMPDEST PUSH1 0x40 MLOAD PUSH1 0x20 DUP2 DUP4 SUB SUB DUP2 MSTORE SWAP1 PUSH1 0x40 MSTORE DUP1 MLOAD SWAP1 PUSH1 0x20 ADD KECCAK256 PUSH2 0x1763 JUMP JUMPDEST SWAP1 PUSH2 0x1790 JUMP JUMPDEST PUSH1 0x4 SLOAD PUSH1 0x1 PUSH1 0x1 PUSH1 0xA0 SHL SUB SWAP1 DUP2 AND SWAP2 AND EQ SWAP7 SWAP6 POP POP POP POP POP POP JUMP JUMPDEST PUSH2 0x12DF PUSH1 0x0 CALLDATALOAD PUSH1 0x1 PUSH1 0x1 PUSH1 0xE0 SHL SUB NOT AND PUSH2 0xA74 PUSH2 0x1628 JUMP JUMPDEST PUSH1 0x40 MLOAD PUSH4 0x25A3C99 PUSH1 0xE2 SHL DUP2 MSTORE DUP3 SWAP1 PUSH1 0x1 PUSH1 0x1 PUSH1 0xA0 SHL SUB DUP3 AND SWAP1 PUSH4 0x968F264 SWAP1 PUSH2 0xF99 SWAP1 DUP6 SWAP1 PUSH1 0x4 ADD PUSH2 0x250D JUMP JUMPDEST PUSH2 0x1325 PUSH1 0x0 CALLDATALOAD PUSH1 0x1 PUSH1 0x1 PUSH1 0xE0 SHL SUB NOT AND PUSH2 0xA74 PUSH2 0x1628 JUMP JUMPDEST PUSH1 0x1 PUSH1 0x1 PUSH1 0xA0 SHL SUB SWAP2 SWAP1 SWAP2 AND PUSH1 0x0 SWAP1 DUP2 MSTORE PUSH1 0x8 PUSH1 0x20 MSTORE PUSH1 0x40 SWAP1 KECCAK256 DUP1 SLOAD PUSH1 0xFF NOT AND SWAP2 ISZERO ISZERO SWAP2 SWAP1 SWAP2 OR SWAP1 SSTORE JUMP JUMPDEST PUSH2 0x1368 PUSH1 0x0 CALLDATALOAD PUSH1 0x1 PUSH1 0x1 PUSH1 0xE0 SHL SUB NOT AND PUSH2 0xA74 PUSH2 0x1628 JUMP JUMPDEST PUSH1 0x1 PUSH1 0x1 PUSH1 0xA0 SHL SUB DUP2 AND PUSH2 0x138F JUMPI PUSH1 0x40 MLOAD PUSH4 0x1449E68F PUSH1 0xE0 SHL DUP2 MSTORE PUSH1 0x4 ADD PUSH1 0x40 MLOAD DUP1 SWAP2 SUB SWAP1 REVERT JUMPDEST PUSH1 0x4 SLOAD PUSH1 0x1 PUSH1 0x1 PUSH1 0xA0 SHL SUB AND ISZERO PUSH2 0x13B9 JUMPI PUSH1 0x40 MLOAD PUSH4 0x2748FB33 PUSH1 0xE2 SHL DUP2 MSTORE PUSH1 0x4 ADD PUSH1 0x40 MLOAD DUP1 SWAP2 SUB SWAP1 REVERT JUMPDEST PUSH1 0x4 DUP1 SLOAD PUSH1 0x1 PUSH1 0x1 PUSH1 0xA0 SHL SUB NOT AND PUSH1 0x1 PUSH1 0x1 PUSH1 0xA0 SHL SUB DUP4 AND OR SWAP1 SSTORE PUSH2 0x13E4 PUSH2 0x13DF PUSH2 0x1628 JUMP JUMPDEST PUSH2 0x17BA JUMP JUMPDEST PUSH1 0x40 MLOAD PUSH32 0x4187686CEEF7B541A1F224D48D4CDED8F2C535E0E58AC0F0514071B1DE3DAD57 SWAP1 PUSH1 0x0 SWAP1 LOG1 POP JUMP JUMPDEST PUSH2 0x1428 PUSH1 0x0 CALLDATALOAD PUSH1 0x1 PUSH1 0x1 PUSH1 0xE0 SHL SUB NOT AND PUSH2 0xA74 PUSH2 0x1628 JUMP JUMPDEST PUSH32 0xE78D813A9260522F81D6C761E311727B2E19008DAADD2B9E174BE86BC4F06A4B DUP2 PUSH1 0x40 MLOAD PUSH2 0xAA8 SWAP2 SWAP1 PUSH2 0x250D JUMP JUMPDEST PUSH2 0x146F PUSH1 0x0 CALLDATALOAD PUSH1 0x1 PUSH1 0x1 PUSH1 0xE0 SHL SUB NOT AND PUSH2 0xA74 PUSH2 0x1628 JUMP JUMPDEST PUSH1 0xFF DUP3 AND PUSH1 0x0 SWAP1 DUP2 MSTORE PUSH1 0x6 PUSH1 0x20 MSTORE PUSH1 0x40 SWAP1 KECCAK256 SLOAD PUSH1 0x1 PUSH1 0x1 PUSH1 0x40 SHL SUB SWAP1 DUP2 AND SWAP1 DUP3 AND GT PUSH2 0x14EC JUMPI PUSH1 0x40 MLOAD PUSH3 0x461BCD PUSH1 0xE5 SHL DUP2 MSTORE PUSH1 0x20 PUSH1 0x4 DUP3 ADD MSTORE PUSH1 0x26 PUSH1 0x24 DUP3 ADD MSTORE PUSH32 0x446F6573206E6F7420616C6C6F772064656372656D656E7473206F6620746865 PUSH1 0x44 DUP3 ADD MSTORE PUSH6 0x206E6F6E6365 PUSH1 0xD0 SHL PUSH1 0x64 DUP3 ADD MSTORE PUSH1 0x84 ADD PUSH2 0xBD9 JUMP JUMPDEST PUSH1 0xFF SWAP2 SWAP1 SWAP2 AND PUSH1 0x0 SWAP1 DUP2 MSTORE PUSH1 0x6 PUSH1 0x20 MSTORE PUSH1 0x40 SWAP1 KECCAK256 DUP1 SLOAD PUSH8 0xFFFFFFFFFFFFFFFF NOT AND PUSH1 0x1 PUSH1 0x1 PUSH1 0x40 SHL SUB SWAP1 SWAP3 AND SWAP2 SWAP1 SWAP2 OR SWAP1 SSTORE JUMP JUMPDEST PUSH1 0x40 DUP1 MLOAD PUSH1 0x1 DUP1 DUP3 MSTORE DUP2 DUP4 ADD SWAP1 SWAP3 MSTORE PUSH1 0x0 SWAP2 DUP2 PUSH1 0x20 ADD JUMPDEST PUSH1 0x40 DUP1 MLOAD PUSH1 0x80 DUP2 ADD DUP3 MSTORE PUSH1 0x0 DUP1 DUP3 MSTORE PUSH1 0x20 DUP1 DUP4 ADD DUP3 SWAP1 MSTORE SWAP3 DUP3 ADD MSTORE PUSH1 0x60 DUP1 DUP3 ADD MSTORE DUP3 MSTORE PUSH1 0x0 NOT SWAP1 SWAP3 ADD SWAP2 ADD DUP2 PUSH2 0x1537 JUMPI SWAP1 POP POP SWAP1 POP DUP4 DUP2 PUSH1 0x0 DUP2 MLOAD DUP2 LT PUSH2 0x1580 JUMPI PUSH2 0x1580 PUSH2 0x232F JUMP JUMPDEST PUSH1 0x20 MUL PUSH1 0x20 ADD ADD DUP2 SWAP1 MSTORE POP PUSH2 0xA56 DUP2 DUP5 DUP5 PUSH2 0x5AC JUMP JUMPDEST PUSH2 0x15AE PUSH1 0x0 CALLDATALOAD PUSH1 0x1 PUSH1 0x1 PUSH1 0xE0 SHL SUB NOT AND PUSH2 0xA74 PUSH2 0x1628 JUMP JUMPDEST PUSH1 0x4 SLOAD PUSH1 0x1 PUSH1 0x1 PUSH1 0xA0 SHL SUB AND PUSH2 0x15D7 JUMPI PUSH1 0x40 MLOAD PUSH4 0xCCA785B9 PUSH1 0xE0 SHL DUP2 MSTORE PUSH1 0x4 ADD PUSH1 0x40 MLOAD DUP1 SWAP2 SUB SWAP1 REVERT JUMPDEST PUSH2 0xDFF PUSH2 0x13DF PUSH2 0x1628 JUMP JUMPDEST PUSH1 0x0 SLOAD PUSH1 0xFF AND ISZERO PUSH2 0xDFF JUMPI PUSH1 0x40 MLOAD PUSH3 0x461BCD PUSH1 0xE5 SHL DUP2 MSTORE PUSH1 0x20 PUSH1 0x4 DUP3 ADD MSTORE PUSH1 0x10 PUSH1 0x24 DUP3 ADD MSTORE PUSH16 0x14185D5CD8589B194E881C185D5CD959 PUSH1 0x82 SHL PUSH1 0x44 DUP3 ADD MSTORE PUSH1 0x64 ADD PUSH2 0xBD9 JUMP JUMPDEST PUSH1 0x0 CALLER PUSH1 0x14 CALLDATASIZE LT DUP1 ISZERO SWAP1 PUSH2 0x1654 JUMPI POP PUSH1 0x1 PUSH1 0x1 PUSH1 0xA0 SHL SUB DUP2 AND PUSH1 0x0 SWAP1 DUP2 MSTORE PUSH1 0x8 PUSH1 0x20 MSTORE PUSH1 0x40 SWAP1 KECCAK256 SLOAD PUSH1 0xFF AND JUMPDEST ISZERO PUSH2 0x1664 JUMPI POP PUSH1 0x13 NOT CALLDATASIZE ADD CALLDATALOAD PUSH1 0x60 SHR JUMPDEST SWAP2 SWAP1 POP JUMP JUMPDEST PUSH1 0x3 SLOAD PUSH1 0x1 PUSH1 0x1 PUSH1 0xA0 SHL SUB DUP3 DUP2 AND SWAP2 AND EQ PUSH2 0x16B2 JUMPI PUSH1 0x40 MLOAD PUSH4 0x39D370B PUSH1 0xE0 SHL DUP2 MSTORE PUSH1 0x1 PUSH1 0x1 PUSH1 0xA0 SHL SUB DUP3 AND PUSH1 0x4 DUP3 ADD MSTORE PUSH1 0x1 PUSH1 0x1 PUSH1 0xE0 SHL SUB NOT DUP4 AND PUSH1 0x24 DUP3 ADD MSTORE PUSH1 0x44 ADD PUSH2 0xBD9 JUMP JUMPDEST POP POP JUMP JUMPDEST PUSH2 0x16BE PUSH2 0x15E2 JUMP JUMPDEST PUSH1 0x0 DUP1 SLOAD PUSH1 0xFF NOT AND PUSH1 0x1 OR SWAP1 SSTORE PUSH1 0x40 MLOAD PUSH1 0x1 PUSH1 0x1 PUSH1 0xA0 SHL SUB DUP3 AND DUP2 MSTORE PUSH32 0x62E78CEA01BEE320CD4E420270B5EA74000D11B0C9F74754EBDBFC544B05A258 SWAP1 PUSH1 0x20 ADD PUSH2 0xAA8 JUMP JUMPDEST PUSH1 0x60 PUSH2 0x1731 PUSH32 0x0 PUSH1 0x1 PUSH2 0x1805 JUMP JUMPDEST SWAP1 POP SWAP1 JUMP JUMPDEST PUSH1 0x60 PUSH2 0x1731 PUSH32 0x0 PUSH1 0x2 PUSH2 0x1805 JUMP JUMPDEST PUSH1 0x0 PUSH2 0x101A PUSH2 0x1770 PUSH2 0x18B0 JUMP JUMPDEST DUP4 PUSH1 0x40 MLOAD PUSH2 0x1901 PUSH1 0xF0 SHL DUP2 MSTORE PUSH1 0x2 DUP2 ADD SWAP3 SWAP1 SWAP3 MSTORE PUSH1 0x22 DUP3 ADD MSTORE PUSH1 0x42 SWAP1 KECCAK256 SWAP1 JUMP JUMPDEST PUSH1 0x0 DUP1 PUSH1 0x0 DUP1 PUSH2 0x17A0 DUP7 DUP7 PUSH2 0x19DB JUMP JUMPDEST SWAP3 POP SWAP3 POP SWAP3 POP PUSH2 0x17B0 DUP3 DUP3 PUSH2 0x1A28 JUMP JUMPDEST POP SWAP1 SWAP5 SWAP4 POP POP POP POP JUMP JUMPDEST PUSH2 0x17C2 PUSH2 0x1AE1 JUMP JUMPDEST PUSH1 0x0 DUP1 SLOAD PUSH1 0xFF NOT AND SWAP1 SSTORE PUSH1 0x40 MLOAD PUSH1 0x1 PUSH1 0x1 PUSH1 0xA0 SHL SUB DUP3 AND DUP2 MSTORE PUSH32 0x5DB9EE0A495BF2E6FF9C91A7834C1BA4FDD244A5E8AA4E537BD38AEAE4B073AA SWAP1 PUSH1 0x20 ADD PUSH2 0xAA8 JUMP JUMPDEST PUSH1 0x60 PUSH1 0xFF DUP4 EQ PUSH2 0x181F JUMPI PUSH2 0x1818 DUP4 PUSH2 0x1B2A JUMP JUMPDEST SWAP1 POP PUSH2 0x101A JUMP JUMPDEST DUP2 DUP1 SLOAD PUSH2 0x182B SWAP1 PUSH2 0x26A5 JUMP JUMPDEST DUP1 PUSH1 0x1F ADD PUSH1 0x20 DUP1 SWAP2 DIV MUL PUSH1 0x20 ADD PUSH1 0x40 MLOAD SWAP1 DUP2 ADD PUSH1 0x40 MSTORE DUP1 SWAP3 SWAP2 SWAP1 DUP2 DUP2 MSTORE PUSH1 0x20 ADD DUP3 DUP1 SLOAD PUSH2 0x1857 SWAP1 PUSH2 0x26A5 JUMP JUMPDEST DUP1 ISZERO PUSH2 0x18A4 JUMPI DUP1 PUSH1 0x1F LT PUSH2 0x1879 JUMPI PUSH2 0x100 DUP1 DUP4 SLOAD DIV MUL DUP4 MSTORE SWAP2 PUSH1 0x20 ADD SWAP2 PUSH2 0x18A4 JUMP JUMPDEST DUP3 ADD SWAP2 SWAP1 PUSH1 0x0 MSTORE PUSH1 0x20 PUSH1 0x0 KECCAK256 SWAP1 JUMPDEST DUP2 SLOAD DUP2 MSTORE SWAP1 PUSH1 0x1 ADD SWAP1 PUSH1 0x20 ADD DUP1 DUP4 GT PUSH2 0x1887 JUMPI DUP3 SWAP1 SUB PUSH1 0x1F AND DUP3 ADD SWAP2 JUMPDEST POP POP POP POP POP SWAP1 POP PUSH2 0x101A JUMP JUMPDEST PUSH1 0x0 ADDRESS PUSH1 0x1 PUSH1 0x1 PUSH1 0xA0 SHL SUB PUSH32 0x0 AND EQ DUP1 ISZERO PUSH2 0x1909 JUMPI POP PUSH32 0x0 CHAINID EQ JUMPDEST ISZERO PUSH2 0x1933 JUMPI POP PUSH32 0x0 SWAP1 JUMP JUMPDEST PUSH2 0x1731 PUSH1 0x40 DUP1 MLOAD PUSH32 0x8B73C3C69BB8FE3D512ECC4CF759CC79239F7B179B0FFACAA9A75D522B39400F PUSH1 0x20 DUP3 ADD MSTORE PUSH32 0x0 SWAP2 DUP2 ADD SWAP2 SWAP1 SWAP2 MSTORE PUSH32 0x0 PUSH1 0x60 DUP3 ADD MSTORE CHAINID PUSH1 0x80 DUP3 ADD MSTORE ADDRESS PUSH1 0xA0 DUP3 ADD MSTORE PUSH1 0x0 SWAP1 PUSH1 0xC0 ADD PUSH1 0x40 MLOAD PUSH1 0x20 DUP2 DUP4 SUB SUB DUP2 MSTORE SWAP1 PUSH1 0x40 MSTORE DUP1 MLOAD SWAP1 PUSH1 0x20 ADD KECCAK256 SWAP1 POP SWAP1 JUMP JUMPDEST PUSH1 0x0 DUP1 PUSH1 0x0 DUP4 MLOAD PUSH1 0x41 SUB PUSH2 0x1A15 JUMPI PUSH1 0x20 DUP5 ADD MLOAD PUSH1 0x40 DUP6 ADD MLOAD PUSH1 0x60 DUP7 ADD MLOAD PUSH1 0x0 BYTE PUSH2 0x1A07 DUP9 DUP3 DUP6 DUP6 PUSH2 0x1B69 JUMP JUMPDEST SWAP6 POP SWAP6 POP SWAP6 POP POP POP POP PUSH2 0x1A21 JUMP JUMPDEST POP POP DUP2 MLOAD PUSH1 0x0 SWAP2 POP PUSH1 0x2 SWAP1 JUMPDEST SWAP3 POP SWAP3 POP SWAP3 JUMP JUMPDEST PUSH1 0x0 DUP3 PUSH1 0x3 DUP2 GT ISZERO PUSH2 0x1A3C JUMPI PUSH2 0x1A3C PUSH2 0x26DF JUMP JUMPDEST SUB PUSH2 0x1A45 JUMPI POP POP JUMP JUMPDEST PUSH1 0x1 DUP3 PUSH1 0x3 DUP2 GT ISZERO PUSH2 0x1A59 JUMPI PUSH2 0x1A59 PUSH2 0x26DF JUMP JUMPDEST SUB PUSH2 0x1A77 JUMPI PUSH1 0x40 MLOAD PUSH4 0xF645EEDF PUSH1 0xE0 SHL DUP2 MSTORE PUSH1 0x4 ADD PUSH1 0x40 MLOAD DUP1 SWAP2 SUB SWAP1 REVERT JUMPDEST PUSH1 0x2 DUP3 PUSH1 0x3 DUP2 GT ISZERO PUSH2 0x1A8B JUMPI PUSH2 0x1A8B PUSH2 0x26DF JUMP JUMPDEST SUB PUSH2 0x1AAC JUMPI PUSH1 0x40 MLOAD PUSH4 0xFCE698F7 PUSH1 0xE0 SHL DUP2 MSTORE PUSH1 0x4 DUP2 ADD DUP3 SWAP1 MSTORE PUSH1 0x24 ADD PUSH2 0xBD9 JUMP JUMPDEST PUSH1 0x3 DUP3 PUSH1 0x3 DUP2 GT ISZERO PUSH2 0x1AC0 JUMPI PUSH2 0x1AC0 PUSH2 0x26DF JUMP JUMPDEST SUB PUSH2 0x16B2 JUMPI PUSH1 0x40 MLOAD PUSH4 0x35E2F383 PUSH1 0xE2 SHL DUP2 MSTORE PUSH1 0x4 DUP2 ADD DUP3 SWAP1 MSTORE PUSH1 0x24 ADD PUSH2 0xBD9 JUMP JUMPDEST PUSH1 0x0 SLOAD PUSH1 0xFF AND PUSH2 0xDFF JUMPI PUSH1 0x40 MLOAD PUSH3 0x461BCD PUSH1 0xE5 SHL DUP2 MSTORE PUSH1 0x20 PUSH1 0x4 DUP3 ADD MSTORE PUSH1 0x14 PUSH1 0x24 DUP3 ADD MSTORE PUSH20 0x14185D5CD8589B194E881B9BDD081C185D5CD959 PUSH1 0x62 SHL PUSH1 0x44 DUP3 ADD MSTORE PUSH1 0x64 ADD PUSH2 0xBD9 JUMP JUMPDEST PUSH1 0x60 PUSH1 0x0 PUSH2 0x1B37 DUP4 PUSH2 0x1C38 JUMP JUMPDEST PUSH1 0x40 DUP1 MLOAD PUSH1 0x20 DUP1 DUP3 MSTORE DUP2 DUP4 ADD SWAP1 SWAP3 MSTORE SWAP2 SWAP3 POP PUSH1 0x0 SWAP2 SWAP1 PUSH1 0x20 DUP3 ADD DUP2 DUP1 CALLDATASIZE DUP4 CALLDATACOPY POP POP POP SWAP2 DUP3 MSTORE POP PUSH1 0x20 DUP2 ADD SWAP3 SWAP1 SWAP3 MSTORE POP SWAP1 JUMP JUMPDEST PUSH1 0x0 DUP1 DUP1 PUSH32 0x7FFFFFFFFFFFFFFFFFFFFFFFFFFFFFFF5D576E7357A4501DDFE92F46681B20A0 DUP5 GT ISZERO PUSH2 0x1BA4 JUMPI POP PUSH1 0x0 SWAP2 POP PUSH1 0x3 SWAP1 POP DUP3 PUSH2 0x1C2E JUMP JUMPDEST PUSH1 0x40 DUP1 MLOAD PUSH1 0x0 DUP1 DUP3 MSTORE PUSH1 0x20 DUP3 ADD DUP1 DUP5 MSTORE DUP11 SWAP1 MSTORE PUSH1 0xFF DUP10 AND SWAP3 DUP3 ADD SWAP3 SWAP1 SWAP3 MSTORE PUSH1 0x60 DUP2 ADD DUP8 SWAP1 MSTORE PUSH1 0x80 DUP2 ADD DUP7 SWAP1 MSTORE PUSH1 0x1 SWAP1 PUSH1 0xA0 ADD PUSH1 0x20 PUSH1 0x40 MLOAD PUSH1 0x20 DUP2 SUB SWAP1 DUP1 DUP5 SUB SWAP1 DUP6 GAS STATICCALL ISZERO DUP1 ISZERO PUSH2 0x1BF8 JUMPI RETURNDATASIZE PUSH1 0x0 DUP1 RETURNDATACOPY RETURNDATASIZE PUSH1 0x0 REVERT JUMPDEST POP POP PUSH1 0x40 MLOAD PUSH1 0x1F NOT ADD MLOAD SWAP2 POP POP PUSH1 0x1 PUSH1 0x1 PUSH1 0xA0 SHL SUB DUP2 AND PUSH2 0x1C24 JUMPI POP PUSH1 0x0 SWAP3 POP PUSH1 0x1 SWAP2 POP DUP3 SWAP1 POP PUSH2 0x1C2E JUMP JUMPDEST SWAP3 POP PUSH1 0x0 SWAP2 POP DUP2 SWAP1 POP JUMPDEST SWAP5 POP SWAP5 POP SWAP5 SWAP2 POP POP JUMP JUMPDEST PUSH1 0x0 PUSH1 0xFF DUP3 AND PUSH1 0x1F DUP2 GT ISZERO PUSH2 0x101A JUMPI PUSH1 0x40 MLOAD PUSH4 0x2CD44AC3 PUSH1 0xE2 SHL DUP2 MSTORE PUSH1 0x4 ADD PUSH1 0x40 MLOAD DUP1 SWAP2 SUB SWAP1 REVERT JUMPDEST DUP1 CALLDATALOAD PUSH1 0xFF DUP2 AND DUP2 EQ PUSH2 0x1664 JUMPI PUSH1 0x0 DUP1 REVERT JUMPDEST PUSH1 0x0 DUP1 PUSH1 0x40 DUP4 DUP6 SUB SLT ISZERO PUSH2 0x1C84 JUMPI PUSH1 0x0 DUP1 REVERT JUMPDEST PUSH2 0x1C8D DUP4 PUSH2 0x1C60 JUMP JUMPDEST SWAP5 PUSH1 0x20 SWAP4 SWAP1 SWAP4 ADD CALLDATALOAD SWAP4 POP POP POP JUMP JUMPDEST PUSH4 0x4E487B71 PUSH1 0xE0 SHL PUSH1 0x0 MSTORE PUSH1 0x41 PUSH1 0x4 MSTORE PUSH1 0x24 PUSH1 0x0 REVERT JUMPDEST PUSH1 0x40 MLOAD PUSH1 0x1F DUP3 ADD PUSH1 0x1F NOT AND DUP2 ADD PUSH1 0x1 PUSH1 0x1 PUSH1 0x40 SHL SUB DUP2 GT DUP3 DUP3 LT OR ISZERO PUSH2 0x1CD9 JUMPI PUSH2 0x1CD9 PUSH2 0x1C9B JUMP JUMPDEST PUSH1 0x40 MSTORE SWAP2 SWAP1 POP JUMP JUMPDEST DUP1 CALLDATALOAD PUSH1 0x1 PUSH1 0x1 PUSH1 0x40 SHL SUB DUP2 AND DUP2 EQ PUSH2 0x1664 JUMPI PUSH1 0x0 DUP1 REVERT JUMPDEST PUSH1 0x0 PUSH1 0x1 PUSH1 0x1 PUSH1 0x40 SHL SUB DUP3 GT ISZERO PUSH2 0x1D11 JUMPI PUSH2 0x1D11 PUSH2 0x1C9B JUMP JUMPDEST POP PUSH1 0x1F ADD PUSH1 0x1F NOT AND PUSH1 0x20 ADD SWAP1 JUMP JUMPDEST PUSH1 0x0 PUSH2 0x1D32 PUSH2 0x1D2D DUP5 PUSH2 0x1CF8 JUMP JUMPDEST PUSH2 0x1CB1 JUMP JUMPDEST SWAP1 POP DUP3 DUP2 MSTORE DUP4 DUP4 DUP4 ADD GT ISZERO PUSH2 0x1D46 JUMPI PUSH1 0x0 DUP1 REVERT JUMPDEST DUP3 DUP3 PUSH1 0x20 DUP4 ADD CALLDATACOPY PUSH1 0x0 PUSH1 0x20 DUP5 DUP4 ADD ADD MSTORE SWAP4 SWAP3 POP POP POP JUMP JUMPDEST PUSH1 0x0 DUP3 PUSH1 0x1F DUP4 ADD SLT PUSH2 0x1D6E JUMPI PUSH1 0x0 DUP1 REVERT JUMPDEST PUSH2 0x1D7D DUP4 DUP4 CALLDATALOAD PUSH1 0x20 DUP6 ADD PUSH2 0x1D1F JUMP JUMPDEST SWAP4 SWAP3 POP POP POP JUMP JUMPDEST PUSH1 0x0 PUSH1 0x80 DUP3 DUP5 SUB SLT ISZERO PUSH2 0x1D96 JUMPI PUSH1 0x0 DUP1 REVERT JUMPDEST PUSH1 0x40 MLOAD PUSH1 0x80 DUP2 ADD PUSH1 0x1 PUSH1 0x1 PUSH1 0x40 SHL SUB DUP3 DUP3 LT DUP2 DUP4 GT OR ISZERO PUSH2 0x1DB9 JUMPI PUSH2 0x1DB9 PUSH2 0x1C9B JUMP JUMPDEST DUP2 PUSH1 0x40 MSTORE DUP3 SWAP4 POP PUSH2 0x1DC9 DUP6 PUSH2 0x1C60 JUMP JUMPDEST DUP4 MSTORE PUSH2 0x1DD7 PUSH1 0x20 DUP7 ADD PUSH2 0x1CE1 JUMP JUMPDEST PUSH1 0x20 DUP5 ADD MSTORE PUSH1 0x40 DUP6 ADD CALLDATALOAD PUSH1 0x40 DUP5 ADD MSTORE PUSH1 0x60 DUP6 ADD CALLDATALOAD SWAP2 POP DUP1 DUP3 GT ISZERO PUSH2 0x1DFA JUMPI PUSH1 0x0 DUP1 REVERT JUMPDEST POP PUSH2 0x1E07 DUP6 DUP3 DUP7 ADD PUSH2 0x1D5D JUMP JUMPDEST PUSH1 0x60 DUP4 ADD MSTORE POP POP SWAP3 SWAP2 POP POP JUMP JUMPDEST PUSH1 0x0 DUP1 DUP4 PUSH1 0x1F DUP5 ADD SLT PUSH2 0x1E26 JUMPI PUSH1 0x0 DUP1 REVERT JUMPDEST POP DUP2 CALLDATALOAD PUSH1 0x1 PUSH1 0x1 PUSH1 0x40 SHL SUB DUP2 GT ISZERO PUSH2 0x1E3D JUMPI PUSH1 0x0 DUP1 REVERT JUMPDEST PUSH1 0x20 DUP4 ADD SWAP2 POP DUP4 PUSH1 0x20 DUP3 DUP6 ADD ADD GT ISZERO PUSH2 0x1E55 JUMPI PUSH1 0x0 DUP1 REVERT JUMPDEST SWAP3 POP SWAP3 SWAP1 POP JUMP JUMPDEST PUSH1 0x0 DUP1 PUSH1 0x0 PUSH1 0x40 DUP5 DUP7 SUB SLT ISZERO PUSH2 0x1E71 JUMPI PUSH1 0x0 DUP1 REVERT JUMPDEST DUP4 CALLDATALOAD PUSH1 0x1 PUSH1 0x1 PUSH1 0x40 SHL SUB DUP1 DUP3 GT ISZERO PUSH2 0x1E88 JUMPI PUSH1 0x0 DUP1 REVERT JUMPDEST DUP2 DUP7 ADD SWAP2 POP DUP7 PUSH1 0x1F DUP4 ADD SLT PUSH2 0x1E9C JUMPI PUSH1 0x0 DUP1 REVERT JUMPDEST DUP2 CALLDATALOAD PUSH1 0x20 DUP3 DUP3 GT ISZERO PUSH2 0x1EB0 JUMPI PUSH2 0x1EB0 PUSH2 0x1C9B JUMP JUMPDEST DUP2 PUSH1 0x5 SHL PUSH2 0x1EBF DUP3 DUP3 ADD PUSH2 0x1CB1 JUMP JUMPDEST SWAP3 DUP4 MSTORE DUP5 DUP2 ADD DUP3 ADD SWAP3 DUP3 DUP2 ADD SWAP1 DUP12 DUP6 GT ISZERO PUSH2 0x1ED9 JUMPI PUSH1 0x0 DUP1 REVERT JUMPDEST DUP4 DUP8 ADD SWAP3 POP JUMPDEST DUP5 DUP4 LT ISZERO PUSH2 0x1F15 JUMPI DUP3 CALLDATALOAD DUP7 DUP2 GT ISZERO PUSH2 0x1EF7 JUMPI PUSH1 0x0 DUP1 DUP2 REVERT JUMPDEST PUSH2 0x1F05 DUP14 DUP7 DUP4 DUP12 ADD ADD PUSH2 0x1D84 JUMP JUMPDEST DUP4 MSTORE POP SWAP2 DUP4 ADD SWAP2 SWAP1 DUP4 ADD SWAP1 PUSH2 0x1EDF JUMP JUMPDEST SWAP9 POP POP POP DUP8 ADD CALLDATALOAD SWAP3 POP POP DUP1 DUP3 GT ISZERO PUSH2 0x1F2C JUMPI PUSH1 0x0 DUP1 REVERT JUMPDEST POP PUSH2 0x1F39 DUP7 DUP3 DUP8 ADD PUSH2 0x1E14 JUMP JUMPDEST SWAP5 SWAP8 SWAP1 SWAP7 POP SWAP4 SWAP5 POP POP POP POP JUMP JUMPDEST PUSH1 0x0 PUSH1 0x20 DUP3 DUP5 SUB SLT ISZERO PUSH2 0x1F58 JUMPI PUSH1 0x0 DUP1 REVERT JUMPDEST DUP2 CALLDATALOAD PUSH1 0x1 PUSH1 0x1 PUSH1 0x40 SHL SUB DUP2 GT ISZERO PUSH2 0x1F6E JUMPI PUSH1 0x0 DUP1 REVERT JUMPDEST DUP3 ADD PUSH1 0x1F DUP2 ADD DUP5 SGT PUSH2 0x1F7F JUMPI PUSH1 0x0 DUP1 REVERT JUMPDEST PUSH2 0x1F8E DUP5 DUP3 CALLDATALOAD PUSH1 0x20 DUP5 ADD PUSH2 0x1D1F JUMP JUMPDEST SWAP5 SWAP4 POP POP POP POP JUMP JUMPDEST PUSH1 0x0 PUSH1 0x20 DUP3 DUP5 SUB SLT ISZERO PUSH2 0x1FA8 JUMPI PUSH1 0x0 DUP1 REVERT JUMPDEST PUSH2 0x1D7D DUP3 PUSH2 0x1C60 JUMP JUMPDEST PUSH1 0x0 DUP1 PUSH1 0x0 DUP1 PUSH1 0x0 DUP1 PUSH1 0x80 DUP8 DUP10 SUB SLT ISZERO PUSH2 0x1FCA JUMPI PUSH1 0x0 DUP1 REVERT JUMPDEST PUSH2 0x1FD3 DUP8 PUSH2 0x1C60 JUMP JUMPDEST SWAP6 POP PUSH1 0x20 DUP8 ADD CALLDATALOAD SWAP5 POP PUSH1 0x40 DUP8 ADD CALLDATALOAD PUSH1 0x1 PUSH1 0x1 PUSH1 0x40 SHL SUB DUP1 DUP3 GT ISZERO PUSH2 0x1FF6 JUMPI PUSH1 0x0 DUP1 REVERT JUMPDEST PUSH2 0x2002 DUP11 DUP4 DUP12 ADD PUSH2 0x1E14 JUMP JUMPDEST SWAP1 SWAP7 POP SWAP5 POP PUSH1 0x60 DUP10 ADD CALLDATALOAD SWAP2 POP DUP1 DUP3 GT ISZERO PUSH2 0x201B JUMPI PUSH1 0x0 DUP1 REVERT JUMPDEST POP PUSH2 0x2028 DUP10 DUP3 DUP11 ADD PUSH2 0x1E14 JUMP JUMPDEST SWAP8 SWAP11 SWAP7 SWAP10 POP SWAP5 SWAP8 POP SWAP3 SWAP6 SWAP4 SWAP5 SWAP3 POP POP POP JUMP JUMPDEST PUSH1 0x0 JUMPDEST DUP4 DUP2 LT ISZERO PUSH2 0x2055 JUMPI DUP2 DUP2 ADD MLOAD DUP4 DUP3 ADD MSTORE PUSH1 0x20 ADD PUSH2 0x203D JUMP JUMPDEST POP POP PUSH1 0x0 SWAP2 ADD MSTORE JUMP JUMPDEST PUSH1 0x0 DUP2 MLOAD DUP1 DUP5 MSTORE PUSH2 0x2076 DUP2 PUSH1 0x20 DUP7 ADD PUSH1 0x20 DUP7 ADD PUSH2 0x203A JUMP JUMPDEST PUSH1 0x1F ADD PUSH1 0x1F NOT AND SWAP3 SWAP1 SWAP3 ADD PUSH1 0x20 ADD SWAP3 SWAP2 POP POP JUMP JUMPDEST PUSH1 0x1 PUSH1 0x1 PUSH1 0x40 SHL SUB DUP4 AND DUP2 MSTORE PUSH1 0x40 PUSH1 0x20 DUP3 ADD MSTORE PUSH1 0x0 PUSH2 0x1F8E PUSH1 0x40 DUP4 ADD DUP5 PUSH2 0x205E JUMP JUMPDEST PUSH1 0xFF PUSH1 0xF8 SHL DUP9 AND DUP2 MSTORE PUSH1 0x0 PUSH1 0x20 PUSH1 0xE0 DUP2 DUP5 ADD MSTORE PUSH2 0x20CC PUSH1 0xE0 DUP5 ADD DUP11 PUSH2 0x205E JUMP JUMPDEST DUP4 DUP2 SUB PUSH1 0x40 DUP6 ADD MSTORE PUSH2 0x20DE DUP2 DUP11 PUSH2 0x205E JUMP JUMPDEST PUSH1 0x60 DUP6 ADD DUP10 SWAP1 MSTORE PUSH1 0x1 PUSH1 0x1 PUSH1 0xA0 SHL SUB DUP9 AND PUSH1 0x80 DUP7 ADD MSTORE PUSH1 0xA0 DUP6 ADD DUP8 SWAP1 MSTORE DUP5 DUP2 SUB PUSH1 0xC0 DUP7 ADD MSTORE DUP6 MLOAD DUP1 DUP3 MSTORE DUP4 DUP8 ADD SWAP3 POP SWAP1 DUP4 ADD SWAP1 PUSH1 0x0 JUMPDEST DUP2 DUP2 LT ISZERO PUSH2 0x2130 JUMPI DUP4 MLOAD DUP4 MSTORE SWAP3 DUP5 ADD SWAP3 SWAP2 DUP5 ADD SWAP2 PUSH1 0x1 ADD PUSH2 0x2114 JUMP JUMPDEST POP SWAP1 SWAP13 SWAP12 POP POP POP POP POP POP POP POP POP POP POP POP JUMP JUMPDEST PUSH1 0x0 PUSH1 0x20 DUP3 DUP5 SUB SLT ISZERO PUSH2 0x2154 JUMPI PUSH1 0x0 DUP1 REVERT JUMPDEST POP CALLDATALOAD SWAP2 SWAP1 POP JUMP JUMPDEST DUP1 CALLDATALOAD PUSH1 0x1 PUSH1 0x1 PUSH1 0xA0 SHL SUB DUP2 AND DUP2 EQ PUSH2 0x1664 JUMPI PUSH1 0x0 DUP1 REVERT JUMPDEST PUSH1 0x0 DUP1 PUSH1 0x0 DUP1 PUSH1 0x0 PUSH1 0x80 DUP7 DUP9 SUB SLT ISZERO PUSH2 0x218A JUMPI PUSH1 0x0 DUP1 REVERT JUMPDEST PUSH2 0x2193 DUP7 PUSH2 0x215B JUMP JUMPDEST SWAP5 POP PUSH1 0x20 DUP7 ADD CALLDATALOAD SWAP4 POP PUSH2 0x21A8 PUSH1 0x40 DUP8 ADD PUSH2 0x215B JUMP JUMPDEST SWAP3 POP PUSH1 0x60 DUP7 ADD CALLDATALOAD PUSH1 0x1 PUSH1 0x1 PUSH1 0x40 SHL SUB DUP2 GT ISZERO PUSH2 0x21C3 JUMPI PUSH1 0x0 DUP1 REVERT JUMPDEST PUSH2 0x21CF DUP9 DUP3 DUP10 ADD PUSH2 0x1E14 JUMP JUMPDEST SWAP7 SWAP10 SWAP6 SWAP9 POP SWAP4 SWAP7 POP SWAP3 SWAP5 SWAP4 SWAP3 POP POP POP JUMP JUMPDEST PUSH1 0x0 PUSH1 0x20 DUP3 DUP5 SUB SLT ISZERO PUSH2 0x21F2 JUMPI PUSH1 0x0 DUP1 REVERT JUMPDEST PUSH2 0x1D7D DUP3 PUSH2 0x215B JUMP JUMPDEST PUSH1 0x0 DUP1 PUSH1 0x40 DUP4 DUP6 SUB SLT ISZERO PUSH2 0x220E JUMPI PUSH1 0x0 DUP1 REVERT JUMPDEST PUSH2 0x2217 DUP4 PUSH2 0x215B JUMP JUMPDEST SWAP2 POP PUSH2 0x2225 PUSH1 0x20 DUP5 ADD PUSH2 0x215B JUMP JUMPDEST SWAP1 POP SWAP3 POP SWAP3 SWAP1 POP JUMP JUMPDEST PUSH1 0x0 DUP1 PUSH1 0x40 DUP4 DUP6 SUB SLT ISZERO PUSH2 0x2241 JUMPI PUSH1 0x0 DUP1 REVERT JUMPDEST PUSH2 0x224A DUP4 PUSH2 0x215B JUMP JUMPDEST SWAP2 POP PUSH1 0x20 DUP4 ADD CALLDATALOAD PUSH1 0x1 PUSH1 0x1 PUSH1 0x40 SHL SUB DUP2 GT ISZERO PUSH2 0x2265 JUMPI PUSH1 0x0 DUP1 REVERT JUMPDEST PUSH2 0x2271 DUP6 DUP3 DUP7 ADD PUSH2 0x1D5D JUMP JUMPDEST SWAP2 POP POP SWAP3 POP SWAP3 SWAP1 POP JUMP JUMPDEST PUSH1 0x0 DUP1 PUSH1 0x40 DUP4 DUP6 SUB SLT ISZERO PUSH2 0x228E JUMPI PUSH1 0x0 DUP1 REVERT JUMPDEST PUSH2 0x2297 DUP4 PUSH2 0x215B JUMP JUMPDEST SWAP2 POP PUSH1 0x20 DUP4 ADD CALLDATALOAD DUP1 ISZERO ISZERO DUP2 EQ PUSH2 0x22AC JUMPI PUSH1 0x0 DUP1 REVERT JUMPDEST DUP1 SWAP2 POP POP SWAP3 POP SWAP3 SWAP1 POP JUMP JUMPDEST PUSH1 0x0 DUP1 PUSH1 0x40 DUP4 DUP6 SUB SLT ISZERO PUSH2 0x22CA JUMPI PUSH1 0x0 DUP1 REVERT JUMPDEST PUSH2 0x22D3 DUP4 PUSH2 0x1C60 JUMP JUMPDEST SWAP2 POP PUSH2 0x2225 PUSH1 0x20 DUP5 ADD PUSH2 0x1CE1 JUMP JUMPDEST PUSH1 0x0 DUP1 PUSH1 0x0 PUSH1 0x40 DUP5 DUP7 SUB SLT ISZERO PUSH2 0x22F6 JUMPI PUSH1 0x0 DUP1 REVERT JUMPDEST DUP4 CALLDATALOAD PUSH1 0x1 PUSH1 0x1 PUSH1 0x40 SHL SUB DUP1 DUP3 GT ISZERO PUSH2 0x230D JUMPI PUSH1 0x0 DUP1 REVERT JUMPDEST PUSH2 0x2319 DUP8 DUP4 DUP9 ADD PUSH2 0x1D84 JUMP JUMPDEST SWAP5 POP PUSH1 0x20 DUP7 ADD CALLDATALOAD SWAP2 POP DUP1 DUP3 GT ISZERO PUSH2 0x1F2C JUMPI PUSH1 0x0 DUP1 REVERT JUMPDEST PUSH4 0x4E487B71 PUSH1 0xE0 SHL PUSH1 0x0 MSTORE PUSH1 0x32 PUSH1 0x4 MSTORE PUSH1 0x24 PUSH1 0x0 REVERT JUMPDEST PUSH12 0xFFFFFFFFFFFFFFFFFFFFFFFF NOT DUP4 PUSH1 0x60 SHL AND DUP2 MSTORE PUSH1 0x0 DUP3 MLOAD PUSH2 0x236F DUP2 PUSH1 0x14 DUP6 ADD PUSH1 0x20 DUP8 ADD PUSH2 0x203A JUMP JUMPDEST SWAP2 SWAP1 SWAP2 ADD PUSH1 0x14 ADD SWAP4 SWAP3 POP POP POP JUMP JUMPDEST PUSH4 0x4E487B71 PUSH1 0xE0 SHL PUSH1 0x0 MSTORE PUSH1 0x12 PUSH1 0x4 MSTORE PUSH1 0x24 PUSH1 0x0 REVERT JUMPDEST PUSH1 0x0 PUSH1 0x1 PUSH1 0x1 PUSH1 0x40 SHL SUB DUP1 DUP5 AND DUP1 PUSH2 0x23AD JUMPI PUSH2 0x23AD PUSH2 0x237D JUMP JUMPDEST SWAP3 AND SWAP2 SWAP1 SWAP2 MOD SWAP3 SWAP2 POP POP JUMP JUMPDEST PUSH4 0x4E487B71 PUSH1 0xE0 SHL PUSH1 0x0 MSTORE PUSH1 0x11 PUSH1 0x4 MSTORE PUSH1 0x24 PUSH1 0x0 REVERT JUMPDEST PUSH1 0x0 PUSH1 0x1 PUSH1 0x1 PUSH1 0x40 SHL SUB DUP1 DUP5 AND DUP1 PUSH2 0x23E9 JUMPI PUSH2 0x23E9 PUSH2 0x237D JUMP JUMPDEST SWAP3 AND SWAP2 SWAP1 SWAP2 DIV SWAP3 SWAP2 POP POP JUMP JUMPDEST DUP3 DUP2 MSTORE PUSH1 0x40 PUSH1 0x20 DUP3 ADD MSTORE PUSH1 0x0 PUSH2 0x1F8E PUSH1 0x40 DUP4 ADD DUP5 PUSH2 0x205E JUMP JUMPDEST PUSH1 0x0 PUSH1 0x20 DUP3 DUP5 SUB SLT ISZERO PUSH2 0x2420 JUMPI PUSH1 0x0 DUP1 REVERT JUMPDEST DUP2 MLOAD PUSH1 0x1 PUSH1 0x1 PUSH1 0x40 SHL SUB DUP2 GT ISZERO PUSH2 0x2436 JUMPI PUSH1 0x0 DUP1 REVERT JUMPDEST DUP3 ADD PUSH1 0x1F DUP2 ADD DUP5 SGT PUSH2 0x2447 JUMPI PUSH1 0x0 DUP1 REVERT JUMPDEST DUP1 MLOAD PUSH2 0x2455 PUSH2 0x1D2D DUP3 PUSH2 0x1CF8 JUMP JUMPDEST DUP2 DUP2 MSTORE DUP6 PUSH1 0x20 DUP4 DUP6 ADD ADD GT ISZERO PUSH2 0x246A JUMPI PUSH1 0x0 DUP1 REVERT JUMPDEST PUSH2 0x247B DUP3 PUSH1 0x20 DUP4 ADD PUSH1 0x20 DUP7 ADD PUSH2 0x203A JUMP JUMPDEST SWAP6 SWAP5 POP POP POP POP POP JUMP JUMPDEST PUSH1 0x60 DUP2 MSTORE PUSH1 0x0 PUSH2 0x2497 PUSH1 0x60 DUP4 ADD DUP7 PUSH2 0x205E JUMP JUMPDEST SWAP1 POP PUSH1 0xFF DUP5 AND PUSH1 0x20 DUP4 ADD MSTORE PUSH1 0x1 PUSH1 0x1 PUSH1 0x40 SHL SUB DUP4 AND PUSH1 0x40 DUP4 ADD MSTORE SWAP5 SWAP4 POP POP POP POP JUMP JUMPDEST PUSH1 0xFF DUP6 AND DUP2 MSTORE PUSH1 0x1 PUSH1 0x1 PUSH1 0x40 SHL SUB DUP5 AND PUSH1 0x20 DUP3 ADD MSTORE DUP3 PUSH1 0x40 DUP3 ADD MSTORE PUSH1 0x80 PUSH1 0x60 DUP3 ADD MSTORE PUSH1 0x0 PUSH2 0x24EA PUSH1 0x80 DUP4 ADD DUP5 PUSH2 0x205E JUMP JUMPDEST SWAP7 SWAP6 POP POP POP POP POP POP JUMP JUMPDEST PUSH1 0x0 PUSH1 0x1 DUP3 ADD PUSH2 0x2506 JUMPI PUSH2 0x2506 PUSH2 0x23B9 JUMP JUMPDEST POP PUSH1 0x1 ADD SWAP1 JUMP JUMPDEST PUSH1 0x20 DUP2 MSTORE PUSH1 0x0 PUSH2 0x1D7D PUSH1 0x20 DUP4 ADD DUP5 PUSH2 0x205E JUMP JUMPDEST DUP2 DUP4 MSTORE DUP2 DUP2 PUSH1 0x20 DUP6 ADD CALLDATACOPY POP PUSH1 0x0 DUP3 DUP3 ADD PUSH1 0x20 SWAP1 DUP2 ADD SWAP2 SWAP1 SWAP2 MSTORE PUSH1 0x1F SWAP1 SWAP2 ADD PUSH1 0x1F NOT AND SWAP1 SWAP2 ADD ADD SWAP1 JUMP JUMPDEST PUSH1 0x1 DUP1 PUSH1 0xA0 SHL SUB DUP10 AND DUP2 MSTORE PUSH1 0xFF DUP9 AND PUSH1 0x20 DUP3 ADD MSTORE PUSH1 0xFF DUP8 AND PUSH1 0x40 DUP3 ADD MSTORE DUP6 PUSH1 0x60 DUP3 ADD MSTORE PUSH1 0xC0 PUSH1 0x80 DUP3 ADD MSTORE PUSH1 0x0 PUSH2 0x2583 PUSH1 0xC0 DUP4 ADD DUP7 DUP9 PUSH2 0x2520 JUMP JUMPDEST DUP3 DUP2 SUB PUSH1 0xA0 DUP5 ADD MSTORE PUSH2 0x2596 DUP2 DUP6 DUP8 PUSH2 0x2520 JUMP JUMPDEST SWAP12 SWAP11 POP POP POP POP POP POP POP POP POP POP POP JUMP JUMPDEST PUSH1 0x0 PUSH1 0x1 PUSH1 0x1 PUSH1 0x40 SHL SUB DUP1 DUP4 AND DUP2 DUP2 SUB PUSH2 0x25C1 JUMPI PUSH2 0x25C1 PUSH2 0x23B9 JUMP JUMPDEST PUSH1 0x1 ADD SWAP4 SWAP3 POP POP POP JUMP JUMPDEST DUP5 DUP2 MSTORE PUSH1 0x1 PUSH1 0x1 PUSH1 0xA0 SHL SUB DUP5 AND PUSH1 0x20 DUP3 ADD MSTORE PUSH1 0x60 PUSH1 0x40 DUP3 ADD DUP2 SWAP1 MSTORE PUSH1 0x0 SWAP1 PUSH2 0x24EA SWAP1 DUP4 ADD DUP5 DUP7 PUSH2 0x2520 JUMP JUMPDEST PUSH1 0xFF DUP8 AND DUP2 MSTORE DUP6 PUSH1 0x20 DUP3 ADD MSTORE PUSH1 0x1 PUSH1 0x1 PUSH1 0x40 SHL SUB DUP6 AND PUSH1 0x40 DUP3 ADD MSTORE PUSH1 0xA0 PUSH1 0x60 DUP3 ADD MSTORE PUSH1 0x0 PUSH2 0x2628 PUSH1 0xA0 DUP4 ADD DUP6 DUP8 PUSH2 0x2520 JUMP JUMPDEST DUP3 DUP2 SUB PUSH1 0x80 DUP5 ADD MSTORE PUSH2 0x263A DUP2 DUP6 PUSH2 0x205E JUMP JUMPDEST SWAP10 SWAP9 POP POP POP POP POP POP POP POP POP JUMP JUMPDEST PUSH1 0x0 DUP3 PUSH2 0x2656 JUMPI PUSH2 0x2656 PUSH2 0x237D JUMP JUMPDEST POP MOD SWAP1 JUMP JUMPDEST PUSH1 0x0 DUP3 PUSH2 0x266A JUMPI PUSH2 0x266A PUSH2 0x237D JUMP JUMPDEST POP DIV SWAP1 JUMP JUMPDEST DUP2 MLOAD PUSH1 0x0 SWAP1 DUP3 SWAP1 PUSH1 0x20 DUP1 DUP7 ADD DUP5 JUMPDEST DUP4 DUP2 LT ISZERO PUSH2 0x2699 JUMPI DUP2 MLOAD DUP6 MSTORE SWAP4 DUP3 ADD SWAP4 SWAP1 DUP3 ADD SWAP1 PUSH1 0x1 ADD PUSH2 0x267D JUMP JUMPDEST POP SWAP3 SWAP7 SWAP6 POP POP POP POP POP POP JUMP JUMPDEST PUSH1 0x1 DUP2 DUP2 SHR SWAP1 DUP3 AND DUP1 PUSH2 0x26B9 JUMPI PUSH1 0x7F DUP3 AND SWAP2 POP JUMPDEST PUSH1 0x20 DUP3 LT DUP2 SUB PUSH2 0x26D9 JUMPI PUSH4 0x4E487B71 PUSH1 0xE0 SHL PUSH1 0x0 MSTORE PUSH1 0x22 PUSH1 0x4 MSTORE PUSH1 0x24 PUSH1 0x0 REVERT JUMPDEST POP SWAP2 SWAP1 POP JUMP JUMPDEST PUSH4 0x4E487B71 PUSH1 0xE0 SHL PUSH1 0x0 MSTORE PUSH1 0x21 PUSH1 0x4 MSTORE PUSH1 0x24 PUSH1 0x0 REVERT INVALID LOG2 PUSH5 0x6970667358 0x22 SLT KECCAK256 DUP1 MLOAD 0xE3 0xFC SUB GASLIMIT 0x28 BYTE PUSH26 0x3C32B90E4049192D46881F33C6C230E0816876B296520464736F PUSH13 0x63430008140033000000000000 "},"methodIdentifiers":{"_MPCAddress()":"059972d2","_depositCounts(uint8)":"4b0b919d","_domainID()":"9dd694f4","_feeHandler()":"fe4648f4","_resourceIDToHandlerAddress(bytes32)":"84db809f","adminChangeAccessControl(address)":"9d33b6d4","adminChangeFeeHandler(address)":"8b63aebf","adminPauseTransfers()":"80ae1c28","adminSetBurnable(address,address)":"8c0c2631","adminSetDepositNonce(uint8,uint64)":"edc20c3c","adminSetForwarder(address,bool)":"d15ef64e","adminSetResource(address,bytes32,address,bytes)":"8a3234c7","adminUnpauseTransfers()":"ffaac0eb","adminWithdraw(address,bytes)":"bd2a1820","deposit(uint8,bytes32,bytes,bytes)":"73c45c98","eip712Domain()":"84b0196e","endKeygen(address)":"d2e5fae9","withdraw((uint8,uint64,bytes32,bytes),bytes)":"f0ead51e","withdraws((uint8,uint64,bytes32,bytes)[],bytes)":"1f5c64c1","isProposalExecuted(uint8,uint256)":"9ae0bf45","isValidForwarder(address)":"f8c39e44","paused()":"5c975abb","refreshKey(string)":"d8236744","retry(string)":"366b4885","startKeygen()":"6ba6db6b","usedNonces(uint8,uint256)":"08a64104","verify((uint8,uint64,bytes32,bytes)[],bytes)":"a546e8a1"}},"storageLayout":{"storage":[{"astId":6584,"contract":"contracts/Bridge.sol:Bridge","label":"_paused","offset":0,"slot":"0","type":"t_bool"},{"astId":2076,"contract":"contracts/Bridge.sol:Bridge","label":"_nameFallback","offset":0,"slot":"1","type":"t_string_storage"},{"astId":2078,"contract":"contracts/Bridge.sol:Bridge","label":"_versionFallback","offset":0,"slot":"2","type":"t_string_storage"},{"astId":4143,"contract":"contracts/Bridge.sol:Bridge","label":"owner","offset":0,"slot":"3","type":"t_address"},{"astId":4147,"contract":"contracts/Bridge.sol:Bridge","label":"_MPCAddress","offset":0,"slot":"4","type":"t_address"},{"astId":4150,"contract":"contracts/Bridge.sol:Bridge","label":"_feeHandler","offset":0,"slot":"5","type":"t_contract(IFeeHandler)6031"},{"astId":4163,"contract":"contracts/Bridge.sol:Bridge","label":"_depositCounts","offset":0,"slot":"6","type":"t_mapping(t_uint8,t_uint64)"},{"astId":4167,"contract":"contracts/Bridge.sol:Bridge","label":"_resourceIDToHandlerAddress","offset":0,"slot":"7","type":"t_mapping(t_bytes32,t_address)"},{"astId":4171,"contract":"contracts/Bridge.sol:Bridge","label":"isValidForwarder","offset":0,"slot":"8","type":"t_mapping(t_address,t_bool)"},{"astId":4177,"contract":"contracts/Bridge.sol:Bridge","label":"usedNonces","offset":0,"slot":"9","type":"t_mapping(t_uint8,t_mapping(t_uint256,t_uint256))"}],"types":{"t_address":{"encoding":"inplace","label":"address","numberOfBytes":"20"},"t_bool":{"encoding":"inplace","label":"bool","numberOfBytes":"1"},"t_bytes32":{"encoding":"inplace","label":"bytes32","numberOfBytes":"32"},"t_contract(IFeeHandler)6031":{"encoding":"inplace","label":"contract IFeeHandler","numberOfBytes":"20"},"t_mapping(t_address,t_bool)":{"encoding":"mapping","key":"t_address","label":"mapping(address => bool)","numberOfBytes":"32","value":"t_bool"},"t_mapping(t_bytes32,t_address)":{"encoding":"mapping","key":"t_bytes32","label":"mapping(bytes32 => address)","numberOfBytes":"32","value":"t_address"},"t_mapping(t_uint256,t_uint256)":{"encoding":"mapping","key":"t_uint256","label":"mapping(uint256 => uint256)","numberOfBytes":"32","value":"t_uint256"},"t_mapping(t_uint8,t_mapping(t_uint256,t_uint256))":{"encoding":"mapping","key":"t_uint8","label":"mapping(uint8 => mapping(uint256 => uint256))","numberOfBytes":"32","value":"t_mapping(t_uint256,t_uint256)"},"t_mapping(t_uint8,t_uint64)":{"encoding":"mapping","key":"t_uint8","label":"mapping(uint8 => uint64)","numberOfBytes":"32","value":"t_uint64"},"t_string_storage":{"encoding":"bytes","label":"string","numberOfBytes":"32"},"t_uint256":{"encoding":"inplace","label":"uint256","numberOfBytes":"32"},"t_uint64":{"encoding":"inplace","label":"uint64","numberOfBytes":"8"},"t_uint8":{"encoding":"inplace","label":"uint8","numberOfBytes":"1"}}}}}}