{"contracts/BridgeOUT.sol":{"BridgeOUT":{"abi":[{"inputs":[],"stateMutability":"nonpayable","type":"constructor"},{"inputs":[{"internalType":"address","name":"owner","type":"address"}],"name":"OwnableInvalidOwner","type":"error"},{"inputs":[{"internalType":"address","name":"account","type":"address"}],"name":"OwnableUnauthorizedAccount","type":"error"},{"anonymous":false,"inputs":[{"indexed":false,"internalType":"address","name":"tokenAddress","type":"address"},{"indexed":false,"internalType":"address","name":"recipient","type":"address"},{"indexed":false,"internalType":"uint256","name":"amount","type":"uint256"}],"name":"Deposit","type":"event"},{"anonymous":false,"inputs":[{"indexed":true,"internalType":"address","name":"previousOwner","type":"address"},{"indexed":true,"internalType":"address","name":"newOwner","type":"address"}],"name":"OwnershipTransferred","type":"event"},{"anonymous":false,"inputs":[{"indexed":false,"internalType":"address","name":"tokenAddress","type":"address"},{"indexed":false,"internalType":"address","name":"recipientAddress","type":"address"},{"indexed":false,"internalType":"uint256","name":"amount","type":"uint256"},{"indexed":false,"internalType":"uint256","name":"nonce","type":"uint256"}],"name":"Withdraw","type":"event"},{"inputs":[{"internalType":"address","name":"token","type":"address"},{"internalType":"uint256","name":"amount","type":"uint256"},{"internalType":"uint256","name":"depositNonce","type":"uint256"},{"internalType":"address","name":"user","type":"address"}],"name":"deposit","outputs":[],"stateMutability":"nonpayable","type":"function"},{"inputs":[],"name":"erc20Handler","outputs":[{"internalType":"address","name":"","type":"address"}],"stateMutability":"view","type":"function"},{"inputs":[],"name":"owner","outputs":[{"internalType":"address","name":"","type":"address"}],"stateMutability":"view","type":"function"},{"inputs":[],"name":"renounceOwnership","outputs":[],"stateMutability":"nonpayable","type":"function"},{"inputs":[{"internalType":"address","name":"_handler","type":"address"}],"name":"setHandler","outputs":[],"stateMutability":"nonpayable","type":"function"},{"inputs":[{"internalType":"address","name":"_token","type":"address"},{"internalType":"bool","name":"_isBurnable","type":"bool"},{"internalType":"bool","name":"_isWhitelisted","type":"bool"},{"internalType":"address","name":"_erc20Pair","type":"address"}],"name":"setToken","outputs":[],"stateMutability":"nonpayable","type":"function"},{"inputs":[{"internalType":"address","name":"_validator","type":"address"}],"name":"setValidator","outputs":[],"stateMutability":"nonpayable","type":"function"},{"inputs":[{"internalType":"address","name":"newOwner","type":"address"}],"name":"transferOwnership","outputs":[],"stateMutability":"nonpayable","type":"function"},{"inputs":[],"name":"validatorstNonce","outputs":[{"internalType":"uint256","name":"","type":"uint256"}],"stateMutability":"view","type":"function"},{"inputs":[{"internalType":"address","name":"tokenAddress","type":"address"},{"internalType":"address","name":"recipientAddress","type":"address"},{"internalType":"uint256","name":"amount","type":"uint256"}],"name":"withdraw","outputs":[],"stateMutability":"nonpayable","type":"function"},{"inputs":[],"name":"withdrawNonce","outputs":[{"internalType":"uint256","name":"","type":"uint256"}],"stateMutability":"view","type":"function"}],"evm":{"bytecode":{"linkReferences":{},"object":"608060405234801561001057600080fd5b50338061003757604051631e4fbdf760e01b81526000600482015260240160405180910390fd5b61004081610046565b50610096565b600080546001600160a01b038381166001600160a01b0319831681178455604051919092169283917f8be0079c531659141344cd1fd0a4f28419497f9722a3daafe3b4186f6b6457e09190a35050565b6108cc806100a56000396000f3fe608060405234801561001057600080fd5b50600436106100a95760003560e01c8063aa86475d11610071578063aa86475d1461011f578063b8a4e15114610132578063bac426d014610149578063d9caed121461015c578063f2fde38b1461016f578063f9a721c71461018257600080fd5b80631327d3d8146100ae5780631cb9e262146100c3578063715018a6146100f35780638b6099db146100fb5780638da5cb5b1461010e575b600080fd5b6100c16100bc36600461071b565b61018b565b005b6003546100d6906001600160a01b031681565b6040516001600160a01b0390911681526020015b60405180910390f35b6100c16101cc565b6100c161010936600461073f565b6101e0565b6000546001600160a01b03166100d6565b6100c161012d36600461079e565b6103fc565b61013b60015481565b6040519081526020016100ea565b6100c161015736600461071b565b6104ba565b6100c161016a3660046107eb565b6104e4565b6100c161017d36600461071b565b6105ec565b61013b60025481565b61019361062a565b600280549060006101a38361082c565b90915550506001600160a01b03166000908152600460205260409020805460ff19166001179055565b6101d461062a565b6101de6000610657565b565b6101e86106a7565b60008281526005602052604090205460ff16156102435760405162461bcd60e51b8152602060048201526014602482015273141c9bdc1bdcd85b081a5cc8195e1958dd5d195960621b60448201526064015b60405180910390fd5b60008281526005602052604081206001015490036102af5760008281526005602081905260409091206002810180546001600160a01b038089166001600160a01b0319928316179092556003830187905560048301869055919092018054928416929091169190911790555b60008281526005602052604081206001018054916102cc8361082c565b9091555050600254600083815260056020526040902060010154106103f6576000828152600560209081526040808320805460ff191660011790556001600160a01b0387811684526006909252808320546003549151638340f54960e01b815290831660048201819052858416602483015260448201889052939190921691819081908490638340f549906064016060604051808303816000875af1158015610379573d6000803e3d6000fd5b505050506040513d601f19601f8201168201806040525081019061039d9190610853565b604080516001600160a01b0380861682528416602082015290810182905292955090935091507f5548c837ab068cf56a2c2479df0882a4922fd203edb7517321831d95078c5f629060600160405180910390a150505050505b50505050565b61040461062a565b6003546001600160a01b03828116600081815260066020908152604080832080548b87166001600160a01b03199182168117909255818552600790935292819020805490921690931790559051630243897960e01b81526004810191909152851515602482015284151560448201529116908190630243897990606401600060405180830381600087803b15801561049b57600080fd5b505af11580156104af573d6000803e3d6000fd5b505050505050505050565b6104c261062a565b600380546001600160a01b0319166001600160a01b0392909216919091179055565b600180549060006104f48361082c565b9091555050600354604051632d182be560e21b8152600481018390526001600160a01b03858116602483015233604483015290911690819063b460af94906064016060604051808303816000875af1158015610554573d6000803e3d6000fd5b505050506040513d601f19601f820116820180604052508101906105789190610853565b5050506001600160a01b038481166000908152600760209081526040918290205460015483519185168252938716918101919091528082018590526060810192909252517ff341246adaac6f497bc2a656f546ab9e182111d630394f0c57c710a59a2cb5679181900360800190a150505050565b6105f461062a565b6001600160a01b03811661061e57604051631e4fbdf760e01b81526000600482015260240161023a565b61062781610657565b50565b6000546001600160a01b031633146101de5760405163118cdaa760e01b815233600482015260240161023a565b600080546001600160a01b038381166001600160a01b0319831681178455604051919092169283917f8be0079c531659141344cd1fd0a4f28419497f9722a3daafe3b4186f6b6457e09190a35050565b3360009081526004602052604090205460ff166101de5760405162461bcd60e51b815260206004820152601a60248201527f73656e646572206d75737420626520612076616c696461746f72000000000000604482015260640161023a565b6001600160a01b038116811461062757600080fd5b60006020828403121561072d57600080fd5b813561073881610706565b9392505050565b6000806000806080858703121561075557600080fd5b843561076081610706565b93506020850135925060408501359150606085013561077e81610706565b939692955090935050565b8035801515811461079957600080fd5b919050565b600080600080608085870312156107b457600080fd5b84356107bf81610706565b93506107cd60208601610789565b92506107db60408601610789565b9150606085013561077e81610706565b60008060006060848603121561080057600080fd5b833561080b81610706565b9250602084013561081b81610706565b929592945050506040919091013590565b60006001820161084c57634e487b7160e01b600052601160045260246000fd5b5060010190565b60008060006060848603121561086857600080fd5b835161087381610706565b602085015190935061088481610706565b8092505060408401519050925092509256fea264697066735822122039332df4dc6a132e373d7ccf1d0176addd054422eadebef2d9f83aef7595ba9c64736f6c63430008140033","opcodes":"PUSH1 0x80 PUSH1 0x40 MSTORE CALLVALUE DUP1 ISZERO PUSH2 0x10 JUMPI PUSH1 0x0 DUP1 REVERT JUMPDEST POP CALLER DUP1 PUSH2 0x37 JUMPI PUSH1 0x40 MLOAD PUSH4 0x1E4FBDF7 PUSH1 0xE0 SHL DUP2 MSTORE PUSH1 0x0 PUSH1 0x4 DUP3 ADD MSTORE PUSH1 0x24 ADD PUSH1 0x40 MLOAD DUP1 SWAP2 SUB SWAP1 REVERT JUMPDEST PUSH2 0x40 DUP2 PUSH2 0x46 JUMP JUMPDEST POP PUSH2 0x96 JUMP JUMPDEST PUSH1 0x0 DUP1 SLOAD PUSH1 0x1 PUSH1 0x1 PUSH1 0xA0 SHL SUB DUP4 DUP2 AND PUSH1 0x1 PUSH1 0x1 PUSH1 0xA0 SHL SUB NOT DUP4 AND DUP2 OR DUP5 SSTORE PUSH1 0x40 MLOAD SWAP2 SWAP1 SWAP3 AND SWAP3 DUP4 SWAP2 PUSH32 0x8BE0079C531659141344CD1FD0A4F28419497F9722A3DAAFE3B4186F6B6457E0 SWAP2 SWAP1 LOG3 POP POP JUMP JUMPDEST PUSH2 0x8CC DUP1 PUSH2 0xA5 PUSH1 0x0 CODECOPY PUSH1 0x0 RETURN INVALID PUSH1 0x80 PUSH1 0x40 MSTORE CALLVALUE DUP1 ISZERO PUSH2 0x10 JUMPI PUSH1 0x0 DUP1 REVERT JUMPDEST POP PUSH1 0x4 CALLDATASIZE LT PUSH2 0xA9 JUMPI PUSH1 0x0 CALLDATALOAD PUSH1 0xE0 SHR DUP1 PUSH4 0xAA86475D GT PUSH2 0x71 JUMPI DUP1 PUSH4 0xAA86475D EQ PUSH2 0x11F JUMPI DUP1 PUSH4 0xB8A4E151 EQ PUSH2 0x132 JUMPI DUP1 PUSH4 0xBAC426D0 EQ PUSH2 0x149 JUMPI DUP1 PUSH4 0xD9CAED12 EQ PUSH2 0x15C JUMPI DUP1 PUSH4 0xF2FDE38B EQ PUSH2 0x16F JUMPI DUP1 PUSH4 0xF9A721C7 EQ PUSH2 0x182 JUMPI PUSH1 0x0 DUP1 REVERT JUMPDEST DUP1 PUSH4 0x1327D3D8 EQ PUSH2 0xAE JUMPI DUP1 PUSH4 0x1CB9E262 EQ PUSH2 0xC3 JUMPI DUP1 PUSH4 0x715018A6 EQ PUSH2 0xF3 JUMPI DUP1 PUSH4 0x8B6099DB EQ PUSH2 0xFB JUMPI DUP1 PUSH4 0x8DA5CB5B EQ PUSH2 0x10E JUMPI JUMPDEST PUSH1 0x0 DUP1 REVERT JUMPDEST PUSH2 0xC1 PUSH2 0xBC CALLDATASIZE PUSH1 0x4 PUSH2 0x71B JUMP JUMPDEST PUSH2 0x18B JUMP JUMPDEST STOP JUMPDEST PUSH1 0x3 SLOAD PUSH2 0xD6 SWAP1 PUSH1 0x1 PUSH1 0x1 PUSH1 0xA0 SHL SUB AND DUP2 JUMP JUMPDEST PUSH1 0x40 MLOAD PUSH1 0x1 PUSH1 0x1 PUSH1 0xA0 SHL SUB SWAP1 SWAP2 AND DUP2 MSTORE PUSH1 0x20 ADD JUMPDEST PUSH1 0x40 MLOAD DUP1 SWAP2 SUB SWAP1 RETURN JUMPDEST PUSH2 0xC1 PUSH2 0x1CC JUMP JUMPDEST PUSH2 0xC1 PUSH2 0x109 CALLDATASIZE PUSH1 0x4 PUSH2 0x73F JUMP JUMPDEST PUSH2 0x1E0 JUMP JUMPDEST PUSH1 0x0 SLOAD PUSH1 0x1 PUSH1 0x1 PUSH1 0xA0 SHL SUB AND PUSH2 0xD6 JUMP JUMPDEST PUSH2 0xC1 PUSH2 0x12D CALLDATASIZE PUSH1 0x4 PUSH2 0x79E JUMP JUMPDEST PUSH2 0x3FC JUMP JUMPDEST PUSH2 0x13B PUSH1 0x1 SLOAD DUP2 JUMP JUMPDEST PUSH1 0x40 MLOAD SWAP1 DUP2 MSTORE PUSH1 0x20 ADD PUSH2 0xEA JUMP JUMPDEST PUSH2 0xC1 PUSH2 0x157 CALLDATASIZE PUSH1 0x4 PUSH2 0x71B JUMP JUMPDEST PUSH2 0x4BA JUMP JUMPDEST PUSH2 0xC1 PUSH2 0x16A CALLDATASIZE PUSH1 0x4 PUSH2 0x7EB JUMP JUMPDEST PUSH2 0x4E4 JUMP JUMPDEST PUSH2 0xC1 PUSH2 0x17D CALLDATASIZE PUSH1 0x4 PUSH2 0x71B JUMP JUMPDEST PUSH2 0x5EC JUMP JUMPDEST PUSH2 0x13B PUSH1 0x2 SLOAD DUP2 JUMP JUMPDEST PUSH2 0x193 PUSH2 0x62A JUMP JUMPDEST PUSH1 0x2 DUP1 SLOAD SWAP1 PUSH1 0x0 PUSH2 0x1A3 DUP4 PUSH2 0x82C JUMP JUMPDEST SWAP1 SWAP2 SSTORE POP POP PUSH1 0x1 PUSH1 0x1 PUSH1 0xA0 SHL SUB AND PUSH1 0x0 SWAP1 DUP2 MSTORE PUSH1 0x4 PUSH1 0x20 MSTORE PUSH1 0x40 SWAP1 KECCAK256 DUP1 SLOAD PUSH1 0xFF NOT AND PUSH1 0x1 OR SWAP1 SSTORE JUMP JUMPDEST PUSH2 0x1D4 PUSH2 0x62A JUMP JUMPDEST PUSH2 0x1DE PUSH1 0x0 PUSH2 0x657 JUMP JUMPDEST JUMP JUMPDEST PUSH2 0x1E8 PUSH2 0x6A7 JUMP JUMPDEST PUSH1 0x0 DUP3 DUP2 MSTORE PUSH1 0x5 PUSH1 0x20 MSTORE PUSH1 0x40 SWAP1 KECCAK256 SLOAD PUSH1 0xFF AND ISZERO PUSH2 0x243 JUMPI PUSH1 0x40 MLOAD PUSH3 0x461BCD PUSH1 0xE5 SHL DUP2 MSTORE PUSH1 0x20 PUSH1 0x4 DUP3 ADD MSTORE PUSH1 0x14 PUSH1 0x24 DUP3 ADD MSTORE PUSH20 0x141C9BDC1BDCD85B081A5CC8195E1958DD5D1959 PUSH1 0x62 SHL PUSH1 0x44 DUP3 ADD MSTORE PUSH1 0x64 ADD JUMPDEST PUSH1 0x40 MLOAD DUP1 SWAP2 SUB SWAP1 REVERT JUMPDEST PUSH1 0x0 DUP3 DUP2 MSTORE PUSH1 0x5 PUSH1 0x20 MSTORE PUSH1 0x40 DUP2 KECCAK256 PUSH1 0x1 ADD SLOAD SWAP1 SUB PUSH2 0x2AF JUMPI PUSH1 0x0 DUP3 DUP2 MSTORE PUSH1 0x5 PUSH1 0x20 DUP2 SWAP1 MSTORE PUSH1 0x40 SWAP1 SWAP2 KECCAK256 PUSH1 0x2 DUP2 ADD DUP1 SLOAD PUSH1 0x1 PUSH1 0x1 PUSH1 0xA0 SHL SUB DUP1 DUP10 AND PUSH1 0x1 PUSH1 0x1 PUSH1 0xA0 SHL SUB NOT SWAP3 DUP4 AND OR SWAP1 SWAP3 SSTORE PUSH1 0x3 DUP4 ADD DUP8 SWAP1 SSTORE PUSH1 0x4 DUP4 ADD DUP7 SWAP1 SSTORE SWAP2 SWAP1 SWAP3 ADD DUP1 SLOAD SWAP3 DUP5 AND SWAP3 SWAP1 SWAP2 AND SWAP2 SWAP1 SWAP2 OR SWAP1 SSTORE JUMPDEST PUSH1 0x0 DUP3 DUP2 MSTORE PUSH1 0x5 PUSH1 0x20 MSTORE PUSH1 0x40 DUP2 KECCAK256 PUSH1 0x1 ADD DUP1 SLOAD SWAP2 PUSH2 0x2CC DUP4 PUSH2 0x82C JUMP JUMPDEST SWAP1 SWAP2 SSTORE POP POP PUSH1 0x2 SLOAD PUSH1 0x0 DUP4 DUP2 MSTORE PUSH1 0x5 PUSH1 0x20 MSTORE PUSH1 0x40 SWAP1 KECCAK256 PUSH1 0x1 ADD SLOAD LT PUSH2 0x3F6 JUMPI PUSH1 0x0 DUP3 DUP2 MSTORE PUSH1 0x5 PUSH1 0x20 SWAP1 DUP2 MSTORE PUSH1 0x40 DUP1 DUP4 KECCAK256 DUP1 SLOAD PUSH1 0xFF NOT AND PUSH1 0x1 OR SWAP1 SSTORE PUSH1 0x1 PUSH1 0x1 PUSH1 0xA0 SHL SUB DUP8 DUP2 AND DUP5 MSTORE PUSH1 0x6 SWAP1 SWAP3 MSTORE DUP1 DUP4 KECCAK256 SLOAD PUSH1 0x3 SLOAD SWAP2 MLOAD PUSH4 0x8340F549 PUSH1 0xE0 SHL DUP2 MSTORE SWAP1 DUP4 AND PUSH1 0x4 DUP3 ADD DUP2 SWAP1 MSTORE DUP6 DUP5 AND PUSH1 0x24 DUP4 ADD MSTORE PUSH1 0x44 DUP3 ADD DUP9 SWAP1 MSTORE SWAP4 SWAP2 SWAP1 SWAP3 AND SWAP2 DUP2 SWAP1 DUP2 SWAP1 DUP5 SWAP1 PUSH4 0x8340F549 SWAP1 PUSH1 0x64 ADD PUSH1 0x60 PUSH1 0x40 MLOAD DUP1 DUP4 SUB DUP2 PUSH1 0x0 DUP8 GAS CALL ISZERO DUP1 ISZERO PUSH2 0x379 JUMPI RETURNDATASIZE PUSH1 0x0 DUP1 RETURNDATACOPY RETURNDATASIZE PUSH1 0x0 REVERT JUMPDEST POP POP POP POP PUSH1 0x40 MLOAD RETURNDATASIZE PUSH1 0x1F NOT PUSH1 0x1F DUP3 ADD AND DUP3 ADD DUP1 PUSH1 0x40 MSTORE POP DUP2 ADD SWAP1 PUSH2 0x39D SWAP2 SWAP1 PUSH2 0x853 JUMP JUMPDEST PUSH1 0x40 DUP1 MLOAD PUSH1 0x1 PUSH1 0x1 PUSH1 0xA0 SHL SUB DUP1 DUP7 AND DUP3 MSTORE DUP5 AND PUSH1 0x20 DUP3 ADD MSTORE SWAP1 DUP2 ADD DUP3 SWAP1 MSTORE SWAP3 SWAP6 POP SWAP1 SWAP4 POP SWAP2 POP PUSH32 0x5548C837AB068CF56A2C2479DF0882A4922FD203EDB7517321831D95078C5F62 SWAP1 PUSH1 0x60 ADD PUSH1 0x40 MLOAD DUP1 SWAP2 SUB SWAP1 LOG1 POP POP POP POP POP JUMPDEST POP POP POP POP JUMP JUMPDEST PUSH2 0x404 PUSH2 0x62A JUMP JUMPDEST PUSH1 0x3 SLOAD PUSH1 0x1 PUSH1 0x1 PUSH1 0xA0 SHL SUB DUP3 DUP2 AND PUSH1 0x0 DUP2 DUP2 MSTORE PUSH1 0x6 PUSH1 0x20 SWAP1 DUP2 MSTORE PUSH1 0x40 DUP1 DUP4 KECCAK256 DUP1 SLOAD DUP12 DUP8 AND PUSH1 0x1 PUSH1 0x1 PUSH1 0xA0 SHL SUB NOT SWAP2 DUP3 AND DUP2 OR SWAP1 SWAP3 SSTORE DUP2 DUP6 MSTORE PUSH1 0x7 SWAP1 SWAP4 MSTORE SWAP3 DUP2 SWAP1 KECCAK256 DUP1 SLOAD SWAP1 SWAP3 AND SWAP1 SWAP4 OR SWAP1 SSTORE SWAP1 MLOAD PUSH4 0x2438979 PUSH1 0xE0 SHL DUP2 MSTORE PUSH1 0x4 DUP2 ADD SWAP2 SWAP1 SWAP2 MSTORE DUP6 ISZERO ISZERO PUSH1 0x24 DUP3 ADD MSTORE DUP5 ISZERO ISZERO PUSH1 0x44 DUP3 ADD MSTORE SWAP2 AND SWAP1 DUP2 SWAP1 PUSH4 0x2438979 SWAP1 PUSH1 0x64 ADD PUSH1 0x0 PUSH1 0x40 MLOAD DUP1 DUP4 SUB DUP2 PUSH1 0x0 DUP8 DUP1 EXTCODESIZE ISZERO DUP1 ISZERO PUSH2 0x49B JUMPI PUSH1 0x0 DUP1 REVERT JUMPDEST POP GAS CALL ISZERO DUP1 ISZERO PUSH2 0x4AF JUMPI RETURNDATASIZE PUSH1 0x0 DUP1 RETURNDATACOPY RETURNDATASIZE PUSH1 0x0 REVERT JUMPDEST POP POP POP POP POP POP POP POP POP JUMP JUMPDEST PUSH2 0x4C2 PUSH2 0x62A JUMP JUMPDEST PUSH1 0x3 DUP1 SLOAD PUSH1 0x1 PUSH1 0x1 PUSH1 0xA0 SHL SUB NOT AND PUSH1 0x1 PUSH1 0x1 PUSH1 0xA0 SHL SUB SWAP3 SWAP1 SWAP3 AND SWAP2 SWAP1 SWAP2 OR SWAP1 SSTORE JUMP JUMPDEST PUSH1 0x1 DUP1 SLOAD SWAP1 PUSH1 0x0 PUSH2 0x4F4 DUP4 PUSH2 0x82C JUMP JUMPDEST SWAP1 SWAP2 SSTORE POP POP PUSH1 0x3 SLOAD PUSH1 0x40 MLOAD PUSH4 0x2D182BE5 PUSH1 0xE2 SHL DUP2 MSTORE PUSH1 0x4 DUP2 ADD DUP4 SWAP1 MSTORE PUSH1 0x1 PUSH1 0x1 PUSH1 0xA0 SHL SUB DUP6 DUP2 AND PUSH1 0x24 DUP4 ADD MSTORE CALLER PUSH1 0x44 DUP4 ADD MSTORE SWAP1 SWAP2 AND SWAP1 DUP2 SWAP1 PUSH4 0xB460AF94 SWAP1 PUSH1 0x64 ADD PUSH1 0x60 PUSH1 0x40 MLOAD DUP1 DUP4 SUB DUP2 PUSH1 0x0 DUP8 GAS CALL ISZERO DUP1 ISZERO PUSH2 0x554 JUMPI RETURNDATASIZE PUSH1 0x0 DUP1 RETURNDATACOPY RETURNDATASIZE PUSH1 0x0 REVERT JUMPDEST POP POP POP POP PUSH1 0x40 MLOAD RETURNDATASIZE PUSH1 0x1F NOT PUSH1 0x1F DUP3 ADD AND DUP3 ADD DUP1 PUSH1 0x40 MSTORE POP DUP2 ADD SWAP1 PUSH2 0x578 SWAP2 SWAP1 PUSH2 0x853 JUMP JUMPDEST POP POP POP PUSH1 0x1 PUSH1 0x1 PUSH1 0xA0 SHL SUB DUP5 DUP2 AND PUSH1 0x0 SWAP1 DUP2 MSTORE PUSH1 0x7 PUSH1 0x20 SWAP1 DUP2 MSTORE PUSH1 0x40 SWAP2 DUP3 SWAP1 KECCAK256 SLOAD PUSH1 0x1 SLOAD DUP4 MLOAD SWAP2 DUP6 AND DUP3 MSTORE SWAP4 DUP8 AND SWAP2 DUP2 ADD SWAP2 SWAP1 SWAP2 MSTORE DUP1 DUP3 ADD DUP6 SWAP1 MSTORE PUSH1 0x60 DUP2 ADD SWAP3 SWAP1 SWAP3 MSTORE MLOAD PUSH32 0xF341246ADAAC6F497BC2A656F546AB9E182111D630394F0C57C710A59A2CB567 SWAP2 DUP2 SWAP1 SUB PUSH1 0x80 ADD SWAP1 LOG1 POP POP POP POP JUMP JUMPDEST PUSH2 0x5F4 PUSH2 0x62A JUMP JUMPDEST PUSH1 0x1 PUSH1 0x1 PUSH1 0xA0 SHL SUB DUP2 AND PUSH2 0x61E JUMPI PUSH1 0x40 MLOAD PUSH4 0x1E4FBDF7 PUSH1 0xE0 SHL DUP2 MSTORE PUSH1 0x0 PUSH1 0x4 DUP3 ADD MSTORE PUSH1 0x24 ADD PUSH2 0x23A JUMP JUMPDEST PUSH2 0x627 DUP2 PUSH2 0x657 JUMP JUMPDEST POP JUMP JUMPDEST PUSH1 0x0 SLOAD PUSH1 0x1 PUSH1 0x1 PUSH1 0xA0 SHL SUB AND CALLER EQ PUSH2 0x1DE JUMPI PUSH1 0x40 MLOAD PUSH4 0x118CDAA7 PUSH1 0xE0 SHL DUP2 MSTORE CALLER PUSH1 0x4 DUP3 ADD MSTORE PUSH1 0x24 ADD PUSH2 0x23A JUMP JUMPDEST PUSH1 0x0 DUP1 SLOAD PUSH1 0x1 PUSH1 0x1 PUSH1 0xA0 SHL SUB DUP4 DUP2 AND PUSH1 0x1 PUSH1 0x1 PUSH1 0xA0 SHL SUB NOT DUP4 AND DUP2 OR DUP5 SSTORE PUSH1 0x40 MLOAD SWAP2 SWAP1 SWAP3 AND SWAP3 DUP4 SWAP2 PUSH32 0x8BE0079C531659141344CD1FD0A4F28419497F9722A3DAAFE3B4186F6B6457E0 SWAP2 SWAP1 LOG3 POP POP JUMP JUMPDEST CALLER PUSH1 0x0 SWAP1 DUP2 MSTORE PUSH1 0x4 PUSH1 0x20 MSTORE PUSH1 0x40 SWAP1 KECCAK256 SLOAD PUSH1 0xFF AND PUSH2 0x1DE JUMPI PUSH1 0x40 MLOAD PUSH3 0x461BCD PUSH1 0xE5 SHL DUP2 MSTORE PUSH1 0x20 PUSH1 0x4 DUP3 ADD MSTORE PUSH1 0x1A PUSH1 0x24 DUP3 ADD MSTORE PUSH32 0x73656E646572206D75737420626520612076616C696461746F72000000000000 PUSH1 0x44 DUP3 ADD MSTORE PUSH1 0x64 ADD PUSH2 0x23A JUMP JUMPDEST PUSH1 0x1 PUSH1 0x1 PUSH1 0xA0 SHL SUB DUP2 AND DUP2 EQ PUSH2 0x627 JUMPI PUSH1 0x0 DUP1 REVERT JUMPDEST PUSH1 0x0 PUSH1 0x20 DUP3 DUP5 SUB SLT ISZERO PUSH2 0x72D JUMPI PUSH1 0x0 DUP1 REVERT JUMPDEST DUP2 CALLDATALOAD PUSH2 0x738 DUP2 PUSH2 0x706 JUMP JUMPDEST SWAP4 SWAP3 POP POP POP JUMP JUMPDEST PUSH1 0x0 DUP1 PUSH1 0x0 DUP1 PUSH1 0x80 DUP6 DUP8 SUB SLT ISZERO PUSH2 0x755 JUMPI PUSH1 0x0 DUP1 REVERT JUMPDEST DUP5 CALLDATALOAD PUSH2 0x760 DUP2 PUSH2 0x706 JUMP JUMPDEST SWAP4 POP PUSH1 0x20 DUP6 ADD CALLDATALOAD SWAP3 POP PUSH1 0x40 DUP6 ADD CALLDATALOAD SWAP2 POP PUSH1 0x60 DUP6 ADD CALLDATALOAD PUSH2 0x77E DUP2 PUSH2 0x706 JUMP JUMPDEST SWAP4 SWAP7 SWAP3 SWAP6 POP SWAP1 SWAP4 POP POP JUMP JUMPDEST DUP1 CALLDATALOAD DUP1 ISZERO ISZERO DUP2 EQ PUSH2 0x799 JUMPI PUSH1 0x0 DUP1 REVERT JUMPDEST SWAP2 SWAP1 POP JUMP JUMPDEST PUSH1 0x0 DUP1 PUSH1 0x0 DUP1 PUSH1 0x80 DUP6 DUP8 SUB SLT ISZERO PUSH2 0x7B4 JUMPI PUSH1 0x0 DUP1 REVERT JUMPDEST DUP5 CALLDATALOAD PUSH2 0x7BF DUP2 PUSH2 0x706 JUMP JUMPDEST SWAP4 POP PUSH2 0x7CD PUSH1 0x20 DUP7 ADD PUSH2 0x789 JUMP JUMPDEST SWAP3 POP PUSH2 0x7DB PUSH1 0x40 DUP7 ADD PUSH2 0x789 JUMP JUMPDEST SWAP2 POP PUSH1 0x60 DUP6 ADD CALLDATALOAD PUSH2 0x77E DUP2 PUSH2 0x706 JUMP JUMPDEST PUSH1 0x0 DUP1 PUSH1 0x0 PUSH1 0x60 DUP5 DUP7 SUB SLT ISZERO PUSH2 0x800 JUMPI PUSH1 0x0 DUP1 REVERT JUMPDEST DUP4 CALLDATALOAD PUSH2 0x80B DUP2 PUSH2 0x706 JUMP JUMPDEST SWAP3 POP PUSH1 0x20 DUP5 ADD CALLDATALOAD PUSH2 0x81B DUP2 PUSH2 0x706 JUMP JUMPDEST SWAP3 SWAP6 SWAP3 SWAP5 POP POP POP PUSH1 0x40 SWAP2 SWAP1 SWAP2 ADD CALLDATALOAD SWAP1 JUMP JUMPDEST PUSH1 0x0 PUSH1 0x1 DUP3 ADD PUSH2 0x84C JUMPI PUSH4 0x4E487B71 PUSH1 0xE0 SHL PUSH1 0x0 MSTORE PUSH1 0x11 PUSH1 0x4 MSTORE PUSH1 0x24 PUSH1 0x0 REVERT JUMPDEST POP PUSH1 0x1 ADD SWAP1 JUMP JUMPDEST PUSH1 0x0 DUP1 PUSH1 0x0 PUSH1 0x60 DUP5 DUP7 SUB SLT ISZERO PUSH2 0x868 JUMPI PUSH1 0x0 DUP1 REVERT JUMPDEST DUP4 MLOAD PUSH2 0x873 DUP2 PUSH2 0x706 JUMP JUMPDEST PUSH1 0x20 DUP6 ADD MLOAD SWAP1 SWAP4 POP PUSH2 0x884 DUP2 PUSH2 0x706 JUMP JUMPDEST DUP1 SWAP3 POP POP PUSH1 0x40 DUP5 ADD MLOAD SWAP1 POP SWAP3 POP SWAP3 POP SWAP3 JUMP INVALID LOG2 PUSH5 0x6970667358 0x22 SLT KECCAK256 CODECOPY CALLER 0x2D DELEGATECALL 0xDC PUSH11 0x132E373D7CCF1D0176ADDD SDIV PREVRANDAO 0x22 0xEA 0xDE 0xBE CALLCODE 0xD9 0xF8 GASPRICE 0xEF PUSH22 0x95BA9C64736F6C634300081400330000000000000000 "},"methodIdentifiers":{"deposit(address,uint256,uint256,address)":"8b6099db","erc20Handler()":"1cb9e262","owner()":"8da5cb5b","renounceOwnership()":"715018a6","setHandler(address)":"bac426d0","setToken(address,bool,bool,address)":"aa86475d","setValidator(address)":"1327d3d8","transferOwnership(address)":"f2fde38b","validatorstNonce()":"f9a721c7","withdraw(address,address,uint256)":"d9caed12","withdrawNonce()":"b8a4e151"}},"storageLayout":{"storage":[{"astId":8,"contract":"contracts/BridgeOUT.sol:BridgeOUT","label":"_owner","offset":0,"slot":"0","type":"t_address"},{"astId":200,"contract":"contracts/BridgeOUT.sol:BridgeOUT","label":"withdrawNonce","offset":0,"slot":"1","type":"t_uint256"},{"astId":202,"contract":"contracts/BridgeOUT.sol:BridgeOUT","label":"validatorstNonce","offset":0,"slot":"2","type":"t_uint256"},{"astId":204,"contract":"contracts/BridgeOUT.sol:BridgeOUT","label":"erc20Handler","offset":0,"slot":"3","type":"t_address"},{"astId":208,"contract":"contracts/BridgeOUT.sol:BridgeOUT","label":"validators","offset":0,"slot":"4","type":"t_mapping(t_address,t_bool)"},{"astId":213,"contract":"contracts/BridgeOUT.sol:BridgeOUT","label":"proposals","offset":0,"slot":"5","type":"t_mapping(t_uint256,t_struct(Proposal)198_storage)"},{"astId":217,"contract":"contracts/BridgeOUT.sol:BridgeOUT","label":"erc20PrivatePair","offset":0,"slot":"6","type":"t_mapping(t_address,t_address)"},{"astId":221,"contract":"contracts/BridgeOUT.sol:BridgeOUT","label":"erc20MainnetPair","offset":0,"slot":"7","type":"t_mapping(t_address,t_address)"}],"types":{"t_address":{"encoding":"inplace","label":"address","numberOfBytes":"20"},"t_bool":{"encoding":"inplace","label":"bool","numberOfBytes":"1"},"t_mapping(t_address,t_address)":{"encoding":"mapping","key":"t_address","label":"mapping(address => address)","numberOfBytes":"32","value":"t_address"},"t_mapping(t_address,t_bool)":{"encoding":"mapping","key":"t_address","label":"mapping(address => bool)","numberOfBytes":"32","value":"t_bool"},"t_mapping(t_uint256,t_struct(Proposal)198_storage)":{"encoding":"mapping","key":"t_uint256","label":"mapping(uint256 => struct BridgeOUT.Proposal)","numberOfBytes":"32","value":"t_struct(Proposal)198_storage"},"t_struct(Proposal)198_storage":{"encoding":"inplace","label":"struct BridgeOUT.Proposal","members":[{"astId":187,"contract":"contracts/BridgeOUT.sol:BridgeOUT","label":"executed","offset":0,"slot":"0","type":"t_bool"},{"astId":189,"contract":"contracts/BridgeOUT.sol:BridgeOUT","label":"validationsNonce","offset":0,"slot":"1","type":"t_uint256"},{"astId":191,"contract":"contracts/BridgeOUT.sol:BridgeOUT","label":"token","offset":0,"slot":"2","type":"t_address"},{"astId":193,"contract":"contracts/BridgeOUT.sol:BridgeOUT","label":"amount","offset":0,"slot":"3","type":"t_uint256"},{"astId":195,"contract":"contracts/BridgeOUT.sol:BridgeOUT","label":"depositNonce","offset":0,"slot":"4","type":"t_uint256"},{"astId":197,"contract":"contracts/BridgeOUT.sol:BridgeOUT","label":"user","offset":0,"slot":"5","type":"t_address"}],"numberOfBytes":"192"},"t_uint256":{"encoding":"inplace","label":"uint256","numberOfBytes":"32"}}}}}}