{"contracts/BridgeIN.sol":{"BridgeIN":{"abi":[{"inputs":[],"stateMutability":"nonpayable","type":"constructor"},{"anonymous":false,"inputs":[{"indexed":false,"internalType":"address","name":"tokenAddress","type":"address"},{"indexed":false,"internalType":"address","name":"depositor","type":"address"},{"indexed":false,"internalType":"uint256","name":"amount","type":"uint256"},{"indexed":false,"internalType":"uint256","name":"nonce","type":"uint256"}],"name":"Deposit","type":"event"},{"inputs":[{"internalType":"address","name":"tokenAddress","type":"address"},{"internalType":"address","name":"depositor","type":"address"},{"internalType":"uint256","name":"amount","type":"uint256"}],"name":"deposit","outputs":[],"stateMutability":"nonpayable","type":"function"},{"inputs":[],"name":"depositNonce","outputs":[{"internalType":"uint256","name":"","type":"uint256"}],"stateMutability":"view","type":"function"},{"inputs":[],"name":"erc20Handler","outputs":[{"internalType":"address","name":"","type":"address"}],"stateMutability":"view","type":"function"},{"inputs":[{"internalType":"address","name":"token","type":"address"},{"internalType":"uint256","name":"amount","type":"uint256"},{"internalType":"uint64","name":"withdrawNonce","type":"uint64"},{"internalType":"address","name":"user","type":"address"}],"name":"handleWithdraw","outputs":[{"internalType":"address","name":"_user","type":"address"}],"stateMutability":"nonpayable","type":"function"},{"inputs":[{"internalType":"address","name":"_handler","type":"address"}],"name":"setHandler","outputs":[],"stateMutability":"nonpayable","type":"function"},{"inputs":[{"internalType":"address","name":"_token","type":"address"},{"internalType":"bool","name":"_isBurnable","type":"bool"},{"internalType":"bool","name":"_isWhitelisted","type":"bool"}],"name":"setToken","outputs":[],"stateMutability":"nonpayable","type":"function"}],"evm":{"bytecode":{"linkReferences":{},"object":"608060405234801561001057600080fd5b50600080546001600160a01b03191633179055610730806100326000396000f3fe608060405234801561001057600080fd5b50600436106100625760003560e01c8063019b9e2f146100675780631cb9e2621461009757806349141db7146100aa5780638340f549146100bf578063bac426d0146100d2578063de35f5cb146100e5575b600080fd5b61007a610075366004610494565b6100fc565b6040516001600160a01b0390911681526020015b60405180910390f35b60025461007a906001600160a01b031681565b6100bd6100b8366004610509565b610128565b005b6100bd6100cd36600461054e565b6101a7565b6100bd6100e036600461058f565b610347565b6100ee60015481565b60405190815260200161008e565b60006101206040518060600160405280602881526020016106b06028913983610371565b509392505050565b6101306103ba565b600254604051630243897960e01b81526001600160a01b03858116600483015284151560248301528315156044830152909116908190630243897990606401600060405180830381600087803b15801561018957600080fd5b505af115801561019d573d6000803e3d6000fd5b5050505050505050565b600180549060006101b7836105b3565b9091555050600254604051638340f54960e01b81526001600160a01b03858116600483015284811660248301526044820184905290911690600090819081908490638340f549906064016060604051808303816000875af1158015610220573d6000803e3d6000fd5b505050506040513d601f19601f8201168201806040525081019061024491906105da565b92509250925061026c6040518060600160405280602381526020016106d86023913984610371565b6102ab6040518060400160405280602081526020017f3d3d3d3d3d3d3d3d3d3d3d3d7c2072657475726e65644465706f7369746f723a81525083610371565b6102ea6040518060400160405280601d81526020017f3d3d3d3d3d3d3d3d3d3d3d3d7c2072657475726e6564416d6f756e743a00000081525082610411565b600154604080516001600160a01b038681168252851660208201528082018490526060810192909252517fdcbc1c05240f31ff3ad067ef1ee35ce4997762752e3a095284754544f4c709d79181900360800190a150505050505050565b61034f6103ba565b600280546001600160a01b0319166001600160a01b0392909216919091179055565b6103b68282604051602401610387929190610663565b60408051601f198184030181529190526020810180516001600160e01b031663319af33360e01b179052610452565b5050565b6000546001600160a01b0316331461040f5760405162461bcd60e51b815260206004820152601460248201527339b2b73232b91036bab9ba1031329037bbb732b960611b604482015260640160405180910390fd5b565b6103b6828260405160240161042792919061068d565b60408051601f198184030181529190526020810180516001600160e01b0316632d839cb360e21b1790525b61045b8161045e565b50565b60006a636f6e736f6c652e6c6f679050600080835160208501845afa505050565b6001600160a01b038116811461045b57600080fd5b600080600080608085870312156104aa57600080fd5b84356104b58161047f565b935060208501359250604085013567ffffffffffffffff811681146104d957600080fd5b915060608501356104e98161047f565b939692955090935050565b8035801515811461050457600080fd5b919050565b60008060006060848603121561051e57600080fd5b83356105298161047f565b9250610537602085016104f4565b9150610545604085016104f4565b90509250925092565b60008060006060848603121561056357600080fd5b833561056e8161047f565b9250602084013561057e8161047f565b929592945050506040919091013590565b6000602082840312156105a157600080fd5b81356105ac8161047f565b9392505050565b6000600182016105d357634e487b7160e01b600052601160045260246000fd5b5060010190565b6000806000606084860312156105ef57600080fd5b83516105fa8161047f565b602085015190935061060b8161047f565b80925050604084015190509250925092565b6000815180845260005b8181101561064357602081850181015186830182015201610627565b506000602082860101526020601f19601f83011685010191505092915050565b604081526000610676604083018561061d565b905060018060a01b03831660208301529392505050565b6040815260006106a0604083018561061d565b9050826020830152939250505056fe3d3d3d3d3d3d3d3d3d3d3d3d3d3d3d3d20476f74206e65772057697468647261777c20557365723a3d3d3d3d3d3d3d3d3d3d3d3d7c2072657475726e6564546f6b656e416464726573733aa2646970667358221220dc688a86c8cd2510cd8b599e55322c7ebeda4e3f90ccaecf27712836cea368ed64736f6c63430008140033","opcodes":"PUSH1 0x80 PUSH1 0x40 MSTORE CALLVALUE DUP1 ISZERO PUSH2 0x10 JUMPI PUSH1 0x0 DUP1 REVERT JUMPDEST POP PUSH1 0x0 DUP1 SLOAD PUSH1 0x1 PUSH1 0x1 PUSH1 0xA0 SHL SUB NOT AND CALLER OR SWAP1 SSTORE PUSH2 0x730 DUP1 PUSH2 0x32 PUSH1 0x0 CODECOPY PUSH1 0x0 RETURN INVALID PUSH1 0x80 PUSH1 0x40 MSTORE CALLVALUE DUP1 ISZERO PUSH2 0x10 JUMPI PUSH1 0x0 DUP1 REVERT JUMPDEST POP PUSH1 0x4 CALLDATASIZE LT PUSH2 0x62 JUMPI PUSH1 0x0 CALLDATALOAD PUSH1 0xE0 SHR DUP1 PUSH4 0x19B9E2F EQ PUSH2 0x67 JUMPI DUP1 PUSH4 0x1CB9E262 EQ PUSH2 0x97 JUMPI DUP1 PUSH4 0x49141DB7 EQ PUSH2 0xAA JUMPI DUP1 PUSH4 0x8340F549 EQ PUSH2 0xBF JUMPI DUP1 PUSH4 0xBAC426D0 EQ PUSH2 0xD2 JUMPI DUP1 PUSH4 0xDE35F5CB EQ PUSH2 0xE5 JUMPI JUMPDEST PUSH1 0x0 DUP1 REVERT JUMPDEST PUSH2 0x7A PUSH2 0x75 CALLDATASIZE PUSH1 0x4 PUSH2 0x494 JUMP JUMPDEST PUSH2 0xFC JUMP JUMPDEST PUSH1 0x40 MLOAD PUSH1 0x1 PUSH1 0x1 PUSH1 0xA0 SHL SUB SWAP1 SWAP2 AND DUP2 MSTORE PUSH1 0x20 ADD JUMPDEST PUSH1 0x40 MLOAD DUP1 SWAP2 SUB SWAP1 RETURN JUMPDEST PUSH1 0x2 SLOAD PUSH2 0x7A SWAP1 PUSH1 0x1 PUSH1 0x1 PUSH1 0xA0 SHL SUB AND DUP2 JUMP JUMPDEST PUSH2 0xBD PUSH2 0xB8 CALLDATASIZE PUSH1 0x4 PUSH2 0x509 JUMP JUMPDEST PUSH2 0x128 JUMP JUMPDEST STOP JUMPDEST PUSH2 0xBD PUSH2 0xCD CALLDATASIZE PUSH1 0x4 PUSH2 0x54E JUMP JUMPDEST PUSH2 0x1A7 JUMP JUMPDEST PUSH2 0xBD PUSH2 0xE0 CALLDATASIZE PUSH1 0x4 PUSH2 0x58F JUMP JUMPDEST PUSH2 0x347 JUMP JUMPDEST PUSH2 0xEE PUSH1 0x1 SLOAD DUP2 JUMP JUMPDEST PUSH1 0x40 MLOAD SWAP1 DUP2 MSTORE PUSH1 0x20 ADD PUSH2 0x8E JUMP JUMPDEST PUSH1 0x0 PUSH2 0x120 PUSH1 0x40 MLOAD DUP1 PUSH1 0x60 ADD PUSH1 0x40 MSTORE DUP1 PUSH1 0x28 DUP2 MSTORE PUSH1 0x20 ADD PUSH2 0x6B0 PUSH1 0x28 SWAP2 CODECOPY DUP4 PUSH2 0x371 JUMP JUMPDEST POP SWAP4 SWAP3 POP POP POP JUMP JUMPDEST PUSH2 0x130 PUSH2 0x3BA JUMP JUMPDEST PUSH1 0x2 SLOAD PUSH1 0x40 MLOAD PUSH4 0x2438979 PUSH1 0xE0 SHL DUP2 MSTORE PUSH1 0x1 PUSH1 0x1 PUSH1 0xA0 SHL SUB DUP6 DUP2 AND PUSH1 0x4 DUP4 ADD MSTORE DUP5 ISZERO ISZERO PUSH1 0x24 DUP4 ADD MSTORE DUP4 ISZERO ISZERO PUSH1 0x44 DUP4 ADD MSTORE SWAP1 SWAP2 AND SWAP1 DUP2 SWAP1 PUSH4 0x2438979 SWAP1 PUSH1 0x64 ADD PUSH1 0x0 PUSH1 0x40 MLOAD DUP1 DUP4 SUB DUP2 PUSH1 0x0 DUP8 DUP1 EXTCODESIZE ISZERO DUP1 ISZERO PUSH2 0x189 JUMPI PUSH1 0x0 DUP1 REVERT JUMPDEST POP GAS CALL ISZERO DUP1 ISZERO PUSH2 0x19D JUMPI RETURNDATASIZE PUSH1 0x0 DUP1 RETURNDATACOPY RETURNDATASIZE PUSH1 0x0 REVERT JUMPDEST POP POP POP POP POP POP POP POP JUMP JUMPDEST PUSH1 0x1 DUP1 SLOAD SWAP1 PUSH1 0x0 PUSH2 0x1B7 DUP4 PUSH2 0x5B3 JUMP JUMPDEST SWAP1 SWAP2 SSTORE POP POP PUSH1 0x2 SLOAD PUSH1 0x40 MLOAD PUSH4 0x8340F549 PUSH1 0xE0 SHL DUP2 MSTORE PUSH1 0x1 PUSH1 0x1 PUSH1 0xA0 SHL SUB DUP6 DUP2 AND PUSH1 0x4 DUP4 ADD MSTORE DUP5 DUP2 AND PUSH1 0x24 DUP4 ADD MSTORE PUSH1 0x44 DUP3 ADD DUP5 SWAP1 MSTORE SWAP1 SWAP2 AND SWAP1 PUSH1 0x0 SWAP1 DUP2 SWAP1 DUP2 SWAP1 DUP5 SWAP1 PUSH4 0x8340F549 SWAP1 PUSH1 0x64 ADD PUSH1 0x60 PUSH1 0x40 MLOAD DUP1 DUP4 SUB DUP2 PUSH1 0x0 DUP8 GAS CALL ISZERO DUP1 ISZERO PUSH2 0x220 JUMPI RETURNDATASIZE PUSH1 0x0 DUP1 RETURNDATACOPY RETURNDATASIZE PUSH1 0x0 REVERT JUMPDEST POP POP POP POP PUSH1 0x40 MLOAD RETURNDATASIZE PUSH1 0x1F NOT PUSH1 0x1F DUP3 ADD AND DUP3 ADD DUP1 PUSH1 0x40 MSTORE POP DUP2 ADD SWAP1 PUSH2 0x244 SWAP2 SWAP1 PUSH2 0x5DA JUMP JUMPDEST SWAP3 POP SWAP3 POP SWAP3 POP PUSH2 0x26C PUSH1 0x40 MLOAD DUP1 PUSH1 0x60 ADD PUSH1 0x40 MSTORE DUP1 PUSH1 0x23 DUP2 MSTORE PUSH1 0x20 ADD PUSH2 0x6D8 PUSH1 0x23 SWAP2 CODECOPY DUP5 PUSH2 0x371 JUMP JUMPDEST PUSH2 0x2AB PUSH1 0x40 MLOAD DUP1 PUSH1 0x40 ADD PUSH1 0x40 MSTORE DUP1 PUSH1 0x20 DUP2 MSTORE PUSH1 0x20 ADD PUSH32 0x3D3D3D3D3D3D3D3D3D3D3D3D7C2072657475726E65644465706F7369746F723A DUP2 MSTORE POP DUP4 PUSH2 0x371 JUMP JUMPDEST PUSH2 0x2EA PUSH1 0x40 MLOAD DUP1 PUSH1 0x40 ADD PUSH1 0x40 MSTORE DUP1 PUSH1 0x1D DUP2 MSTORE PUSH1 0x20 ADD PUSH32 0x3D3D3D3D3D3D3D3D3D3D3D3D7C2072657475726E6564416D6F756E743A000000 DUP2 MSTORE POP DUP3 PUSH2 0x411 JUMP JUMPDEST PUSH1 0x1 SLOAD PUSH1 0x40 DUP1 MLOAD PUSH1 0x1 PUSH1 0x1 PUSH1 0xA0 SHL SUB DUP7 DUP2 AND DUP3 MSTORE DUP6 AND PUSH1 0x20 DUP3 ADD MSTORE DUP1 DUP3 ADD DUP5 SWAP1 MSTORE PUSH1 0x60 DUP2 ADD SWAP3 SWAP1 SWAP3 MSTORE MLOAD PUSH32 0xDCBC1C05240F31FF3AD067EF1EE35CE4997762752E3A095284754544F4C709D7 SWAP2 DUP2 SWAP1 SUB PUSH1 0x80 ADD SWAP1 LOG1 POP POP POP POP POP POP POP JUMP JUMPDEST PUSH2 0x34F PUSH2 0x3BA JUMP JUMPDEST PUSH1 0x2 DUP1 SLOAD PUSH1 0x1 PUSH1 0x1 PUSH1 0xA0 SHL SUB NOT AND PUSH1 0x1 PUSH1 0x1 PUSH1 0xA0 SHL SUB SWAP3 SWAP1 SWAP3 AND SWAP2 SWAP1 SWAP2 OR SWAP1 SSTORE JUMP JUMPDEST PUSH2 0x3B6 DUP3 DUP3 PUSH1 0x40 MLOAD PUSH1 0x24 ADD PUSH2 0x387 SWAP3 SWAP2 SWAP1 PUSH2 0x663 JUMP JUMPDEST PUSH1 0x40 DUP1 MLOAD PUSH1 0x1F NOT DUP2 DUP5 SUB ADD DUP2 MSTORE SWAP2 SWAP1 MSTORE PUSH1 0x20 DUP2 ADD DUP1 MLOAD PUSH1 0x1 PUSH1 0x1 PUSH1 0xE0 SHL SUB AND PUSH4 0x319AF333 PUSH1 0xE0 SHL OR SWAP1 MSTORE PUSH2 0x452 JUMP JUMPDEST POP POP JUMP JUMPDEST PUSH1 0x0 SLOAD PUSH1 0x1 PUSH1 0x1 PUSH1 0xA0 SHL SUB AND CALLER EQ PUSH2 0x40F JUMPI PUSH1 0x40 MLOAD PUSH3 0x461BCD PUSH1 0xE5 SHL DUP2 MSTORE PUSH1 0x20 PUSH1 0x4 DUP3 ADD MSTORE PUSH1 0x14 PUSH1 0x24 DUP3 ADD MSTORE PUSH20 0x39B2B73232B91036BAB9BA1031329037BBB732B9 PUSH1 0x61 SHL PUSH1 0x44 DUP3 ADD MSTORE PUSH1 0x64 ADD PUSH1 0x40 MLOAD DUP1 SWAP2 SUB SWAP1 REVERT JUMPDEST JUMP JUMPDEST PUSH2 0x3B6 DUP3 DUP3 PUSH1 0x40 MLOAD PUSH1 0x24 ADD PUSH2 0x427 SWAP3 SWAP2 SWAP1 PUSH2 0x68D JUMP JUMPDEST PUSH1 0x40 DUP1 MLOAD PUSH1 0x1F NOT DUP2 DUP5 SUB ADD DUP2 MSTORE SWAP2 SWAP1 MSTORE PUSH1 0x20 DUP2 ADD DUP1 MLOAD PUSH1 0x1 PUSH1 0x1 PUSH1 0xE0 SHL SUB AND PUSH4 0x2D839CB3 PUSH1 0xE2 SHL OR SWAP1 MSTORE JUMPDEST PUSH2 0x45B DUP2 PUSH2 0x45E JUMP JUMPDEST POP JUMP JUMPDEST PUSH1 0x0 PUSH11 0x636F6E736F6C652E6C6F67 SWAP1 POP PUSH1 0x0 DUP1 DUP4 MLOAD PUSH1 0x20 DUP6 ADD DUP5 GAS STATICCALL POP POP POP JUMP JUMPDEST PUSH1 0x1 PUSH1 0x1 PUSH1 0xA0 SHL SUB DUP2 AND DUP2 EQ PUSH2 0x45B JUMPI PUSH1 0x0 DUP1 REVERT JUMPDEST PUSH1 0x0 DUP1 PUSH1 0x0 DUP1 PUSH1 0x80 DUP6 DUP8 SUB SLT ISZERO PUSH2 0x4AA JUMPI PUSH1 0x0 DUP1 REVERT JUMPDEST DUP5 CALLDATALOAD PUSH2 0x4B5 DUP2 PUSH2 0x47F JUMP JUMPDEST SWAP4 POP PUSH1 0x20 DUP6 ADD CALLDATALOAD SWAP3 POP PUSH1 0x40 DUP6 ADD CALLDATALOAD PUSH8 0xFFFFFFFFFFFFFFFF DUP2 AND DUP2 EQ PUSH2 0x4D9 JUMPI PUSH1 0x0 DUP1 REVERT JUMPDEST SWAP2 POP PUSH1 0x60 DUP6 ADD CALLDATALOAD PUSH2 0x4E9 DUP2 PUSH2 0x47F JUMP JUMPDEST SWAP4 SWAP7 SWAP3 SWAP6 POP SWAP1 SWAP4 POP POP JUMP JUMPDEST DUP1 CALLDATALOAD DUP1 ISZERO ISZERO DUP2 EQ PUSH2 0x504 JUMPI PUSH1 0x0 DUP1 REVERT JUMPDEST SWAP2 SWAP1 POP JUMP JUMPDEST PUSH1 0x0 DUP1 PUSH1 0x0 PUSH1 0x60 DUP5 DUP7 SUB SLT ISZERO PUSH2 0x51E JUMPI PUSH1 0x0 DUP1 REVERT JUMPDEST DUP4 CALLDATALOAD PUSH2 0x529 DUP2 PUSH2 0x47F JUMP JUMPDEST SWAP3 POP PUSH2 0x537 PUSH1 0x20 DUP6 ADD PUSH2 0x4F4 JUMP JUMPDEST SWAP2 POP PUSH2 0x545 PUSH1 0x40 DUP6 ADD PUSH2 0x4F4 JUMP JUMPDEST SWAP1 POP SWAP3 POP SWAP3 POP SWAP3 JUMP JUMPDEST PUSH1 0x0 DUP1 PUSH1 0x0 PUSH1 0x60 DUP5 DUP7 SUB SLT ISZERO PUSH2 0x563 JUMPI PUSH1 0x0 DUP1 REVERT JUMPDEST DUP4 CALLDATALOAD PUSH2 0x56E DUP2 PUSH2 0x47F JUMP JUMPDEST SWAP3 POP PUSH1 0x20 DUP5 ADD CALLDATALOAD PUSH2 0x57E DUP2 PUSH2 0x47F JUMP JUMPDEST SWAP3 SWAP6 SWAP3 SWAP5 POP POP POP PUSH1 0x40 SWAP2 SWAP1 SWAP2 ADD CALLDATALOAD SWAP1 JUMP JUMPDEST PUSH1 0x0 PUSH1 0x20 DUP3 DUP5 SUB SLT ISZERO PUSH2 0x5A1 JUMPI PUSH1 0x0 DUP1 REVERT JUMPDEST DUP2 CALLDATALOAD PUSH2 0x5AC DUP2 PUSH2 0x47F JUMP JUMPDEST SWAP4 SWAP3 POP POP POP JUMP JUMPDEST PUSH1 0x0 PUSH1 0x1 DUP3 ADD PUSH2 0x5D3 JUMPI PUSH4 0x4E487B71 PUSH1 0xE0 SHL PUSH1 0x0 MSTORE PUSH1 0x11 PUSH1 0x4 MSTORE PUSH1 0x24 PUSH1 0x0 REVERT JUMPDEST POP PUSH1 0x1 ADD SWAP1 JUMP JUMPDEST PUSH1 0x0 DUP1 PUSH1 0x0 PUSH1 0x60 DUP5 DUP7 SUB SLT ISZERO PUSH2 0x5EF JUMPI PUSH1 0x0 DUP1 REVERT JUMPDEST DUP4 MLOAD PUSH2 0x5FA DUP2 PUSH2 0x47F JUMP JUMPDEST PUSH1 0x20 DUP6 ADD MLOAD SWAP1 SWAP4 POP PUSH2 0x60B DUP2 PUSH2 0x47F JUMP JUMPDEST DUP1 SWAP3 POP POP PUSH1 0x40 DUP5 ADD MLOAD SWAP1 POP SWAP3 POP SWAP3 POP SWAP3 JUMP JUMPDEST PUSH1 0x0 DUP2 MLOAD DUP1 DUP5 MSTORE PUSH1 0x0 JUMPDEST DUP2 DUP2 LT ISZERO PUSH2 0x643 JUMPI PUSH1 0x20 DUP2 DUP6 ADD DUP2 ADD MLOAD DUP7 DUP4 ADD DUP3 ADD MSTORE ADD PUSH2 0x627 JUMP JUMPDEST POP PUSH1 0x0 PUSH1 0x20 DUP3 DUP7 ADD ADD MSTORE PUSH1 0x20 PUSH1 0x1F NOT PUSH1 0x1F DUP4 ADD AND DUP6 ADD ADD SWAP2 POP POP SWAP3 SWAP2 POP POP JUMP JUMPDEST PUSH1 0x40 DUP2 MSTORE PUSH1 0x0 PUSH2 0x676 PUSH1 0x40 DUP4 ADD DUP6 PUSH2 0x61D JUMP JUMPDEST SWAP1 POP PUSH1 0x1 DUP1 PUSH1 0xA0 SHL SUB DUP4 AND PUSH1 0x20 DUP4 ADD MSTORE SWAP4 SWAP3 POP POP POP JUMP JUMPDEST PUSH1 0x40 DUP2 MSTORE PUSH1 0x0 PUSH2 0x6A0 PUSH1 0x40 DUP4 ADD DUP6 PUSH2 0x61D JUMP JUMPDEST SWAP1 POP DUP3 PUSH1 0x20 DUP4 ADD MSTORE SWAP4 SWAP3 POP POP POP JUMP INVALID RETURNDATASIZE RETURNDATASIZE RETURNDATASIZE RETURNDATASIZE RETURNDATASIZE RETURNDATASIZE RETURNDATASIZE RETURNDATASIZE RETURNDATASIZE RETURNDATASIZE RETURNDATASIZE RETURNDATASIZE RETURNDATASIZE RETURNDATASIZE RETURNDATASIZE RETURNDATASIZE KECCAK256 SELFBALANCE PUSH16 0x74206E65772057697468647261777C20 SSTORE PUSH20 0x65723A3D3D3D3D3D3D3D3D3D3D3D3D7C20726574 PUSH22 0x726E6564546F6B656E416464726573733AA264697066 PUSH20 0x58221220DC688A86C8CD2510CD8B599E55322C7E 0xBE 0xDA 0x4E EXTCODEHASH SWAP1 0xCC 0xAE 0xCF 0x27 PUSH18 0x2836CEA368ED64736F6C6343000814003300 "},"methodIdentifiers":{"deposit(address,address,uint256)":"8340f549","depositNonce()":"de35f5cb","erc20Handler()":"1cb9e262","handleWithdraw(address,uint256,uint64,address)":"019b9e2f","setHandler(address)":"bac426d0","setToken(address,bool,bool)":"49141db7"}},"storageLayout":{"storage":[{"astId":6,"contract":"contracts/BridgeIN.sol:BridgeIN","label":"owner","offset":0,"slot":"0","type":"t_address"},{"astId":8,"contract":"contracts/BridgeIN.sol:BridgeIN","label":"depositNonce","offset":0,"slot":"1","type":"t_uint256"},{"astId":10,"contract":"contracts/BridgeIN.sol:BridgeIN","label":"erc20Handler","offset":0,"slot":"2","type":"t_address"}],"types":{"t_address":{"encoding":"inplace","label":"address","numberOfBytes":"20"},"t_uint256":{"encoding":"inplace","label":"uint256","numberOfBytes":"32"}}}}}}