{"contracts/BridgeIN.sol":{"BridgeIN":{"abi":[{"inputs":[],"stateMutability":"nonpayable","type":"constructor"},{"anonymous":false,"inputs":[{"indexed":false,"internalType":"address","name":"tokenAddress","type":"address"},{"indexed":false,"internalType":"address","name":"depositor","type":"address"},{"indexed":false,"internalType":"uint256","name":"amount","type":"uint256"},{"indexed":false,"internalType":"uint256","name":"nonce","type":"uint256"}],"name":"Deposit","type":"event"},{"anonymous":false,"inputs":[{"indexed":false,"internalType":"address","name":"tokenAddress","type":"address"},{"indexed":false,"internalType":"address","name":"recipient","type":"address"},{"indexed":false,"internalType":"uint256","name":"amount","type":"uint256"}],"name":"Withdraw","type":"event"},{"inputs":[{"internalType":"address","name":"tokenAddress","type":"address"},{"internalType":"address","name":"depositor","type":"address"},{"internalType":"uint256","name":"amount","type":"uint256"}],"name":"deposit","outputs":[],"stateMutability":"nonpayable","type":"function"},{"inputs":[],"name":"depositNonce","outputs":[{"internalType":"uint256","name":"","type":"uint256"}],"stateMutability":"view","type":"function"},{"inputs":[],"name":"erc20Handler","outputs":[{"internalType":"address","name":"","type":"address"}],"stateMutability":"view","type":"function"},{"inputs":[{"internalType":"address","name":"_handler","type":"address"}],"name":"setHandler","outputs":[],"stateMutability":"nonpayable","type":"function"},{"inputs":[{"internalType":"address","name":"_token","type":"address"},{"internalType":"bool","name":"_isBurnable","type":"bool"},{"internalType":"bool","name":"_isWhitelisted","type":"bool"}],"name":"setToken","outputs":[],"stateMutability":"nonpayable","type":"function"},{"inputs":[{"internalType":"address","name":"_validator","type":"address"}],"name":"setValidator","outputs":[],"stateMutability":"nonpayable","type":"function"},{"inputs":[],"name":"validatorstNonce","outputs":[{"internalType":"uint256","name":"","type":"uint256"}],"stateMutability":"view","type":"function"},{"inputs":[{"internalType":"address","name":"token","type":"address"},{"internalType":"uint256","name":"amount","type":"uint256"},{"internalType":"uint256","name":"withdrawNonce","type":"uint256"},{"internalType":"address","name":"user","type":"address"}],"name":"withdraw","outputs":[],"stateMutability":"nonpayable","type":"function"}],"evm":{"bytecode":{"linkReferences":{},"object":"608060405234801561001057600080fd5b50600080546001600160a01b031916331790556107a7806100326000396000f3fe608060405234801561001057600080fd5b50600436106100885760003560e01c80638340f5491161005b5780638340f549146100f8578063bac426d01461010b578063de35f5cb1461011e578063f9a721c71461013557600080fd5b80631327d3d81461008d57806316762eed146100a25780631cb9e262146100b557806349141db7146100e5575b600080fd5b6100a061009b3660046105fe565b61013e565b005b6100a06100b0366004610622565b61017f565b6003546100c8906001600160a01b031681565b6040516001600160a01b0390911681526020015b60405180910390f35b6100a06100f3366004610681565b610387565b6100a06101063660046106c6565b610406565b6100a06101193660046105fe565b61050a565b61012760015481565b6040519081526020016100dc565b61012760025481565b610146610534565b6002805490600061015683610707565b90915550506001600160a01b03166000908152600460205260409020805460ff19166001179055565b610187610587565b60008281526005602052604090205460ff16156101e25760405162461bcd60e51b8152602060048201526014602482015273141c9bdc1bdcd85b081a5cc8195e1958dd5d195960621b60448201526064015b60405180910390fd5b600082815260056020526040812060010154900361024e5760008281526005602081905260409091206002810180546001600160a01b038089166001600160a01b0319928316179092556003830187905560048301869055919092018054928416929091169190911790555b600082815260056020526040812060010180549161026b83610707565b90915550506002546000838152600560205260409020600101541061038157600082815260056020526040808220805460ff191660011790556003549051632d182be560e21b8152600481018690526001600160a01b0387811660248301528481166044830152909116919081908190849063b460af94906064016060604051808303816000875af1158015610305573d6000803e3d6000fd5b505050506040513d601f19601f82011682018060405250810190610329919061072e565b604080516001600160a01b0380861682528416602082015290810182905292955090935091507f9b1bfa7fa9ee420a16e124f794c35ac9f90472acc99140eb2f6447c714cad8eb9060600160405180910390a1505050505b50505050565b61038f610534565b600354604051630243897960e01b81526001600160a01b03858116600483015284151560248301528315156044830152909116908190630243897990606401600060405180830381600087803b1580156103e857600080fd5b505af11580156103fc573d6000803e3d6000fd5b5050505050505050565b6001805490600061041683610707565b9091555050600354604051638340f54960e01b81526001600160a01b03858116600483015284811660248301526044820184905290911690600090819081908490638340f549906064016060604051808303816000875af115801561047f573d6000803e3d6000fd5b505050506040513d601f19601f820116820180604052508101906104a3919061072e565b600154604080516001600160a01b03808716825285166020820152908101839052606081019190915292955090935091507fdcbc1c05240f31ff3ad067ef1ee35ce4997762752e3a095284754544f4c709d79060800160405180910390a150505050505050565b610512610534565b600380546001600160a01b0319166001600160a01b0392909216919091179055565b6000546001600160a01b031633146105855760405162461bcd60e51b815260206004820152601460248201527339b2b73232b91036bab9ba1031329037bbb732b960611b60448201526064016101d9565b565b3360009081526004602052604090205460ff166105855760405162461bcd60e51b815260206004820152601a60248201527f73656e646572206d75737420626520612076616c696461746f7200000000000060448201526064016101d9565b6001600160a01b03811681146105fb57600080fd5b50565b60006020828403121561061057600080fd5b813561061b816105e6565b9392505050565b6000806000806080858703121561063857600080fd5b8435610643816105e6565b935060208501359250604085013591506060850135610661816105e6565b939692955090935050565b8035801515811461067c57600080fd5b919050565b60008060006060848603121561069657600080fd5b83356106a1816105e6565b92506106af6020850161066c565b91506106bd6040850161066c565b90509250925092565b6000806000606084860312156106db57600080fd5b83356106e6816105e6565b925060208401356106f6816105e6565b929592945050506040919091013590565b60006001820161072757634e487b7160e01b600052601160045260246000fd5b5060010190565b60008060006060848603121561074357600080fd5b835161074e816105e6565b602085015190935061075f816105e6565b8092505060408401519050925092509256fea2646970667358221220e16a4169bcb4d68fd09ea5beb9609315abea0169578f571cf3bee8c0966022e964736f6c63430008140033","opcodes":"PUSH1 0x80 PUSH1 0x40 MSTORE CALLVALUE DUP1 ISZERO PUSH2 0x10 JUMPI PUSH1 0x0 DUP1 REVERT JUMPDEST POP PUSH1 0x0 DUP1 SLOAD PUSH1 0x1 PUSH1 0x1 PUSH1 0xA0 SHL SUB NOT AND CALLER OR SWAP1 SSTORE PUSH2 0x7A7 DUP1 PUSH2 0x32 PUSH1 0x0 CODECOPY PUSH1 0x0 RETURN INVALID PUSH1 0x80 PUSH1 0x40 MSTORE CALLVALUE DUP1 ISZERO PUSH2 0x10 JUMPI PUSH1 0x0 DUP1 REVERT JUMPDEST POP PUSH1 0x4 CALLDATASIZE LT PUSH2 0x88 JUMPI PUSH1 0x0 CALLDATALOAD PUSH1 0xE0 SHR DUP1 PUSH4 0x8340F549 GT PUSH2 0x5B JUMPI DUP1 PUSH4 0x8340F549 EQ PUSH2 0xF8 JUMPI DUP1 PUSH4 0xBAC426D0 EQ PUSH2 0x10B JUMPI DUP1 PUSH4 0xDE35F5CB EQ PUSH2 0x11E JUMPI DUP1 PUSH4 0xF9A721C7 EQ PUSH2 0x135 JUMPI PUSH1 0x0 DUP1 REVERT JUMPDEST DUP1 PUSH4 0x1327D3D8 EQ PUSH2 0x8D JUMPI DUP1 PUSH4 0x16762EED EQ PUSH2 0xA2 JUMPI DUP1 PUSH4 0x1CB9E262 EQ PUSH2 0xB5 JUMPI DUP1 PUSH4 0x49141DB7 EQ PUSH2 0xE5 JUMPI JUMPDEST PUSH1 0x0 DUP1 REVERT JUMPDEST PUSH2 0xA0 PUSH2 0x9B CALLDATASIZE PUSH1 0x4 PUSH2 0x5FE JUMP JUMPDEST PUSH2 0x13E JUMP JUMPDEST STOP JUMPDEST PUSH2 0xA0 PUSH2 0xB0 CALLDATASIZE PUSH1 0x4 PUSH2 0x622 JUMP JUMPDEST PUSH2 0x17F JUMP JUMPDEST PUSH1 0x3 SLOAD PUSH2 0xC8 SWAP1 PUSH1 0x1 PUSH1 0x1 PUSH1 0xA0 SHL SUB AND DUP2 JUMP JUMPDEST PUSH1 0x40 MLOAD PUSH1 0x1 PUSH1 0x1 PUSH1 0xA0 SHL SUB SWAP1 SWAP2 AND DUP2 MSTORE PUSH1 0x20 ADD JUMPDEST PUSH1 0x40 MLOAD DUP1 SWAP2 SUB SWAP1 RETURN JUMPDEST PUSH2 0xA0 PUSH2 0xF3 CALLDATASIZE PUSH1 0x4 PUSH2 0x681 JUMP JUMPDEST PUSH2 0x387 JUMP JUMPDEST PUSH2 0xA0 PUSH2 0x106 CALLDATASIZE PUSH1 0x4 PUSH2 0x6C6 JUMP JUMPDEST PUSH2 0x406 JUMP JUMPDEST PUSH2 0xA0 PUSH2 0x119 CALLDATASIZE PUSH1 0x4 PUSH2 0x5FE JUMP JUMPDEST PUSH2 0x50A JUMP JUMPDEST PUSH2 0x127 PUSH1 0x1 SLOAD DUP2 JUMP JUMPDEST PUSH1 0x40 MLOAD SWAP1 DUP2 MSTORE PUSH1 0x20 ADD PUSH2 0xDC JUMP JUMPDEST PUSH2 0x127 PUSH1 0x2 SLOAD DUP2 JUMP JUMPDEST PUSH2 0x146 PUSH2 0x534 JUMP JUMPDEST PUSH1 0x2 DUP1 SLOAD SWAP1 PUSH1 0x0 PUSH2 0x156 DUP4 PUSH2 0x707 JUMP JUMPDEST SWAP1 SWAP2 SSTORE POP POP PUSH1 0x1 PUSH1 0x1 PUSH1 0xA0 SHL SUB AND PUSH1 0x0 SWAP1 DUP2 MSTORE PUSH1 0x4 PUSH1 0x20 MSTORE PUSH1 0x40 SWAP1 KECCAK256 DUP1 SLOAD PUSH1 0xFF NOT AND PUSH1 0x1 OR SWAP1 SSTORE JUMP JUMPDEST PUSH2 0x187 PUSH2 0x587 JUMP JUMPDEST PUSH1 0x0 DUP3 DUP2 MSTORE PUSH1 0x5 PUSH1 0x20 MSTORE PUSH1 0x40 SWAP1 KECCAK256 SLOAD PUSH1 0xFF AND ISZERO PUSH2 0x1E2 JUMPI PUSH1 0x40 MLOAD PUSH3 0x461BCD PUSH1 0xE5 SHL DUP2 MSTORE PUSH1 0x20 PUSH1 0x4 DUP3 ADD MSTORE PUSH1 0x14 PUSH1 0x24 DUP3 ADD MSTORE PUSH20 0x141C9BDC1BDCD85B081A5CC8195E1958DD5D1959 PUSH1 0x62 SHL PUSH1 0x44 DUP3 ADD MSTORE PUSH1 0x64 ADD JUMPDEST PUSH1 0x40 MLOAD DUP1 SWAP2 SUB SWAP1 REVERT JUMPDEST PUSH1 0x0 DUP3 DUP2 MSTORE PUSH1 0x5 PUSH1 0x20 MSTORE PUSH1 0x40 DUP2 KECCAK256 PUSH1 0x1 ADD SLOAD SWAP1 SUB PUSH2 0x24E JUMPI PUSH1 0x0 DUP3 DUP2 MSTORE PUSH1 0x5 PUSH1 0x20 DUP2 SWAP1 MSTORE PUSH1 0x40 SWAP1 SWAP2 KECCAK256 PUSH1 0x2 DUP2 ADD DUP1 SLOAD PUSH1 0x1 PUSH1 0x1 PUSH1 0xA0 SHL SUB DUP1 DUP10 AND PUSH1 0x1 PUSH1 0x1 PUSH1 0xA0 SHL SUB NOT SWAP3 DUP4 AND OR SWAP1 SWAP3 SSTORE PUSH1 0x3 DUP4 ADD DUP8 SWAP1 SSTORE PUSH1 0x4 DUP4 ADD DUP7 SWAP1 SSTORE SWAP2 SWAP1 SWAP3 ADD DUP1 SLOAD SWAP3 DUP5 AND SWAP3 SWAP1 SWAP2 AND SWAP2 SWAP1 SWAP2 OR SWAP1 SSTORE JUMPDEST PUSH1 0x0 DUP3 DUP2 MSTORE PUSH1 0x5 PUSH1 0x20 MSTORE PUSH1 0x40 DUP2 KECCAK256 PUSH1 0x1 ADD DUP1 SLOAD SWAP2 PUSH2 0x26B DUP4 PUSH2 0x707 JUMP JUMPDEST SWAP1 SWAP2 SSTORE POP POP PUSH1 0x2 SLOAD PUSH1 0x0 DUP4 DUP2 MSTORE PUSH1 0x5 PUSH1 0x20 MSTORE PUSH1 0x40 SWAP1 KECCAK256 PUSH1 0x1 ADD SLOAD LT PUSH2 0x381 JUMPI PUSH1 0x0 DUP3 DUP2 MSTORE PUSH1 0x5 PUSH1 0x20 MSTORE PUSH1 0x40 DUP1 DUP3 KECCAK256 DUP1 SLOAD PUSH1 0xFF NOT AND PUSH1 0x1 OR SWAP1 SSTORE PUSH1 0x3 SLOAD SWAP1 MLOAD PUSH4 0x2D182BE5 PUSH1 0xE2 SHL DUP2 MSTORE PUSH1 0x4 DUP2 ADD DUP7 SWAP1 MSTORE PUSH1 0x1 PUSH1 0x1 PUSH1 0xA0 SHL SUB DUP8 DUP2 AND PUSH1 0x24 DUP4 ADD MSTORE DUP5 DUP2 AND PUSH1 0x44 DUP4 ADD MSTORE SWAP1 SWAP2 AND SWAP2 SWAP1 DUP2 SWAP1 DUP2 SWAP1 DUP5 SWAP1 PUSH4 0xB460AF94 SWAP1 PUSH1 0x64 ADD PUSH1 0x60 PUSH1 0x40 MLOAD DUP1 DUP4 SUB DUP2 PUSH1 0x0 DUP8 GAS CALL ISZERO DUP1 ISZERO PUSH2 0x305 JUMPI RETURNDATASIZE PUSH1 0x0 DUP1 RETURNDATACOPY RETURNDATASIZE PUSH1 0x0 REVERT JUMPDEST POP POP POP POP PUSH1 0x40 MLOAD RETURNDATASIZE PUSH1 0x1F NOT PUSH1 0x1F DUP3 ADD AND DUP3 ADD DUP1 PUSH1 0x40 MSTORE POP DUP2 ADD SWAP1 PUSH2 0x329 SWAP2 SWAP1 PUSH2 0x72E JUMP JUMPDEST PUSH1 0x40 DUP1 MLOAD PUSH1 0x1 PUSH1 0x1 PUSH1 0xA0 SHL SUB DUP1 DUP7 AND DUP3 MSTORE DUP5 AND PUSH1 0x20 DUP3 ADD MSTORE SWAP1 DUP2 ADD DUP3 SWAP1 MSTORE SWAP3 SWAP6 POP SWAP1 SWAP4 POP SWAP2 POP PUSH32 0x9B1BFA7FA9EE420A16E124F794C35AC9F90472ACC99140EB2F6447C714CAD8EB SWAP1 PUSH1 0x60 ADD PUSH1 0x40 MLOAD DUP1 SWAP2 SUB SWAP1 LOG1 POP POP POP POP JUMPDEST POP POP POP POP JUMP JUMPDEST PUSH2 0x38F PUSH2 0x534 JUMP JUMPDEST PUSH1 0x3 SLOAD PUSH1 0x40 MLOAD PUSH4 0x2438979 PUSH1 0xE0 SHL DUP2 MSTORE PUSH1 0x1 PUSH1 0x1 PUSH1 0xA0 SHL SUB DUP6 DUP2 AND PUSH1 0x4 DUP4 ADD MSTORE DUP5 ISZERO ISZERO PUSH1 0x24 DUP4 ADD MSTORE DUP4 ISZERO ISZERO PUSH1 0x44 DUP4 ADD MSTORE SWAP1 SWAP2 AND SWAP1 DUP2 SWAP1 PUSH4 0x2438979 SWAP1 PUSH1 0x64 ADD PUSH1 0x0 PUSH1 0x40 MLOAD DUP1 DUP4 SUB DUP2 PUSH1 0x0 DUP8 DUP1 EXTCODESIZE ISZERO DUP1 ISZERO PUSH2 0x3E8 JUMPI PUSH1 0x0 DUP1 REVERT JUMPDEST POP GAS CALL ISZERO DUP1 ISZERO PUSH2 0x3FC JUMPI RETURNDATASIZE PUSH1 0x0 DUP1 RETURNDATACOPY RETURNDATASIZE PUSH1 0x0 REVERT JUMPDEST POP POP POP POP POP POP POP POP JUMP JUMPDEST PUSH1 0x1 DUP1 SLOAD SWAP1 PUSH1 0x0 PUSH2 0x416 DUP4 PUSH2 0x707 JUMP JUMPDEST SWAP1 SWAP2 SSTORE POP POP PUSH1 0x3 SLOAD PUSH1 0x40 MLOAD PUSH4 0x8340F549 PUSH1 0xE0 SHL DUP2 MSTORE PUSH1 0x1 PUSH1 0x1 PUSH1 0xA0 SHL SUB DUP6 DUP2 AND PUSH1 0x4 DUP4 ADD MSTORE DUP5 DUP2 AND PUSH1 0x24 DUP4 ADD MSTORE PUSH1 0x44 DUP3 ADD DUP5 SWAP1 MSTORE SWAP1 SWAP2 AND SWAP1 PUSH1 0x0 SWAP1 DUP2 SWAP1 DUP2 SWAP1 DUP5 SWAP1 PUSH4 0x8340F549 SWAP1 PUSH1 0x64 ADD PUSH1 0x60 PUSH1 0x40 MLOAD DUP1 DUP4 SUB DUP2 PUSH1 0x0 DUP8 GAS CALL ISZERO DUP1 ISZERO PUSH2 0x47F JUMPI RETURNDATASIZE PUSH1 0x0 DUP1 RETURNDATACOPY RETURNDATASIZE PUSH1 0x0 REVERT JUMPDEST POP POP POP POP PUSH1 0x40 MLOAD RETURNDATASIZE PUSH1 0x1F NOT PUSH1 0x1F DUP3 ADD AND DUP3 ADD DUP1 PUSH1 0x40 MSTORE POP DUP2 ADD SWAP1 PUSH2 0x4A3 SWAP2 SWAP1 PUSH2 0x72E JUMP JUMPDEST PUSH1 0x1 SLOAD PUSH1 0x40 DUP1 MLOAD PUSH1 0x1 PUSH1 0x1 PUSH1 0xA0 SHL SUB DUP1 DUP8 AND DUP3 MSTORE DUP6 AND PUSH1 0x20 DUP3 ADD MSTORE SWAP1 DUP2 ADD DUP4 SWAP1 MSTORE PUSH1 0x60 DUP2 ADD SWAP2 SWAP1 SWAP2 MSTORE SWAP3 SWAP6 POP SWAP1 SWAP4 POP SWAP2 POP PUSH32 0xDCBC1C05240F31FF3AD067EF1EE35CE4997762752E3A095284754544F4C709D7 SWAP1 PUSH1 0x80 ADD PUSH1 0x40 MLOAD DUP1 SWAP2 SUB SWAP1 LOG1 POP POP POP POP POP POP POP JUMP JUMPDEST PUSH2 0x512 PUSH2 0x534 JUMP JUMPDEST PUSH1 0x3 DUP1 SLOAD PUSH1 0x1 PUSH1 0x1 PUSH1 0xA0 SHL SUB NOT AND PUSH1 0x1 PUSH1 0x1 PUSH1 0xA0 SHL SUB SWAP3 SWAP1 SWAP3 AND SWAP2 SWAP1 SWAP2 OR SWAP1 SSTORE JUMP JUMPDEST PUSH1 0x0 SLOAD PUSH1 0x1 PUSH1 0x1 PUSH1 0xA0 SHL SUB AND CALLER EQ PUSH2 0x585 JUMPI PUSH1 0x40 MLOAD PUSH3 0x461BCD PUSH1 0xE5 SHL DUP2 MSTORE PUSH1 0x20 PUSH1 0x4 DUP3 ADD MSTORE PUSH1 0x14 PUSH1 0x24 DUP3 ADD MSTORE PUSH20 0x39B2B73232B91036BAB9BA1031329037BBB732B9 PUSH1 0x61 SHL PUSH1 0x44 DUP3 ADD MSTORE PUSH1 0x64 ADD PUSH2 0x1D9 JUMP JUMPDEST JUMP JUMPDEST CALLER PUSH1 0x0 SWAP1 DUP2 MSTORE PUSH1 0x4 PUSH1 0x20 MSTORE PUSH1 0x40 SWAP1 KECCAK256 SLOAD PUSH1 0xFF AND PUSH2 0x585 JUMPI PUSH1 0x40 MLOAD PUSH3 0x461BCD PUSH1 0xE5 SHL DUP2 MSTORE PUSH1 0x20 PUSH1 0x4 DUP3 ADD MSTORE PUSH1 0x1A PUSH1 0x24 DUP3 ADD MSTORE PUSH32 0x73656E646572206D75737420626520612076616C696461746F72000000000000 PUSH1 0x44 DUP3 ADD MSTORE PUSH1 0x64 ADD PUSH2 0x1D9 JUMP JUMPDEST PUSH1 0x1 PUSH1 0x1 PUSH1 0xA0 SHL SUB DUP2 AND DUP2 EQ PUSH2 0x5FB JUMPI PUSH1 0x0 DUP1 REVERT JUMPDEST POP JUMP JUMPDEST PUSH1 0x0 PUSH1 0x20 DUP3 DUP5 SUB SLT ISZERO PUSH2 0x610 JUMPI PUSH1 0x0 DUP1 REVERT JUMPDEST DUP2 CALLDATALOAD PUSH2 0x61B DUP2 PUSH2 0x5E6 JUMP JUMPDEST SWAP4 SWAP3 POP POP POP JUMP JUMPDEST PUSH1 0x0 DUP1 PUSH1 0x0 DUP1 PUSH1 0x80 DUP6 DUP8 SUB SLT ISZERO PUSH2 0x638 JUMPI PUSH1 0x0 DUP1 REVERT JUMPDEST DUP5 CALLDATALOAD PUSH2 0x643 DUP2 PUSH2 0x5E6 JUMP JUMPDEST SWAP4 POP PUSH1 0x20 DUP6 ADD CALLDATALOAD SWAP3 POP PUSH1 0x40 DUP6 ADD CALLDATALOAD SWAP2 POP PUSH1 0x60 DUP6 ADD CALLDATALOAD PUSH2 0x661 DUP2 PUSH2 0x5E6 JUMP JUMPDEST SWAP4 SWAP7 SWAP3 SWAP6 POP SWAP1 SWAP4 POP POP JUMP JUMPDEST DUP1 CALLDATALOAD DUP1 ISZERO ISZERO DUP2 EQ PUSH2 0x67C JUMPI PUSH1 0x0 DUP1 REVERT JUMPDEST SWAP2 SWAP1 POP JUMP JUMPDEST PUSH1 0x0 DUP1 PUSH1 0x0 PUSH1 0x60 DUP5 DUP7 SUB SLT ISZERO PUSH2 0x696 JUMPI PUSH1 0x0 DUP1 REVERT JUMPDEST DUP4 CALLDATALOAD PUSH2 0x6A1 DUP2 PUSH2 0x5E6 JUMP JUMPDEST SWAP3 POP PUSH2 0x6AF PUSH1 0x20 DUP6 ADD PUSH2 0x66C JUMP JUMPDEST SWAP2 POP PUSH2 0x6BD PUSH1 0x40 DUP6 ADD PUSH2 0x66C JUMP JUMPDEST SWAP1 POP SWAP3 POP SWAP3 POP SWAP3 JUMP JUMPDEST PUSH1 0x0 DUP1 PUSH1 0x0 PUSH1 0x60 DUP5 DUP7 SUB SLT ISZERO PUSH2 0x6DB JUMPI PUSH1 0x0 DUP1 REVERT JUMPDEST DUP4 CALLDATALOAD PUSH2 0x6E6 DUP2 PUSH2 0x5E6 JUMP JUMPDEST SWAP3 POP PUSH1 0x20 DUP5 ADD CALLDATALOAD PUSH2 0x6F6 DUP2 PUSH2 0x5E6 JUMP JUMPDEST SWAP3 SWAP6 SWAP3 SWAP5 POP POP POP PUSH1 0x40 SWAP2 SWAP1 SWAP2 ADD CALLDATALOAD SWAP1 JUMP JUMPDEST PUSH1 0x0 PUSH1 0x1 DUP3 ADD PUSH2 0x727 JUMPI PUSH4 0x4E487B71 PUSH1 0xE0 SHL PUSH1 0x0 MSTORE PUSH1 0x11 PUSH1 0x4 MSTORE PUSH1 0x24 PUSH1 0x0 REVERT JUMPDEST POP PUSH1 0x1 ADD SWAP1 JUMP JUMPDEST PUSH1 0x0 DUP1 PUSH1 0x0 PUSH1 0x60 DUP5 DUP7 SUB SLT ISZERO PUSH2 0x743 JUMPI PUSH1 0x0 DUP1 REVERT JUMPDEST DUP4 MLOAD PUSH2 0x74E DUP2 PUSH2 0x5E6 JUMP JUMPDEST PUSH1 0x20 DUP6 ADD MLOAD SWAP1 SWAP4 POP PUSH2 0x75F DUP2 PUSH2 0x5E6 JUMP JUMPDEST DUP1 SWAP3 POP POP PUSH1 0x40 DUP5 ADD MLOAD SWAP1 POP SWAP3 POP SWAP3 POP SWAP3 JUMP INVALID LOG2 PUSH5 0x6970667358 0x22 SLT KECCAK256 0xE1 PUSH11 0x4169BCB4D68FD09EA5BEB9 PUSH1 0x93 ISZERO 0xAB 0xEA ADD PUSH10 0x578F571CF3BEE8C09660 0x22 0xE9 PUSH5 0x736F6C6343 STOP ADDMOD EQ STOP CALLER "},"methodIdentifiers":{"deposit(address,address,uint256)":"8340f549","depositNonce()":"de35f5cb","erc20Handler()":"1cb9e262","setHandler(address)":"bac426d0","setToken(address,bool,bool)":"49141db7","setValidator(address)":"1327d3d8","validatorstNonce()":"f9a721c7","withdraw(address,uint256,uint256,address)":"16762eed"}},"storageLayout":{"storage":[{"astId":999,"contract":"contracts/BridgeIN.sol:BridgeIN","label":"owner","offset":0,"slot":"0","type":"t_address"},{"astId":1001,"contract":"contracts/BridgeIN.sol:BridgeIN","label":"depositNonce","offset":0,"slot":"1","type":"t_uint256"},{"astId":1003,"contract":"contracts/BridgeIN.sol:BridgeIN","label":"validatorstNonce","offset":0,"slot":"2","type":"t_uint256"},{"astId":1005,"contract":"contracts/BridgeIN.sol:BridgeIN","label":"erc20Handler","offset":0,"slot":"3","type":"t_address"},{"astId":1009,"contract":"contracts/BridgeIN.sol:BridgeIN","label":"validators","offset":0,"slot":"4","type":"t_mapping(t_address,t_bool)"},{"astId":1014,"contract":"contracts/BridgeIN.sol:BridgeIN","label":"proposals","offset":0,"slot":"5","type":"t_mapping(t_uint256,t_struct(Proposal)997_storage)"}],"types":{"t_address":{"encoding":"inplace","label":"address","numberOfBytes":"20"},"t_bool":{"encoding":"inplace","label":"bool","numberOfBytes":"1"},"t_mapping(t_address,t_bool)":{"encoding":"mapping","key":"t_address","label":"mapping(address => bool)","numberOfBytes":"32","value":"t_bool"},"t_mapping(t_uint256,t_struct(Proposal)997_storage)":{"encoding":"mapping","key":"t_uint256","label":"mapping(uint256 => struct BridgeIN.Proposal)","numberOfBytes":"32","value":"t_struct(Proposal)997_storage"},"t_struct(Proposal)997_storage":{"encoding":"inplace","label":"struct BridgeIN.Proposal","members":[{"astId":986,"contract":"contracts/BridgeIN.sol:BridgeIN","label":"executed","offset":0,"slot":"0","type":"t_bool"},{"astId":988,"contract":"contracts/BridgeIN.sol:BridgeIN","label":"validationsNonce","offset":0,"slot":"1","type":"t_uint256"},{"astId":990,"contract":"contracts/BridgeIN.sol:BridgeIN","label":"token","offset":0,"slot":"2","type":"t_address"},{"astId":992,"contract":"contracts/BridgeIN.sol:BridgeIN","label":"amount","offset":0,"slot":"3","type":"t_uint256"},{"astId":994,"contract":"contracts/BridgeIN.sol:BridgeIN","label":"withdrawNonce","offset":0,"slot":"4","type":"t_uint256"},{"astId":996,"contract":"contracts/BridgeIN.sol:BridgeIN","label":"user","offset":0,"slot":"5","type":"t_address"}],"numberOfBytes":"192"},"t_uint256":{"encoding":"inplace","label":"uint256","numberOfBytes":"32"}}}}}}