{
  "_format": "hh-sol-artifact-1",
  "contractName": "CustomERC20",
  "sourceName": "contracts/CustomERC20.sol",
  "abi": [
    {
      "inputs": [
        {
          "internalType": "string",
          "name": "name",
          "type": "string"
        },
        {
          "internalType": "string",
          "name": "symbol",
          "type": "string"
        }
      ],
      "stateMutability": "nonpayable",
      "type": "constructor"
    },
    {
      "inputs": [
        {
          "internalType": "address",
          "name": "spender",
          "type": "address"
        },
        {
          "internalType": "uint256",
          "name": "allowance",
          "type": "uint256"
        },
        {
          "internalType": "uint256",
          "name": "needed",
          "type": "uint256"
        }
      ],
      "name": "ERC20InsufficientAllowance",
      "type": "error"
    },
    {
      "inputs": [
        {
          "internalType": "address",
          "name": "sender",
          "type": "address"
        },
        {
          "internalType": "uint256",
          "name": "balance",
          "type": "uint256"
        },
        {
          "internalType": "uint256",
          "name": "needed",
          "type": "uint256"
        }
      ],
      "name": "ERC20InsufficientBalance",
      "type": "error"
    },
    {
      "inputs": [
        {
          "internalType": "address",
          "name": "approver",
          "type": "address"
        }
      ],
      "name": "ERC20InvalidApprover",
      "type": "error"
    },
    {
      "inputs": [
        {
          "internalType": "address",
          "name": "receiver",
          "type": "address"
        }
      ],
      "name": "ERC20InvalidReceiver",
      "type": "error"
    },
    {
      "inputs": [
        {
          "internalType": "address",
          "name": "sender",
          "type": "address"
        }
      ],
      "name": "ERC20InvalidSender",
      "type": "error"
    },
    {
      "inputs": [
        {
          "internalType": "address",
          "name": "spender",
          "type": "address"
        }
      ],
      "name": "ERC20InvalidSpender",
      "type": "error"
    },
    {
      "anonymous": false,
      "inputs": [
        {
          "indexed": true,
          "internalType": "address",
          "name": "owner",
          "type": "address"
        },
        {
          "indexed": true,
          "internalType": "address",
          "name": "spender",
          "type": "address"
        },
        {
          "indexed": false,
          "internalType": "uint256",
          "name": "value",
          "type": "uint256"
        }
      ],
      "name": "Approval",
      "type": "event"
    },
    {
      "anonymous": false,
      "inputs": [
        {
          "indexed": true,
          "internalType": "bytes32",
          "name": "role",
          "type": "bytes32"
        },
        {
          "indexed": true,
          "internalType": "address",
          "name": "account",
          "type": "address"
        },
        {
          "indexed": true,
          "internalType": "address",
          "name": "sender",
          "type": "address"
        }
      ],
      "name": "RoleGranted",
      "type": "event"
    },
    {
      "anonymous": false,
      "inputs": [
        {
          "indexed": true,
          "internalType": "bytes32",
          "name": "role",
          "type": "bytes32"
        },
        {
          "indexed": true,
          "internalType": "address",
          "name": "account",
          "type": "address"
        },
        {
          "indexed": true,
          "internalType": "address",
          "name": "sender",
          "type": "address"
        }
      ],
      "name": "RoleRevoked",
      "type": "event"
    },
    {
      "anonymous": false,
      "inputs": [
        {
          "indexed": true,
          "internalType": "address",
          "name": "from",
          "type": "address"
        },
        {
          "indexed": true,
          "internalType": "address",
          "name": "to",
          "type": "address"
        },
        {
          "indexed": false,
          "internalType": "uint256",
          "name": "value",
          "type": "uint256"
        }
      ],
      "name": "Transfer",
      "type": "event"
    },
    {
      "inputs": [],
      "name": "DEFAULT_ADMIN_ROLE",
      "outputs": [
        {
          "internalType": "bytes32",
          "name": "",
          "type": "bytes32"
        }
      ],
      "stateMutability": "view",
      "type": "function"
    },
    {
      "inputs": [],
      "name": "MINTER_ROLE",
      "outputs": [
        {
          "internalType": "bytes32",
          "name": "",
          "type": "bytes32"
        }
      ],
      "stateMutability": "view",
      "type": "function"
    },
    {
      "inputs": [
        {
          "internalType": "address",
          "name": "owner",
          "type": "address"
        },
        {
          "internalType": "address",
          "name": "spender",
          "type": "address"
        }
      ],
      "name": "allowance",
      "outputs": [
        {
          "internalType": "uint256",
          "name": "",
          "type": "uint256"
        }
      ],
      "stateMutability": "view",
      "type": "function"
    },
    {
      "inputs": [
        {
          "internalType": "address",
          "name": "spender",
          "type": "address"
        },
        {
          "internalType": "uint256",
          "name": "value",
          "type": "uint256"
        }
      ],
      "name": "approve",
      "outputs": [
        {
          "internalType": "bool",
          "name": "",
          "type": "bool"
        }
      ],
      "stateMutability": "nonpayable",
      "type": "function"
    },
    {
      "inputs": [
        {
          "internalType": "address",
          "name": "account",
          "type": "address"
        }
      ],
      "name": "balanceOf",
      "outputs": [
        {
          "internalType": "uint256",
          "name": "",
          "type": "uint256"
        }
      ],
      "stateMutability": "view",
      "type": "function"
    },
    {
      "inputs": [
        {
          "internalType": "uint256",
          "name": "value",
          "type": "uint256"
        }
      ],
      "name": "burn",
      "outputs": [],
      "stateMutability": "nonpayable",
      "type": "function"
    },
    {
      "inputs": [
        {
          "internalType": "address",
          "name": "account",
          "type": "address"
        },
        {
          "internalType": "uint256",
          "name": "value",
          "type": "uint256"
        }
      ],
      "name": "burnFrom",
      "outputs": [],
      "stateMutability": "nonpayable",
      "type": "function"
    },
    {
      "inputs": [],
      "name": "decimals",
      "outputs": [
        {
          "internalType": "uint8",
          "name": "",
          "type": "uint8"
        }
      ],
      "stateMutability": "view",
      "type": "function"
    },
    {
      "inputs": [
        {
          "internalType": "bytes32",
          "name": "role",
          "type": "bytes32"
        }
      ],
      "name": "getRoleAdmin",
      "outputs": [
        {
          "internalType": "bytes32",
          "name": "",
          "type": "bytes32"
        }
      ],
      "stateMutability": "view",
      "type": "function"
    },
    {
      "inputs": [
        {
          "internalType": "bytes32",
          "name": "role",
          "type": "bytes32"
        },
        {
          "internalType": "address",
          "name": "account",
          "type": "address"
        }
      ],
      "name": "grantRole",
      "outputs": [],
      "stateMutability": "nonpayable",
      "type": "function"
    },
    {
      "inputs": [
        {
          "internalType": "bytes32",
          "name": "role",
          "type": "bytes32"
        },
        {
          "internalType": "address",
          "name": "account",
          "type": "address"
        }
      ],
      "name": "hasRole",
      "outputs": [
        {
          "internalType": "bool",
          "name": "",
          "type": "bool"
        }
      ],
      "stateMutability": "view",
      "type": "function"
    },
    {
      "inputs": [
        {
          "internalType": "address",
          "name": "to",
          "type": "address"
        },
        {
          "internalType": "uint256",
          "name": "amount",
          "type": "uint256"
        }
      ],
      "name": "mint",
      "outputs": [],
      "stateMutability": "nonpayable",
      "type": "function"
    },
    {
      "inputs": [],
      "name": "name",
      "outputs": [
        {
          "internalType": "string",
          "name": "",
          "type": "string"
        }
      ],
      "stateMutability": "view",
      "type": "function"
    },
    {
      "inputs": [
        {
          "internalType": "bytes32",
          "name": "role",
          "type": "bytes32"
        },
        {
          "internalType": "address",
          "name": "account",
          "type": "address"
        }
      ],
      "name": "revokeRole",
      "outputs": [],
      "stateMutability": "nonpayable",
      "type": "function"
    },
    {
      "inputs": [],
      "name": "symbol",
      "outputs": [
        {
          "internalType": "string",
          "name": "",
          "type": "string"
        }
      ],
      "stateMutability": "view",
      "type": "function"
    },
    {
      "inputs": [],
      "name": "totalSupply",
      "outputs": [
        {
          "internalType": "uint256",
          "name": "",
          "type": "uint256"
        }
      ],
      "stateMutability": "view",
      "type": "function"
    },
    {
      "inputs": [
        {
          "internalType": "address",
          "name": "to",
          "type": "address"
        },
        {
          "internalType": "uint256",
          "name": "value",
          "type": "uint256"
        }
      ],
      "name": "transfer",
      "outputs": [
        {
          "internalType": "bool",
          "name": "",
          "type": "bool"
        }
      ],
      "stateMutability": "nonpayable",
      "type": "function"
    },
    {
      "inputs": [
        {
          "internalType": "address",
          "name": "from",
          "type": "address"
        },
        {
          "internalType": "address",
          "name": "to",
          "type": "address"
        },
        {
          "internalType": "uint256",
          "name": "value",
          "type": "uint256"
        }
      ],
      "name": "transferFrom",
      "outputs": [
        {
          "internalType": "bool",
          "name": "",
          "type": "bool"
        }
      ],
      "stateMutability": "nonpayable",
      "type": "function"
    }
  ],
  "bytecode": "0x60806040523480156200001157600080fd5b50604051620011ef380380620011ef833981016040819052620000349162000203565b81816003620000448382620002fc565b506004620000538282620002fc565b50620000659150600090503362000099565b620000917f9f2df0fed2c77648de5860a4cc508cd0818c85b8b8a1ab4ceeef8d981c8956a63362000099565b5050620003c8565b60008281526005602090815260408083206001600160a01b038516845290915290205460ff166200013a5760008281526005602090815260408083206001600160a01b03851684529091529020805460ff19166001179055620000f93390565b6001600160a01b0316816001600160a01b0316837f2f8788117e7eff1d82e926ec794901d17c78024a50270940304540a733656f0d60405160405180910390a45b5050565b634e487b7160e01b600052604160045260246000fd5b600082601f8301126200016657600080fd5b81516001600160401b03808211156200018357620001836200013e565b604051601f8301601f19908116603f01168101908282118183101715620001ae57620001ae6200013e565b81604052838152602092508683858801011115620001cb57600080fd5b600091505b83821015620001ef5785820183015181830184015290820190620001d0565b600093810190920192909252949350505050565b600080604083850312156200021757600080fd5b82516001600160401b03808211156200022f57600080fd5b6200023d8683870162000154565b935060208501519150808211156200025457600080fd5b50620002638582860162000154565b9150509250929050565b600181811c908216806200028257607f821691505b602082108103620002a357634e487b7160e01b600052602260045260246000fd5b50919050565b601f821115620002f757600081815260208120601f850160051c81016020861015620002d25750805b601f850160051c820191505b81811015620002f357828155600101620002de565b5050505b505050565b81516001600160401b038111156200031857620003186200013e565b62000330816200032984546200026d565b84620002a9565b602080601f8311600181146200036857600084156200034f5750858301515b600019600386901b1c1916600185901b178555620002f3565b600085815260208120601f198616915b82811015620003995788860151825594840194600190910190840162000378565b5085821015620003b85787850151600019600388901b60f8161c191681555b5050505050600190811b01905550565b610e1780620003d86000396000f3fe608060405234801561001057600080fd5b50600436106101165760003560e01c806370a08231116100a2578063a217fddf11610071578063a217fddf14610245578063a9059cbb1461024d578063d539139314610260578063d547741f14610287578063dd62ed3e1461029a57600080fd5b806370a08231146101ee57806379cc67901461021757806391d148541461022a57806395d89b411461023d57600080fd5b8063248a9ca3116100e9578063248a9ca3146101815780632f2ff15d146101a4578063313ce567146101b957806340c10f19146101c857806342966c68146101db57600080fd5b806306fdde031461011b578063095ea7b31461013957806318160ddd1461015c57806323b872dd1461016e575b600080fd5b6101236102d3565b6040516101309190610b69565b60405180910390f35b61014c610147366004610bb8565b610365565b6040519015158152602001610130565b6002545b604051908152602001610130565b61014c61017c366004610be2565b61037f565b61016061018f366004610c1e565b60009081526005602052604090206001015490565b6101b76101b2366004610c37565b6103a3565b005b60405160128152602001610130565b6101b76101d6366004610bb8565b6103ce565b6101b76101e9366004610c1e565b61046a565b6101606101fc366004610c63565b6001600160a01b031660009081526020819052604090205490565b6101b7610225366004610bb8565b610477565b61014c610238366004610c37565b61048c565b6101236104b7565b610160600081565b61014c61025b366004610bb8565b6104c6565b6101607f9f2df0fed2c77648de5860a4cc508cd0818c85b8b8a1ab4ceeef8d981c8956a681565b6101b7610295366004610c37565b6104d4565b6101606102a8366004610c85565b6001600160a01b03918216600090815260016020908152604080832093909416825291909152205490565b6060600380546102e290610caf565b80601f016020809104026020016040519081016040528092919081815260200182805461030e90610caf565b801561035b5780601f106103305761010080835404028352916020019161035b565b820191906000526020600020905b81548152906001019060200180831161033e57829003601f168201915b5050505050905090565b6000336103738185856104fa565b60019150505b92915050565b60003361038d858285610507565b610398858585610585565b506001949350505050565b6000828152600560205260409020600101546103bf81336105e4565b6103c98383610648565b505050565b6103f87f9f2df0fed2c77648de5860a4cc508cd0818c85b8b8a1ab4ceeef8d981c8956a63361048c565b61045c5760405162461bcd60e51b815260206004820152602a60248201527f437573746f6d45524332303a206d7573742068617665206d696e74657220726f6044820152691b19481d1bc81b5a5b9d60b21b60648201526084015b60405180910390fd5b61046682826106ce565b5050565b6104743382610704565b50565b610482823383610507565b6104668282610704565b60009182526005602090815260408084206001600160a01b0393909316845291905290205460ff1690565b6060600480546102e290610caf565b600033610373818585610585565b6000828152600560205260409020600101546104f081336105e4565b6103c9838361073a565b6103c983838360016107a1565b6001600160a01b03838116600090815260016020908152604080832093861683529290522054600019811461057f578181101561057057604051637dc7a0d960e11b81526001600160a01b03841660048201526024810182905260448101839052606401610453565b61057f848484840360006107a1565b50505050565b6001600160a01b0383166105af57604051634b637e8f60e11b815260006004820152602401610453565b6001600160a01b0382166105d95760405163ec442f0560e01b815260006004820152602401610453565b6103c9838383610876565b6105ee828261048c565b61046657610606816001600160a01b031660146109a0565b6106118360206109a0565b604051602001610622929190610ce9565b60408051601f198184030181529082905262461bcd60e51b825261045391600401610b69565b610652828261048c565b6104665760008281526005602090815260408083206001600160a01b03851684529091529020805460ff1916600117905561068a3390565b6001600160a01b0316816001600160a01b0316837f2f8788117e7eff1d82e926ec794901d17c78024a50270940304540a733656f0d60405160405180910390a45050565b6001600160a01b0382166106f85760405163ec442f0560e01b815260006004820152602401610453565b61046660008383610876565b6001600160a01b03821661072e57604051634b637e8f60e11b815260006004820152602401610453565b61046682600083610876565b610744828261048c565b156104665760008281526005602090815260408083206001600160a01b0385168085529252808320805460ff1916905551339285917ff6391f5c32d9c69d2a47ea670b442974b53935d1edc7fd64eb21e047a839171b9190a45050565b6001600160a01b0384166107cb5760405163e602df0560e01b815260006004820152602401610453565b6001600160a01b0383166107f557604051634a1406b160e11b815260006004820152602401610453565b6001600160a01b038085166000908152600160209081526040808320938716835292905220829055801561057f57826001600160a01b0316846001600160a01b03167f8c5be1e5ebec7d5bd14f71427d1e84f3dd0314c0f7b2291e5b200ac8c7c3b9258460405161086891815260200190565b60405180910390a350505050565b6001600160a01b0383166108a15780600260008282546108969190610d74565b909155506109139050565b6001600160a01b038316600090815260208190526040902054818110156108f45760405163391434e360e21b81526001600160a01b03851660048201526024810182905260448101839052606401610453565b6001600160a01b03841660009081526020819052604090209082900390555b6001600160a01b03821661092f5760028054829003905561094e565b6001600160a01b03821660009081526020819052604090208054820190555b816001600160a01b0316836001600160a01b03167fddf252ad1be2c89b69c2b068fc378daa952ba7f163c4a11628f55a4df523b3ef8360405161099391815260200190565b60405180910390a3505050565b60606f181899199a1a9b1b9c1cb0b131b232b360811b60006109c3846002610d87565b6109ce906002610d74565b67ffffffffffffffff8111156109e6576109e6610d9e565b6040519080825280601f01601f191660200182016040528015610a10576020820181803683370190505b509050600360fc1b81600081518110610a2b57610a2b610db4565b60200101906001600160f81b031916908160001a905350600f60fb1b81600181518110610a5a57610a5a610db4565b60200101906001600160f81b031916908160001a9053506000610a7e856002610d87565b610a89906001610d74565b90505b6001811115610aee578286600f1660108110610aaa57610aaa610db4565b1a60f81b828281518110610ac057610ac0610db4565b60200101906001600160f81b031916908160001a90535060049590951c94610ae781610dca565b9050610a8c565b508415610b3d5760405162461bcd60e51b815260206004820181905260248201527f537472696e67733a20686578206c656e67746820696e73756666696369656e746044820152606401610453565b949350505050565b60005b83811015610b60578181015183820152602001610b48565b50506000910152565b6020815260008251806020840152610b88816040850160208701610b45565b601f01601f19169190910160400192915050565b80356001600160a01b0381168114610bb357600080fd5b919050565b60008060408385031215610bcb57600080fd5b610bd483610b9c565b946020939093013593505050565b600080600060608486031215610bf757600080fd5b610c0084610b9c565b9250610c0e60208501610b9c565b9150604084013590509250925092565b600060208284031215610c3057600080fd5b5035919050565b60008060408385031215610c4a57600080fd5b82359150610c5a60208401610b9c565b90509250929050565b600060208284031215610c7557600080fd5b610c7e82610b9c565b9392505050565b60008060408385031215610c9857600080fd5b610ca183610b9c565b9150610c5a60208401610b9c565b600181811c90821680610cc357607f821691505b602082108103610ce357634e487b7160e01b600052602260045260246000fd5b50919050565b7f416363657373436f6e74726f6c3a206163636f756e7420000000000000000000815260008351610d21816017850160208801610b45565b7001034b99036b4b9b9b4b733903937b6329607d1b6017918401918201528351610d52816028840160208801610b45565b01602801949350505050565b634e487b7160e01b600052601160045260246000fd5b8082018082111561037957610379610d5e565b808202811582820484141761037957610379610d5e565b634e487b7160e01b600052604160045260246000fd5b634e487b7160e01b600052603260045260246000fd5b600081610dd957610dd9610d5e565b50600019019056fea2646970667358221220f722a51c8e82bdd867b27170a3f4ec45c3a56ef560f7c9970481e44ae6adba3064736f6c63430008140033",
  "linkReferences": {},
  "deployedLinkReferences": {}
}