{
  "_format": "hh-sol-artifact-1",
  "contractName": "BridgeOUT",
  "sourceName": "contracts/BridgeOUT.sol",
  "abi": [
    {
      "anonymous": false,
      "inputs": [
        {
          "indexed": false,
          "internalType": "address",
          "name": "token",
          "type": "address"
        },
        {
          "indexed": false,
          "internalType": "uint256",
          "name": "amount",
          "type": "uint256"
        },
        {
          "indexed": false,
          "internalType": "uint64",
          "name": "depositNonce",
          "type": "uint64"
        },
        {
          "indexed": false,
          "internalType": "address",
          "name": "user",
          "type": "address"
        }
      ],
      "name": "Withdraw",
      "type": "event"
    },
    {
      "inputs": [
        {
          "internalType": "uint8",
          "name": "destinationDomainID",
          "type": "uint8"
        },
        {
          "internalType": "uint256",
          "name": "resourceID",
          "type": "uint256"
        },
        {
          "internalType": "uint64",
          "name": "depositNonce",
          "type": "uint64"
        },
        {
          "internalType": "address",
          "name": "user",
          "type": "address"
        }
      ],
      "name": "handleProposal",
      "outputs": [
        {
          "internalType": "address",
          "name": "_user",
          "type": "address"
        }
      ],
      "stateMutability": "nonpayable",
      "type": "function"
    },
    {
      "inputs": [],
      "name": "withdraw",
      "outputs": [],
      "stateMutability": "nonpayable",
      "type": "function"
    }
  ],
  "bytecode": "0x608060405234801561001057600080fd5b50610334806100206000396000f3fe608060405234801561001057600080fd5b50600436106100365760003560e01c80633ccfd60b1461003b578063e17087ab14610045575b600080fd5b610043610074565b005b6100586100533660046101da565b6100fa565b6040516001600160a01b03909116815260200160405180910390f35b6100b26040518060400160405280601981526020017f3d3d3d3d3d3d3d3d3d3d3d3d3d3d3d3d20776974686472617700000000000000815250610126565b604080513081526001602082018190528183015233606082015290517f4859354726044714605030d377eed2f01c08ef9073cbe2bff1b7fbd3a4aef99d9181900360800190a1565b600061011e6040518060600160405280602881526020016102d7602891398361016c565b509392505050565b6101698160405160240161013a9190610292565b60408051601f198184030181529190526020810180516001600160e01b031663104c13eb60e21b1790526101b5565b50565b6101b182826040516024016101829291906102ac565b60408051601f198184030181529190526020810180516001600160e01b031663319af33360e01b1790526101b5565b5050565b6101698160006a636f6e736f6c652e6c6f679050600080835160208501845afa505050565b600080600080608085870312156101f057600080fd5b843560ff8116811461020157600080fd5b935060208501359250604085013567ffffffffffffffff8116811461022557600080fd5b915060608501356001600160a01b038116811461024157600080fd5b939692955090935050565b6000815180845260005b8181101561027257602081850181015186830182015201610256565b506000602082860101526020601f19601f83011685010191505092915050565b6020815260006102a5602083018461024c565b9392505050565b6040815260006102bf604083018561024c565b905060018060a01b0383166020830152939250505056fe3d3d3d3d3d3d3d3d3d3d3d3d3d3d3d3d20476f74206e65772050726f706f73616c7c20557365723aa264697066735822122035c37956006e317ce1e0dfda4e7d595ac4824afcae2d4635fceec322b45a9ae764736f6c63430008140033",
  "linkReferences": {},
  "deployedLinkReferences": {}
}