{
  "_format": "hh-sol-artifact-1",
  "contractName": "BridgeOUT",
  "sourceName": "contracts/BridgeOUT.sol",
  "abi": [
    {
      "inputs": [],
      "stateMutability": "nonpayable",
      "type": "constructor"
    },
    {
      "inputs": [
        {
          "internalType": "address",
          "name": "owner",
          "type": "address"
        }
      ],
      "name": "OwnableInvalidOwner",
      "type": "error"
    },
    {
      "inputs": [
        {
          "internalType": "address",
          "name": "account",
          "type": "address"
        }
      ],
      "name": "OwnableUnauthorizedAccount",
      "type": "error"
    },
    {
      "anonymous": false,
      "inputs": [
        {
          "indexed": false,
          "internalType": "address",
          "name": "tokenAddress",
          "type": "address"
        },
        {
          "indexed": false,
          "internalType": "address",
          "name": "recipient",
          "type": "address"
        },
        {
          "indexed": false,
          "internalType": "uint256",
          "name": "amount",
          "type": "uint256"
        }
      ],
      "name": "Deposit",
      "type": "event"
    },
    {
      "anonymous": false,
      "inputs": [
        {
          "indexed": true,
          "internalType": "address",
          "name": "previousOwner",
          "type": "address"
        },
        {
          "indexed": true,
          "internalType": "address",
          "name": "newOwner",
          "type": "address"
        }
      ],
      "name": "OwnershipTransferred",
      "type": "event"
    },
    {
      "anonymous": false,
      "inputs": [
        {
          "indexed": false,
          "internalType": "address",
          "name": "tokenAddress",
          "type": "address"
        },
        {
          "indexed": false,
          "internalType": "address",
          "name": "recipientAddress",
          "type": "address"
        },
        {
          "indexed": false,
          "internalType": "uint256",
          "name": "amount",
          "type": "uint256"
        },
        {
          "indexed": false,
          "internalType": "uint256",
          "name": "nonce",
          "type": "uint256"
        }
      ],
      "name": "Withdraw",
      "type": "event"
    },
    {
      "inputs": [
        {
          "internalType": "address",
          "name": "token",
          "type": "address"
        },
        {
          "internalType": "uint256",
          "name": "amount",
          "type": "uint256"
        },
        {
          "internalType": "uint256",
          "name": "depositNonce",
          "type": "uint256"
        },
        {
          "internalType": "address",
          "name": "user",
          "type": "address"
        }
      ],
      "name": "deposit",
      "outputs": [],
      "stateMutability": "nonpayable",
      "type": "function"
    },
    {
      "inputs": [],
      "name": "erc20Handler",
      "outputs": [
        {
          "internalType": "address",
          "name": "",
          "type": "address"
        }
      ],
      "stateMutability": "view",
      "type": "function"
    },
    {
      "inputs": [],
      "name": "owner",
      "outputs": [
        {
          "internalType": "address",
          "name": "",
          "type": "address"
        }
      ],
      "stateMutability": "view",
      "type": "function"
    },
    {
      "inputs": [],
      "name": "renounceOwnership",
      "outputs": [],
      "stateMutability": "nonpayable",
      "type": "function"
    },
    {
      "inputs": [
        {
          "internalType": "address",
          "name": "_handler",
          "type": "address"
        }
      ],
      "name": "setHandler",
      "outputs": [],
      "stateMutability": "nonpayable",
      "type": "function"
    },
    {
      "inputs": [
        {
          "internalType": "address",
          "name": "_token",
          "type": "address"
        },
        {
          "internalType": "bool",
          "name": "_isBurnable",
          "type": "bool"
        },
        {
          "internalType": "bool",
          "name": "_isWhitelisted",
          "type": "bool"
        },
        {
          "internalType": "address",
          "name": "_erc20Pair",
          "type": "address"
        }
      ],
      "name": "setToken",
      "outputs": [],
      "stateMutability": "nonpayable",
      "type": "function"
    },
    {
      "inputs": [
        {
          "internalType": "address",
          "name": "_validator",
          "type": "address"
        }
      ],
      "name": "setValidator",
      "outputs": [],
      "stateMutability": "nonpayable",
      "type": "function"
    },
    {
      "inputs": [
        {
          "internalType": "address",
          "name": "newOwner",
          "type": "address"
        }
      ],
      "name": "transferOwnership",
      "outputs": [],
      "stateMutability": "nonpayable",
      "type": "function"
    },
    {
      "inputs": [],
      "name": "validatorstNonce",
      "outputs": [
        {
          "internalType": "uint256",
          "name": "",
          "type": "uint256"
        }
      ],
      "stateMutability": "view",
      "type": "function"
    },
    {
      "inputs": [
        {
          "internalType": "address",
          "name": "tokenAddress",
          "type": "address"
        },
        {
          "internalType": "address",
          "name": "recipientAddress",
          "type": "address"
        },
        {
          "internalType": "uint256",
          "name": "amount",
          "type": "uint256"
        }
      ],
      "name": "withdraw",
      "outputs": [],
      "stateMutability": "nonpayable",
      "type": "function"
    },
    {
      "inputs": [],
      "name": "withdrawNonce",
      "outputs": [
        {
          "internalType": "uint256",
          "name": "",
          "type": "uint256"
        }
      ],
      "stateMutability": "view",
      "type": "function"
    }
  ],
  "bytecode": "0x608060405234801561001057600080fd5b50338061003757604051631e4fbdf760e01b81526000600482015260240160405180910390fd5b61004081610046565b50610096565b600080546001600160a01b038381166001600160a01b0319831681178455604051919092169283917f8be0079c531659141344cd1fd0a4f28419497f9722a3daafe3b4186f6b6457e09190a35050565b6108cc806100a56000396000f3fe608060405234801561001057600080fd5b50600436106100a95760003560e01c8063aa86475d11610071578063aa86475d1461011f578063b8a4e15114610132578063bac426d014610149578063d9caed121461015c578063f2fde38b1461016f578063f9a721c71461018257600080fd5b80631327d3d8146100ae5780631cb9e262146100c3578063715018a6146100f35780638b6099db146100fb5780638da5cb5b1461010e575b600080fd5b6100c16100bc36600461071b565b61018b565b005b6003546100d6906001600160a01b031681565b6040516001600160a01b0390911681526020015b60405180910390f35b6100c16101cc565b6100c161010936600461073f565b6101e0565b6000546001600160a01b03166100d6565b6100c161012d36600461079e565b6103fc565b61013b60015481565b6040519081526020016100ea565b6100c161015736600461071b565b6104ba565b6100c161016a3660046107eb565b6104e4565b6100c161017d36600461071b565b6105ec565b61013b60025481565b61019361062a565b600280549060006101a38361082c565b90915550506001600160a01b03166000908152600460205260409020805460ff19166001179055565b6101d461062a565b6101de6000610657565b565b6101e86106a7565b60008281526005602052604090205460ff16156102435760405162461bcd60e51b8152602060048201526014602482015273141c9bdc1bdcd85b081a5cc8195e1958dd5d195960621b60448201526064015b60405180910390fd5b60008281526005602052604081206001015490036102af5760008281526005602081905260409091206002810180546001600160a01b038089166001600160a01b0319928316179092556003830187905560048301869055919092018054928416929091169190911790555b60008281526005602052604081206001018054916102cc8361082c565b9091555050600254600083815260056020526040902060010154106103f6576000828152600560209081526040808320805460ff191660011790556001600160a01b0387811684526006909252808320546003549151638340f54960e01b815290831660048201819052858416602483015260448201889052939190921691819081908490638340f549906064016060604051808303816000875af1158015610379573d6000803e3d6000fd5b505050506040513d601f19601f8201168201806040525081019061039d9190610853565b604080516001600160a01b0380861682528416602082015290810182905292955090935091507f5548c837ab068cf56a2c2479df0882a4922fd203edb7517321831d95078c5f629060600160405180910390a150505050505b50505050565b61040461062a565b6003546001600160a01b03828116600081815260066020908152604080832080548b87166001600160a01b03199182168117909255818552600790935292819020805490921690931790559051630243897960e01b81526004810191909152851515602482015284151560448201529116908190630243897990606401600060405180830381600087803b15801561049b57600080fd5b505af11580156104af573d6000803e3d6000fd5b505050505050505050565b6104c261062a565b600380546001600160a01b0319166001600160a01b0392909216919091179055565b600180549060006104f48361082c565b9091555050600354604051632d182be560e21b8152600481018390526001600160a01b03858116602483015233604483015290911690819063b460af94906064016060604051808303816000875af1158015610554573d6000803e3d6000fd5b505050506040513d601f19601f820116820180604052508101906105789190610853565b5050506001600160a01b038481166000908152600760209081526040918290205460015483519185168252938716918101919091528082018590526060810192909252517ff341246adaac6f497bc2a656f546ab9e182111d630394f0c57c710a59a2cb5679181900360800190a150505050565b6105f461062a565b6001600160a01b03811661061e57604051631e4fbdf760e01b81526000600482015260240161023a565b61062781610657565b50565b6000546001600160a01b031633146101de5760405163118cdaa760e01b815233600482015260240161023a565b600080546001600160a01b038381166001600160a01b0319831681178455604051919092169283917f8be0079c531659141344cd1fd0a4f28419497f9722a3daafe3b4186f6b6457e09190a35050565b3360009081526004602052604090205460ff166101de5760405162461bcd60e51b815260206004820152601a60248201527f73656e646572206d75737420626520612076616c696461746f72000000000000604482015260640161023a565b6001600160a01b038116811461062757600080fd5b60006020828403121561072d57600080fd5b813561073881610706565b9392505050565b6000806000806080858703121561075557600080fd5b843561076081610706565b93506020850135925060408501359150606085013561077e81610706565b939692955090935050565b8035801515811461079957600080fd5b919050565b600080600080608085870312156107b457600080fd5b84356107bf81610706565b93506107cd60208601610789565b92506107db60408601610789565b9150606085013561077e81610706565b60008060006060848603121561080057600080fd5b833561080b81610706565b9250602084013561081b81610706565b929592945050506040919091013590565b60006001820161084c57634e487b7160e01b600052601160045260246000fd5b5060010190565b60008060006060848603121561086857600080fd5b835161087381610706565b602085015190935061088481610706565b8092505060408401519050925092509256fea264697066735822122039332df4dc6a132e373d7ccf1d0176addd054422eadebef2d9f83aef7595ba9c64736f6c63430008140033",
  "linkReferences": {},
  "deployedLinkReferences": {}
}