{
  "_format": "hh-sol-artifact-1",
  "contractName": "BridgeOUT",
  "sourceName": "contracts/BridgeOUT.sol",
  "abi": [
    {
      "inputs": [],
      "stateMutability": "nonpayable",
      "type": "constructor"
    },
    {
      "inputs": [
        {
          "internalType": "address",
          "name": "owner",
          "type": "address"
        }
      ],
      "name": "OwnableInvalidOwner",
      "type": "error"
    },
    {
      "inputs": [
        {
          "internalType": "address",
          "name": "account",
          "type": "address"
        }
      ],
      "name": "OwnableUnauthorizedAccount",
      "type": "error"
    },
    {
      "anonymous": false,
      "inputs": [
        {
          "indexed": false,
          "internalType": "address",
          "name": "tokenAddress",
          "type": "address"
        },
        {
          "indexed": false,
          "internalType": "address",
          "name": "recipient",
          "type": "address"
        },
        {
          "indexed": false,
          "internalType": "uint256",
          "name": "amount",
          "type": "uint256"
        }
      ],
      "name": "Deposit",
      "type": "event"
    },
    {
      "anonymous": false,
      "inputs": [
        {
          "indexed": true,
          "internalType": "address",
          "name": "previousOwner",
          "type": "address"
        },
        {
          "indexed": true,
          "internalType": "address",
          "name": "newOwner",
          "type": "address"
        }
      ],
      "name": "OwnershipTransferred",
      "type": "event"
    },
    {
      "anonymous": false,
      "inputs": [
        {
          "indexed": false,
          "internalType": "address",
          "name": "tokenAddress",
          "type": "address"
        },
        {
          "indexed": false,
          "internalType": "address",
          "name": "recipientAddress",
          "type": "address"
        },
        {
          "indexed": false,
          "internalType": "uint256",
          "name": "amount",
          "type": "uint256"
        },
        {
          "indexed": false,
          "internalType": "uint256",
          "name": "nonce",
          "type": "uint256"
        }
      ],
      "name": "Withdraw",
      "type": "event"
    },
    {
      "inputs": [
        {
          "internalType": "address",
          "name": "token",
          "type": "address"
        },
        {
          "internalType": "uint256",
          "name": "amount",
          "type": "uint256"
        },
        {
          "internalType": "uint256",
          "name": "depositNonce",
          "type": "uint256"
        },
        {
          "internalType": "address",
          "name": "user",
          "type": "address"
        }
      ],
      "name": "deposit",
      "outputs": [],
      "stateMutability": "nonpayable",
      "type": "function"
    },
    {
      "inputs": [],
      "name": "erc20Handler",
      "outputs": [
        {
          "internalType": "address",
          "name": "",
          "type": "address"
        }
      ],
      "stateMutability": "view",
      "type": "function"
    },
    {
      "inputs": [],
      "name": "owner",
      "outputs": [
        {
          "internalType": "address",
          "name": "",
          "type": "address"
        }
      ],
      "stateMutability": "view",
      "type": "function"
    },
    {
      "inputs": [],
      "name": "renounceOwnership",
      "outputs": [],
      "stateMutability": "nonpayable",
      "type": "function"
    },
    {
      "inputs": [
        {
          "internalType": "address",
          "name": "_handler",
          "type": "address"
        }
      ],
      "name": "setHandler",
      "outputs": [],
      "stateMutability": "nonpayable",
      "type": "function"
    },
    {
      "inputs": [
        {
          "internalType": "address",
          "name": "_token",
          "type": "address"
        },
        {
          "internalType": "bool",
          "name": "_isBurnable",
          "type": "bool"
        },
        {
          "internalType": "bool",
          "name": "_isWhitelisted",
          "type": "bool"
        },
        {
          "internalType": "address",
          "name": "_erc20Pair",
          "type": "address"
        }
      ],
      "name": "setToken",
      "outputs": [],
      "stateMutability": "nonpayable",
      "type": "function"
    },
    {
      "inputs": [
        {
          "internalType": "address",
          "name": "_validator",
          "type": "address"
        }
      ],
      "name": "setValidator",
      "outputs": [],
      "stateMutability": "nonpayable",
      "type": "function"
    },
    {
      "inputs": [
        {
          "internalType": "address",
          "name": "newOwner",
          "type": "address"
        }
      ],
      "name": "transferOwnership",
      "outputs": [],
      "stateMutability": "nonpayable",
      "type": "function"
    },
    {
      "inputs": [],
      "name": "validatorstNonce",
      "outputs": [
        {
          "internalType": "uint256",
          "name": "",
          "type": "uint256"
        }
      ],
      "stateMutability": "view",
      "type": "function"
    },
    {
      "inputs": [
        {
          "internalType": "address",
          "name": "tokenAddress",
          "type": "address"
        },
        {
          "internalType": "address",
          "name": "recipientAddress",
          "type": "address"
        },
        {
          "internalType": "uint256",
          "name": "amount",
          "type": "uint256"
        }
      ],
      "name": "withdraw",
      "outputs": [],
      "stateMutability": "nonpayable",
      "type": "function"
    },
    {
      "inputs": [],
      "name": "withdrawNonce",
      "outputs": [
        {
          "internalType": "uint256",
          "name": "",
          "type": "uint256"
        }
      ],
      "stateMutability": "view",
      "type": "function"
    }
  ],
  "bytecode": "0x608060405234801561001057600080fd5b50338061003757604051631e4fbdf760e01b81526000600482015260240160405180910390fd5b61004081610046565b50610096565b600080546001600160a01b038381166001600160a01b0319831681178455604051919092169283917f8be0079c531659141344cd1fd0a4f28419497f9722a3daafe3b4186f6b6457e09190a35050565b61089f806100a56000396000f3fe608060405234801561001057600080fd5b50600436106100a95760003560e01c8063aa86475d11610071578063aa86475d1461011f578063b8a4e15114610132578063bac426d014610149578063d9caed121461015c578063f2fde38b1461016f578063f9a721c71461018257600080fd5b80631327d3d8146100ae5780631cb9e262146100c3578063715018a6146100f35780638b6099db146100fb5780638da5cb5b1461010e575b600080fd5b6100c16100bc3660046106ee565b61018b565b005b6003546100d6906001600160a01b031681565b6040516001600160a01b0390911681526020015b60405180910390f35b6100c16101cc565b6100c1610109366004610712565b6101e0565b6000546001600160a01b03166100d6565b6100c161012d366004610771565b6103fc565b61013b60015481565b6040519081526020016100ea565b6100c16101573660046106ee565b6104a2565b6100c161016a3660046107be565b6104cc565b6100c161017d3660046106ee565b6105bf565b61013b60025481565b6101936105fd565b600280549060006101a3836107ff565b90915550506001600160a01b03166000908152600460205260409020805460ff19166001179055565b6101d46105fd565b6101de600061062a565b565b6101e861067a565b60008281526005602052604090205460ff16156102435760405162461bcd60e51b8152602060048201526014602482015273141c9bdc1bdcd85b081a5cc8195e1958dd5d195960621b60448201526064015b60405180910390fd5b60008281526005602052604081206001015490036102af5760008281526005602081905260409091206002810180546001600160a01b038089166001600160a01b0319928316179092556003830187905560048301869055919092018054928416929091169190911790555b60008281526005602052604081206001018054916102cc836107ff565b9091555050600254600083815260056020526040902060010154106103f6576000828152600560209081526040808320805460ff191660011790556001600160a01b0387811684526006909252808320546003549151638340f54960e01b815290831660048201819052858416602483015260448201889052939190921691819081908490638340f549906064016060604051808303816000875af1158015610379573d6000803e3d6000fd5b505050506040513d601f19601f8201168201806040525081019061039d9190610826565b604080516001600160a01b0380861682528416602082015290810182905292955090935091507f5548c837ab068cf56a2c2479df0882a4922fd203edb7517321831d95078c5f629060600160405180910390a150505050505b50505050565b6104046105fd565b6003546001600160a01b038281166000908152600660205260409081902080546001600160a01b0319168884169081179091559051630243897960e01b81526004810191909152851515602482015284151560448201529116908190630243897990606401600060405180830381600087803b15801561048357600080fd5b505af1158015610497573d6000803e3d6000fd5b505050505050505050565b6104aa6105fd565b600380546001600160a01b0319166001600160a01b0392909216919091179055565b600180549060006104dc836107ff565b9091555050600354604051632d182be560e21b8152600481018390526001600160a01b03858116602483015233604483015290911690819063b460af94906064016060604051808303816000875af115801561053c573d6000803e3d6000fd5b505050506040513d601f19601f820116820180604052508101906105609190610826565b5050600154604080516001600160a01b0380891682528716602082015290810185905260608101919091527ff341246adaac6f497bc2a656f546ab9e182111d630394f0c57c710a59a2cb567915060800160405180910390a150505050565b6105c76105fd565b6001600160a01b0381166105f157604051631e4fbdf760e01b81526000600482015260240161023a565b6105fa8161062a565b50565b6000546001600160a01b031633146101de5760405163118cdaa760e01b815233600482015260240161023a565b600080546001600160a01b038381166001600160a01b0319831681178455604051919092169283917f8be0079c531659141344cd1fd0a4f28419497f9722a3daafe3b4186f6b6457e09190a35050565b3360009081526004602052604090205460ff166101de5760405162461bcd60e51b815260206004820152601a60248201527f73656e646572206d75737420626520612076616c696461746f72000000000000604482015260640161023a565b6001600160a01b03811681146105fa57600080fd5b60006020828403121561070057600080fd5b813561070b816106d9565b9392505050565b6000806000806080858703121561072857600080fd5b8435610733816106d9565b935060208501359250604085013591506060850135610751816106d9565b939692955090935050565b8035801515811461076c57600080fd5b919050565b6000806000806080858703121561078757600080fd5b8435610792816106d9565b93506107a06020860161075c565b92506107ae6040860161075c565b91506060850135610751816106d9565b6000806000606084860312156107d357600080fd5b83356107de816106d9565b925060208401356107ee816106d9565b929592945050506040919091013590565b60006001820161081f57634e487b7160e01b600052601160045260246000fd5b5060010190565b60008060006060848603121561083b57600080fd5b8351610846816106d9565b6020850151909350610857816106d9565b8092505060408401519050925092509256fea26469706673582212207936ce494602098dcf3ac7a36f77bbd349922132ccb73bb9d1aaf2f4fcdf9c8c64736f6c63430008140033",
  "linkReferences": {},
  "deployedLinkReferences": {}
}