{
  "_format": "hh-sol-artifact-1",
  "contractName": "Bridge",
  "sourceName": "contracts/Bridge.sol",
  "abi": [
    {
      "inputs": [
        {
          "internalType": "address",
          "name": "_oracleDepositStorage",
          "type": "address"
        }
      ],
      "stateMutability": "nonpayable",
      "type": "constructor"
    },
    {
      "inputs": [
        {
          "internalType": "address",
          "name": "owner",
          "type": "address"
        }
      ],
      "name": "OwnableInvalidOwner",
      "type": "error"
    },
    {
      "inputs": [
        {
          "internalType": "address",
          "name": "account",
          "type": "address"
        }
      ],
      "name": "OwnableUnauthorizedAccount",
      "type": "error"
    },
    {
      "anonymous": false,
      "inputs": [
        {
          "indexed": false,
          "internalType": "address",
          "name": "tokenAddress",
          "type": "address"
        },
        {
          "indexed": false,
          "internalType": "address",
          "name": "depositor",
          "type": "address"
        },
        {
          "indexed": false,
          "internalType": "uint256",
          "name": "amount",
          "type": "uint256"
        }
      ],
      "name": "Deposit",
      "type": "event"
    },
    {
      "anonymous": false,
      "inputs": [
        {
          "indexed": true,
          "internalType": "address",
          "name": "previousOwner",
          "type": "address"
        },
        {
          "indexed": true,
          "internalType": "address",
          "name": "newOwner",
          "type": "address"
        }
      ],
      "name": "OwnershipTransferred",
      "type": "event"
    },
    {
      "anonymous": false,
      "inputs": [
        {
          "indexed": false,
          "internalType": "address",
          "name": "tokenAddress",
          "type": "address"
        },
        {
          "indexed": false,
          "internalType": "address",
          "name": "depositor",
          "type": "address"
        },
        {
          "indexed": false,
          "internalType": "uint256",
          "name": "amount",
          "type": "uint256"
        }
      ],
      "name": "Received",
      "type": "event"
    },
    {
      "inputs": [
        {
          "internalType": "address",
          "name": "tokenAddress",
          "type": "address"
        },
        {
          "internalType": "address",
          "name": "depositor",
          "type": "address"
        },
        {
          "internalType": "uint256",
          "name": "amount",
          "type": "uint256"
        }
      ],
      "name": "depositTokens",
      "outputs": [],
      "stateMutability": "payable",
      "type": "function"
    },
    {
      "inputs": [],
      "name": "erc20Handler",
      "outputs": [
        {
          "internalType": "address",
          "name": "",
          "type": "address"
        }
      ],
      "stateMutability": "view",
      "type": "function"
    },
    {
      "inputs": [],
      "name": "owner",
      "outputs": [
        {
          "internalType": "address",
          "name": "",
          "type": "address"
        }
      ],
      "stateMutability": "view",
      "type": "function"
    },
    {
      "inputs": [
        {
          "internalType": "bytes32",
          "name": "",
          "type": "bytes32"
        }
      ],
      "name": "receiveSubmissions",
      "outputs": [
        {
          "internalType": "uint256",
          "name": "",
          "type": "uint256"
        }
      ],
      "stateMutability": "view",
      "type": "function"
    },
    {
      "inputs": [
        {
          "internalType": "bytes32",
          "name": "_txHash",
          "type": "bytes32"
        },
        {
          "internalType": "address",
          "name": "_recipient",
          "type": "address"
        },
        {
          "internalType": "address",
          "name": "_token",
          "type": "address"
        },
        {
          "internalType": "uint256",
          "name": "_amount",
          "type": "uint256"
        },
        {
          "internalType": "bytes32",
          "name": "_leaf",
          "type": "bytes32"
        },
        {
          "internalType": "bytes32[]",
          "name": "_proof",
          "type": "bytes32[]"
        }
      ],
      "name": "receiveTokens",
      "outputs": [],
      "stateMutability": "nonpayable",
      "type": "function"
    },
    {
      "inputs": [],
      "name": "renounceOwnership",
      "outputs": [],
      "stateMutability": "nonpayable",
      "type": "function"
    },
    {
      "inputs": [
        {
          "internalType": "address",
          "name": "_handler",
          "type": "address"
        }
      ],
      "name": "setHandler",
      "outputs": [],
      "stateMutability": "nonpayable",
      "type": "function"
    },
    {
      "inputs": [
        {
          "internalType": "address",
          "name": "_token",
          "type": "address"
        },
        {
          "internalType": "bool",
          "name": "_isBurnable",
          "type": "bool"
        },
        {
          "internalType": "bool",
          "name": "_isWhitelisted",
          "type": "bool"
        },
        {
          "internalType": "address",
          "name": "_pair",
          "type": "address"
        }
      ],
      "name": "setToken",
      "outputs": [],
      "stateMutability": "nonpayable",
      "type": "function"
    },
    {
      "inputs": [
        {
          "internalType": "address",
          "name": "_validator",
          "type": "address"
        }
      ],
      "name": "setValidator",
      "outputs": [],
      "stateMutability": "nonpayable",
      "type": "function"
    },
    {
      "inputs": [
        {
          "internalType": "address",
          "name": "",
          "type": "address"
        }
      ],
      "name": "tokenToReceive",
      "outputs": [
        {
          "internalType": "address",
          "name": "",
          "type": "address"
        }
      ],
      "stateMutability": "view",
      "type": "function"
    },
    {
      "inputs": [
        {
          "internalType": "address",
          "name": "newOwner",
          "type": "address"
        }
      ],
      "name": "transferOwnership",
      "outputs": [],
      "stateMutability": "nonpayable",
      "type": "function"
    },
    {
      "inputs": [],
      "name": "validatorsAmount",
      "outputs": [
        {
          "internalType": "uint256",
          "name": "",
          "type": "uint256"
        }
      ],
      "stateMutability": "view",
      "type": "function"
    },
    {
      "stateMutability": "payable",
      "type": "receive"
    }
  ],
  "bytecode": "0x608060405234801561001057600080fd5b50604051610d32380380610d3283398101604081905261002f916100d4565b338061005557604051631e4fbdf760e01b81526000600482015260240160405180910390fd5b61005e81610084565b50600580546001600160a01b0319166001600160a01b0392909216919091179055610104565b600080546001600160a01b038381166001600160a01b0319831681178455604051919092169283917f8be0079c531659141344cd1fd0a4f28419497f9722a3daafe3b4186f6b6457e09190a35050565b6000602082840312156100e657600080fd5b81516001600160a01b03811681146100fd57600080fd5b9392505050565b610c1f806101136000396000f3fe6080604052600436106100ab5760003560e01c80638da5cb5b116100645780638da5cb5b14610182578063aa86475d146101a0578063bac426d0146101c0578063e19fa744146101e0578063f2fde38b1461020d578063f7717c8e1461022d57600080fd5b80631327d3d8146100b75780631cb9e262146100d957806339dc5ef214610116578063658a544714610129578063715018a61461014957806371b118fe1461015e57600080fd5b366100b257005b600080fd5b3480156100c357600080fd5b506100d76100d2366004610911565b610263565b005b3480156100e557600080fd5b506002546100f9906001600160a01b031681565b6040516001600160a01b0390911681526020015b60405180910390f35b6100d7610124366004610935565b6102a4565b34801561013557600080fd5b506100d7610144366004610976565b6103c2565b34801561015557600080fd5b506100d761062c565b34801561016a57600080fd5b5061017460015481565b60405190815260200161010d565b34801561018e57600080fd5b506000546001600160a01b03166100f9565b3480156101ac57600080fd5b506100d76101bb366004610a3c565b610640565b3480156101cc57600080fd5b506100d76101db366004610911565b6106e6565b3480156101ec57600080fd5b506101746101fb366004610a98565b60066020526000908152604090205481565b34801561021957600080fd5b506100d7610228366004610911565b610710565b34801561023957600080fd5b506100f9610248366004610911565b6007602052600090815260409020546001600160a01b031681565b61026b61074e565b6001805490600061027b83610ac7565b90915550506001600160a01b03166000908152600360205260409020805460ff19166001179055565b600034116103055760405162461bcd60e51b8152602060048201526024808201527f76616c7565206f662076616c696461746f722072657761726420697320746f6f604482015263206c6f7760e01b60648201526084015b60405180910390fd5b600254604051638340f54960e01b81526001600160a01b03909116908190638340f5499061033b90879033908790600401610ae0565b6060604051808303816000875af115801561035a573d6000803e3d6000fd5b505050506040513d601f19601f8201168201806040525081019061037e9190610b04565b5050507f5548c837ab068cf56a2c2479df0882a4922fd203edb7517321831d95078c5f628484846040516103b493929190610ae0565b60405180910390a150505050565b6103ca61077b565b60008781526004602052604090205460ff16156104295760405162461bcd60e51b815260206004820152601860248201527f5472616e73616374696f6e2069732070726f636573736564000000000000000060448201526064016102fc565b6005546040516315b49f4360e31b81526001600160a01b039091169063ada4fa189061045f90859085908c908990600401610b47565b602060405180830381865afa15801561047c573d6000803e3d6000fd5b505050506040513d601f19601f820116820180604052508101906104a09190610b8d565b6104dc5760405162461bcd60e51b815260206004820152600d60248201526c24b73b30b634b210383937b7b360991b60448201526064016102fc565b60008587866040516020016104f393929190610ae0565b6040516020818303038152906040528051906020012090508381146105505760405162461bcd60e51b8152602060048201526013602482015272098cac2cc40c8decae640dcdee840dac2e8c6d606b1b60448201526064016102fc565b6001600160a01b0380871660009081526007602052604090205416806105a85760405162461bcd60e51b815260206004820152600d60248201526c2ab735b737bbb7102a37b5b2b760991b60448201526064016102fc565b60008981526006602052604081208054916105c283610ac7565b919050555060006064600154604d6105da9190610baa565b6105e49190610bc7565b60008b81526006602052604090205490915081116106205760008a8152600460205260409020805460ff19166001179055610620828a896107da565b50505050505050505050565b61063461074e565b61063e60006108ac565b565b61064861074e565b6002546001600160a01b038281166000908152600760205260409081902080546001600160a01b0319168884169081179091559051630243897960e01b81526004810191909152851515602482015284151560448201529116908190630243897990606401600060405180830381600087803b1580156106c757600080fd5b505af11580156106db573d6000803e3d6000fd5b505050505050505050565b6106ee61074e565b600280546001600160a01b0319166001600160a01b0392909216919091179055565b61071861074e565b6001600160a01b03811661074257604051631e4fbdf760e01b8152600060048201526024016102fc565b61074b816108ac565b50565b6000546001600160a01b0316331461063e5760405163118cdaa760e01b81523360048201526024016102fc565b3360009081526003602052604090205460ff1661063e5760405162461bcd60e51b815260206004820152601a60248201527f73656e646572206d75737420626520612076616c696461746f7200000000000060448201526064016102fc565b600254604051632d182be560e21b8152600481018390526001600160a01b03858116602483015284811660448301529091169060009081908190849063b460af94906064016060604051808303816000875af115801561083e573d6000803e3d6000fd5b505050506040513d601f19601f820116820180604052508101906108629190610b04565b9250925092507f8cabf31d2b1b11ba52dbb302817a3c9c83e4b2a5194d35121ab1354d69f6a4cb83838360405161089b93929190610ae0565b60405180910390a150505050505050565b600080546001600160a01b038381166001600160a01b0319831681178455604051919092169283917f8be0079c531659141344cd1fd0a4f28419497f9722a3daafe3b4186f6b6457e09190a35050565b6001600160a01b038116811461074b57600080fd5b60006020828403121561092357600080fd5b813561092e816108fc565b9392505050565b60008060006060848603121561094a57600080fd5b8335610955816108fc565b92506020840135610965816108fc565b929592945050506040919091013590565b600080600080600080600060c0888a03121561099157600080fd5b8735965060208801356109a3816108fc565b955060408801356109b3816108fc565b9450606088013593506080880135925060a088013567ffffffffffffffff808211156109de57600080fd5b818a0191508a601f8301126109f257600080fd5b813581811115610a0157600080fd5b8b60208260051b8501011115610a1657600080fd5b60208301945080935050505092959891949750929550565b801515811461074b57600080fd5b60008060008060808587031215610a5257600080fd5b8435610a5d816108fc565b93506020850135610a6d81610a2e565b92506040850135610a7d81610a2e565b91506060850135610a8d816108fc565b939692955090935050565b600060208284031215610aaa57600080fd5b5035919050565b634e487b7160e01b600052601160045260246000fd5b600060018201610ad957610ad9610ab1565b5060010190565b6001600160a01b039384168152919092166020820152604081019190915260600190565b600080600060608486031215610b1957600080fd5b8351610b24816108fc565b6020850151909350610b35816108fc565b80925050604084015190509250925092565b6060808252810184905260006001600160fb1b03851115610b6757600080fd5b8460051b8087608085013760208301949094525060408101919091520160800192915050565b600060208284031215610b9f57600080fd5b815161092e81610a2e565b8082028115828204841417610bc157610bc1610ab1565b92915050565b600082610be457634e487b7160e01b600052601260045260246000fd5b50049056fea264697066735822122032c9a38532842ab7d064fefd14772ae1ec630305a3e7b26f73e072f0b92e7ee264736f6c63430008140033",
  "linkReferences": {},
  "deployedLinkReferences": {}
}