{
  "_format": "hh-sol-artifact-1",
  "contractName": "Bridge",
  "sourceName": "contracts/Bridge.sol",
  "abi": [
    {
      "inputs": [
        {
          "internalType": "address",
          "name": "_oracleDepositStorage",
          "type": "address"
        }
      ],
      "stateMutability": "nonpayable",
      "type": "constructor"
    },
    {
      "inputs": [
        {
          "internalType": "address",
          "name": "owner",
          "type": "address"
        }
      ],
      "name": "OwnableInvalidOwner",
      "type": "error"
    },
    {
      "inputs": [
        {
          "internalType": "address",
          "name": "account",
          "type": "address"
        }
      ],
      "name": "OwnableUnauthorizedAccount",
      "type": "error"
    },
    {
      "anonymous": false,
      "inputs": [
        {
          "indexed": false,
          "internalType": "address",
          "name": "tokenAddress",
          "type": "address"
        },
        {
          "indexed": false,
          "internalType": "address",
          "name": "depositor",
          "type": "address"
        },
        {
          "indexed": false,
          "internalType": "uint256",
          "name": "amount",
          "type": "uint256"
        }
      ],
      "name": "Deposit",
      "type": "event"
    },
    {
      "anonymous": false,
      "inputs": [
        {
          "indexed": true,
          "internalType": "address",
          "name": "previousOwner",
          "type": "address"
        },
        {
          "indexed": true,
          "internalType": "address",
          "name": "newOwner",
          "type": "address"
        }
      ],
      "name": "OwnershipTransferred",
      "type": "event"
    },
    {
      "inputs": [
        {
          "internalType": "address",
          "name": "tokenAddress",
          "type": "address"
        },
        {
          "internalType": "address",
          "name": "depositor",
          "type": "address"
        },
        {
          "internalType": "uint256",
          "name": "amount",
          "type": "uint256"
        }
      ],
      "name": "depositTokens",
      "outputs": [],
      "stateMutability": "payable",
      "type": "function"
    },
    {
      "inputs": [],
      "name": "erc20Handler",
      "outputs": [
        {
          "internalType": "address",
          "name": "",
          "type": "address"
        }
      ],
      "stateMutability": "view",
      "type": "function"
    },
    {
      "inputs": [],
      "name": "owner",
      "outputs": [
        {
          "internalType": "address",
          "name": "",
          "type": "address"
        }
      ],
      "stateMutability": "view",
      "type": "function"
    },
    {
      "inputs": [
        {
          "internalType": "bytes32",
          "name": "_txHash",
          "type": "bytes32"
        },
        {
          "internalType": "address",
          "name": "recipient",
          "type": "address"
        },
        {
          "internalType": "address",
          "name": "tokenAddress",
          "type": "address"
        },
        {
          "internalType": "uint256",
          "name": "amount",
          "type": "uint256"
        },
        {
          "internalType": "bytes32[]",
          "name": "merkleProof",
          "type": "bytes32[]"
        }
      ],
      "name": "receiveTokens",
      "outputs": [],
      "stateMutability": "nonpayable",
      "type": "function"
    },
    {
      "inputs": [],
      "name": "renounceOwnership",
      "outputs": [],
      "stateMutability": "nonpayable",
      "type": "function"
    },
    {
      "inputs": [
        {
          "internalType": "address",
          "name": "_handler",
          "type": "address"
        }
      ],
      "name": "setHandler",
      "outputs": [],
      "stateMutability": "nonpayable",
      "type": "function"
    },
    {
      "inputs": [
        {
          "internalType": "address",
          "name": "_token",
          "type": "address"
        },
        {
          "internalType": "bool",
          "name": "_isBurnable",
          "type": "bool"
        },
        {
          "internalType": "bool",
          "name": "_isWhitelisted",
          "type": "bool"
        }
      ],
      "name": "setToken",
      "outputs": [],
      "stateMutability": "nonpayable",
      "type": "function"
    },
    {
      "inputs": [
        {
          "internalType": "address",
          "name": "_validator",
          "type": "address"
        }
      ],
      "name": "setValidator",
      "outputs": [],
      "stateMutability": "nonpayable",
      "type": "function"
    },
    {
      "inputs": [
        {
          "internalType": "address",
          "name": "newOwner",
          "type": "address"
        }
      ],
      "name": "transferOwnership",
      "outputs": [],
      "stateMutability": "nonpayable",
      "type": "function"
    },
    {
      "inputs": [],
      "name": "validatorstNonce",
      "outputs": [
        {
          "internalType": "uint256",
          "name": "",
          "type": "uint256"
        }
      ],
      "stateMutability": "view",
      "type": "function"
    },
    {
      "stateMutability": "payable",
      "type": "receive"
    }
  ],
  "bytecode": "0x608060405234801561001057600080fd5b5060405161099c38038061099c83398101604081905261002f916100d4565b338061005557604051631e4fbdf760e01b81526000600482015260240160405180910390fd5b61005e81610084565b50600580546001600160a01b0319166001600160a01b0392909216919091179055610104565b600080546001600160a01b038381166001600160a01b0319831681178455604051919092169283917f8be0079c531659141344cd1fd0a4f28419497f9722a3daafe3b4186f6b6457e09190a35050565b6000602082840312156100e657600080fd5b81516001600160a01b03811681146100fd57600080fd5b9392505050565b610889806101136000396000f3fe6080604052600436106100955760003560e01c8063715018a611610059578063715018a6146101535780638da5cb5b14610168578063bac426d014610186578063f2fde38b146101a6578063f9a721c7146101c657600080fd5b80631327d3d8146100a15780631cb9e262146100c357806333ae9e861461010057806339dc5ef21461012057806349141db71461013357600080fd5b3661009c57005b600080fd5b3480156100ad57600080fd5b506100c16100bc366004610623565b6101ea565b005b3480156100cf57600080fd5b506002546100e3906001600160a01b031681565b6040516001600160a01b0390911681526020015b60405180910390f35b34801561010c57600080fd5b506100c161011b366004610647565b61022b565b6100c161012e3660046106f4565b610367565b34801561013f57600080fd5b506100c161014e366004610743565b610496565b34801561015f57600080fd5b506100c1610515565b34801561017457600080fd5b506000546001600160a01b03166100e3565b34801561019257600080fd5b506100c16101a1366004610623565b610529565b3480156101b257600080fd5b506100c16101c1366004610623565b610553565b3480156101d257600080fd5b506101dc60015481565b6040519081526020016100f7565b6101f2610591565b600180549060006102028361078e565b90915550506001600160a01b03166000908152600360205260409020805460ff19166001179055565b60008681526004602052604090205460ff161561028f5760405162461bcd60e51b815260206004820152601860248201527f5472616e73616374696f6e2069732070726f636573736564000000000000000060448201526064015b60405180910390fd5b600554604051630caa69ed60e21b81526001600160a01b03909116906332a9a7b4906102c390859085908b906004016107b5565b602060405180830381865afa1580156102e0573d6000803e3d6000fd5b505050506040513d601f19601f8201168201806040525081019061030491906107f3565b6103475760405162461bcd60e51b815260206004820152601460248201527324b73b30b634b21026b2b935b63290383937b7b360611b6044820152606401610286565b50505060009283525050600460205260409020805460ff19166001179055565b600034116103c35760405162461bcd60e51b8152602060048201526024808201527f76616c7565206f662076616c696461746f722072657761726420697320746f6f604482015263206c6f7760e01b6064820152608401610286565b600254604051638340f54960e01b81526001600160a01b03858116600483015233602483015260448201849052909116908190638340f549906064016060604051808303816000875af115801561041e573d6000803e3d6000fd5b505050506040513d601f19601f820116820180604052508101906104429190610810565b5050604080516001600160a01b038088168252861660208201529081018490527f5548c837ab068cf56a2c2479df0882a4922fd203edb7517321831d95078c5f62915060600160405180910390a150505050565b61049e610591565b600254604051630243897960e01b81526001600160a01b03858116600483015284151560248301528315156044830152909116908190630243897990606401600060405180830381600087803b1580156104f757600080fd5b505af115801561050b573d6000803e3d6000fd5b5050505050505050565b61051d610591565b61052760006105be565b565b610531610591565b600280546001600160a01b0319166001600160a01b0392909216919091179055565b61055b610591565b6001600160a01b03811661058557604051631e4fbdf760e01b815260006004820152602401610286565b61058e816105be565b50565b6000546001600160a01b031633146105275760405163118cdaa760e01b8152336004820152602401610286565b600080546001600160a01b038381166001600160a01b0319831681178455604051919092169283917f8be0079c531659141344cd1fd0a4f28419497f9722a3daafe3b4186f6b6457e09190a35050565b6001600160a01b038116811461058e57600080fd5b60006020828403121561063557600080fd5b81356106408161060e565b9392505050565b60008060008060008060a0878903121561066057600080fd5b8635955060208701356106728161060e565b945060408701356106828161060e565b935060608701359250608087013567ffffffffffffffff808211156106a657600080fd5b818901915089601f8301126106ba57600080fd5b8135818111156106c957600080fd5b8a60208260051b85010111156106de57600080fd5b6020830194508093505050509295509295509295565b60008060006060848603121561070957600080fd5b83356107148161060e565b925060208401356107248161060e565b929592945050506040919091013590565b801515811461058e57600080fd5b60008060006060848603121561075857600080fd5b83356107638161060e565b9250602084013561077381610735565b9150604084013561078381610735565b809150509250925092565b6000600182016107ae57634e487b7160e01b600052601160045260246000fd5b5060010190565b6040808252810183905260006001600160fb1b038411156107d557600080fd5b8360051b808660608501376020830193909352500160600192915050565b60006020828403121561080557600080fd5b815161064081610735565b60008060006060848603121561082557600080fd5b83516108308161060e565b60208501519093506108418161060e565b8092505060408401519050925092509256fea264697066735822122024d471b1fc388c9dcc95b00c5fb125171b2869cafbc37ebe74ab7e8885628e4c64736f6c63430008140033",
  "linkReferences": {},
  "deployedLinkReferences": {}
}