{
  "_format": "hh-sol-artifact-1",
  "contractName": "Bridge",
  "sourceName": "contracts/Bridge.sol",
  "abi": [
    {
      "inputs": [],
      "stateMutability": "nonpayable",
      "type": "constructor"
    },
    {
      "inputs": [
        {
          "internalType": "address",
          "name": "owner",
          "type": "address"
        }
      ],
      "name": "OwnableInvalidOwner",
      "type": "error"
    },
    {
      "inputs": [
        {
          "internalType": "address",
          "name": "account",
          "type": "address"
        }
      ],
      "name": "OwnableUnauthorizedAccount",
      "type": "error"
    },
    {
      "anonymous": false,
      "inputs": [
        {
          "indexed": false,
          "internalType": "address",
          "name": "tokenAddress",
          "type": "address"
        },
        {
          "indexed": false,
          "internalType": "address",
          "name": "depositor",
          "type": "address"
        },
        {
          "indexed": false,
          "internalType": "uint256",
          "name": "amount",
          "type": "uint256"
        }
      ],
      "name": "Deposit",
      "type": "event"
    },
    {
      "anonymous": false,
      "inputs": [
        {
          "indexed": true,
          "internalType": "address",
          "name": "previousOwner",
          "type": "address"
        },
        {
          "indexed": true,
          "internalType": "address",
          "name": "newOwner",
          "type": "address"
        }
      ],
      "name": "OwnershipTransferred",
      "type": "event"
    },
    {
      "anonymous": false,
      "inputs": [
        {
          "indexed": false,
          "internalType": "address",
          "name": "tokenAddress",
          "type": "address"
        },
        {
          "indexed": false,
          "internalType": "address",
          "name": "recipient",
          "type": "address"
        },
        {
          "indexed": false,
          "internalType": "uint256",
          "name": "amount",
          "type": "uint256"
        }
      ],
      "name": "Withdraw",
      "type": "event"
    },
    {
      "inputs": [],
      "name": "depositNonce",
      "outputs": [
        {
          "internalType": "uint256",
          "name": "",
          "type": "uint256"
        }
      ],
      "stateMutability": "view",
      "type": "function"
    },
    {
      "inputs": [
        {
          "internalType": "address",
          "name": "tokenAddress",
          "type": "address"
        },
        {
          "internalType": "address",
          "name": "depositor",
          "type": "address"
        },
        {
          "internalType": "uint256",
          "name": "amount",
          "type": "uint256"
        }
      ],
      "name": "depositTokens",
      "outputs": [],
      "stateMutability": "payable",
      "type": "function"
    },
    {
      "inputs": [],
      "name": "erc20Handler",
      "outputs": [
        {
          "internalType": "address",
          "name": "",
          "type": "address"
        }
      ],
      "stateMutability": "view",
      "type": "function"
    },
    {
      "inputs": [],
      "name": "mainValidator",
      "outputs": [
        {
          "internalType": "address",
          "name": "",
          "type": "address"
        }
      ],
      "stateMutability": "view",
      "type": "function"
    },
    {
      "inputs": [],
      "name": "owner",
      "outputs": [
        {
          "internalType": "address",
          "name": "",
          "type": "address"
        }
      ],
      "stateMutability": "view",
      "type": "function"
    },
    {
      "inputs": [
        {
          "internalType": "bytes32",
          "name": "_txHash",
          "type": "bytes32"
        }
      ],
      "name": "receiveTokens",
      "outputs": [],
      "stateMutability": "nonpayable",
      "type": "function"
    },
    {
      "inputs": [],
      "name": "renounceOwnership",
      "outputs": [],
      "stateMutability": "nonpayable",
      "type": "function"
    },
    {
      "inputs": [
        {
          "internalType": "address",
          "name": "_handler",
          "type": "address"
        }
      ],
      "name": "setHandler",
      "outputs": [],
      "stateMutability": "nonpayable",
      "type": "function"
    },
    {
      "inputs": [
        {
          "internalType": "address",
          "name": "_token",
          "type": "address"
        },
        {
          "internalType": "bool",
          "name": "_isBurnable",
          "type": "bool"
        },
        {
          "internalType": "bool",
          "name": "_isWhitelisted",
          "type": "bool"
        }
      ],
      "name": "setToken",
      "outputs": [],
      "stateMutability": "nonpayable",
      "type": "function"
    },
    {
      "inputs": [
        {
          "internalType": "address",
          "name": "_validator",
          "type": "address"
        }
      ],
      "name": "setValidator",
      "outputs": [],
      "stateMutability": "nonpayable",
      "type": "function"
    },
    {
      "inputs": [
        {
          "internalType": "address",
          "name": "newOwner",
          "type": "address"
        }
      ],
      "name": "transferOwnership",
      "outputs": [],
      "stateMutability": "nonpayable",
      "type": "function"
    },
    {
      "inputs": [],
      "name": "validatorstNonce",
      "outputs": [
        {
          "internalType": "uint256",
          "name": "",
          "type": "uint256"
        }
      ],
      "stateMutability": "view",
      "type": "function"
    },
    {
      "stateMutability": "payable",
      "type": "receive"
    }
  ],
  "bytecode": "0x608060405234801561001057600080fd5b50338061003757604051631e4fbdf760e01b81526000600482015260240160405180910390fd5b61004081610046565b50610096565b600080546001600160a01b038381166001600160a01b0319831681178455604051919092169283917f8be0079c531659141344cd1fd0a4f28419497f9722a3daafe3b4186f6b6457e09190a35050565b610730806100a56000396000f3fe6080604052600436106100ab5760003560e01c80638da5cb5b116100645780638da5cb5b1461017e578063bac426d01461019c578063ccdce180146101bc578063de35f5cb146101dc578063f2fde38b14610200578063f9a721c71461022057600080fd5b80631327d3d8146100b75780631cb9e262146100d957806339dc5ef21461011657806349141db7146101295780635dbc2f8314610149578063715018a61461016957600080fd5b366100b257005b600080fd5b3480156100c357600080fd5b506100d76100d23660046105b8565b610236565b005b3480156100e557600080fd5b506004546100f9906001600160a01b031681565b6040516001600160a01b0390911681526020015b60405180910390f35b6100d76101243660046105dc565b610277565b34801561013557600080fd5b506100d7610144366004610632565b6103c2565b34801561015557600080fd5b506001546100f9906001600160a01b031681565b34801561017557600080fd5b506100d7610443565b34801561018a57600080fd5b506000546001600160a01b03166100f9565b3480156101a857600080fd5b506100d76101b73660046105b8565b610457565b3480156101c857600080fd5b506100d76101d7366004610677565b610481565b3480156101e857600080fd5b506101f260025481565b60405190815260200161010d565b34801561020c57600080fd5b506100d761021b3660046105b8565b61048c565b34801561022c57600080fd5b506101f260035481565b61023e6104c7565b6003805490600061024e83610690565b90915550506001600160a01b03166000908152600560205260409020805460ff19166001179055565b600034116102d85760405162461bcd60e51b8152602060048201526024808201527f76616c7565206f662076616c696461746f722072657761726420697320746f6f604482015263206c6f7760e01b60648201526084015b60405180910390fd5b600280549060006102e883610690565b909155505060048054604051638340f54960e01b81526001600160a01b0386811693820193909352336024820152604481018490529116908190638340f549906064016060604051808303816000875af115801561034a573d6000803e3d6000fd5b505050506040513d601f19601f8201168201806040525081019061036e91906106b7565b5050604080516001600160a01b038088168252861660208201529081018490527f5548c837ab068cf56a2c2479df0882a4922fd203edb7517321831d95078c5f62915060600160405180910390a150505050565b6103ca6104c7565b60048054604051630243897960e01b81526001600160a01b0386811693820193909352841515602482015283151560448201529116908190630243897990606401600060405180830381600087803b15801561042557600080fd5b505af1158015610439573d6000803e3d6000fd5b5050505050505050565b61044b6104c7565b61045560006104f4565b565b61045f6104c7565b600480546001600160a01b0319166001600160a01b0392909216919091179055565b610489610544565b50565b6104946104c7565b6001600160a01b0381166104be57604051631e4fbdf760e01b8152600060048201526024016102cf565b610489816104f4565b6000546001600160a01b031633146104555760405163118cdaa760e01b81523360048201526024016102cf565b600080546001600160a01b038381166001600160a01b0319831681178455604051919092169283917f8be0079c531659141344cd1fd0a4f28419497f9722a3daafe3b4186f6b6457e09190a35050565b3360009081526005602052604090205460ff166104555760405162461bcd60e51b815260206004820152601a60248201527f73656e646572206d75737420626520612076616c696461746f7200000000000060448201526064016102cf565b6001600160a01b038116811461048957600080fd5b6000602082840312156105ca57600080fd5b81356105d5816105a3565b9392505050565b6000806000606084860312156105f157600080fd5b83356105fc816105a3565b9250602084013561060c816105a3565b929592945050506040919091013590565b8035801515811461062d57600080fd5b919050565b60008060006060848603121561064757600080fd5b8335610652816105a3565b92506106606020850161061d565b915061066e6040850161061d565b90509250925092565b60006020828403121561068957600080fd5b5035919050565b6000600182016106b057634e487b7160e01b600052601160045260246000fd5b5060010190565b6000806000606084860312156106cc57600080fd5b83516106d7816105a3565b60208501519093506106e8816105a3565b8092505060408401519050925092509256fea26469706673582212208ed84855e3ab214ccedd52613ecbc7bb91b9fb27729af629e4880a6c85cf693764736f6c63430008140033",
  "linkReferences": {},
  "deployedLinkReferences": {}
}