{
  "_format": "hh-sol-artifact-1",
  "contractName": "Bridge",
  "sourceName": "contracts/Bridge.sol",
  "abi": [
    {
      "inputs": [
        {
          "internalType": "address",
          "name": "_oracleDepositStorage",
          "type": "address"
        }
      ],
      "stateMutability": "nonpayable",
      "type": "constructor"
    },
    {
      "inputs": [
        {
          "internalType": "address",
          "name": "owner",
          "type": "address"
        }
      ],
      "name": "OwnableInvalidOwner",
      "type": "error"
    },
    {
      "inputs": [
        {
          "internalType": "address",
          "name": "account",
          "type": "address"
        }
      ],
      "name": "OwnableUnauthorizedAccount",
      "type": "error"
    },
    {
      "anonymous": false,
      "inputs": [
        {
          "indexed": false,
          "internalType": "address",
          "name": "tokenAddress",
          "type": "address"
        },
        {
          "indexed": false,
          "internalType": "address",
          "name": "depositor",
          "type": "address"
        },
        {
          "indexed": false,
          "internalType": "uint256",
          "name": "amount",
          "type": "uint256"
        }
      ],
      "name": "Deposit",
      "type": "event"
    },
    {
      "anonymous": false,
      "inputs": [
        {
          "indexed": true,
          "internalType": "address",
          "name": "previousOwner",
          "type": "address"
        },
        {
          "indexed": true,
          "internalType": "address",
          "name": "newOwner",
          "type": "address"
        }
      ],
      "name": "OwnershipTransferred",
      "type": "event"
    },
    {
      "inputs": [
        {
          "internalType": "address",
          "name": "tokenAddress",
          "type": "address"
        },
        {
          "internalType": "address",
          "name": "depositor",
          "type": "address"
        },
        {
          "internalType": "uint256",
          "name": "amount",
          "type": "uint256"
        }
      ],
      "name": "depositTokens",
      "outputs": [],
      "stateMutability": "payable",
      "type": "function"
    },
    {
      "inputs": [],
      "name": "erc20Handler",
      "outputs": [
        {
          "internalType": "address",
          "name": "",
          "type": "address"
        }
      ],
      "stateMutability": "view",
      "type": "function"
    },
    {
      "inputs": [],
      "name": "owner",
      "outputs": [
        {
          "internalType": "address",
          "name": "",
          "type": "address"
        }
      ],
      "stateMutability": "view",
      "type": "function"
    },
    {
      "inputs": [
        {
          "internalType": "bytes32",
          "name": "_txHash",
          "type": "bytes32"
        },
        {
          "internalType": "address",
          "name": "_recipient",
          "type": "address"
        },
        {
          "internalType": "address",
          "name": "_tokenAddress",
          "type": "address"
        },
        {
          "internalType": "uint256",
          "name": "_amount",
          "type": "uint256"
        },
        {
          "internalType": "bytes32",
          "name": "_leaf",
          "type": "bytes32"
        },
        {
          "internalType": "bytes32[]",
          "name": "_proof",
          "type": "bytes32[]"
        }
      ],
      "name": "receiveTokens",
      "outputs": [],
      "stateMutability": "nonpayable",
      "type": "function"
    },
    {
      "inputs": [],
      "name": "renounceOwnership",
      "outputs": [],
      "stateMutability": "nonpayable",
      "type": "function"
    },
    {
      "inputs": [
        {
          "internalType": "address",
          "name": "_handler",
          "type": "address"
        }
      ],
      "name": "setHandler",
      "outputs": [],
      "stateMutability": "nonpayable",
      "type": "function"
    },
    {
      "inputs": [
        {
          "internalType": "address",
          "name": "_token",
          "type": "address"
        },
        {
          "internalType": "bool",
          "name": "_isBurnable",
          "type": "bool"
        },
        {
          "internalType": "bool",
          "name": "_isWhitelisted",
          "type": "bool"
        }
      ],
      "name": "setToken",
      "outputs": [],
      "stateMutability": "nonpayable",
      "type": "function"
    },
    {
      "inputs": [
        {
          "internalType": "address",
          "name": "_validator",
          "type": "address"
        }
      ],
      "name": "setValidator",
      "outputs": [],
      "stateMutability": "nonpayable",
      "type": "function"
    },
    {
      "inputs": [
        {
          "internalType": "address",
          "name": "newOwner",
          "type": "address"
        }
      ],
      "name": "transferOwnership",
      "outputs": [],
      "stateMutability": "nonpayable",
      "type": "function"
    },
    {
      "inputs": [],
      "name": "validatorstNonce",
      "outputs": [
        {
          "internalType": "uint256",
          "name": "",
          "type": "uint256"
        }
      ],
      "stateMutability": "view",
      "type": "function"
    },
    {
      "stateMutability": "payable",
      "type": "receive"
    }
  ],
  "bytecode": "0x608060405234801561001057600080fd5b506040516109b23803806109b283398101604081905261002f916100d4565b338061005557604051631e4fbdf760e01b81526000600482015260240160405180910390fd5b61005e81610084565b50600580546001600160a01b0319166001600160a01b0392909216919091179055610104565b600080546001600160a01b038381166001600160a01b0319831681178455604051919092169283917f8be0079c531659141344cd1fd0a4f28419497f9722a3daafe3b4186f6b6457e09190a35050565b6000602082840312156100e657600080fd5b81516001600160a01b03811681146100fd57600080fd5b9392505050565b61089f806101136000396000f3fe6080604052600436106100955760003560e01c8063715018a611610059578063715018a6146101535780638da5cb5b14610168578063bac426d014610186578063f2fde38b146101a6578063f9a721c7146101c657600080fd5b80631327d3d8146100a15780631cb9e262146100c357806339dc5ef21461010057806349141db714610113578063658a54471461013357600080fd5b3661009c57005b600080fd5b3480156100ad57600080fd5b506100c16100bc366004610626565b6101ea565b005b3480156100cf57600080fd5b506002546100e3906001600160a01b031681565b6040516001600160a01b0390911681526020015b60405180910390f35b6100c161010e36600461064a565b61022b565b34801561011f57600080fd5b506100c161012e366004610699565b61035f565b34801561013f57600080fd5b506100c161014e3660046106e4565b6103de565b34801561015f57600080fd5b506100c1610518565b34801561017457600080fd5b506000546001600160a01b03166100e3565b34801561019257600080fd5b506100c16101a1366004610626565b61052c565b3480156101b257600080fd5b506100c16101c1366004610626565b610556565b3480156101d257600080fd5b506101dc60015481565b6040519081526020016100f7565b6101f2610594565b600180549060006102028361079c565b90915550506001600160a01b03166000908152600360205260409020805460ff19166001179055565b6000341161028c5760405162461bcd60e51b8152602060048201526024808201527f76616c7565206f662076616c696461746f722072657761726420697320746f6f604482015263206c6f7760e01b60648201526084015b60405180910390fd5b600254604051638340f54960e01b81526001600160a01b03858116600483015233602483015260448201849052909116908190638340f549906064016060604051808303816000875af11580156102e7573d6000803e3d6000fd5b505050506040513d601f19601f8201168201806040525081019061030b91906107c3565b5050604080516001600160a01b038088168252861660208201529081018490527f5548c837ab068cf56a2c2479df0882a4922fd203edb7517321831d95078c5f62915060600160405180910390a150505050565b610367610594565b600254604051630243897960e01b81526001600160a01b03858116600483015284151560248301528315156044830152909116908190630243897990606401600060405180830381600087803b1580156103c057600080fd5b505af11580156103d4573d6000803e3d6000fd5b5050505050505050565b60008781526004602052604090205460ff161561043d5760405162461bcd60e51b815260206004820152601860248201527f5472616e73616374696f6e2069732070726f63657373656400000000000000006044820152606401610283565b6005546040516315b49f4360e31b81526001600160a01b039091169063ada4fa189061047390859085908c908990600401610806565b602060405180830381865afa158015610490573d6000803e3d6000fd5b505050506040513d601f19601f820116820180604052508101906104b4919061084c565b6104f75760405162461bcd60e51b815260206004820152601460248201527324b73b30b634b21026b2b935b63290383937b7b360611b6044820152606401610283565b5050506000938452505060046020525060409020805460ff19166001179055565b610520610594565b61052a60006105c1565b565b610534610594565b600280546001600160a01b0319166001600160a01b0392909216919091179055565b61055e610594565b6001600160a01b03811661058857604051631e4fbdf760e01b815260006004820152602401610283565b610591816105c1565b50565b6000546001600160a01b0316331461052a5760405163118cdaa760e01b8152336004820152602401610283565b600080546001600160a01b038381166001600160a01b0319831681178455604051919092169283917f8be0079c531659141344cd1fd0a4f28419497f9722a3daafe3b4186f6b6457e09190a35050565b6001600160a01b038116811461059157600080fd5b60006020828403121561063857600080fd5b813561064381610611565b9392505050565b60008060006060848603121561065f57600080fd5b833561066a81610611565b9250602084013561067a81610611565b929592945050506040919091013590565b801515811461059157600080fd5b6000806000606084860312156106ae57600080fd5b83356106b981610611565b925060208401356106c98161068b565b915060408401356106d98161068b565b809150509250925092565b600080600080600080600060c0888a0312156106ff57600080fd5b87359650602088013561071181610611565b9550604088013561072181610611565b9450606088013593506080880135925060a088013567ffffffffffffffff8082111561074c57600080fd5b818a0191508a601f83011261076057600080fd5b81358181111561076f57600080fd5b8b60208260051b850101111561078457600080fd5b60208301945080935050505092959891949750929550565b6000600182016107bc57634e487b7160e01b600052601160045260246000fd5b5060010190565b6000806000606084860312156107d857600080fd5b83516107e381610611565b60208501519093506107f481610611565b80925050604084015190509250925092565b6060808252810184905260006001600160fb1b0385111561082657600080fd5b8460051b8087608085013760208301949094525060408101919091520160800192915050565b60006020828403121561085e57600080fd5b81516106438161068b56fea2646970667358221220e3faac28778e8148aecdb7b51660d3351fb80bcbd740b6ba19fc74fdcea6e61f64736f6c63430008140033",
  "linkReferences": {},
  "deployedLinkReferences": {}
}