{
  "_format": "hh-sol-artifact-1",
  "contractName": "ERC20Handler",
  "sourceName": "contracts/ERC20Handler.sol",
  "abi": [
    {
      "inputs": [
        {
          "internalType": "address",
          "name": "bridgeAddress",
          "type": "address"
        }
      ],
      "stateMutability": "nonpayable",
      "type": "constructor"
    },
    {
      "inputs": [
        {
          "internalType": "address",
          "name": "contractAddress",
          "type": "address"
        }
      ],
      "name": "ContractAddressNotWhitelisted",
      "type": "error"
    },
    {
      "inputs": [
        {
          "internalType": "address",
          "name": "tokenAddress",
          "type": "address"
        },
        {
          "internalType": "address",
          "name": "depositor",
          "type": "address"
        },
        {
          "internalType": "uint256",
          "name": "amount",
          "type": "uint256"
        }
      ],
      "name": "deposit",
      "outputs": [
        {
          "internalType": "address",
          "name": "",
          "type": "address"
        },
        {
          "internalType": "address",
          "name": "",
          "type": "address"
        },
        {
          "internalType": "uint256",
          "name": "",
          "type": "uint256"
        }
      ],
      "stateMutability": "nonpayable",
      "type": "function"
    },
    {
      "inputs": [
        {
          "internalType": "uint256",
          "name": "amount",
          "type": "uint256"
        },
        {
          "internalType": "address",
          "name": "tokenAddress",
          "type": "address"
        },
        {
          "internalType": "address",
          "name": "recipientAddress",
          "type": "address"
        }
      ],
      "name": "executeProposal",
      "outputs": [
        {
          "internalType": "uint256",
          "name": "_amount",
          "type": "uint256"
        }
      ],
      "stateMutability": "nonpayable",
      "type": "function"
    },
    {
      "inputs": [
        {
          "internalType": "address",
          "name": "token",
          "type": "address"
        },
        {
          "internalType": "bool",
          "name": "isBurnable",
          "type": "bool"
        },
        {
          "internalType": "bool",
          "name": "isWhitelisted",
          "type": "bool"
        }
      ],
      "name": "setResource",
      "outputs": [],
      "stateMutability": "nonpayable",
      "type": "function"
    },
    {
      "inputs": [
        {
          "internalType": "address",
          "name": "",
          "type": "address"
        }
      ],
      "name": "tokenProperties",
      "outputs": [
        {
          "internalType": "bool",
          "name": "isWhitelisted",
          "type": "bool"
        },
        {
          "internalType": "bool",
          "name": "isBurnable",
          "type": "bool"
        }
      ],
      "stateMutability": "view",
      "type": "function"
    }
  ],
  "bytecode": "0x608060405234801561001057600080fd5b506040516107bf3803806107bf83398101604081905261002f91610054565b600080546001600160a01b0319166001600160a01b0392909216919091179055610084565b60006020828403121561006657600080fd5b81516001600160a01b038116811461007d57600080fd5b9392505050565b61072c806100936000396000f3fe608060405234801561001057600080fd5b506004361061004c5760003560e01c806302438979146100515780632ec7bb941461006657806349adb12a146100ae5780638340f549146100cf575b600080fd5b61006461005f3660046105c7565b610108565b005b610092610074366004610610565b60016020526000908152604090205460ff8082169161010090041682565b6040805192151583529015156020830152015b60405180910390f35b6100c16100bc366004610632565b61014c565b6040519081526020016100a5565b6100e26100dd36600461066e565b6101e8565b604080516001600160a01b039485168152939092166020840152908201526060016100a5565b610110610287565b6001600160a01b0383166000908152600160205260409020805461ffff191682151561ff0019161761010084151502179055505050565b505050565b6000610156610287565b6001600160a01b03831660009081526001602052604090205460ff1661019f576040516325df77c560e11b81526001600160a01b03841660048201526024015b60405180910390fd5b6001600160a01b038316600090815260016020526040902054610100900460ff16156101d5576101d08383866102e3565b6101e0565b6101e083838661034f565b509192915050565b60008060006101f5610287565b6001600160a01b03861660009081526001602052604090205460ff16610239576040516325df77c560e11b81526001600160a01b0387166004820152602401610196565b6001600160a01b038616600090815260016020526040902054610100900460ff161561026f5761026a868686610361565b61027b565b61027b86863087610399565b50939492935090919050565b6000546001600160a01b031633146102e15760405162461bcd60e51b815260206004820152601e60248201527f73656e646572206d7573742062652062726964676520636f6e747261637400006044820152606401610196565b565b6040516340c10f1960e01b81526001600160a01b038381166004830152602482018390528491908216906340c10f19906044015b600060405180830381600087803b15801561033157600080fd5b505af1158015610345573d6000803e3d6000fd5b5050505050505050565b8261035b8184846103ad565b50505050565b60405163079cc67960e41b81526001600160a01b038381166004830152602482018390528491908216906379cc679090604401610317565b836103a681858585610410565b5050505050565b6040516001600160a01b03831660248201526044810182905261014790849063a9059cbb60e01b906064015b60408051601f198184030181529190526020810180516001600160e01b03166001600160e01b031990931692909217909152610448565b6040516001600160a01b038085166024830152831660448201526064810182905261035b9085906323b872dd60e01b906084016103d9565b813b8061048f5760405162461bcd60e51b8152602060048201526015602482015274115490cc8c0e881b9bdd08184818dbdb9d1c9858dd605a1b6044820152606401610196565b600080846001600160a01b0316846040516104aa91906106aa565b6000604051808303816000865af19150503d80600081146104e7576040519150601f19603f3d011682016040523d82523d6000602084013e6104ec565b606091505b5091509150816105335760405162461bcd60e51b8152602060048201526012602482015271115490cc8c0e8818d85b1b0819985a5b195960721b6044820152606401610196565b8051156103a6578080602001905181019061054e91906106d9565b6103a65760405162461bcd60e51b815260206004820181905260248201527f45524332303a206f7065726174696f6e20646964206e6f7420737563636565646044820152606401610196565b80356001600160a01b03811681146105b157600080fd5b919050565b80151581146105c457600080fd5b50565b6000806000606084860312156105dc57600080fd5b6105e58461059a565b925060208401356105f5816105b6565b91506040840135610605816105b6565b809150509250925092565b60006020828403121561062257600080fd5b61062b8261059a565b9392505050565b60008060006060848603121561064757600080fd5b833592506106576020850161059a565b91506106656040850161059a565b90509250925092565b60008060006060848603121561068357600080fd5b61068c8461059a565b925061069a6020850161059a565b9150604084013590509250925092565b6000825160005b818110156106cb57602081860181015185830152016106b1565b506000920191825250919050565b6000602082840312156106eb57600080fd5b815161062b816105b656fea2646970667358221220697f0c75786215223cdcbc5c6e962d068a2336f22df2785ed785c223217fcc0364736f6c63430008140033",
  "linkReferences": {},
  "deployedLinkReferences": {}
}