{
  "_format": "hh-sol-artifact-1",
  "contractName": "ERC20Handler",
  "sourceName": "contracts/ERC20Handler.sol",
  "abi": [
    {
      "inputs": [
        {
          "internalType": "address",
          "name": "bridgeAddress",
          "type": "address"
        }
      ],
      "stateMutability": "nonpayable",
      "type": "constructor"
    },
    {
      "inputs": [
        {
          "internalType": "address",
          "name": "contractAddress",
          "type": "address"
        }
      ],
      "name": "ContractAddressNotWhitelisted",
      "type": "error"
    },
    {
      "inputs": [
        {
          "internalType": "address",
          "name": "tokenAddress",
          "type": "address"
        },
        {
          "internalType": "address",
          "name": "depositor",
          "type": "address"
        },
        {
          "internalType": "uint256",
          "name": "amount",
          "type": "uint256"
        }
      ],
      "name": "deposit",
      "outputs": [
        {
          "internalType": "address",
          "name": "",
          "type": "address"
        },
        {
          "internalType": "address",
          "name": "",
          "type": "address"
        },
        {
          "internalType": "uint256",
          "name": "",
          "type": "uint256"
        }
      ],
      "stateMutability": "nonpayable",
      "type": "function"
    },
    {
      "inputs": [
        {
          "internalType": "address",
          "name": "token",
          "type": "address"
        },
        {
          "internalType": "bool",
          "name": "isBurnable",
          "type": "bool"
        },
        {
          "internalType": "bool",
          "name": "isWhitelisted",
          "type": "bool"
        }
      ],
      "name": "setResource",
      "outputs": [],
      "stateMutability": "nonpayable",
      "type": "function"
    },
    {
      "inputs": [
        {
          "internalType": "address",
          "name": "",
          "type": "address"
        }
      ],
      "name": "tokenProperties",
      "outputs": [
        {
          "internalType": "bool",
          "name": "isWhitelisted",
          "type": "bool"
        },
        {
          "internalType": "bool",
          "name": "isBurnable",
          "type": "bool"
        }
      ],
      "stateMutability": "view",
      "type": "function"
    },
    {
      "inputs": [
        {
          "internalType": "uint256",
          "name": "amount",
          "type": "uint256"
        },
        {
          "internalType": "address",
          "name": "tokenAddress",
          "type": "address"
        },
        {
          "internalType": "address",
          "name": "recipientAddress",
          "type": "address"
        }
      ],
      "name": "withdraw",
      "outputs": [
        {
          "internalType": "address",
          "name": "",
          "type": "address"
        },
        {
          "internalType": "address",
          "name": "",
          "type": "address"
        },
        {
          "internalType": "uint256",
          "name": "",
          "type": "uint256"
        }
      ],
      "stateMutability": "nonpayable",
      "type": "function"
    }
  ],
  "bytecode": "0x608060405234801561001057600080fd5b506040516107b63803806107b683398101604081905261002f91610054565b600080546001600160a01b0319166001600160a01b0392909216919091179055610084565b60006020828403121561006657600080fd5b81516001600160a01b038116811461007d57600080fd5b9392505050565b610723806100936000396000f3fe608060405234801561001057600080fd5b506004361061004c5760003560e01c806302438979146100515780632ec7bb94146100665780638340f549146100ae578063b460af94146100e7575b600080fd5b61006461005f3660046105be565b6100fa565b005b610092610074366004610607565b60016020526000908152604090205460ff8082169161010090041682565b6040805192151583529015156020830152015b60405180910390f35b6100c16100bc366004610629565b61013e565b604080516001600160a01b039485168152939092166020840152908201526060016100a5565b6100c16100f5366004610665565b6101e2565b61010261027e565b6001600160a01b0383166000908152600160205260409020805461ffff191682151561ff0019161761010084151502179055505050565b505050565b600080600061014b61027e565b6001600160a01b03861660009081526001602052604090205460ff16610194576040516325df77c560e11b81526001600160a01b03871660048201526024015b60405180910390fd5b6001600160a01b038616600090815260016020526040902054610100900460ff16156101ca576101c58686866102da565b6101d6565b6101d686863087610346565b50939492935090919050565b60008060006101ef61027e565b6001600160a01b03851660009081526001602052604090205460ff16610233576040516325df77c560e11b81526001600160a01b038616600482015260240161018b565b6001600160a01b038516600090815260016020526040902054610100900460ff16156102695761026485858861035a565b610274565b610274858588610392565b5092949193925050565b6000546001600160a01b031633146102d85760405162461bcd60e51b815260206004820152601e60248201527f73656e646572206d7573742062652062726964676520636f6e74726163740000604482015260640161018b565b565b60405163079cc67960e41b81526001600160a01b038381166004830152602482018390528491908216906379cc6790906044015b600060405180830381600087803b15801561032857600080fd5b505af115801561033c573d6000803e3d6000fd5b5050505050505050565b83610353818585856103a4565b5050505050565b6040516340c10f1960e01b81526001600160a01b038381166004830152602482018390528491908216906340c10f199060440161030e565b8261039e81848461040f565b50505050565b6040516001600160a01b038085166024830152831660448201526064810182905261039e9085906323b872dd60e01b906084015b60408051601f198184030181529190526020810180516001600160e01b03166001600160e01b03199093169290921790915261043f565b6040516001600160a01b03831660248201526044810182905261013990849063a9059cbb60e01b906064016103d8565b813b806104865760405162461bcd60e51b8152602060048201526015602482015274115490cc8c0e881b9bdd08184818dbdb9d1c9858dd605a1b604482015260640161018b565b600080846001600160a01b0316846040516104a191906106a1565b6000604051808303816000865af19150503d80600081146104de576040519150601f19603f3d011682016040523d82523d6000602084013e6104e3565b606091505b50915091508161052a5760405162461bcd60e51b8152602060048201526012602482015271115490cc8c0e8818d85b1b0819985a5b195960721b604482015260640161018b565b805115610353578080602001905181019061054591906106d0565b6103535760405162461bcd60e51b815260206004820181905260248201527f45524332303a206f7065726174696f6e20646964206e6f742073756363656564604482015260640161018b565b80356001600160a01b03811681146105a857600080fd5b919050565b80151581146105bb57600080fd5b50565b6000806000606084860312156105d357600080fd5b6105dc84610591565b925060208401356105ec816105ad565b915060408401356105fc816105ad565b809150509250925092565b60006020828403121561061957600080fd5b61062282610591565b9392505050565b60008060006060848603121561063e57600080fd5b61064784610591565b925061065560208501610591565b9150604084013590509250925092565b60008060006060848603121561067a57600080fd5b8335925061068a60208501610591565b915061069860408501610591565b90509250925092565b6000825160005b818110156106c257602081860181015185830152016106a8565b506000920191825250919050565b6000602082840312156106e257600080fd5b8151610622816105ad56fea2646970667358221220af54352e10adaa37c0834dca0ff2b3059700e16da0f9ff9da80b6cac293b1b6764736f6c63430008140033",
  "linkReferences": {},
  "deployedLinkReferences": {}
}