{
  "_format": "hh-sol-artifact-1",
  "contractName": "OracleDepositStorage",
  "sourceName": "contracts/OracleDepositStorage.sol",
  "abi": [
    {
      "inputs": [],
      "stateMutability": "nonpayable",
      "type": "constructor"
    },
    {
      "inputs": [
        {
          "internalType": "address",
          "name": "owner",
          "type": "address"
        }
      ],
      "name": "OwnableInvalidOwner",
      "type": "error"
    },
    {
      "inputs": [
        {
          "internalType": "address",
          "name": "account",
          "type": "address"
        }
      ],
      "name": "OwnableUnauthorizedAccount",
      "type": "error"
    },
    {
      "anonymous": false,
      "inputs": [
        {
          "indexed": true,
          "internalType": "bytes32",
          "name": "txHash",
          "type": "bytes32"
        },
        {
          "indexed": false,
          "internalType": "bytes32",
          "name": "merkleRoot",
          "type": "bytes32"
        }
      ],
      "name": "DepositHeaderSubmitted",
      "type": "event"
    },
    {
      "anonymous": false,
      "inputs": [
        {
          "indexed": true,
          "internalType": "bytes32",
          "name": "txHash",
          "type": "bytes32"
        }
      ],
      "name": "OracleCompromised",
      "type": "event"
    },
    {
      "anonymous": false,
      "inputs": [
        {
          "indexed": true,
          "internalType": "address",
          "name": "previousOwner",
          "type": "address"
        },
        {
          "indexed": true,
          "internalType": "address",
          "name": "newOwner",
          "type": "address"
        }
      ],
      "name": "OwnershipTransferred",
      "type": "event"
    },
    {
      "inputs": [
        {
          "internalType": "address",
          "name": "_oracle",
          "type": "address"
        }
      ],
      "name": "addTrustedOracle",
      "outputs": [],
      "stateMutability": "nonpayable",
      "type": "function"
    },
    {
      "inputs": [
        {
          "internalType": "bytes32",
          "name": "",
          "type": "bytes32"
        }
      ],
      "name": "depositSubmissions",
      "outputs": [
        {
          "internalType": "uint256",
          "name": "",
          "type": "uint256"
        }
      ],
      "stateMutability": "view",
      "type": "function"
    },
    {
      "inputs": [
        {
          "internalType": "bytes32",
          "name": "_txHash",
          "type": "bytes32"
        }
      ],
      "name": "getMerkleRootByTxHash",
      "outputs": [
        {
          "internalType": "bytes32",
          "name": "",
          "type": "bytes32"
        }
      ],
      "stateMutability": "view",
      "type": "function"
    },
    {
      "inputs": [
        {
          "internalType": "bytes32",
          "name": "",
          "type": "bytes32"
        },
        {
          "internalType": "address",
          "name": "",
          "type": "address"
        }
      ],
      "name": "oracleSubmissionsData",
      "outputs": [
        {
          "internalType": "bytes32",
          "name": "merkleRoot",
          "type": "bytes32"
        },
        {
          "internalType": "bytes32",
          "name": "leaf",
          "type": "bytes32"
        }
      ],
      "stateMutability": "view",
      "type": "function"
    },
    {
      "inputs": [],
      "name": "oraclesAmount",
      "outputs": [
        {
          "internalType": "uint256",
          "name": "",
          "type": "uint256"
        }
      ],
      "stateMutability": "view",
      "type": "function"
    },
    {
      "inputs": [],
      "name": "owner",
      "outputs": [
        {
          "internalType": "address",
          "name": "",
          "type": "address"
        }
      ],
      "stateMutability": "view",
      "type": "function"
    },
    {
      "inputs": [
        {
          "internalType": "address",
          "name": "_oracle",
          "type": "address"
        }
      ],
      "name": "removeTrustedOracle",
      "outputs": [],
      "stateMutability": "nonpayable",
      "type": "function"
    },
    {
      "inputs": [],
      "name": "renounceOwnership",
      "outputs": [],
      "stateMutability": "nonpayable",
      "type": "function"
    },
    {
      "inputs": [
        {
          "internalType": "bytes32",
          "name": "_txHash",
          "type": "bytes32"
        },
        {
          "internalType": "bytes32",
          "name": "_merkleRoot",
          "type": "bytes32"
        },
        {
          "internalType": "bytes32",
          "name": "_leaf",
          "type": "bytes32"
        }
      ],
      "name": "submitDepositHeader",
      "outputs": [],
      "stateMutability": "nonpayable",
      "type": "function"
    },
    {
      "inputs": [
        {
          "internalType": "bytes32",
          "name": "",
          "type": "bytes32"
        },
        {
          "internalType": "uint256",
          "name": "",
          "type": "uint256"
        }
      ],
      "name": "submittingOracles",
      "outputs": [
        {
          "internalType": "address",
          "name": "",
          "type": "address"
        }
      ],
      "stateMutability": "view",
      "type": "function"
    },
    {
      "inputs": [
        {
          "internalType": "address",
          "name": "newOwner",
          "type": "address"
        }
      ],
      "name": "transferOwnership",
      "outputs": [],
      "stateMutability": "nonpayable",
      "type": "function"
    },
    {
      "inputs": [
        {
          "internalType": "address",
          "name": "",
          "type": "address"
        }
      ],
      "name": "trustedOracles",
      "outputs": [
        {
          "internalType": "bool",
          "name": "",
          "type": "bool"
        }
      ],
      "stateMutability": "view",
      "type": "function"
    },
    {
      "inputs": [
        {
          "internalType": "bytes32",
          "name": "",
          "type": "bytes32"
        }
      ],
      "name": "txHashToLeaf",
      "outputs": [
        {
          "internalType": "bytes32",
          "name": "",
          "type": "bytes32"
        }
      ],
      "stateMutability": "view",
      "type": "function"
    },
    {
      "inputs": [
        {
          "internalType": "bytes32",
          "name": "",
          "type": "bytes32"
        }
      ],
      "name": "txHashToMerkleRoot",
      "outputs": [
        {
          "internalType": "bytes32",
          "name": "",
          "type": "bytes32"
        }
      ],
      "stateMutability": "view",
      "type": "function"
    },
    {
      "inputs": [
        {
          "internalType": "bytes32[]",
          "name": "proof",
          "type": "bytes32[]"
        },
        {
          "internalType": "bytes32",
          "name": "txHash",
          "type": "bytes32"
        }
      ],
      "name": "verifyMerkleProof",
      "outputs": [
        {
          "internalType": "bool",
          "name": "",
          "type": "bool"
        }
      ],
      "stateMutability": "view",
      "type": "function"
    }
  ],
  "bytecode": "0x608060405234801561001057600080fd5b50338061003757604051631e4fbdf760e01b81526000600482015260240160405180910390fd5b61004081610046565b50610096565b600080546001600160a01b038381166001600160a01b0319831681178455604051919092169283917f8be0079c531659141344cd1fd0a4f28419497f9722a3daafe3b4186f6b6457e09190a35050565b610b36806100a56000396000f3fe608060405234801561001057600080fd5b50600436106100f55760003560e01c806364b27f5211610097578063b505d24011610066578063b505d24014610245578063db29660214610258578063df5d3de81461027b578063f2fde38b1461029b57600080fd5b806364b27f52146101d8578063715018a6146101f8578063751bcb81146102005780638da5cb5b1461022057600080fd5b806330d467c4116100d357806330d467c41461016b5780634a75fe3b1461017e5780634cfcb794146101955780635f044052146101b557600080fd5b80630518f218146100fa57806317f85f851461014357806322d6a5df14610158575b600080fd5b6101296101083660046108e3565b60016020818152600093845260408085209091529183529120805491015482565b604080519283526020830191909152015b60405180910390f35b61015661015136600461090f565b6102ae565b005b61015661016636600461090f565b6102ef565b61015661017936600461092a565b61032d565b61018760075481565b60405190815260200161013a565b6101876101a3366004610956565b60056020526000908152604090205481565b6101c86101c3366004610985565b610531565b604051901515815260200161013a565b6101876101e6366004610956565b60026020526000908152604090205481565b6101566105bd565b61018761020e366004610956565b60009081526004602052604090205490565b6000546001600160a01b03165b6040516001600160a01b03909116815260200161013a565b61022d610253366004610a49565b6105d1565b6101c861026636600461090f565b60066020526000908152604090205460ff1681565b610187610289366004610956565b60046020526000908152604090205481565b6101566102a936600461090f565b610609565b6102b6610647565b600780549060006102c683610a81565b90915550506001600160a01b03166000908152600660205260409020805460ff19166001179055565b6102f7610647565b6007805490600061030783610a9a565b90915550506001600160a01b03166000908152600660205260409020805460ff19169055565b3360009081526006602052604090205460ff166103885760405162461bcd60e51b81526020600482015260146024820152734e6f7420612074727573746564206f7261636c6560601b60448201526064015b60405180910390fd5b6000838152600160209081526040808320338452909152902054156104085760405162461bcd60e51b815260206004820152603060248201527f4f7261636c652068617320616c7265616479207375626d69747465642074686960448201526f39903232b837b9b4ba103432b0b232b960811b606482015260840161037f565b604080518082018252838152602080820184815260008781526001808452858220338352845285822094518555915193909101929092558582526002905290812080549161045583610a81565b90915550506000838152600360209081526040822080546001810182559083529082200180546001600160a01b0319163317905560075460649061049a90604d610ab1565b6104a49190610ac8565b600085815260026020526040902054909150811161052b576104c7848484610674565b156105225760008481526004602090815260408083208690556005825291829020849055905184815285917fd6f48645aeaeb7b23252ceb7f927b5416213f8bf3b526a7df37169a6fbe7cfa0910160405180910390a261052b565b61052b8461079a565b50505050565b60008181526004602052604081205461058c5760405162461bcd60e51b815260206004820152601f60248201527f5472616e73616374696f6e206861736820646f6573206e6f7420657869737400604482015260640161037f565b6000828152600460209081526040808320546005909252909120546105b28583836107c8565b925050505b92915050565b6105c5610647565b6105cf6000610877565b565b600360205281600052604060002081815481106105ed57600080fd5b6000918252602090912001546001600160a01b03169150829050565b610611610647565b6001600160a01b03811661063b57604051631e4fbdf760e01b81526000600482015260240161037f565b61064481610877565b50565b6000546001600160a01b031633146105cf5760405163118cdaa760e01b815233600482015260240161037f565b6000838152600360209081526040808320805482518185028101850190935280835284938301828280156106d157602002820191906000526020600020905b81546001600160a01b031681526001909101906020018083116106b3575b5050505050905060005b815181101561078c5760008681526001602052604081208351829085908590811061070857610708610aea565b60200260200101516001600160a01b03166001600160a01b03168152602001908152602001600020604051806040016040529081600082015481526020016001820154815250509050858160000151141580610768575084816020015114155b156107795760009350505050610793565b508061078481610a81565b9150506106db565b5060019150505b9392505050565b60405181907fe2f159fc7fde7973d3f64e3a2a3884763392497a239a427b3738593f7a71590b90600090a250565b600081815b855181101561086c5760008682815181106107ea576107ea610aea565b6020026020010151905080831161082c576040805160208101859052908101829052606001604051602081830303815290604052805190602001209250610859565b60408051602081018390529081018490526060016040516020818303038152906040528051906020012092505b508061086481610a81565b9150506107cd565b509092149392505050565b600080546001600160a01b038381166001600160a01b0319831681178455604051919092169283917f8be0079c531659141344cd1fd0a4f28419497f9722a3daafe3b4186f6b6457e09190a35050565b80356001600160a01b03811681146108de57600080fd5b919050565b600080604083850312156108f657600080fd5b82359150610906602084016108c7565b90509250929050565b60006020828403121561092157600080fd5b610793826108c7565b60008060006060848603121561093f57600080fd5b505081359360208301359350604090920135919050565b60006020828403121561096857600080fd5b5035919050565b634e487b7160e01b600052604160045260246000fd5b6000806040838503121561099857600080fd5b823567ffffffffffffffff808211156109b057600080fd5b818501915085601f8301126109c457600080fd5b81356020828211156109d8576109d861096f565b8160051b604051601f19603f830116810181811086821117156109fd576109fd61096f565b604052928352818301935084810182019289841115610a1b57600080fd5b948201945b83861015610a3957853585529482019493820193610a20565b9997909101359750505050505050565b60008060408385031215610a5c57600080fd5b50508035926020909101359150565b634e487b7160e01b600052601160045260246000fd5b600060018201610a9357610a93610a6b565b5060010190565b600081610aa957610aa9610a6b565b506000190190565b80820281158282048414176105b7576105b7610a6b565b600082610ae557634e487b7160e01b600052601260045260246000fd5b500490565b634e487b7160e01b600052603260045260246000fdfea2646970667358221220eccadd2c0618f8f69c73ab8720e4f6f619edef95e60414ff11b615d0be8b6ab064736f6c63430008140033",
  "linkReferences": {},
  "deployedLinkReferences": {}
}