{
  "_format": "hh-sol-artifact-1",
  "contractName": "OracleDepositStorage",
  "sourceName": "contracts/OracleDepositStorage.sol",
  "abi": [
    {
      "inputs": [],
      "stateMutability": "nonpayable",
      "type": "constructor"
    },
    {
      "inputs": [
        {
          "internalType": "address",
          "name": "owner",
          "type": "address"
        }
      ],
      "name": "OwnableInvalidOwner",
      "type": "error"
    },
    {
      "inputs": [
        {
          "internalType": "address",
          "name": "account",
          "type": "address"
        }
      ],
      "name": "OwnableUnauthorizedAccount",
      "type": "error"
    },
    {
      "anonymous": false,
      "inputs": [
        {
          "indexed": true,
          "internalType": "bytes32",
          "name": "txHash",
          "type": "bytes32"
        },
        {
          "indexed": false,
          "internalType": "bytes32",
          "name": "merkleRoot",
          "type": "bytes32"
        }
      ],
      "name": "DepositHeaderSubmitted",
      "type": "event"
    },
    {
      "anonymous": false,
      "inputs": [
        {
          "indexed": true,
          "internalType": "bytes32",
          "name": "txHash",
          "type": "bytes32"
        }
      ],
      "name": "OracleCompromised",
      "type": "event"
    },
    {
      "anonymous": false,
      "inputs": [
        {
          "indexed": true,
          "internalType": "address",
          "name": "previousOwner",
          "type": "address"
        },
        {
          "indexed": true,
          "internalType": "address",
          "name": "newOwner",
          "type": "address"
        }
      ],
      "name": "OwnershipTransferred",
      "type": "event"
    },
    {
      "inputs": [
        {
          "internalType": "address",
          "name": "_oracle",
          "type": "address"
        }
      ],
      "name": "addTrustedOracle",
      "outputs": [],
      "stateMutability": "nonpayable",
      "type": "function"
    },
    {
      "inputs": [
        {
          "internalType": "bytes32",
          "name": "",
          "type": "bytes32"
        }
      ],
      "name": "depositSubmissions",
      "outputs": [
        {
          "internalType": "uint256",
          "name": "",
          "type": "uint256"
        }
      ],
      "stateMutability": "view",
      "type": "function"
    },
    {
      "inputs": [
        {
          "internalType": "bytes32",
          "name": "_txHash",
          "type": "bytes32"
        }
      ],
      "name": "getMerkleRootByTxHash",
      "outputs": [
        {
          "internalType": "bytes32",
          "name": "",
          "type": "bytes32"
        }
      ],
      "stateMutability": "view",
      "type": "function"
    },
    {
      "inputs": [
        {
          "internalType": "bytes32",
          "name": "",
          "type": "bytes32"
        },
        {
          "internalType": "address",
          "name": "",
          "type": "address"
        }
      ],
      "name": "oracleSubmissionsData",
      "outputs": [
        {
          "internalType": "bytes32",
          "name": "merkleRoot",
          "type": "bytes32"
        },
        {
          "internalType": "bytes32",
          "name": "leaf",
          "type": "bytes32"
        }
      ],
      "stateMutability": "view",
      "type": "function"
    },
    {
      "inputs": [],
      "name": "oraclesAmount",
      "outputs": [
        {
          "internalType": "uint256",
          "name": "",
          "type": "uint256"
        }
      ],
      "stateMutability": "view",
      "type": "function"
    },
    {
      "inputs": [],
      "name": "owner",
      "outputs": [
        {
          "internalType": "address",
          "name": "",
          "type": "address"
        }
      ],
      "stateMutability": "view",
      "type": "function"
    },
    {
      "inputs": [
        {
          "internalType": "address",
          "name": "_oracle",
          "type": "address"
        }
      ],
      "name": "removeTrustedOracle",
      "outputs": [],
      "stateMutability": "nonpayable",
      "type": "function"
    },
    {
      "inputs": [],
      "name": "renounceOwnership",
      "outputs": [],
      "stateMutability": "nonpayable",
      "type": "function"
    },
    {
      "inputs": [
        {
          "internalType": "bytes32",
          "name": "_txHash",
          "type": "bytes32"
        },
        {
          "internalType": "bytes32",
          "name": "_merkleRoot",
          "type": "bytes32"
        },
        {
          "internalType": "bytes32",
          "name": "_leaf",
          "type": "bytes32"
        }
      ],
      "name": "submitDepositHeader",
      "outputs": [],
      "stateMutability": "nonpayable",
      "type": "function"
    },
    {
      "inputs": [
        {
          "internalType": "bytes32",
          "name": "",
          "type": "bytes32"
        },
        {
          "internalType": "uint256",
          "name": "",
          "type": "uint256"
        }
      ],
      "name": "submittingOracles",
      "outputs": [
        {
          "internalType": "address",
          "name": "",
          "type": "address"
        }
      ],
      "stateMutability": "view",
      "type": "function"
    },
    {
      "inputs": [
        {
          "internalType": "address",
          "name": "newOwner",
          "type": "address"
        }
      ],
      "name": "transferOwnership",
      "outputs": [],
      "stateMutability": "nonpayable",
      "type": "function"
    },
    {
      "inputs": [
        {
          "internalType": "address",
          "name": "",
          "type": "address"
        }
      ],
      "name": "trustedOracles",
      "outputs": [
        {
          "internalType": "bool",
          "name": "",
          "type": "bool"
        }
      ],
      "stateMutability": "view",
      "type": "function"
    },
    {
      "inputs": [
        {
          "internalType": "bytes32",
          "name": "",
          "type": "bytes32"
        }
      ],
      "name": "txHashToLeaf",
      "outputs": [
        {
          "internalType": "bytes32",
          "name": "",
          "type": "bytes32"
        }
      ],
      "stateMutability": "view",
      "type": "function"
    },
    {
      "inputs": [
        {
          "internalType": "bytes32",
          "name": "",
          "type": "bytes32"
        }
      ],
      "name": "txHashToMerkleRoot",
      "outputs": [
        {
          "internalType": "bytes32",
          "name": "",
          "type": "bytes32"
        }
      ],
      "stateMutability": "view",
      "type": "function"
    },
    {
      "inputs": [
        {
          "internalType": "bytes32[]",
          "name": "proof",
          "type": "bytes32[]"
        },
        {
          "internalType": "bytes32",
          "name": "root",
          "type": "bytes32"
        },
        {
          "internalType": "bytes32",
          "name": "leaf",
          "type": "bytes32"
        }
      ],
      "name": "verifyMerkleProof",
      "outputs": [
        {
          "internalType": "bool",
          "name": "",
          "type": "bool"
        }
      ],
      "stateMutability": "pure",
      "type": "function"
    },
    {
      "inputs": [
        {
          "internalType": "bytes32[]",
          "name": "proof",
          "type": "bytes32[]"
        },
        {
          "internalType": "bytes32",
          "name": "txHash",
          "type": "bytes32"
        }
      ],
      "name": "verifyStoredMerkleProof",
      "outputs": [
        {
          "internalType": "bool",
          "name": "",
          "type": "bool"
        }
      ],
      "stateMutability": "view",
      "type": "function"
    }
  ],
  "bytecode": "0x608060405234801561001057600080fd5b50338061003757604051631e4fbdf760e01b81526000600482015260240160405180910390fd5b61004081610046565b50610096565b600080546001600160a01b038381166001600160a01b0319831681178455604051919092169283917f8be0079c531659141344cd1fd0a4f28419497f9722a3daafe3b4186f6b6457e09190a35050565b610b62806100a56000396000f3fe608060405234801561001057600080fd5b50600436106101005760003560e01c8063715018a611610097578063b505d24011610066578063b505d24014610263578063db29660214610276578063df5d3de814610299578063f2fde38b146102b957600080fd5b8063715018a614610203578063751bcb811461020b5780638da5cb5b1461022b578063ada4fa181461025057600080fd5b806332a9a7b4116100d357806332a9a7b4146101895780634a75fe3b146101ac5780634cfcb794146101c357806364b27f52146101e357600080fd5b80630518f2181461010557806317f85f851461014e57806322d6a5df1461016357806330d467c414610176575b600080fd5b6101346101133660046108a5565b60016020818152600093845260408085209091529183529120805491015482565b604080519283526020830191909152015b60405180910390f35b61016161015c3660046108d1565b6102cc565b005b6101616101713660046108d1565b61030d565b6101616101843660046108ec565b61034b565b61019c6101973660046109c9565b61054f565b6040519015158152602001610145565b6101b560075481565b604051908152602001610145565b6101b56101d1366004610a0e565b60056020526000908152604090205481565b6101b56101f1366004610a0e565b60026020526000908152604090205481565b61016161057f565b6101b5610219366004610a0e565b60009081526004602052604090205490565b6000546001600160a01b03165b6040516001600160a01b039091168152602001610145565b61019c61025e366004610a27565b610593565b610238610271366004610a75565b610644565b61019c6102843660046108d1565b60066020526000908152604090205460ff1681565b6101b56102a7366004610a0e565b60046020526000908152604090205481565b6101616102c73660046108d1565b61067c565b6102d46106ba565b600780549060006102e483610aad565b90915550506001600160a01b03166000908152600660205260409020805460ff19166001179055565b6103156106ba565b6007805490600061032583610ac6565b90915550506001600160a01b03166000908152600660205260409020805460ff19169055565b3360009081526006602052604090205460ff166103a65760405162461bcd60e51b81526020600482015260146024820152734e6f7420612074727573746564206f7261636c6560601b60448201526064015b60405180910390fd5b6000838152600160209081526040808320338452909152902054156104265760405162461bcd60e51b815260206004820152603060248201527f4f7261636c652068617320616c7265616479207375626d69747465642074686960448201526f39903232b837b9b4ba103432b0b232b960811b606482015260840161039d565b604080518082018252838152602080820184815260008781526001808452858220338352845285822094518555915193909101929092558582526002905290812080549161047383610aad565b90915550506000838152600360209081526040822080546001810182559083529082200180546001600160a01b031916331790556007546064906104b890604d610add565b6104c29190610af4565b6000858152600260205260409020549091508111610549576104e58484846106e7565b156105405760008481526004602090815260408083208690556005825291829020849055905184815285917fd6f48645aeaeb7b23252ceb7f927b5416213f8bf3b526a7df37169a6fbe7cfa0910160405180910390a2610549565b6105498461080b565b50505050565b6000818152600460209081526040808320546005909252822054610574858383610593565b925050505b92915050565b6105876106ba565b6105916000610839565b565b600081815b85518110156106375760008682815181106105b5576105b5610b16565b602002602001015190508083116105f7576040805160208101859052908101829052606001604051602081830303815290604052805190602001209250610624565b60408051602081018390529081018490526060016040516020818303038152906040528051906020012092505b508061062f81610aad565b915050610598565b50831490505b9392505050565b6003602052816000526040600020818154811061066057600080fd5b6000918252602090912001546001600160a01b03169150829050565b6106846106ba565b6001600160a01b0381166106ae57604051631e4fbdf760e01b81526000600482015260240161039d565b6106b781610839565b50565b6000546001600160a01b031633146105915760405163118cdaa760e01b815233600482015260240161039d565b60008381526003602090815260408083208054825181850281018501909352808352849383018282801561074457602002820191906000526020600020905b81546001600160a01b03168152600190910190602001808311610726575b5050505050905060005b81518110156107ff5760008681526001602052604081208351829085908590811061077b5761077b610b16565b60200260200101516001600160a01b03166001600160a01b031681526020019081526020016000206040518060400160405290816000820154815260200160018201548152505090508581600001511415806107db575084816020015114155b156107ec576000935050505061063d565b50806107f781610aad565b91505061074e565b50600195945050505050565b60405181907fe2f159fc7fde7973d3f64e3a2a3884763392497a239a427b3738593f7a71590b90600090a250565b600080546001600160a01b038381166001600160a01b0319831681178455604051919092169283917f8be0079c531659141344cd1fd0a4f28419497f9722a3daafe3b4186f6b6457e09190a35050565b80356001600160a01b03811681146108a057600080fd5b919050565b600080604083850312156108b857600080fd5b823591506108c860208401610889565b90509250929050565b6000602082840312156108e357600080fd5b61063d82610889565b60008060006060848603121561090157600080fd5b505081359360208301359350604090920135919050565b634e487b7160e01b600052604160045260246000fd5b600082601f83011261093f57600080fd5b8135602067ffffffffffffffff8083111561095c5761095c610918565b8260051b604051601f19603f8301168101818110848211171561098157610981610918565b60405293845285810183019383810192508785111561099f57600080fd5b83870191505b848210156109be578135835291830191908301906109a5565b979650505050505050565b600080604083850312156109dc57600080fd5b823567ffffffffffffffff8111156109f357600080fd5b6109ff8582860161092e565b95602094909401359450505050565b600060208284031215610a2057600080fd5b5035919050565b600080600060608486031215610a3c57600080fd5b833567ffffffffffffffff811115610a5357600080fd5b610a5f8682870161092e565b9660208601359650604090950135949350505050565b60008060408385031215610a8857600080fd5b50508035926020909101359150565b634e487b7160e01b600052601160045260246000fd5b600060018201610abf57610abf610a97565b5060010190565b600081610ad557610ad5610a97565b506000190190565b808202811582820484141761057957610579610a97565b600082610b1157634e487b7160e01b600052601260045260246000fd5b500490565b634e487b7160e01b600052603260045260246000fdfea2646970667358221220ae3f1b0c5fee6b30ebda8d067c12bb9be74f6fa3425cf39ce2c0cf178be22ea464736f6c63430008140033",
  "linkReferences": {},
  "deployedLinkReferences": {}
}