{
  "_format": "hh-sol-artifact-1",
  "contractName": "OracleDepositStorage",
  "sourceName": "contracts/OracleDepositStorage.sol",
  "abi": [
    {
      "inputs": [],
      "stateMutability": "nonpayable",
      "type": "constructor"
    },
    {
      "inputs": [
        {
          "internalType": "address",
          "name": "owner",
          "type": "address"
        }
      ],
      "name": "OwnableInvalidOwner",
      "type": "error"
    },
    {
      "inputs": [
        {
          "internalType": "address",
          "name": "account",
          "type": "address"
        }
      ],
      "name": "OwnableUnauthorizedAccount",
      "type": "error"
    },
    {
      "anonymous": false,
      "inputs": [
        {
          "indexed": true,
          "internalType": "bytes32",
          "name": "txHash",
          "type": "bytes32"
        }
      ],
      "name": "DepositHeaderSubmitted",
      "type": "event"
    },
    {
      "anonymous": false,
      "inputs": [
        {
          "indexed": true,
          "internalType": "bytes32",
          "name": "txHash",
          "type": "bytes32"
        }
      ],
      "name": "OracleCompromised",
      "type": "event"
    },
    {
      "anonymous": false,
      "inputs": [
        {
          "indexed": true,
          "internalType": "address",
          "name": "previousOwner",
          "type": "address"
        },
        {
          "indexed": true,
          "internalType": "address",
          "name": "newOwner",
          "type": "address"
        }
      ],
      "name": "OwnershipTransferred",
      "type": "event"
    },
    {
      "inputs": [
        {
          "internalType": "address",
          "name": "_oracle",
          "type": "address"
        }
      ],
      "name": "addTrustedOracle",
      "outputs": [],
      "stateMutability": "nonpayable",
      "type": "function"
    },
    {
      "inputs": [
        {
          "internalType": "bytes32",
          "name": "",
          "type": "bytes32"
        }
      ],
      "name": "depositSubmissions",
      "outputs": [
        {
          "internalType": "uint256",
          "name": "",
          "type": "uint256"
        }
      ],
      "stateMutability": "view",
      "type": "function"
    },
    {
      "inputs": [
        {
          "internalType": "bytes32",
          "name": "_txHash",
          "type": "bytes32"
        }
      ],
      "name": "getMerkleRootByTxHash",
      "outputs": [
        {
          "internalType": "bytes32",
          "name": "",
          "type": "bytes32"
        }
      ],
      "stateMutability": "view",
      "type": "function"
    },
    {
      "inputs": [
        {
          "internalType": "bytes32",
          "name": "",
          "type": "bytes32"
        },
        {
          "internalType": "address",
          "name": "",
          "type": "address"
        }
      ],
      "name": "oracleSubmissionsData",
      "outputs": [
        {
          "internalType": "bytes32",
          "name": "merkleRoot",
          "type": "bytes32"
        }
      ],
      "stateMutability": "view",
      "type": "function"
    },
    {
      "inputs": [],
      "name": "oraclesAmount",
      "outputs": [
        {
          "internalType": "uint256",
          "name": "",
          "type": "uint256"
        }
      ],
      "stateMutability": "view",
      "type": "function"
    },
    {
      "inputs": [],
      "name": "owner",
      "outputs": [
        {
          "internalType": "address",
          "name": "",
          "type": "address"
        }
      ],
      "stateMutability": "view",
      "type": "function"
    },
    {
      "inputs": [
        {
          "internalType": "address",
          "name": "_oracle",
          "type": "address"
        }
      ],
      "name": "removeTrustedOracle",
      "outputs": [],
      "stateMutability": "nonpayable",
      "type": "function"
    },
    {
      "inputs": [],
      "name": "renounceOwnership",
      "outputs": [],
      "stateMutability": "nonpayable",
      "type": "function"
    },
    {
      "inputs": [
        {
          "internalType": "bytes32",
          "name": "_txHash",
          "type": "bytes32"
        },
        {
          "internalType": "bytes32",
          "name": "_merkleRoot",
          "type": "bytes32"
        },
        {
          "internalType": "bytes32[]",
          "name": "_leaves",
          "type": "bytes32[]"
        }
      ],
      "name": "submitDepositHeader",
      "outputs": [],
      "stateMutability": "nonpayable",
      "type": "function"
    },
    {
      "inputs": [
        {
          "internalType": "bytes32",
          "name": "",
          "type": "bytes32"
        },
        {
          "internalType": "uint256",
          "name": "",
          "type": "uint256"
        }
      ],
      "name": "submittingOracles",
      "outputs": [
        {
          "internalType": "address",
          "name": "",
          "type": "address"
        }
      ],
      "stateMutability": "view",
      "type": "function"
    },
    {
      "inputs": [
        {
          "internalType": "address",
          "name": "newOwner",
          "type": "address"
        }
      ],
      "name": "transferOwnership",
      "outputs": [],
      "stateMutability": "nonpayable",
      "type": "function"
    },
    {
      "inputs": [
        {
          "internalType": "address",
          "name": "",
          "type": "address"
        }
      ],
      "name": "trustedOracles",
      "outputs": [
        {
          "internalType": "bool",
          "name": "",
          "type": "bool"
        }
      ],
      "stateMutability": "view",
      "type": "function"
    },
    {
      "inputs": [
        {
          "internalType": "bytes32",
          "name": "",
          "type": "bytes32"
        },
        {
          "internalType": "uint256",
          "name": "",
          "type": "uint256"
        }
      ],
      "name": "txHashToLeaves",
      "outputs": [
        {
          "internalType": "bytes32",
          "name": "",
          "type": "bytes32"
        }
      ],
      "stateMutability": "view",
      "type": "function"
    },
    {
      "inputs": [
        {
          "internalType": "bytes32",
          "name": "",
          "type": "bytes32"
        }
      ],
      "name": "txHashToMerkleRoot",
      "outputs": [
        {
          "internalType": "bytes32",
          "name": "",
          "type": "bytes32"
        }
      ],
      "stateMutability": "view",
      "type": "function"
    },
    {
      "inputs": [
        {
          "internalType": "bytes32[]",
          "name": "proof",
          "type": "bytes32[]"
        },
        {
          "internalType": "bytes32",
          "name": "txHash",
          "type": "bytes32"
        },
        {
          "internalType": "bytes32",
          "name": "leaf",
          "type": "bytes32"
        }
      ],
      "name": "verifyMerkleProof",
      "outputs": [
        {
          "internalType": "bool",
          "name": "",
          "type": "bool"
        }
      ],
      "stateMutability": "view",
      "type": "function"
    }
  ],
  "bytecode": "0x608060405234801561001057600080fd5b50338061003757604051631e4fbdf760e01b81526000600482015260240160405180910390fd5b61004081610046565b50610096565b600080546001600160a01b038381166001600160a01b0319831681178455604051919092169283917f8be0079c531659141344cd1fd0a4f28419497f9722a3daafe3b4186f6b6457e09190a35050565b610da2806100a56000396000f3fe608060405234801561001057600080fd5b50600436106100f55760003560e01c8063751bcb8111610097578063b505d24011610066578063b505d2401461021f578063db29660214610232578063df5d3de814610255578063f2fde38b1461027557600080fd5b8063751bcb81146101a45780638612b883146101c45780638da5cb5b146101d7578063ada4fa18146101fc57600080fd5b806322d6a5df116100d357806322d6a5df146101605780634a75fe3b1461017357806364b27f521461017c578063715018a61461019c57600080fd5b80630518f218146100fa5780630f199c901461013857806317f85f851461014d575b600080fd5b610125610108366004610a64565b600160209081526000928352604080842090915290825290205481565b6040519081526020015b60405180910390f35b61014b610146366004610a90565b610288565b005b61014b61015b366004610b13565b6104d8565b61014b61016e366004610b13565b610519565b61012560075481565b61012561018a366004610b35565b60026020526000908152604090205481565b61014b610557565b6101256101b2366004610b35565b60009081526004602052604090205490565b6101256101d2366004610b4e565b61056b565b6000546001600160a01b03165b6040516001600160a01b03909116815260200161012f565b61020f61020a366004610b86565b61059c565b604051901515815260200161012f565b6101e461022d366004610b4e565b61061a565b61020f610240366004610b13565b60066020526000908152604090205460ff1681565b610125610263366004610b35565b60046020526000908152604090205481565b61014b610283366004610b13565b610652565b3360009081526006602052604090205460ff166102e35760405162461bcd60e51b81526020600482015260146024820152734e6f7420612074727573746564206f7261636c6560601b60448201526064015b60405180910390fd5b6000848152600160209081526040808320338452909152902054156103635760405162461bcd60e51b815260206004820152603060248201527f4f7261636c652068617320616c7265616479207375626d69747465642074686960448201526f39903232b837b9b4ba103432b0b232b960811b60648201526084016102da565b604051806040016040528084815260200183838080602002602001604051908101604052809392919081815260200183836020028082843760009201829052509390945250508681526001602081815260408084203385528252909220845181558483015180519194506103dc939285019201906109ad565b50505060008481526002602052604081208054916103f983610c6a565b90915550506000848152600360209081526040822080546001810182559083529082200180546001600160a01b0319163317905560075460649061043e90604d610c83565b6104489190610ca0565b60008681526002602052604090205490915081116104d15761046c85858585610690565b156104c8576000858152600460209081526040808320879055600590915290206104979084846109f8565b5060405185907ff5d0a4370f0f1c40c95c732052263c29f618ec3b8b2f168f65d07e5bd9b10c6990600090a26104d1565b6104d185610853565b5050505050565b6104e0610881565b600780549060006104f083610c6a565b90915550506001600160a01b03166000908152600660205260409020805460ff19166001179055565b610521610881565b6007805490600061053183610cc2565b90915550506001600160a01b03166000908152600660205260409020805460ff19169055565b61055f610881565b61056960006108ae565b565b6005602052816000526040600020818154811061058757600080fd5b90600052602060002001600091509150505481565b6000828152600460205260408120546105f75760405162461bcd60e51b815260206004820152601a60248201527f5472616e73616374696f6e20646f6573206e6f7420657869737400000000000060448201526064016102da565b6000838152600460205260409020546106118582856108fe565b95945050505050565b6003602052816000526040600020818154811061063657600080fd5b6000918252602090912001546001600160a01b03169150829050565b61065a610881565b6001600160a01b03811661068457604051631e4fbdf760e01b8152600060048201526024016102da565b61068d816108ae565b50565b6000848152600360209081526040808320805482518185028101850190935280835284938301828280156106ed57602002820191906000526020600020905b81546001600160a01b031681526001909101906020018083116106cf575b5050505050905060005b81518110156108445760008781526001602052604081208351829085908590811061072457610724610cd9565b60200260200101516001600160a01b03166001600160a01b0316815260200190815260200160002060405180604001604052908160008201548152602001600182018054806020026020016040519081016040528092919081815260200182805480156107b057602002820191906000526020600020905b81548152602001906001019080831161079c575b5050505050815250509050868160000151141580610820575085856040516020016107dc929190610cef565b6040516020818303038152906040528051906020012081602001516040516020016108079190610d28565b6040516020818303038152906040528051906020012014155b15610831576000935050505061084b565b508061083c81610c6a565b9150506106f7565b5060019150505b949350505050565b60405181907fe2f159fc7fde7973d3f64e3a2a3884763392497a239a427b3738593f7a71590b90600090a250565b6000546001600160a01b031633146105695760405163118cdaa760e01b81523360048201526024016102da565b600080546001600160a01b038381166001600160a01b0319831681178455604051919092169283917f8be0079c531659141344cd1fd0a4f28419497f9722a3daafe3b4186f6b6457e09190a35050565b600081815b85518110156109a257600086828151811061092057610920610cd9565b6020026020010151905080831161096257604080516020810185905290810182905260600160405160208183030381529060405280519060200120925061098f565b60408051602081018390529081018490526060016040516020818303038152906040528051906020012092505b508061099a81610c6a565b915050610903565b509092149392505050565b8280548282559060005260206000209081019282156109e8579160200282015b828111156109e85782518255916020019190600101906109cd565b506109f4929150610a33565b5090565b8280548282559060005260206000209081019282156109e8579160200282015b828111156109e8578235825591602001919060010190610a18565b5b808211156109f45760008155600101610a34565b80356001600160a01b0381168114610a5f57600080fd5b919050565b60008060408385031215610a7757600080fd5b82359150610a8760208401610a48565b90509250929050565b60008060008060608587031215610aa657600080fd5b8435935060208501359250604085013567ffffffffffffffff80821115610acc57600080fd5b818701915087601f830112610ae057600080fd5b813581811115610aef57600080fd5b8860208260051b8501011115610b0457600080fd5b95989497505060200194505050565b600060208284031215610b2557600080fd5b610b2e82610a48565b9392505050565b600060208284031215610b4757600080fd5b5035919050565b60008060408385031215610b6157600080fd5b50508035926020909101359150565b634e487b7160e01b600052604160045260246000fd5b600080600060608486031215610b9b57600080fd5b833567ffffffffffffffff80821115610bb357600080fd5b818601915086601f830112610bc757600080fd5b8135602082821115610bdb57610bdb610b70565b8160051b604051601f19603f83011681018181108682111715610c0057610c00610b70565b60405292835281830193508481018201928a841115610c1e57600080fd5b948201945b83861015610c3c57853585529482019493820193610c23565b9a918901359950506040909701359695505050505050565b634e487b7160e01b600052601160045260246000fd5b600060018201610c7c57610c7c610c54565b5060010190565b8082028115828204841417610c9a57610c9a610c54565b92915050565b600082610cbd57634e487b7160e01b600052601260045260246000fd5b500490565b600081610cd157610cd1610c54565b506000190190565b634e487b7160e01b600052603260045260246000fd5b6020808252810182905260006001600160fb1b03831115610d0f57600080fd5b8260051b80856040850137919091016040019392505050565b6020808252825182820181905260009190848201906040850190845b81811015610d6057835183529284019291840191600101610d44565b5090969550505050505056fea26469706673582212209a498eb4e3f10a42ba030bad182c5d41ef6282c7da678ce70bf591a19de21cba64736f6c63430008140033",
  "linkReferences": {},
  "deployedLinkReferences": {}
}